{
  "contractName": "AaveLendingPool",
  "abi": [
    {
      "inputs": [
        {
          "internalType": "contract MockERC20",
          "name": "aDaiAddress",
          "type": "address"
        }
      ],
      "payable": false,
      "stateMutability": "nonpayable",
      "type": "constructor"
    },
    {
      "constant": true,
      "inputs": [],
      "name": "aDai",
      "outputs": [
        {
          "internalType": "contract MockERC20",
          "name": "",
          "type": "address"
        }
      ],
      "payable": false,
      "stateMutability": "view",
      "type": "function"
    },
    {
      "constant": false,
      "inputs": [
        {
          "internalType": "address",
          "name": "_reserve",
          "type": "address"
        },
        {
          "internalType": "uint256",
          "name": "_amount",
          "type": "uint256"
        },
        {
          "internalType": "uint16",
          "name": "_referralCode",
          "type": "uint16"
        }
      ],
      "name": "deposit",
      "outputs": [],
      "payable": false,
      "stateMutability": "nonpayable",
      "type": "function"
    }
  ],
  "bytecode": "0x608060405234801561001057600080fd5b5060405161013b38038061013b8339818101604052602081101561003357600080fd5b5051600080546001600160a01b039092166001600160a01b031990921691909117905560d7806100646000396000f3fe6080604052348015600f57600080fd5b506004361060325760003560e01c8063a34e8fa0146037578063d2d0e066146059575b600080fd5b603d608e565b604080516001600160a01b039092168252519081900360200190f35b608c60048036036060811015606d57600080fd5b5080356001600160a01b0316906020810135906040013561ffff16609d565b005b6000546001600160a01b031681565b50505056fea265627a7a7231582014ddf0a615dfde93e44b48183bc834955d96934481150840bd8da771f3b2acd864736f6c63430005100032",
  "source": "pragma solidity ^0.5.0;\n\nimport \"../interfaces/IAaveLendingPool.sol\";\nimport \"./MockERC20.sol\";\nimport \"@openzeppelin/contracts-ethereum-package/contracts/token/ERC20/ERC20.sol\";\n\ncontract AaveLendingPool is IAaveLendingPool {\n    MockERC20 public aDai;\n    constructor(MockERC20 aDaiAddress) public {\n        aDai = aDaiAddress;\n    }\n    function deposit(address _reserve, uint256 _amount, uint16 _referralCode)\n        public\n    {\n        // For now, do nothing\n    }\n}\n",
  "sourcePath": "/home/jasoons/Documents/temp/dao-contracts/contracts/mocks/AaveLendingPool.sol",
  "compiler": {
    "name": "solc",
    "version": "0.5.16+commit.9c3226ce.Emscripten.clang"
  },
  "schemaVersion": "3.0.23",
  "updatedAt": "2020-02-29T16:52:30.562Z",
  "devdoc": {
    "methods": {}
  },
  "userdoc": {
    "methods": {}
  }
}