{
  "contractName": "AaveLendingPool",
  "abi": [
    {
      "inputs": [
        {
          "internalType": "contract MockERC20",
          "name": "aDaiAddress",
          "type": "address"
        }
      ],
      "payable": false,
      "stateMutability": "nonpayable",
      "type": "constructor"
    },
    {
      "constant": true,
      "inputs": [],
      "name": "aDai",
      "outputs": [
        {
          "internalType": "contract MockERC20",
          "name": "",
          "type": "address"
        }
      ],
      "payable": false,
      "stateMutability": "view",
      "type": "function"
    },
    {
      "constant": false,
      "inputs": [
        {
          "internalType": "address",
          "name": "_reserve",
          "type": "address"
        },
        {
          "internalType": "uint256",
          "name": "_amount",
          "type": "uint256"
        },
        {
          "internalType": "uint16",
          "name": "_referralCode",
          "type": "uint16"
        }
      ],
      "name": "deposit",
      "outputs": [],
      "payable": false,
      "stateMutability": "nonpayable",
      "type": "function"
    }
  ],
  "bytecode": "0x608060405234801561001057600080fd5b5060405161017f38038061017f8339818101604052602081101561003357600080fd5b505160008054600160a060020a03909216600160a060020a031990921691909117905561011a806100656000396000f3fe6080604052348015600f57600080fd5b5060043610604e577c01000000000000000000000000000000000000000000000000000000006000350463a34e8fa081146053578063d2d0e066146082575b600080fd5b605960c4565b6040805173ffffffffffffffffffffffffffffffffffffffff9092168252519081900360200190f35b60c260048036036060811015609657600080fd5b50803573ffffffffffffffffffffffffffffffffffffffff16906020810135906040013561ffff1660e0565b005b60005473ffffffffffffffffffffffffffffffffffffffff1681565b50505056fea265627a7a72315820c2a77aece7228c1117e55f2bd93e8b1f398949f54fc9ecc6ba1ca9b45f072a9664736f6c63430005100032",
  "source": "pragma solidity ^0.5.0;\n\nimport \"../interfaces/IAaveLendingPool.sol\";\nimport \"./MockERC20.sol\";\nimport \"@openzeppelin/contracts-ethereum-package/contracts/token/ERC20/ERC20.sol\";\n\ncontract AaveLendingPool is IAaveLendingPool {\n    MockERC20 public aDai;\n    constructor(MockERC20 aDaiAddress) public {\n        aDai = aDaiAddress;\n    }\n    function deposit(address _reserve, uint256 _amount, uint16 _referralCode)\n        public\n    {\n        // For now, do nothing\n    }\n}\n",
  "sourcePath": "/Users/johanthan/Code/hackathons/app/contracts/contracts/mocks/AaveLendingPool.sol",
  "compiler": {
    "name": "solc",
    "version": "0.5.16+commit.9c3226ce.Emscripten.clang"
  },
  "schemaVersion": "3.0.6",
  "updatedAt": "2020-02-29T22:10:21.288Z",
  "devdoc": {
    "methods": {}
  },
  "userdoc": {
    "methods": {}
  }
}