{
  "contractName": "ADai",
  "abi": [
    {
      "inputs": [
        {
          "internalType": "contract MockERC20",
          "name": "daiAddress",
          "type": "address"
        }
      ],
      "payable": false,
      "stateMutability": "nonpayable",
      "type": "constructor"
    },
    {
      "anonymous": false,
      "inputs": [
        {
          "indexed": true,
          "internalType": "address",
          "name": "owner",
          "type": "address"
        },
        {
          "indexed": true,
          "internalType": "address",
          "name": "spender",
          "type": "address"
        },
        {
          "indexed": false,
          "internalType": "uint256",
          "name": "value",
          "type": "uint256"
        }
      ],
      "name": "Approval",
      "type": "event"
    },
    {
      "anonymous": false,
      "inputs": [
        {
          "indexed": true,
          "internalType": "address",
          "name": "account",
          "type": "address"
        }
      ],
      "name": "MinterAdded",
      "type": "event"
    },
    {
      "anonymous": false,
      "inputs": [
        {
          "indexed": true,
          "internalType": "address",
          "name": "account",
          "type": "address"
        }
      ],
      "name": "MinterRemoved",
      "type": "event"
    },
    {
      "anonymous": false,
      "inputs": [
        {
          "indexed": true,
          "internalType": "address",
          "name": "from",
          "type": "address"
        },
        {
          "indexed": true,
          "internalType": "address",
          "name": "to",
          "type": "address"
        },
        {
          "indexed": false,
          "internalType": "uint256",
          "name": "value",
          "type": "uint256"
        }
      ],
      "name": "Transfer",
      "type": "event"
    },
    {
      "constant": false,
      "inputs": [
        {
          "internalType": "address",
          "name": "account",
          "type": "address"
        }
      ],
      "name": "addMinter",
      "outputs": [],
      "payable": false,
      "stateMutability": "nonpayable",
      "type": "function"
    },
    {
      "constant": true,
      "inputs": [
        {
          "internalType": "address",
          "name": "owner",
          "type": "address"
        },
        {
          "internalType": "address",
          "name": "spender",
          "type": "address"
        }
      ],
      "name": "allowance",
      "outputs": [
        {
          "internalType": "uint256",
          "name": "",
          "type": "uint256"
        }
      ],
      "payable": false,
      "stateMutability": "view",
      "type": "function"
    },
    {
      "constant": false,
      "inputs": [
        {
          "internalType": "address",
          "name": "spender",
          "type": "address"
        },
        {
          "internalType": "uint256",
          "name": "value",
          "type": "uint256"
        }
      ],
      "name": "approve",
      "outputs": [
        {
          "internalType": "bool",
          "name": "",
          "type": "bool"
        }
      ],
      "payable": false,
      "stateMutability": "nonpayable",
      "type": "function"
    },
    {
      "constant": true,
      "inputs": [
        {
          "internalType": "address",
          "name": "account",
          "type": "address"
        }
      ],
      "name": "balanceOf",
      "outputs": [
        {
          "internalType": "uint256",
          "name": "",
          "type": "uint256"
        }
      ],
      "payable": false,
      "stateMutability": "view",
      "type": "function"
    },
    {
      "constant": false,
      "inputs": [
        {
          "internalType": "uint256",
          "name": "amount",
          "type": "uint256"
        }
      ],
      "name": "burn",
      "outputs": [],
      "payable": false,
      "stateMutability": "nonpayable",
      "type": "function"
    },
    {
      "constant": false,
      "inputs": [
        {
          "internalType": "address",
          "name": "account",
          "type": "address"
        },
        {
          "internalType": "uint256",
          "name": "amount",
          "type": "uint256"
        }
      ],
      "name": "burnFrom",
      "outputs": [],
      "payable": false,
      "stateMutability": "nonpayable",
      "type": "function"
    },
    {
      "constant": true,
      "inputs": [],
      "name": "dai",
      "outputs": [
        {
          "internalType": "contract MockERC20",
          "name": "",
          "type": "address"
        }
      ],
      "payable": false,
      "stateMutability": "view",
      "type": "function"
    },
    {
      "constant": true,
      "inputs": [],
      "name": "decimals",
      "outputs": [
        {
          "internalType": "uint8",
          "name": "",
          "type": "uint8"
        }
      ],
      "payable": false,
      "stateMutability": "view",
      "type": "function"
    },
    {
      "constant": false,
      "inputs": [
        {
          "internalType": "address",
          "name": "spender",
          "type": "address"
        },
        {
          "internalType": "uint256",
          "name": "subtractedValue",
          "type": "uint256"
        }
      ],
      "name": "decreaseAllowance",
      "outputs": [
        {
          "internalType": "bool",
          "name": "",
          "type": "bool"
        }
      ],
      "payable": false,
      "stateMutability": "nonpayable",
      "type": "function"
    },
    {
      "constant": false,
      "inputs": [
        {
          "internalType": "address",
          "name": "spender",
          "type": "address"
        },
        {
          "internalType": "uint256",
          "name": "addedValue",
          "type": "uint256"
        }
      ],
      "name": "increaseAllowance",
      "outputs": [
        {
          "internalType": "bool",
          "name": "",
          "type": "bool"
        }
      ],
      "payable": false,
      "stateMutability": "nonpayable",
      "type": "function"
    },
    {
      "constant": false,
      "inputs": [
        {
          "internalType": "string",
          "name": "name",
          "type": "string"
        },
        {
          "internalType": "string",
          "name": "symbol",
          "type": "string"
        },
        {
          "internalType": "uint8",
          "name": "decimals",
          "type": "uint8"
        }
      ],
      "name": "initialize",
      "outputs": [],
      "payable": false,
      "stateMutability": "nonpayable",
      "type": "function"
    },
    {
      "constant": false,
      "inputs": [
        {
          "internalType": "address",
          "name": "sender",
          "type": "address"
        }
      ],
      "name": "initialize",
      "outputs": [],
      "payable": false,
      "stateMutability": "nonpayable",
      "type": "function"
    },
    {
      "constant": true,
      "inputs": [
        {
          "internalType": "address",
          "name": "account",
          "type": "address"
        }
      ],
      "name": "isMinter",
      "outputs": [
        {
          "internalType": "bool",
          "name": "",
          "type": "bool"
        }
      ],
      "payable": false,
      "stateMutability": "view",
      "type": "function"
    },
    {
      "constant": false,
      "inputs": [
        {
          "internalType": "address",
          "name": "account",
          "type": "address"
        },
        {
          "internalType": "uint256",
          "name": "amount",
          "type": "uint256"
        }
      ],
      "name": "mint",
      "outputs": [
        {
          "internalType": "bool",
          "name": "",
          "type": "bool"
        }
      ],
      "payable": false,
      "stateMutability": "nonpayable",
      "type": "function"
    },
    {
      "constant": true,
      "inputs": [],
      "name": "name",
      "outputs": [
        {
          "internalType": "string",
          "name": "",
          "type": "string"
        }
      ],
      "payable": false,
      "stateMutability": "view",
      "type": "function"
    },
    {
      "constant": false,
      "inputs": [],
      "name": "renounceMinter",
      "outputs": [],
      "payable": false,
      "stateMutability": "nonpayable",
      "type": "function"
    },
    {
      "constant": true,
      "inputs": [],
      "name": "steward",
      "outputs": [
        {
          "internalType": "address",
          "name": "",
          "type": "address"
        }
      ],
      "payable": false,
      "stateMutability": "view",
      "type": "function"
    },
    {
      "constant": true,
      "inputs": [],
      "name": "symbol",
      "outputs": [
        {
          "internalType": "string",
          "name": "",
          "type": "string"
        }
      ],
      "payable": false,
      "stateMutability": "view",
      "type": "function"
    },
    {
      "constant": true,
      "inputs": [],
      "name": "totalSupply",
      "outputs": [
        {
          "internalType": "uint256",
          "name": "",
          "type": "uint256"
        }
      ],
      "payable": false,
      "stateMutability": "view",
      "type": "function"
    },
    {
      "constant": false,
      "inputs": [
        {
          "internalType": "address",
          "name": "to",
          "type": "address"
        },
        {
          "internalType": "uint256",
          "name": "value",
          "type": "uint256"
        }
      ],
      "name": "transfer",
      "outputs": [
        {
          "internalType": "bool",
          "name": "",
          "type": "bool"
        }
      ],
      "payable": false,
      "stateMutability": "nonpayable",
      "type": "function"
    },
    {
      "constant": false,
      "inputs": [
        {
          "internalType": "address",
          "name": "from",
          "type": "address"
        },
        {
          "internalType": "address",
          "name": "to",
          "type": "address"
        },
        {
          "internalType": "uint256",
          "name": "value",
          "type": "uint256"
        }
      ],
      "name": "transferFrom",
      "outputs": [
        {
          "internalType": "bool",
          "name": "",
          "type": "bool"
        }
      ],
      "payable": false,
      "stateMutability": "nonpayable",
      "type": "function"
    },
    {
      "constant": false,
      "inputs": [
        {
          "internalType": "uint256",
          "name": "_amount",
          "type": "uint256"
        }
      ],
      "name": "redeem",
      "outputs": [],
      "payable": false,
      "stateMutability": "nonpayable",
      "type": "function"
    },
    {
      "constant": false,
      "inputs": [
        {
          "internalType": "address",
          "name": "_to",
          "type": "address"
        }
      ],
      "name": "redirectInterestStream",
      "outputs": [],
      "payable": false,
      "stateMutability": "nonpayable",
      "type": "function"
    }
  ],
  "bytecode": "0x60806040523480156200001157600080fd5b5060405162001c3738038062001c37833981810160405260208110156200003757600080fd5b5051604080518082018252600481527f61446169000000000000000000000000000000000000000000000000000000006020828101919091528251808401909352600283527f41440000000000000000000000000000000000000000000000000000000000009083015290601233620000c0848484640100000000620006c36200010682021704565b620000d98164010000000062000a666200021382021704565b50506101358054600160a060020a031916600160a060020a03949094169390931790925550620006269050565b600054610100900460ff16806200012b57506200012b640100000000620002fa810204565b806200013a575060005460ff16155b62000191576040517f08c379a000000000000000000000000000000000000000000000000000000000815260040180806020018281038252602e81526020018062001c09602e913960400191505060405180910390fd5b600054610100900460ff16158015620001bd576000805460ff1961ff0019909116610100171660011790555b8351620001d29060ff90602087019062000584565b508251620001e99061010090602086019062000584565b50610101805460ff191660ff841617905580156200020d576000805461ff00191690555b50505050565b600054610100900460ff168062000238575062000238640100000000620002fa810204565b8062000247575060005460ff16155b6200029e576040517f08c379a000000000000000000000000000000000000000000000000000000000815260040180806020018281038252602e81526020018062001c09602e913960400191505060405180910390fd5b600054610100900460ff16158015620002ca576000805460ff1961ff0019909116610100171660011790555b620002e382640100000000620012006200030182021704565b8015620002f6576000805461ff00191690555b5050565b303b155b90565b600054610100900460ff168062000326575062000326640100000000620002fa810204565b8062000335575060005460ff16155b6200038c576040517f08c379a000000000000000000000000000000000000000000000000000000000815260040180806020018281038252602e81526020018062001c09602e913960400191505060405180910390fd5b600054610100900460ff16158015620003b8576000805460ff1961ff0019909116610100171660011790555b620003cc82640100000000620003e5810204565b620002e357620002e38264010000000062000408810204565b600062000402606883640100000000620011966200045a82021704565b92915050565b62000423606882640100000000620012a6620004dd82021704565b604051600160a060020a038216907f6ae172837ea30b801fbfcdd4108aa1d5bf8ff775444fd70256b44e6bf3dfc3f690600090a250565b6000600160a060020a038216620004bd576040517f08c379a000000000000000000000000000000000000000000000000000000000815260040180806020018281038252602281526020018062001be76022913960400191505060405180910390fd5b50600160a060020a03166000908152602091909152604090205460ff1690565b620004f282826401000000006200045a810204565b156200055f57604080517f08c379a000000000000000000000000000000000000000000000000000000000815260206004820152601f60248201527f526f6c65733a206163636f756e7420616c72656164792068617320726f6c6500604482015290519081900360640190fd5b600160a060020a0316600090815260209190915260409020805460ff19166001179055565b828054600181600116156101000203166002900490600052602060002090601f016020900481019282601f10620005c757805160ff1916838001178555620005f7565b82800160010185558215620005f7579182015b82811115620005f7578251825591602001919060010190620005da565b506200060592915062000609565b5090565b620002fe91905b8082111562000605576000815560010162000610565b6115b180620006366000396000f3fe608060405234801561001057600080fd5b506004361061016a576000357c01000000000000000000000000000000000000000000000000000000009004806370a08231116100e0578063a9059cbb11610099578063a9059cbb14610541578063aa271e1a1461056d578063c4d66de814610593578063db006a75146105b9578063dd62ed3e146105d6578063f4b9fa75146106045761016a565b806370a082311461048d57806379cc6790146104b357806395d89b41146104df578063983b2d56146104e7578063986502751461050d578063a457c2d7146105155761016a565b806323b872dd1161013257806323b872dd146103a0578063313ce567146103d657806339509351146103f457806340c10f191461042057806342966c681461044c578063637eea19146104695761016a565b806306fdde031461016f578063095ea7b3146101ec5780630e49072d1461022c5780631624f6c61461025457806318160ddd14610386575b600080fd5b61017761060c565b6040805160208082528351818301528351919283929083019185019080838360005b838110156101b1578181015183820152602001610199565b50505050905090810190601f1680156101de5780820380516001836020036101000a031916815260200191505b509250505060405180910390f35b6102186004803603604081101561020257600080fd5b50600160a060020a0381351690602001356106a3565b604080519115158252519081900360200190f35b6102526004803603602081101561024257600080fd5b5035600160a060020a03166106c0565b005b6102526004803603606081101561026a57600080fd5b81019060208101813564010000000081111561028557600080fd5b82018360208201111561029757600080fd5b803590602001918460018302840111640100000000831117156102b957600080fd5b91908080601f016020809104026020016040519081016040528093929190818152602001838380828437600092019190915250929594936020810193503591505064010000000081111561030c57600080fd5b82018360208201111561031e57600080fd5b8035906020019184600183028401116401000000008311171561034057600080fd5b91908080601f0160208091040260200160405190810160405280939291908181526020018383808284376000920191909152509295505050903560ff1691506106c39050565b61038e6107a4565b60408051918252519081900360200190f35b610218600480360360608110156103b657600080fd5b50600160a060020a038135811691602081013590911690604001356107aa565b6103de61081f565b6040805160ff9092168252519081900360200190f35b6102186004803603604081101561040a57600080fd5b50600160a060020a038135169060200135610829565b6102186004803603604081101561043657600080fd5b50600160a060020a03813516906020013561087d565b6102526004803603602081101561046257600080fd5b50356108d7565b6104716108e8565b60408051600160a060020a039092168252519081900360200190f35b61038e600480360360208110156104a357600080fd5b5035600160a060020a03166108f8565b610252600480360360408110156104c957600080fd5b50600160a060020a038135169060200135610913565b610177610921565b610252600480360360208110156104fd57600080fd5b5035600160a060020a0316610981565b6102526109d3565b6102186004803603604081101561052b57600080fd5b50600160a060020a0381351690602001356109e5565b6102186004803603604081101561055757600080fd5b50600160a060020a038135169060200135610a39565b6102186004803603602081101561058357600080fd5b5035600160a060020a0316610a4d565b610252600480360360208110156105a957600080fd5b5035600160a060020a0316610a66565b610252600480360360208110156105cf57600080fd5b5035610b14565b61038e600480360360408110156105ec57600080fd5b50600160a060020a0381358116916020013516610bb1565b610471610bdc565b60ff8054604080516020601f60026000196101006001881615020190951694909404938401819004810282018101909252828152606093909290918301828280156106985780601f1061066d57610100808354040283529160200191610698565b820191906000526020600020905b81548152906001019060200180831161067b57829003601f168201915b505050505090505b90565b60006106b76106b0610bec565b8484610bf0565b50600192915050565b50565b600054610100900460ff16806106dc57506106dc610ce2565b806106ea575060005460ff16155b6107285760405160e560020a62461bcd02815260040180806020018281038252602e8152602001806114e5602e913960400191505060405180910390fd5b600054610100900460ff16158015610753576000805460ff1961ff0019909116610100171660011790555b83516107669060ff906020870190611394565b50825161077b90610100906020860190611394565b50610101805460ff191660ff8416179055801561079e576000805461ff00191690555b50505050565b60355490565b60006107b7848484610ce8565b610815846107c3610bec565b600160a060020a0387166000908152603460205260408120610810918791906107ea610bec565b600160a060020a031681526020810191909152604001600020549063ffffffff610e3216565b610bf0565b5060019392505050565b6101015460ff1690565b60006106b7610836610bec565b846108108560346000610847610bec565b600160a060020a03908116825260208083019390935260409182016000908120918c16815292529020549063ffffffff610e9216565b600061088f61088a610bec565b610a4d565b6108cd5760405160e560020a62461bcd0281526004018080602001828103825260308152602001806114726030913960400191505060405180910390fd5b6106b78383610ef6565b6106c06108e2610bec565b82610feb565b61013454600160a060020a031681565b600160a060020a031660009081526033602052604090205490565b61091d82826110c9565b5050565b6101008054604080516020601f6002600019600187161588020190951694909404938401819004810282018101909252828152606093909290918301828280156106985780601f1061066d57610100808354040283529160200191610698565b61098c61088a610bec565b6109ca5760405160e560020a62461bcd0281526004018080602001828103825260308152602001806114726030913960400191505060405180910390fd5b6106c081611106565b6109e36109de610bec565b61114e565b565b60006106b76109f2610bec565b846108108560346000610a03610bec565b600160a060020a03908116825260208083019390935260409182016000908120918c16815292529020549063ffffffff610e3216565b60006106b7610a46610bec565b8484610ce8565b6000610a6060688363ffffffff61119616565b92915050565b600054610100900460ff1680610a7f5750610a7f610ce2565b80610a8d575060005460ff16155b610acb5760405160e560020a62461bcd02815260040180806020018281038252602e8152602001806114e5602e913960400191505060405180910390fd5b600054610100900460ff16158015610af6576000805460ff1961ff0019909116610100171660011790555b610aff82611200565b801561091d576000805461ff00191690555050565b61013554604080517f40c10f19000000000000000000000000000000000000000000000000000000008152336004820152602481018490529051600160a060020a03909216916340c10f19916044808201926020929091908290030181600087803b158015610b8257600080fd5b505af1158015610b96573d6000803e3d6000fd5b505050506040513d6020811015610bac57600080fd5b505050565b600160a060020a03918216600090815260346020908152604080832093909416825291909152205490565b61013554600160a060020a031681565b3390565b600160a060020a038316610c385760405160e560020a62461bcd0281526004018080602001828103825260248152602001806115596024913960400191505060405180910390fd5b600160a060020a038216610c805760405160e560020a62461bcd0281526004018080602001828103825260228152602001806114506022913960400191505060405180910390fd5b600160a060020a03808416600081815260346020908152604080832094871680845294825291829020859055815185815291517f8c5be1e5ebec7d5bd14f71427d1e84f3dd0314c0f7b2291e5b200ac8c7c3b9259281900390910190a3505050565b303b1590565b600160a060020a038316610d305760405160e560020a62461bcd0281526004018080602001828103825260258152602001806115346025913960400191505060405180910390fd5b600160a060020a038216610d785760405160e560020a62461bcd02815260040180806020018281038252602381526020018061142d6023913960400191505060405180910390fd5b600160a060020a038316600090815260336020526040902054610da1908263ffffffff610e3216565b600160a060020a038085166000908152603360205260408082209390935590841681522054610dd6908263ffffffff610e9216565b600160a060020a0380841660008181526033602090815260409182902094909455805185815290519193928716927fddf252ad1be2c89b69c2b068fc378daa952ba7f163c4a11628f55a4df523b3ef92918290030190a3505050565b600082821115610e8c576040805160e560020a62461bcd02815260206004820152601e60248201527f536166654d6174683a207375627472616374696f6e206f766572666c6f770000604482015290519081900360640190fd5b50900390565b600082820183811015610eef576040805160e560020a62461bcd02815260206004820152601b60248201527f536166654d6174683a206164646974696f6e206f766572666c6f770000000000604482015290519081900360640190fd5b9392505050565b600160a060020a038216610f54576040805160e560020a62461bcd02815260206004820152601f60248201527f45524332303a206d696e7420746f20746865207a65726f206164647265737300604482015290519081900360640190fd5b603554610f67908263ffffffff610e9216565b603555600160a060020a038216600090815260336020526040902054610f93908263ffffffff610e9216565b600160a060020a03831660008181526033602090815260408083209490945583518581529351929391927fddf252ad1be2c89b69c2b068fc378daa952ba7f163c4a11628f55a4df523b3ef9281900390910190a35050565b600160a060020a0382166110335760405160e560020a62461bcd0281526004018080602001828103825260218152602001806115136021913960400191505060405180910390fd5b603554611046908263ffffffff610e3216565b603555600160a060020a038216600090815260336020526040902054611072908263ffffffff610e3216565b600160a060020a0383166000818152603360209081526040808320949094558351858152935191937fddf252ad1be2c89b69c2b068fc378daa952ba7f163c4a11628f55a4df523b3ef929081900390910190a35050565b6110d38282610feb565b61091d826110df610bec565b600160a060020a0385166000908152603460205260408120610810918691906107ea610bec565b61111760688263ffffffff6112a616565b604051600160a060020a038216907f6ae172837ea30b801fbfcdd4108aa1d5bf8ff775444fd70256b44e6bf3dfc3f690600090a250565b61115f60688263ffffffff61132a16565b604051600160a060020a038216907fe94479a9f7e1952cc78f2d6baab678adc1b772d936c6583def489e524cb6669290600090a250565b6000600160a060020a0382166111e05760405160e560020a62461bcd0281526004018080602001828103825260228152602001806114c36022913960400191505060405180910390fd5b50600160a060020a03166000908152602091909152604090205460ff1690565b600054610100900460ff16806112195750611219610ce2565b80611227575060005460ff16155b6112655760405160e560020a62461bcd02815260040180806020018281038252602e8152602001806114e5602e913960400191505060405180910390fd5b600054610100900460ff16158015611290576000805460ff1961ff0019909116610100171660011790555b61129982610a4d565b610aff57610aff82611106565b6112b08282611196565b15611305576040805160e560020a62461bcd02815260206004820152601f60248201527f526f6c65733a206163636f756e7420616c72656164792068617320726f6c6500604482015290519081900360640190fd5b600160a060020a0316600090815260209190915260409020805460ff19166001179055565b6113348282611196565b6113725760405160e560020a62461bcd0281526004018080602001828103825260218152602001806114a26021913960400191505060405180910390fd5b600160a060020a0316600090815260209190915260409020805460ff19169055565b828054600181600116156101000203166002900490600052602060002090601f016020900481019282601f106113d557805160ff1916838001178555611402565b82800160010185558215611402579182015b828111156114025782518255916020019190600101906113e7565b5061140e929150611412565b5090565b6106a091905b8082111561140e576000815560010161141856fe45524332303a207472616e7366657220746f20746865207a65726f206164647265737345524332303a20617070726f766520746f20746865207a65726f20616464726573734d696e746572526f6c653a2063616c6c657220646f6573206e6f74206861766520746865204d696e74657220726f6c65526f6c65733a206163636f756e7420646f6573206e6f74206861766520726f6c65526f6c65733a206163636f756e7420697320746865207a65726f2061646472657373436f6e747261637420696e7374616e63652068617320616c7265616479206265656e20696e697469616c697a656445524332303a206275726e2066726f6d20746865207a65726f206164647265737345524332303a207472616e736665722066726f6d20746865207a65726f206164647265737345524332303a20617070726f76652066726f6d20746865207a65726f2061646472657373a265627a7a72315820ca2d38d1189051277c7f5dc11a79c9549ca382758bbf90cb8e7d8582b21dbe9064736f6c63430005100032526f6c65733a206163636f756e7420697320746865207a65726f2061646472657373436f6e747261637420696e7374616e63652068617320616c7265616479206265656e20696e697469616c697a6564",
  "source": "pragma solidity ^0.5.0;\n\nimport '../interfaces/IADai.sol';\nimport './MockERC20.sol';\n// import '@openzeppelin/contracts-ethereum-package/contracts/token/ERC20/ERC20.sol';\n\n// MOCK ONLY\ncontract ADai is IADai, MockERC20 {\n  MockERC20 public dai;\n  constructor(MockERC20 daiAddress)\n    public\n    MockERC20('aDai', 'AD', 18, msg.sender)\n  {\n    dai = daiAddress;\n  }\n  function redeem(uint256 _amount) public {\n    dai.mint(msg.sender, _amount);\n  }\n  function redirectInterestStream(address _to) public {}\n}\n",
  "sourcePath": "/Users/johanthan/Code/hackathons/app/contracts/contracts/mocks/ADai.sol",
  "compiler": {
    "name": "solc",
    "version": "0.5.16+commit.9c3226ce.Emscripten.clang"
  },
  "schemaVersion": "3.0.6",
  "updatedAt": "2020-03-04T23:23:41.542Z",
  "devdoc": {
    "methods": {
      "allowance(address,address)": {
        "details": "See `IERC20.allowance`."
      },
      "approve(address,uint256)": {
        "details": "See `IERC20.approve`.     * Requirements:     * - `spender` cannot be the zero address."
      },
      "balanceOf(address)": {
        "details": "See `IERC20.balanceOf`."
      },
      "burn(uint256)": {
        "details": "Destoys `amount` tokens from the caller.     * See `ERC20._burn`."
      },
      "burnFrom(address,uint256)": {
        "details": "See `ERC20._burnFrom`."
      },
      "decimals()": {
        "details": "Returns the number of decimals used to get its user representation. For example, if `decimals` equals `2`, a balance of `505` tokens should be displayed to a user as `5,05` (`505 / 10 ** 2`).     * Tokens usually opt for a value of 18, imitating the relationship between Ether and Wei.     * > Note that this information is only used for _display_ purposes: it in no way affects any of the arithmetic of the contract, including `IERC20.balanceOf` and `IERC20.transfer`."
      },
      "decreaseAllowance(address,uint256)": {
        "details": "Atomically decreases the allowance granted to `spender` by the caller.     * This is an alternative to `approve` that can be used as a mitigation for problems described in `IERC20.approve`.     * Emits an `Approval` event indicating the updated allowance.     * Requirements:     * - `spender` cannot be the zero address. - `spender` must have allowance for the caller of at least `subtractedValue`."
      },
      "increaseAllowance(address,uint256)": {
        "details": "Atomically increases the allowance granted to `spender` by the caller.     * This is an alternative to `approve` that can be used as a mitigation for problems described in `IERC20.approve`.     * Emits an `Approval` event indicating the updated allowance.     * Requirements:     * - `spender` cannot be the zero address."
      },
      "initialize(string,string,uint8)": {
        "details": "Sets the values for `name`, `symbol`, and `decimals`. All three of these values are immutable: they can only be set once during construction."
      },
      "mint(address,uint256)": {
        "details": "See `ERC20._mint`.     * Requirements:     * - the caller must have the `MinterRole`."
      },
      "name()": {
        "details": "Returns the name of the token."
      },
      "symbol()": {
        "details": "Returns the symbol of the token, usually a shorter version of the name."
      },
      "totalSupply()": {
        "details": "See `IERC20.totalSupply`."
      },
      "transfer(address,uint256)": {
        "details": "See `IERC20.transfer`.     * Requirements:     * - `recipient` cannot be the zero address. - the caller must have a balance of at least `amount`."
      },
      "transferFrom(address,address,uint256)": {
        "details": "See `IERC20.transferFrom`.     * Emits an `Approval` event indicating the updated allowance. This is not required by the EIP. See the note at the beginning of `ERC20`;     * Requirements: - `sender` and `recipient` cannot be the zero address. - `sender` must have a balance of at least `value`. - the caller must have allowance for `sender`'s tokens of at least `amount`."
      }
    }
  },
  "userdoc": {
    "methods": {}
  }
}