{
  "contractName": "MinterRole",
  "abi": [
    {
      "anonymous": false,
      "inputs": [
        {
          "indexed": true,
          "internalType": "address",
          "name": "account",
          "type": "address"
        }
      ],
      "name": "MinterAdded",
      "type": "event"
    },
    {
      "anonymous": false,
      "inputs": [
        {
          "indexed": true,
          "internalType": "address",
          "name": "account",
          "type": "address"
        }
      ],
      "name": "MinterRemoved",
      "type": "event"
    },
    {
      "constant": false,
      "inputs": [
        {
          "internalType": "address",
          "name": "sender",
          "type": "address"
        }
      ],
      "name": "initialize",
      "outputs": [],
      "payable": false,
      "stateMutability": "nonpayable",
      "type": "function"
    },
    {
      "constant": true,
      "inputs": [
        {
          "internalType": "address",
          "name": "account",
          "type": "address"
        }
      ],
      "name": "isMinter",
      "outputs": [
        {
          "internalType": "bool",
          "name": "",
          "type": "bool"
        }
      ],
      "payable": false,
      "stateMutability": "view",
      "type": "function"
    },
    {
      "constant": false,
      "inputs": [
        {
          "internalType": "address",
          "name": "account",
          "type": "address"
        }
      ],
      "name": "addMinter",
      "outputs": [],
      "payable": false,
      "stateMutability": "nonpayable",
      "type": "function"
    },
    {
      "constant": false,
      "inputs": [],
      "name": "renounceMinter",
      "outputs": [],
      "payable": false,
      "stateMutability": "nonpayable",
      "type": "function"
    }
  ],
  "bytecode": "0x60806040526104db806100136000396000f3fe608060405234801561001057600080fd5b506004361061004c5760003560e01c8063983b2d56146100515780639865027514610079578063aa271e1a14610081578063c4d66de8146100bb575b600080fd5b6100776004803603602081101561006757600080fd5b50356001600160a01b03166100e1565b005b610077610138565b6100a76004803603602081101561009757600080fd5b50356001600160a01b031661014a565b604080519115158252519081900360200190f35b610077600480360360208110156100d157600080fd5b50356001600160a01b0316610163565b6100f16100ec61021c565b61014a565b61012c5760405162461bcd60e51b81526004018080602001828103825260308152602001806104066030913960400191505060405180910390fd5b61013581610220565b50565b61014861014361021c565b610268565b565b600061015d60338363ffffffff6102b016565b92915050565b600054610100900460ff168061017c575061017c610317565b8061018a575060005460ff16155b6101c55760405162461bcd60e51b815260040180806020018281038252602e815260200180610479602e913960400191505060405180910390fd5b600054610100900460ff161580156101f0576000805460ff1961ff0019909116610100171660011790555b6101f98261014a565b6102065761020682610220565b8015610218576000805461ff00191690555b5050565b3390565b61023160338263ffffffff61031d16565b6040516001600160a01b038216907f6ae172837ea30b801fbfcdd4108aa1d5bf8ff775444fd70256b44e6bf3dfc3f690600090a250565b61027960338263ffffffff61039e16565b6040516001600160a01b038216907fe94479a9f7e1952cc78f2d6baab678adc1b772d936c6583def489e524cb6669290600090a250565b60006001600160a01b0382166102f75760405162461bcd60e51b81526004018080602001828103825260228152602001806104576022913960400191505060405180910390fd5b506001600160a01b03166000908152602091909152604090205460ff1690565b303b1590565b61032782826102b0565b15610379576040805162461bcd60e51b815260206004820152601f60248201527f526f6c65733a206163636f756e7420616c72656164792068617320726f6c6500604482015290519081900360640190fd5b6001600160a01b0316600090815260209190915260409020805460ff19166001179055565b6103a882826102b0565b6103e35760405162461bcd60e51b81526004018080602001828103825260218152602001806104366021913960400191505060405180910390fd5b6001600160a01b0316600090815260209190915260409020805460ff1916905556fe4d696e746572526f6c653a2063616c6c657220646f6573206e6f74206861766520746865204d696e74657220726f6c65526f6c65733a206163636f756e7420646f6573206e6f74206861766520726f6c65526f6c65733a206163636f756e7420697320746865207a65726f2061646472657373436f6e747261637420696e7374616e63652068617320616c7265616479206265656e20696e697469616c697a6564a265627a7a72315820d74201ad430751e2a55f8449d2d376d65dcd255e7855aa6587d9fa533e75994c64736f6c63430005100032",
  "source": "pragma solidity ^0.5.0;\n\nimport \"@openzeppelin/upgrades/contracts/Initializable.sol\";\n\nimport \"../../GSN/Context.sol\";\nimport \"../Roles.sol\";\n\ncontract MinterRole is Initializable, Context {\n    using Roles for Roles.Role;\n\n    event MinterAdded(address indexed account);\n    event MinterRemoved(address indexed account);\n\n    Roles.Role private _minters;\n\n    function initialize(address sender) public initializer {\n        if (!isMinter(sender)) {\n            _addMinter(sender);\n        }\n    }\n\n    modifier onlyMinter() {\n        require(isMinter(_msgSender()), \"MinterRole: caller does not have the Minter role\");\n        _;\n    }\n\n    function isMinter(address account) public view returns (bool) {\n        return _minters.has(account);\n    }\n\n    function addMinter(address account) public onlyMinter {\n        _addMinter(account);\n    }\n\n    function renounceMinter() public {\n        _removeMinter(_msgSender());\n    }\n\n    function _addMinter(address account) internal {\n        _minters.add(account);\n        emit MinterAdded(account);\n    }\n\n    function _removeMinter(address account) internal {\n        _minters.remove(account);\n        emit MinterRemoved(account);\n    }\n\n    uint256[50] private ______gap;\n}\n",
  "sourcePath": "@openzeppelin/contracts-ethereum-package/contracts/access/roles/MinterRole.sol",
  "compiler": {
    "name": "solc",
    "version": "0.5.16+commit.9c3226ce.Emscripten.clang"
  },
  "schemaVersion": "3.0.23",
  "updatedAt": "2020-02-29T16:52:30.567Z",
  "devdoc": {
    "methods": {}
  },
  "userdoc": {
    "methods": {}
  }
}