{
  "contractName": "MockERC20",
  "abi": [
    {
      "inputs": [
        {
          "internalType": "string",
          "name": "name",
          "type": "string"
        },
        {
          "internalType": "string",
          "name": "symbol",
          "type": "string"
        },
        {
          "internalType": "uint8",
          "name": "decimals",
          "type": "uint8"
        },
        {
          "internalType": "address",
          "name": "minter",
          "type": "address"
        }
      ],
      "payable": false,
      "stateMutability": "nonpayable",
      "type": "constructor"
    },
    {
      "anonymous": false,
      "inputs": [
        {
          "indexed": true,
          "internalType": "address",
          "name": "owner",
          "type": "address"
        },
        {
          "indexed": true,
          "internalType": "address",
          "name": "spender",
          "type": "address"
        },
        {
          "indexed": false,
          "internalType": "uint256",
          "name": "value",
          "type": "uint256"
        }
      ],
      "name": "Approval",
      "type": "event"
    },
    {
      "anonymous": false,
      "inputs": [
        {
          "indexed": true,
          "internalType": "address",
          "name": "account",
          "type": "address"
        }
      ],
      "name": "MinterAdded",
      "type": "event"
    },
    {
      "anonymous": false,
      "inputs": [
        {
          "indexed": true,
          "internalType": "address",
          "name": "account",
          "type": "address"
        }
      ],
      "name": "MinterRemoved",
      "type": "event"
    },
    {
      "anonymous": false,
      "inputs": [
        {
          "indexed": true,
          "internalType": "address",
          "name": "from",
          "type": "address"
        },
        {
          "indexed": true,
          "internalType": "address",
          "name": "to",
          "type": "address"
        },
        {
          "indexed": false,
          "internalType": "uint256",
          "name": "value",
          "type": "uint256"
        }
      ],
      "name": "Transfer",
      "type": "event"
    },
    {
      "constant": false,
      "inputs": [
        {
          "internalType": "address",
          "name": "account",
          "type": "address"
        }
      ],
      "name": "addMinter",
      "outputs": [],
      "payable": false,
      "stateMutability": "nonpayable",
      "type": "function"
    },
    {
      "constant": true,
      "inputs": [
        {
          "internalType": "address",
          "name": "owner",
          "type": "address"
        },
        {
          "internalType": "address",
          "name": "spender",
          "type": "address"
        }
      ],
      "name": "allowance",
      "outputs": [
        {
          "internalType": "uint256",
          "name": "",
          "type": "uint256"
        }
      ],
      "payable": false,
      "stateMutability": "view",
      "type": "function"
    },
    {
      "constant": false,
      "inputs": [
        {
          "internalType": "address",
          "name": "spender",
          "type": "address"
        },
        {
          "internalType": "uint256",
          "name": "value",
          "type": "uint256"
        }
      ],
      "name": "approve",
      "outputs": [
        {
          "internalType": "bool",
          "name": "",
          "type": "bool"
        }
      ],
      "payable": false,
      "stateMutability": "nonpayable",
      "type": "function"
    },
    {
      "constant": true,
      "inputs": [
        {
          "internalType": "address",
          "name": "account",
          "type": "address"
        }
      ],
      "name": "balanceOf",
      "outputs": [
        {
          "internalType": "uint256",
          "name": "",
          "type": "uint256"
        }
      ],
      "payable": false,
      "stateMutability": "view",
      "type": "function"
    },
    {
      "constant": false,
      "inputs": [
        {
          "internalType": "uint256",
          "name": "amount",
          "type": "uint256"
        }
      ],
      "name": "burn",
      "outputs": [],
      "payable": false,
      "stateMutability": "nonpayable",
      "type": "function"
    },
    {
      "constant": false,
      "inputs": [
        {
          "internalType": "address",
          "name": "account",
          "type": "address"
        },
        {
          "internalType": "uint256",
          "name": "amount",
          "type": "uint256"
        }
      ],
      "name": "burnFrom",
      "outputs": [],
      "payable": false,
      "stateMutability": "nonpayable",
      "type": "function"
    },
    {
      "constant": true,
      "inputs": [],
      "name": "decimals",
      "outputs": [
        {
          "internalType": "uint8",
          "name": "",
          "type": "uint8"
        }
      ],
      "payable": false,
      "stateMutability": "view",
      "type": "function"
    },
    {
      "constant": false,
      "inputs": [
        {
          "internalType": "address",
          "name": "spender",
          "type": "address"
        },
        {
          "internalType": "uint256",
          "name": "subtractedValue",
          "type": "uint256"
        }
      ],
      "name": "decreaseAllowance",
      "outputs": [
        {
          "internalType": "bool",
          "name": "",
          "type": "bool"
        }
      ],
      "payable": false,
      "stateMutability": "nonpayable",
      "type": "function"
    },
    {
      "constant": false,
      "inputs": [
        {
          "internalType": "address",
          "name": "spender",
          "type": "address"
        },
        {
          "internalType": "uint256",
          "name": "addedValue",
          "type": "uint256"
        }
      ],
      "name": "increaseAllowance",
      "outputs": [
        {
          "internalType": "bool",
          "name": "",
          "type": "bool"
        }
      ],
      "payable": false,
      "stateMutability": "nonpayable",
      "type": "function"
    },
    {
      "constant": false,
      "inputs": [
        {
          "internalType": "string",
          "name": "name",
          "type": "string"
        },
        {
          "internalType": "string",
          "name": "symbol",
          "type": "string"
        },
        {
          "internalType": "uint8",
          "name": "decimals",
          "type": "uint8"
        }
      ],
      "name": "initialize",
      "outputs": [],
      "payable": false,
      "stateMutability": "nonpayable",
      "type": "function"
    },
    {
      "constant": false,
      "inputs": [
        {
          "internalType": "address",
          "name": "sender",
          "type": "address"
        }
      ],
      "name": "initialize",
      "outputs": [],
      "payable": false,
      "stateMutability": "nonpayable",
      "type": "function"
    },
    {
      "constant": true,
      "inputs": [
        {
          "internalType": "address",
          "name": "account",
          "type": "address"
        }
      ],
      "name": "isMinter",
      "outputs": [
        {
          "internalType": "bool",
          "name": "",
          "type": "bool"
        }
      ],
      "payable": false,
      "stateMutability": "view",
      "type": "function"
    },
    {
      "constant": false,
      "inputs": [
        {
          "internalType": "address",
          "name": "account",
          "type": "address"
        },
        {
          "internalType": "uint256",
          "name": "amount",
          "type": "uint256"
        }
      ],
      "name": "mint",
      "outputs": [
        {
          "internalType": "bool",
          "name": "",
          "type": "bool"
        }
      ],
      "payable": false,
      "stateMutability": "nonpayable",
      "type": "function"
    },
    {
      "constant": true,
      "inputs": [],
      "name": "name",
      "outputs": [
        {
          "internalType": "string",
          "name": "",
          "type": "string"
        }
      ],
      "payable": false,
      "stateMutability": "view",
      "type": "function"
    },
    {
      "constant": false,
      "inputs": [],
      "name": "renounceMinter",
      "outputs": [],
      "payable": false,
      "stateMutability": "nonpayable",
      "type": "function"
    },
    {
      "constant": true,
      "inputs": [],
      "name": "steward",
      "outputs": [
        {
          "internalType": "address",
          "name": "",
          "type": "address"
        }
      ],
      "payable": false,
      "stateMutability": "view",
      "type": "function"
    },
    {
      "constant": true,
      "inputs": [],
      "name": "symbol",
      "outputs": [
        {
          "internalType": "string",
          "name": "",
          "type": "string"
        }
      ],
      "payable": false,
      "stateMutability": "view",
      "type": "function"
    },
    {
      "constant": true,
      "inputs": [],
      "name": "totalSupply",
      "outputs": [
        {
          "internalType": "uint256",
          "name": "",
          "type": "uint256"
        }
      ],
      "payable": false,
      "stateMutability": "view",
      "type": "function"
    },
    {
      "constant": false,
      "inputs": [
        {
          "internalType": "address",
          "name": "to",
          "type": "address"
        },
        {
          "internalType": "uint256",
          "name": "value",
          "type": "uint256"
        }
      ],
      "name": "transfer",
      "outputs": [
        {
          "internalType": "bool",
          "name": "",
          "type": "bool"
        }
      ],
      "payable": false,
      "stateMutability": "nonpayable",
      "type": "function"
    },
    {
      "constant": false,
      "inputs": [
        {
          "internalType": "address",
          "name": "from",
          "type": "address"
        },
        {
          "internalType": "address",
          "name": "to",
          "type": "address"
        },
        {
          "internalType": "uint256",
          "name": "value",
          "type": "uint256"
        }
      ],
      "name": "transferFrom",
      "outputs": [
        {
          "internalType": "bool",
          "name": "",
          "type": "bool"
        }
      ],
      "payable": false,
      "stateMutability": "nonpayable",
      "type": "function"
    }
  ],
  "bytecode": "0x60806040523480156200001157600080fd5b5060405162001c0138038062001c01833981810160405260808110156200003757600080fd5b81019080805160405193929190846401000000008211156200005857600080fd5b9083019060208201858111156200006e57600080fd5b82516401000000008111828201881017156200008957600080fd5b82525081516020918201929091019080838360005b83811015620000b85781810151838201526020016200009e565b50505050905090810190601f168015620000e65780820380516001836020036101000a031916815260200191505b50604052602001805160405193929190846401000000008211156200010a57600080fd5b9083019060208201858111156200012057600080fd5b82516401000000008111828201881017156200013b57600080fd5b82525081516020918201929091019080838360005b838110156200016a57818101518382015260200162000150565b50505050905090810190601f168015620001985780820380516001836020036101000a031916815260200191505b50604090815260208201519101519092509050620001c684848464010000000062000654620001e982021704565b620001df81640100000000620009fa620002f682021704565b5050505062000709565b600054610100900460ff16806200020e57506200020e640100000000620003dd810204565b806200021d575060005460ff16155b62000274576040517f08c379a000000000000000000000000000000000000000000000000000000000815260040180806020018281038252602e81526020018062001bd3602e913960400191505060405180910390fd5b600054610100900460ff16158015620002a0576000805460ff1961ff0019909116610100171660011790555b8351620002b59060ff90602087019062000667565b508251620002cc9061010090602086019062000667565b50610101805460ff191660ff84161790558015620002f0576000805461ff00191690555b50505050565b600054610100900460ff16806200031b57506200031b640100000000620003dd810204565b806200032a575060005460ff16155b62000381576040517f08c379a000000000000000000000000000000000000000000000000000000000815260040180806020018281038252602e81526020018062001bd3602e913960400191505060405180910390fd5b600054610100900460ff16158015620003ad576000805460ff1961ff0019909116610100171660011790555b620003c682640100000000620010e7620003e482021704565b8015620003d9576000805461ff00191690555b5050565b303b155b90565b600054610100900460ff168062000409575062000409640100000000620003dd810204565b8062000418575060005460ff16155b6200046f576040517f08c379a000000000000000000000000000000000000000000000000000000000815260040180806020018281038252602e81526020018062001bd3602e913960400191505060405180910390fd5b600054610100900460ff161580156200049b576000805460ff1961ff0019909116610100171660011790555b620004af82640100000000620004c8810204565b620003c657620003c682640100000000620004eb810204565b6000620004e56068836401000000006200107d6200053d82021704565b92915050565b620005066068826401000000006200118d620005c082021704565b604051600160a060020a038216907f6ae172837ea30b801fbfcdd4108aa1d5bf8ff775444fd70256b44e6bf3dfc3f690600090a250565b6000600160a060020a038216620005a0576040517f08c379a000000000000000000000000000000000000000000000000000000000815260040180806020018281038252602281526020018062001bb16022913960400191505060405180910390fd5b50600160a060020a03166000908152602091909152604090205460ff1690565b620005d582826401000000006200053d810204565b156200064257604080517f08c379a000000000000000000000000000000000000000000000000000000000815260206004820152601f60248201527f526f6c65733a206163636f756e7420616c72656164792068617320726f6c6500604482015290519081900360640190fd5b600160a060020a0316600090815260209190915260409020805460ff19166001179055565b828054600181600116156101000203166002900490600052602060002090601f016020900481019282601f10620006aa57805160ff1916838001178555620006da565b82800160010185558215620006da579182015b82811115620006da578251825591602001919060010190620006bd565b50620006e8929150620006ec565b5090565b620003e191905b80821115620006e85760008155600101620006f3565b61149880620007196000396000f3fe608060405234801561001057600080fd5b5060043610610149576000357c01000000000000000000000000000000000000000000000000000000009004806370a08231116100ca578063a457c2d71161008e578063a457c2d7146104ce578063a9059cbb146104fa578063aa271e1a14610526578063c4d66de81461054c578063dd62ed3e1461057257610149565b806370a082311461044657806379cc67901461046c57806395d89b4114610498578063983b2d56146104a057806398650275146104c657610149565b8063313ce56711610111578063313ce5671461038f57806339509351146103ad57806340c10f19146103d957806342966c6814610405578063637eea191461042257610149565b806306fdde031461014e578063095ea7b3146101cb5780631624f6c61461020b57806318160ddd1461033f57806323b872dd14610359575b600080fd5b6101566105a0565b6040805160208082528351818301528351919283929083019185019080838360005b83811015610190578181015183820152602001610178565b50505050905090810190601f1680156101bd5780820380516001836020036101000a031916815260200191505b509250505060405180910390f35b6101f7600480360360408110156101e157600080fd5b50600160a060020a038135169060200135610637565b604080519115158252519081900360200190f35b61033d6004803603606081101561022157600080fd5b81019060208101813564010000000081111561023c57600080fd5b82018360208201111561024e57600080fd5b8035906020019184600183028401116401000000008311171561027057600080fd5b91908080601f01602080910402602001604051908101604052809392919081815260200183838082843760009201919091525092959493602081019350359150506401000000008111156102c357600080fd5b8201836020820111156102d557600080fd5b803590602001918460018302840111640100000000831117156102f757600080fd5b91908080601f0160208091040260200160405190810160405280939291908181526020018383808284376000920191909152509295505050903560ff1691506106549050565b005b610347610735565b60408051918252519081900360200190f35b6101f76004803603606081101561036f57600080fd5b50600160a060020a0381358116916020810135909116906040013561073b565b6103976107b0565b6040805160ff9092168252519081900360200190f35b6101f7600480360360408110156103c357600080fd5b50600160a060020a0381351690602001356107ba565b6101f7600480360360408110156103ef57600080fd5b50600160a060020a03813516906020013561080e565b61033d6004803603602081101561041b57600080fd5b5035610868565b61042a61087c565b60408051600160a060020a039092168252519081900360200190f35b6103476004803603602081101561045c57600080fd5b5035600160a060020a031661088c565b61033d6004803603604081101561048257600080fd5b50600160a060020a0381351690602001356108a7565b6101566108b5565b61033d600480360360208110156104b657600080fd5b5035600160a060020a0316610915565b61033d610967565b6101f7600480360360408110156104e457600080fd5b50600160a060020a038135169060200135610979565b6101f76004803603604081101561051057600080fd5b50600160a060020a0381351690602001356109cd565b6101f76004803603602081101561053c57600080fd5b5035600160a060020a03166109e1565b61033d6004803603602081101561056257600080fd5b5035600160a060020a03166109fa565b6103476004803603604081101561058857600080fd5b50600160a060020a0381358116916020013516610aa8565b60ff8054604080516020601f600260001961010060018816150201909516949094049384018190048102820181019092528281526060939092909183018282801561062c5780601f106106015761010080835404028352916020019161062c565b820191906000526020600020905b81548152906001019060200180831161060f57829003601f168201915b505050505090505b90565b600061064b610644610ad3565b8484610ad7565b50600192915050565b600054610100900460ff168061066d575061066d610bc9565b8061067b575060005460ff16155b6106b95760405160e560020a62461bcd02815260040180806020018281038252602e8152602001806113cc602e913960400191505060405180910390fd5b600054610100900460ff161580156106e4576000805460ff1961ff0019909116610100171660011790555b83516106f79060ff90602087019061127b565b50825161070c9061010090602086019061127b565b50610101805460ff191660ff8416179055801561072f576000805461ff00191690555b50505050565b60355490565b6000610748848484610bcf565b6107a684610754610ad3565b600160a060020a03871660009081526034602052604081206107a19187919061077b610ad3565b600160a060020a031681526020810191909152604001600020549063ffffffff610d1916565b610ad7565b5060019392505050565b6101015460ff1690565b600061064b6107c7610ad3565b846107a185603460006107d8610ad3565b600160a060020a03908116825260208083019390935260409182016000908120918c16815292529020549063ffffffff610d7916565b600061082061081b610ad3565b6109e1565b61085e5760405160e560020a62461bcd0281526004018080602001828103825260308152602001806113596030913960400191505060405180910390fd5b61064b8383610ddd565b610879610873610ad3565b82610ed2565b50565b61013454600160a060020a031681565b600160a060020a031660009081526033602052604090205490565b6108b18282610fb0565b5050565b6101008054604080516020601f60026000196001871615880201909516949094049384018190048102820181019092528281526060939092909183018282801561062c5780601f106106015761010080835404028352916020019161062c565b61092061081b610ad3565b61095e5760405160e560020a62461bcd0281526004018080602001828103825260308152602001806113596030913960400191505060405180910390fd5b61087981610fed565b610977610972610ad3565b611035565b565b600061064b610986610ad3565b846107a18560346000610997610ad3565b600160a060020a03908116825260208083019390935260409182016000908120918c16815292529020549063ffffffff610d1916565b600061064b6109da610ad3565b8484610bcf565b60006109f460688363ffffffff61107d16565b92915050565b600054610100900460ff1680610a135750610a13610bc9565b80610a21575060005460ff16155b610a5f5760405160e560020a62461bcd02815260040180806020018281038252602e8152602001806113cc602e913960400191505060405180910390fd5b600054610100900460ff16158015610a8a576000805460ff1961ff0019909116610100171660011790555b610a93826110e7565b80156108b1576000805461ff00191690555050565b600160a060020a03918216600090815260346020908152604080832093909416825291909152205490565b3390565b600160a060020a038316610b1f5760405160e560020a62461bcd0281526004018080602001828103825260248152602001806114406024913960400191505060405180910390fd5b600160a060020a038216610b675760405160e560020a62461bcd0281526004018080602001828103825260228152602001806113376022913960400191505060405180910390fd5b600160a060020a03808416600081815260346020908152604080832094871680845294825291829020859055815185815291517f8c5be1e5ebec7d5bd14f71427d1e84f3dd0314c0f7b2291e5b200ac8c7c3b9259281900390910190a3505050565b303b1590565b600160a060020a038316610c175760405160e560020a62461bcd02815260040180806020018281038252602581526020018061141b6025913960400191505060405180910390fd5b600160a060020a038216610c5f5760405160e560020a62461bcd0281526004018080602001828103825260238152602001806113146023913960400191505060405180910390fd5b600160a060020a038316600090815260336020526040902054610c88908263ffffffff610d1916565b600160a060020a038085166000908152603360205260408082209390935590841681522054610cbd908263ffffffff610d7916565b600160a060020a0380841660008181526033602090815260409182902094909455805185815290519193928716927fddf252ad1be2c89b69c2b068fc378daa952ba7f163c4a11628f55a4df523b3ef92918290030190a3505050565b600082821115610d73576040805160e560020a62461bcd02815260206004820152601e60248201527f536166654d6174683a207375627472616374696f6e206f766572666c6f770000604482015290519081900360640190fd5b50900390565b600082820183811015610dd6576040805160e560020a62461bcd02815260206004820152601b60248201527f536166654d6174683a206164646974696f6e206f766572666c6f770000000000604482015290519081900360640190fd5b9392505050565b600160a060020a038216610e3b576040805160e560020a62461bcd02815260206004820152601f60248201527f45524332303a206d696e7420746f20746865207a65726f206164647265737300604482015290519081900360640190fd5b603554610e4e908263ffffffff610d7916565b603555600160a060020a038216600090815260336020526040902054610e7a908263ffffffff610d7916565b600160a060020a03831660008181526033602090815260408083209490945583518581529351929391927fddf252ad1be2c89b69c2b068fc378daa952ba7f163c4a11628f55a4df523b3ef9281900390910190a35050565b600160a060020a038216610f1a5760405160e560020a62461bcd0281526004018080602001828103825260218152602001806113fa6021913960400191505060405180910390fd5b603554610f2d908263ffffffff610d1916565b603555600160a060020a038216600090815260336020526040902054610f59908263ffffffff610d1916565b600160a060020a0383166000818152603360209081526040808320949094558351858152935191937fddf252ad1be2c89b69c2b068fc378daa952ba7f163c4a11628f55a4df523b3ef929081900390910190a35050565b610fba8282610ed2565b6108b182610fc6610ad3565b600160a060020a03851660009081526034602052604081206107a19186919061077b610ad3565b610ffe60688263ffffffff61118d16565b604051600160a060020a038216907f6ae172837ea30b801fbfcdd4108aa1d5bf8ff775444fd70256b44e6bf3dfc3f690600090a250565b61104660688263ffffffff61121116565b604051600160a060020a038216907fe94479a9f7e1952cc78f2d6baab678adc1b772d936c6583def489e524cb6669290600090a250565b6000600160a060020a0382166110c75760405160e560020a62461bcd0281526004018080602001828103825260228152602001806113aa6022913960400191505060405180910390fd5b50600160a060020a03166000908152602091909152604090205460ff1690565b600054610100900460ff16806111005750611100610bc9565b8061110e575060005460ff16155b61114c5760405160e560020a62461bcd02815260040180806020018281038252602e8152602001806113cc602e913960400191505060405180910390fd5b600054610100900460ff16158015611177576000805460ff1961ff0019909116610100171660011790555b611180826109e1565b610a9357610a9382610fed565b611197828261107d565b156111ec576040805160e560020a62461bcd02815260206004820152601f60248201527f526f6c65733a206163636f756e7420616c72656164792068617320726f6c6500604482015290519081900360640190fd5b600160a060020a0316600090815260209190915260409020805460ff19166001179055565b61121b828261107d565b6112595760405160e560020a62461bcd0281526004018080602001828103825260218152602001806113896021913960400191505060405180910390fd5b600160a060020a0316600090815260209190915260409020805460ff19169055565b828054600181600116156101000203166002900490600052602060002090601f016020900481019282601f106112bc57805160ff19168380011785556112e9565b828001600101855582156112e9579182015b828111156112e95782518255916020019190600101906112ce565b506112f59291506112f9565b5090565b61063491905b808211156112f557600081556001016112ff56fe45524332303a207472616e7366657220746f20746865207a65726f206164647265737345524332303a20617070726f766520746f20746865207a65726f20616464726573734d696e746572526f6c653a2063616c6c657220646f6573206e6f74206861766520746865204d696e74657220726f6c65526f6c65733a206163636f756e7420646f6573206e6f74206861766520726f6c65526f6c65733a206163636f756e7420697320746865207a65726f2061646472657373436f6e747261637420696e7374616e63652068617320616c7265616479206265656e20696e697469616c697a656445524332303a206275726e2066726f6d20746865207a65726f206164647265737345524332303a207472616e736665722066726f6d20746865207a65726f206164647265737345524332303a20617070726f76652066726f6d20746865207a65726f2061646472657373a265627a7a7231582049b2330ac11721cfeb3e156fd994355d11d272d411bf1a71e7b03836dae3ee9064736f6c63430005100032526f6c65733a206163636f756e7420697320746865207a65726f2061646472657373436f6e747261637420696e7374616e63652068617320616c7265616479206265656e20696e697469616c697a6564",
  "source": "pragma solidity ^0.5.0;\n\nimport '@openzeppelin/contracts-ethereum-package/contracts/token/ERC20/ERC20.sol';\nimport '@openzeppelin/contracts-ethereum-package/contracts/token/ERC20/ERC20Mintable.sol';\nimport '@openzeppelin/contracts-ethereum-package/contracts/token/ERC20/ERC20Burnable.sol';\nimport '@openzeppelin/contracts-ethereum-package/contracts/token/ERC20/ERC20Detailed.sol';\n\ncontract MockERC20 is ERC20, ERC20Mintable, ERC20Burnable, ERC20Detailed {\n  address public steward;\n\n  constructor(\n    string memory name,\n    string memory symbol,\n    uint8 decimals,\n    address minter\n  ) public {\n    ERC20Detailed.initialize(name, symbol, decimals);\n    ERC20Mintable.initialize(minter);\n  }\n}\n",
  "sourcePath": "/Users/johanthan/Code/hackathons/app/contracts/contracts/mocks/MockERC20.sol",
  "compiler": {
    "name": "solc",
    "version": "0.5.16+commit.9c3226ce.Emscripten.clang"
  },
  "schemaVersion": "3.0.6",
  "updatedAt": "2020-03-04T19:19:27.628Z",
  "devdoc": {
    "methods": {
      "allowance(address,address)": {
        "details": "See `IERC20.allowance`."
      },
      "approve(address,uint256)": {
        "details": "See `IERC20.approve`.     * Requirements:     * - `spender` cannot be the zero address."
      },
      "balanceOf(address)": {
        "details": "See `IERC20.balanceOf`."
      },
      "burn(uint256)": {
        "details": "Destoys `amount` tokens from the caller.     * See `ERC20._burn`."
      },
      "burnFrom(address,uint256)": {
        "details": "See `ERC20._burnFrom`."
      },
      "decimals()": {
        "details": "Returns the number of decimals used to get its user representation. For example, if `decimals` equals `2`, a balance of `505` tokens should be displayed to a user as `5,05` (`505 / 10 ** 2`).     * Tokens usually opt for a value of 18, imitating the relationship between Ether and Wei.     * > Note that this information is only used for _display_ purposes: it in no way affects any of the arithmetic of the contract, including `IERC20.balanceOf` and `IERC20.transfer`."
      },
      "decreaseAllowance(address,uint256)": {
        "details": "Atomically decreases the allowance granted to `spender` by the caller.     * This is an alternative to `approve` that can be used as a mitigation for problems described in `IERC20.approve`.     * Emits an `Approval` event indicating the updated allowance.     * Requirements:     * - `spender` cannot be the zero address. - `spender` must have allowance for the caller of at least `subtractedValue`."
      },
      "increaseAllowance(address,uint256)": {
        "details": "Atomically increases the allowance granted to `spender` by the caller.     * This is an alternative to `approve` that can be used as a mitigation for problems described in `IERC20.approve`.     * Emits an `Approval` event indicating the updated allowance.     * Requirements:     * - `spender` cannot be the zero address."
      },
      "initialize(string,string,uint8)": {
        "details": "Sets the values for `name`, `symbol`, and `decimals`. All three of these values are immutable: they can only be set once during construction."
      },
      "mint(address,uint256)": {
        "details": "See `ERC20._mint`.     * Requirements:     * - the caller must have the `MinterRole`."
      },
      "name()": {
        "details": "Returns the name of the token."
      },
      "symbol()": {
        "details": "Returns the symbol of the token, usually a shorter version of the name."
      },
      "totalSupply()": {
        "details": "See `IERC20.totalSupply`."
      },
      "transfer(address,uint256)": {
        "details": "See `IERC20.transfer`.     * Requirements:     * - `recipient` cannot be the zero address. - the caller must have a balance of at least `amount`."
      },
      "transferFrom(address,address,uint256)": {
        "details": "See `IERC20.transferFrom`.     * Emits an `Approval` event indicating the updated allowance. This is not required by the EIP. See the note at the beginning of `ERC20`;     * Requirements: - `sender` and `recipient` cannot be the zero address. - `sender` must have a balance of at least `value`. - the caller must have allowance for `sender`'s tokens of at least `amount`."
      }
    }
  },
  "userdoc": {
    "methods": {}
  }
}