{
  "contractName": "MockERC20",
  "abi": [
    {
      "anonymous": false,
      "inputs": [
        {
          "indexed": true,
          "internalType": "address",
          "name": "owner",
          "type": "address"
        },
        {
          "indexed": true,
          "internalType": "address",
          "name": "spender",
          "type": "address"
        },
        {
          "indexed": false,
          "internalType": "uint256",
          "name": "value",
          "type": "uint256"
        }
      ],
      "name": "Approval",
      "type": "event"
    },
    {
      "anonymous": false,
      "inputs": [
        {
          "indexed": true,
          "internalType": "address",
          "name": "account",
          "type": "address"
        }
      ],
      "name": "MinterAdded",
      "type": "event"
    },
    {
      "anonymous": false,
      "inputs": [
        {
          "indexed": true,
          "internalType": "address",
          "name": "account",
          "type": "address"
        }
      ],
      "name": "MinterRemoved",
      "type": "event"
    },
    {
      "anonymous": false,
      "inputs": [
        {
          "indexed": true,
          "internalType": "address",
          "name": "from",
          "type": "address"
        },
        {
          "indexed": true,
          "internalType": "address",
          "name": "to",
          "type": "address"
        },
        {
          "indexed": false,
          "internalType": "uint256",
          "name": "value",
          "type": "uint256"
        }
      ],
      "name": "Transfer",
      "type": "event"
    },
    {
      "constant": false,
      "inputs": [
        {
          "internalType": "address",
          "name": "account",
          "type": "address"
        }
      ],
      "name": "addMinter",
      "outputs": [],
      "payable": false,
      "stateMutability": "nonpayable",
      "type": "function"
    },
    {
      "constant": true,
      "inputs": [
        {
          "internalType": "address",
          "name": "owner",
          "type": "address"
        },
        {
          "internalType": "address",
          "name": "spender",
          "type": "address"
        }
      ],
      "name": "allowance",
      "outputs": [
        {
          "internalType": "uint256",
          "name": "",
          "type": "uint256"
        }
      ],
      "payable": false,
      "stateMutability": "view",
      "type": "function"
    },
    {
      "constant": false,
      "inputs": [
        {
          "internalType": "address",
          "name": "spender",
          "type": "address"
        },
        {
          "internalType": "uint256",
          "name": "value",
          "type": "uint256"
        }
      ],
      "name": "approve",
      "outputs": [
        {
          "internalType": "bool",
          "name": "",
          "type": "bool"
        }
      ],
      "payable": false,
      "stateMutability": "nonpayable",
      "type": "function"
    },
    {
      "constant": true,
      "inputs": [
        {
          "internalType": "address",
          "name": "account",
          "type": "address"
        }
      ],
      "name": "balanceOf",
      "outputs": [
        {
          "internalType": "uint256",
          "name": "",
          "type": "uint256"
        }
      ],
      "payable": false,
      "stateMutability": "view",
      "type": "function"
    },
    {
      "constant": false,
      "inputs": [
        {
          "internalType": "uint256",
          "name": "amount",
          "type": "uint256"
        }
      ],
      "name": "burn",
      "outputs": [],
      "payable": false,
      "stateMutability": "nonpayable",
      "type": "function"
    },
    {
      "constant": false,
      "inputs": [
        {
          "internalType": "address",
          "name": "account",
          "type": "address"
        },
        {
          "internalType": "uint256",
          "name": "amount",
          "type": "uint256"
        }
      ],
      "name": "burnFrom",
      "outputs": [],
      "payable": false,
      "stateMutability": "nonpayable",
      "type": "function"
    },
    {
      "constant": true,
      "inputs": [],
      "name": "decimals",
      "outputs": [
        {
          "internalType": "uint8",
          "name": "",
          "type": "uint8"
        }
      ],
      "payable": false,
      "stateMutability": "view",
      "type": "function"
    },
    {
      "constant": false,
      "inputs": [
        {
          "internalType": "address",
          "name": "spender",
          "type": "address"
        },
        {
          "internalType": "uint256",
          "name": "subtractedValue",
          "type": "uint256"
        }
      ],
      "name": "decreaseAllowance",
      "outputs": [
        {
          "internalType": "bool",
          "name": "",
          "type": "bool"
        }
      ],
      "payable": false,
      "stateMutability": "nonpayable",
      "type": "function"
    },
    {
      "constant": false,
      "inputs": [
        {
          "internalType": "address",
          "name": "spender",
          "type": "address"
        },
        {
          "internalType": "uint256",
          "name": "addedValue",
          "type": "uint256"
        }
      ],
      "name": "increaseAllowance",
      "outputs": [
        {
          "internalType": "bool",
          "name": "",
          "type": "bool"
        }
      ],
      "payable": false,
      "stateMutability": "nonpayable",
      "type": "function"
    },
    {
      "constant": true,
      "inputs": [
        {
          "internalType": "address",
          "name": "account",
          "type": "address"
        }
      ],
      "name": "isMinter",
      "outputs": [
        {
          "internalType": "bool",
          "name": "",
          "type": "bool"
        }
      ],
      "payable": false,
      "stateMutability": "view",
      "type": "function"
    },
    {
      "constant": false,
      "inputs": [
        {
          "internalType": "address",
          "name": "account",
          "type": "address"
        },
        {
          "internalType": "uint256",
          "name": "amount",
          "type": "uint256"
        }
      ],
      "name": "mint",
      "outputs": [
        {
          "internalType": "bool",
          "name": "",
          "type": "bool"
        }
      ],
      "payable": false,
      "stateMutability": "nonpayable",
      "type": "function"
    },
    {
      "constant": true,
      "inputs": [],
      "name": "name",
      "outputs": [
        {
          "internalType": "string",
          "name": "",
          "type": "string"
        }
      ],
      "payable": false,
      "stateMutability": "view",
      "type": "function"
    },
    {
      "constant": false,
      "inputs": [],
      "name": "renounceMinter",
      "outputs": [],
      "payable": false,
      "stateMutability": "nonpayable",
      "type": "function"
    },
    {
      "constant": true,
      "inputs": [],
      "name": "steward",
      "outputs": [
        {
          "internalType": "address",
          "name": "",
          "type": "address"
        }
      ],
      "payable": false,
      "stateMutability": "view",
      "type": "function"
    },
    {
      "constant": true,
      "inputs": [],
      "name": "symbol",
      "outputs": [
        {
          "internalType": "string",
          "name": "",
          "type": "string"
        }
      ],
      "payable": false,
      "stateMutability": "view",
      "type": "function"
    },
    {
      "constant": true,
      "inputs": [],
      "name": "totalSupply",
      "outputs": [
        {
          "internalType": "uint256",
          "name": "",
          "type": "uint256"
        }
      ],
      "payable": false,
      "stateMutability": "view",
      "type": "function"
    },
    {
      "constant": false,
      "inputs": [
        {
          "internalType": "address",
          "name": "to",
          "type": "address"
        },
        {
          "internalType": "uint256",
          "name": "value",
          "type": "uint256"
        }
      ],
      "name": "transfer",
      "outputs": [
        {
          "internalType": "bool",
          "name": "",
          "type": "bool"
        }
      ],
      "payable": false,
      "stateMutability": "nonpayable",
      "type": "function"
    },
    {
      "constant": false,
      "inputs": [
        {
          "internalType": "address",
          "name": "from",
          "type": "address"
        },
        {
          "internalType": "address",
          "name": "to",
          "type": "address"
        },
        {
          "internalType": "uint256",
          "name": "value",
          "type": "uint256"
        }
      ],
      "name": "transferFrom",
      "outputs": [
        {
          "internalType": "bool",
          "name": "",
          "type": "bool"
        }
      ],
      "payable": false,
      "stateMutability": "nonpayable",
      "type": "function"
    },
    {
      "constant": false,
      "inputs": [
        {
          "internalType": "string",
          "name": "name",
          "type": "string"
        },
        {
          "internalType": "string",
          "name": "symbol",
          "type": "string"
        },
        {
          "internalType": "uint8",
          "name": "decimals",
          "type": "uint8"
        }
      ],
      "name": "initialize",
      "outputs": [],
      "payable": false,
      "stateMutability": "nonpayable",
      "type": "function"
    },
    {
      "constant": false,
      "inputs": [
        {
          "internalType": "address",
          "name": "sender",
          "type": "address"
        }
      ],
      "name": "initialize",
      "outputs": [],
      "payable": false,
      "stateMutability": "nonpayable",
      "type": "function"
    },
    {
      "constant": false,
      "inputs": [
        {
          "internalType": "string",
          "name": "name",
          "type": "string"
        },
        {
          "internalType": "string",
          "name": "symbol",
          "type": "string"
        },
        {
          "internalType": "uint8",
          "name": "decimals",
          "type": "uint8"
        },
        {
          "internalType": "address",
          "name": "minter",
          "type": "address"
        }
      ],
      "name": "initialize",
      "outputs": [],
      "payable": false,
      "stateMutability": "nonpayable",
      "type": "function"
    }
  ],
  "bytecode": "0x608060405261169e806100136000396000f3fe608060405234801561001057600080fd5b5060043610610154576000357c01000000000000000000000000000000000000000000000000000000009004806370a08231116100d5578063a457c2d711610099578063a457c2d7146104d9578063a9059cbb14610505578063aa271e1a14610531578063c4d66de814610557578063dd62ed3e1461057d578063de7ea79d146105ab57610154565b806370a082311461045157806379cc67901461047757806395d89b41146104a3578063983b2d56146104ab57806398650275146104d157610154565b8063313ce5671161011c578063313ce5671461039a57806339509351146103b857806340c10f19146103e457806342966c6814610410578063637eea191461042d57610154565b806306fdde0314610159578063095ea7b3146101d65780631624f6c61461021657806318160ddd1461034a57806323b872dd14610364575b600080fd5b6101616106e9565b6040805160208082528351818301528351919283929083019185019080838360005b8381101561019b578181015183820152602001610183565b50505050905090810190601f1680156101c85780820380516001836020036101000a031916815260200191505b509250505060405180910390f35b610202600480360360408110156101ec57600080fd5b50600160a060020a038135169060200135610780565b604080519115158252519081900360200190f35b6103486004803603606081101561022c57600080fd5b81019060208101813564010000000081111561024757600080fd5b82018360208201111561025957600080fd5b8035906020019184600183028401116401000000008311171561027b57600080fd5b91908080601f01602080910402602001604051908101604052809392919081815260200183838082843760009201919091525092959493602081019350359150506401000000008111156102ce57600080fd5b8201836020820111156102e057600080fd5b8035906020019184600183028401116401000000008311171561030257600080fd5b91908080601f0160208091040260200160405190810160405280939291908181526020018383808284376000920191909152509295505050903560ff16915061079d9050565b005b61035261087e565b60408051918252519081900360200190f35b6102026004803603606081101561037a57600080fd5b50600160a060020a03813581169160208101359091169060400135610884565b6103a26108f9565b6040805160ff9092168252519081900360200190f35b610202600480360360408110156103ce57600080fd5b50600160a060020a038135169060200135610903565b610202600480360360408110156103fa57600080fd5b50600160a060020a038135169060200135610957565b6103486004803603602081101561042657600080fd5b50356109b1565b6104356109c5565b60408051600160a060020a039092168252519081900360200190f35b6103526004803603602081101561046757600080fd5b5035600160a060020a03166109d5565b6103486004803603604081101561048d57600080fd5b50600160a060020a0381351690602001356109f0565b6101616109fe565b610348600480360360208110156104c157600080fd5b5035600160a060020a0316610a5e565b610348610ab0565b610202600480360360408110156104ef57600080fd5b50600160a060020a038135169060200135610ac2565b6102026004803603604081101561051b57600080fd5b50600160a060020a038135169060200135610b16565b6102026004803603602081101561054757600080fd5b5035600160a060020a0316610b2a565b6103486004803603602081101561056d57600080fd5b5035600160a060020a0316610b43565b6103526004803603604081101561059357600080fd5b50600160a060020a0381358116916020013516610bf1565b610348600480360360808110156105c157600080fd5b8101906020810181356401000000008111156105dc57600080fd5b8201836020820111156105ee57600080fd5b8035906020019184600183028401116401000000008311171561061057600080fd5b91908080601f016020809104026020016040519081016040528093929190818152602001838380828437600092019190915250929594936020810193503591505064010000000081111561066357600080fd5b82018360208201111561067557600080fd5b8035906020019184600183028401116401000000008311171561069757600080fd5b91908080601f0160208091040260200160405190810160405280939291908181526020018383808284376000920191909152509295505050813560ff1692505060200135600160a060020a0316610c1c565b60ff8054604080516020601f60026000196101006001881615020190951694909404938401819004810282018101909252828152606093909290918301828280156107755780601f1061074a57610100808354040283529160200191610775565b820191906000526020600020905b81548152906001019060200180831161075857829003601f168201915b505050505090505b90565b600061079461078d610cd9565b8484610cdd565b50600192915050565b600054610100900460ff16806107b657506107b6610dcf565b806107c4575060005460ff16155b6108025760405160e560020a62461bcd02815260040180806020018281038252602e8152602001806115d2602e913960400191505060405180910390fd5b600054610100900460ff1615801561082d576000805460ff1961ff0019909116610100171660011790555b83516108409060ff906020870190611481565b50825161085590610100906020860190611481565b50610101805460ff191660ff84161790558015610878576000805461ff00191690555b50505050565b60355490565b6000610891848484610dd5565b6108ef8461089d610cd9565b600160a060020a03871660009081526034602052604081206108ea918791906108c4610cd9565b600160a060020a031681526020810191909152604001600020549063ffffffff610f1f16565b610cdd565b5060019392505050565b6101015460ff1690565b6000610794610910610cd9565b846108ea8560346000610921610cd9565b600160a060020a03908116825260208083019390935260409182016000908120918c16815292529020549063ffffffff610f7f16565b6000610969610964610cd9565b610b2a565b6109a75760405160e560020a62461bcd02815260040180806020018281038252603081526020018061155f6030913960400191505060405180910390fd5b6107948383610fe3565b6109c26109bc610cd9565b826110d8565b50565b61013454600160a060020a031681565b600160a060020a031660009081526033602052604090205490565b6109fa82826111b6565b5050565b6101008054604080516020601f6002600019600187161588020190951694909404938401819004810282018101909252828152606093909290918301828280156107755780601f1061074a57610100808354040283529160200191610775565b610a69610964610cd9565b610aa75760405160e560020a62461bcd02815260040180806020018281038252603081526020018061155f6030913960400191505060405180910390fd5b6109c2816111f3565b610ac0610abb610cd9565b61123b565b565b6000610794610acf610cd9565b846108ea8560346000610ae0610cd9565b600160a060020a03908116825260208083019390935260409182016000908120918c16815292529020549063ffffffff610f1f16565b6000610794610b23610cd9565b8484610dd5565b6000610b3d60688363ffffffff61128316565b92915050565b600054610100900460ff1680610b5c5750610b5c610dcf565b80610b6a575060005460ff16155b610ba85760405160e560020a62461bcd02815260040180806020018281038252602e8152602001806115d2602e913960400191505060405180910390fd5b600054610100900460ff16158015610bd3576000805460ff1961ff0019909116610100171660011790555b610bdc826112ed565b80156109fa576000805461ff00191690555050565b600160a060020a03918216600090815260346020908152604080832093909416825291909152205490565b600054610100900460ff1680610c355750610c35610dcf565b80610c43575060005460ff16155b610c815760405160e560020a62461bcd02815260040180806020018281038252602e8152602001806115d2602e913960400191505060405180910390fd5b600054610100900460ff16158015610cac576000805460ff1961ff0019909116610100171660011790555b610cb785858561079d565b610cc082610b43565b8015610cd2576000805461ff00191690555b5050505050565b3390565b600160a060020a038316610d255760405160e560020a62461bcd0281526004018080602001828103825260248152602001806116466024913960400191505060405180910390fd5b600160a060020a038216610d6d5760405160e560020a62461bcd02815260040180806020018281038252602281526020018061153d6022913960400191505060405180910390fd5b600160a060020a03808416600081815260346020908152604080832094871680845294825291829020859055815185815291517f8c5be1e5ebec7d5bd14f71427d1e84f3dd0314c0f7b2291e5b200ac8c7c3b9259281900390910190a3505050565b303b1590565b600160a060020a038316610e1d5760405160e560020a62461bcd0281526004018080602001828103825260258152602001806116216025913960400191505060405180910390fd5b600160a060020a038216610e655760405160e560020a62461bcd02815260040180806020018281038252602381526020018061151a6023913960400191505060405180910390fd5b600160a060020a038316600090815260336020526040902054610e8e908263ffffffff610f1f16565b600160a060020a038085166000908152603360205260408082209390935590841681522054610ec3908263ffffffff610f7f16565b600160a060020a0380841660008181526033602090815260409182902094909455805185815290519193928716927fddf252ad1be2c89b69c2b068fc378daa952ba7f163c4a11628f55a4df523b3ef92918290030190a3505050565b600082821115610f79576040805160e560020a62461bcd02815260206004820152601e60248201527f536166654d6174683a207375627472616374696f6e206f766572666c6f770000604482015290519081900360640190fd5b50900390565b600082820183811015610fdc576040805160e560020a62461bcd02815260206004820152601b60248201527f536166654d6174683a206164646974696f6e206f766572666c6f770000000000604482015290519081900360640190fd5b9392505050565b600160a060020a038216611041576040805160e560020a62461bcd02815260206004820152601f60248201527f45524332303a206d696e7420746f20746865207a65726f206164647265737300604482015290519081900360640190fd5b603554611054908263ffffffff610f7f16565b603555600160a060020a038216600090815260336020526040902054611080908263ffffffff610f7f16565b600160a060020a03831660008181526033602090815260408083209490945583518581529351929391927fddf252ad1be2c89b69c2b068fc378daa952ba7f163c4a11628f55a4df523b3ef9281900390910190a35050565b600160a060020a0382166111205760405160e560020a62461bcd0281526004018080602001828103825260218152602001806116006021913960400191505060405180910390fd5b603554611133908263ffffffff610f1f16565b603555600160a060020a03821660009081526033602052604090205461115f908263ffffffff610f1f16565b600160a060020a0383166000818152603360209081526040808320949094558351858152935191937fddf252ad1be2c89b69c2b068fc378daa952ba7f163c4a11628f55a4df523b3ef929081900390910190a35050565b6111c082826110d8565b6109fa826111cc610cd9565b600160a060020a03851660009081526034602052604081206108ea918691906108c4610cd9565b61120460688263ffffffff61139316565b604051600160a060020a038216907f6ae172837ea30b801fbfcdd4108aa1d5bf8ff775444fd70256b44e6bf3dfc3f690600090a250565b61124c60688263ffffffff61141716565b604051600160a060020a038216907fe94479a9f7e1952cc78f2d6baab678adc1b772d936c6583def489e524cb6669290600090a250565b6000600160a060020a0382166112cd5760405160e560020a62461bcd0281526004018080602001828103825260228152602001806115b06022913960400191505060405180910390fd5b50600160a060020a03166000908152602091909152604090205460ff1690565b600054610100900460ff16806113065750611306610dcf565b80611314575060005460ff16155b6113525760405160e560020a62461bcd02815260040180806020018281038252602e8152602001806115d2602e913960400191505060405180910390fd5b600054610100900460ff1615801561137d576000805460ff1961ff0019909116610100171660011790555b61138682610b2a565b610bdc57610bdc826111f3565b61139d8282611283565b156113f2576040805160e560020a62461bcd02815260206004820152601f60248201527f526f6c65733a206163636f756e7420616c72656164792068617320726f6c6500604482015290519081900360640190fd5b600160a060020a0316600090815260209190915260409020805460ff19166001179055565b6114218282611283565b61145f5760405160e560020a62461bcd02815260040180806020018281038252602181526020018061158f6021913960400191505060405180910390fd5b600160a060020a0316600090815260209190915260409020805460ff19169055565b828054600181600116156101000203166002900490600052602060002090601f016020900481019282601f106114c257805160ff19168380011785556114ef565b828001600101855582156114ef579182015b828111156114ef5782518255916020019190600101906114d4565b506114fb9291506114ff565b5090565b61077d91905b808211156114fb576000815560010161150556fe45524332303a207472616e7366657220746f20746865207a65726f206164647265737345524332303a20617070726f766520746f20746865207a65726f20616464726573734d696e746572526f6c653a2063616c6c657220646f6573206e6f74206861766520746865204d696e74657220726f6c65526f6c65733a206163636f756e7420646f6573206e6f74206861766520726f6c65526f6c65733a206163636f756e7420697320746865207a65726f2061646472657373436f6e747261637420696e7374616e63652068617320616c7265616479206265656e20696e697469616c697a656445524332303a206275726e2066726f6d20746865207a65726f206164647265737345524332303a207472616e736665722066726f6d20746865207a65726f206164647265737345524332303a20617070726f76652066726f6d20746865207a65726f2061646472657373a265627a7a72315820f738ee981082fe930a5f5349c16911b9c8f6b2a6107142c3759ee7e0d88bd20f64736f6c63430005100032",
  "source": "pragma solidity ^0.5.0;\n\nimport '@openzeppelin/contracts-ethereum-package/contracts/token/ERC20/ERC20.sol';\nimport '@openzeppelin/contracts-ethereum-package/contracts/token/ERC20/ERC20Mintable.sol';\nimport '@openzeppelin/contracts-ethereum-package/contracts/token/ERC20/ERC20Burnable.sol';\nimport '@openzeppelin/contracts-ethereum-package/contracts/token/ERC20/ERC20Detailed.sol';\n\ncontract MockERC20 is ERC20, ERC20Mintable, ERC20Burnable, ERC20Detailed {\n  address public steward;\n\n  function initialize(\n    string memory name,\n    string memory symbol,\n    uint8 decimals,\n    address minter\n  ) public initializer {\n    ERC20Detailed.initialize(name, symbol, decimals);\n    ERC20Mintable.initialize(minter);\n  }\n}\n",
  "sourcePath": "/Users/johanthan/Code/hackathons/app/contracts/contracts/mocks/MockERC20.sol",
  "compiler": {
    "name": "solc",
    "version": "0.5.16+commit.9c3226ce.Emscripten.clang"
  },
  "schemaVersion": "3.0.6",
  "updatedAt": "2020-03-02T23:32:17.761Z",
  "devdoc": {
    "methods": {
      "allowance(address,address)": {
        "details": "See `IERC20.allowance`."
      },
      "approve(address,uint256)": {
        "details": "See `IERC20.approve`.     * Requirements:     * - `spender` cannot be the zero address."
      },
      "balanceOf(address)": {
        "details": "See `IERC20.balanceOf`."
      },
      "burn(uint256)": {
        "details": "Destoys `amount` tokens from the caller.     * See `ERC20._burn`."
      },
      "burnFrom(address,uint256)": {
        "details": "See `ERC20._burnFrom`."
      },
      "decimals()": {
        "details": "Returns the number of decimals used to get its user representation. For example, if `decimals` equals `2`, a balance of `505` tokens should be displayed to a user as `5,05` (`505 / 10 ** 2`).     * Tokens usually opt for a value of 18, imitating the relationship between Ether and Wei.     * > Note that this information is only used for _display_ purposes: it in no way affects any of the arithmetic of the contract, including `IERC20.balanceOf` and `IERC20.transfer`."
      },
      "decreaseAllowance(address,uint256)": {
        "details": "Atomically decreases the allowance granted to `spender` by the caller.     * This is an alternative to `approve` that can be used as a mitigation for problems described in `IERC20.approve`.     * Emits an `Approval` event indicating the updated allowance.     * Requirements:     * - `spender` cannot be the zero address. - `spender` must have allowance for the caller of at least `subtractedValue`."
      },
      "increaseAllowance(address,uint256)": {
        "details": "Atomically increases the allowance granted to `spender` by the caller.     * This is an alternative to `approve` that can be used as a mitigation for problems described in `IERC20.approve`.     * Emits an `Approval` event indicating the updated allowance.     * Requirements:     * - `spender` cannot be the zero address."
      },
      "initialize(string,string,uint8)": {
        "details": "Sets the values for `name`, `symbol`, and `decimals`. All three of these values are immutable: they can only be set once during construction."
      },
      "mint(address,uint256)": {
        "details": "See `ERC20._mint`.     * Requirements:     * - the caller must have the `MinterRole`."
      },
      "name()": {
        "details": "Returns the name of the token."
      },
      "symbol()": {
        "details": "Returns the symbol of the token, usually a shorter version of the name."
      },
      "totalSupply()": {
        "details": "See `IERC20.totalSupply`."
      },
      "transfer(address,uint256)": {
        "details": "See `IERC20.transfer`.     * Requirements:     * - `recipient` cannot be the zero address. - the caller must have a balance of at least `amount`."
      },
      "transferFrom(address,address,uint256)": {
        "details": "See `IERC20.transferFrom`.     * Emits an `Approval` event indicating the updated allowance. This is not required by the EIP. See the note at the beginning of `ERC20`;     * Requirements: - `sender` and `recipient` cannot be the zero address. - `sender` must have a balance of at least `value`. - the caller must have allowance for `sender`'s tokens of at least `amount`."
      }
    }
  },
  "userdoc": {
    "methods": {}
  }
}