{
  "contractName": "NoLossDao",
  "abi": [
    {
      "constant": true,
      "inputs": [],
      "name": "aaveLendingContract",
      "outputs": [
        {
          "internalType": "contract IAaveLendingPool",
          "name": "",
          "type": "address"
        }
      ],
      "payable": false,
      "stateMutability": "view",
      "type": "function"
    },
    {
      "constant": true,
      "inputs": [],
      "name": "adaiContract",
      "outputs": [
        {
          "internalType": "contract IADai",
          "name": "",
          "type": "address"
        }
      ],
      "payable": false,
      "stateMutability": "view",
      "type": "function"
    },
    {
      "constant": true,
      "inputs": [],
      "name": "admin",
      "outputs": [
        {
          "internalType": "address",
          "name": "",
          "type": "address"
        }
      ],
      "payable": false,
      "stateMutability": "view",
      "type": "function"
    },
    {
      "constant": true,
      "inputs": [],
      "name": "daiContract",
      "outputs": [
        {
          "internalType": "contract IERC20",
          "name": "",
          "type": "address"
        }
      ],
      "payable": false,
      "stateMutability": "view",
      "type": "function"
    },
    {
      "constant": true,
      "inputs": [
        {
          "internalType": "address",
          "name": "",
          "type": "address"
        }
      ],
      "name": "depositedDai",
      "outputs": [
        {
          "internalType": "uint256",
          "name": "",
          "type": "uint256"
        }
      ],
      "payable": false,
      "stateMutability": "view",
      "type": "function"
    },
    {
      "constant": true,
      "inputs": [
        {
          "internalType": "address",
          "name": "",
          "type": "address"
        }
      ],
      "name": "iterationJoined",
      "outputs": [
        {
          "internalType": "uint256",
          "name": "",
          "type": "uint256"
        }
      ],
      "payable": false,
      "stateMutability": "view",
      "type": "function"
    },
    {
      "constant": true,
      "inputs": [],
      "name": "proposalAmount",
      "outputs": [
        {
          "internalType": "uint256",
          "name": "",
          "type": "uint256"
        }
      ],
      "payable": false,
      "stateMutability": "view",
      "type": "function"
    },
    {
      "constant": true,
      "inputs": [],
      "name": "proposalDeadline",
      "outputs": [
        {
          "internalType": "uint256",
          "name": "",
          "type": "uint256"
        }
      ],
      "payable": false,
      "stateMutability": "view",
      "type": "function"
    },
    {
      "constant": true,
      "inputs": [
        {
          "internalType": "uint256",
          "name": "",
          "type": "uint256"
        }
      ],
      "name": "proposalDetails",
      "outputs": [
        {
          "internalType": "string",
          "name": "",
          "type": "string"
        }
      ],
      "payable": false,
      "stateMutability": "view",
      "type": "function"
    },
    {
      "constant": true,
      "inputs": [],
      "name": "proposalIteration",
      "outputs": [
        {
          "internalType": "uint256",
          "name": "",
          "type": "uint256"
        }
      ],
      "payable": false,
      "stateMutability": "view",
      "type": "function"
    },
    {
      "constant": true,
      "inputs": [
        {
          "internalType": "uint256",
          "name": "",
          "type": "uint256"
        }
      ],
      "name": "proposalOwner",
      "outputs": [
        {
          "internalType": "address",
          "name": "",
          "type": "address"
        }
      ],
      "payable": false,
      "stateMutability": "view",
      "type": "function"
    },
    {
      "constant": true,
      "inputs": [
        {
          "internalType": "uint256",
          "name": "",
          "type": "uint256"
        },
        {
          "internalType": "uint256",
          "name": "",
          "type": "uint256"
        }
      ],
      "name": "proposalVotes",
      "outputs": [
        {
          "internalType": "uint256",
          "name": "",
          "type": "uint256"
        }
      ],
      "payable": false,
      "stateMutability": "view",
      "type": "function"
    },
    {
      "constant": true,
      "inputs": [
        {
          "internalType": "uint256",
          "name": "",
          "type": "uint256"
        }
      ],
      "name": "state",
      "outputs": [
        {
          "internalType": "enum NoLossDao.ProposalState",
          "name": "",
          "type": "uint8"
        }
      ],
      "payable": false,
      "stateMutability": "view",
      "type": "function"
    },
    {
      "constant": true,
      "inputs": [
        {
          "internalType": "uint256",
          "name": "",
          "type": "uint256"
        }
      ],
      "name": "topProject",
      "outputs": [
        {
          "internalType": "uint256",
          "name": "",
          "type": "uint256"
        }
      ],
      "payable": false,
      "stateMutability": "view",
      "type": "function"
    },
    {
      "constant": true,
      "inputs": [],
      "name": "totalDepositedDai",
      "outputs": [
        {
          "internalType": "uint256",
          "name": "",
          "type": "uint256"
        }
      ],
      "payable": false,
      "stateMutability": "view",
      "type": "function"
    },
    {
      "constant": true,
      "inputs": [
        {
          "internalType": "uint256",
          "name": "",
          "type": "uint256"
        },
        {
          "internalType": "address",
          "name": "",
          "type": "address"
        }
      ],
      "name": "usersNominatedProject",
      "outputs": [
        {
          "internalType": "uint256",
          "name": "",
          "type": "uint256"
        }
      ],
      "payable": false,
      "stateMutability": "view",
      "type": "function"
    },
    {
      "constant": true,
      "inputs": [
        {
          "internalType": "address",
          "name": "",
          "type": "address"
        }
      ],
      "name": "usersProposedProject",
      "outputs": [
        {
          "internalType": "uint256",
          "name": "",
          "type": "uint256"
        }
      ],
      "payable": false,
      "stateMutability": "view",
      "type": "function"
    },
    {
      "constant": true,
      "inputs": [
        {
          "internalType": "address",
          "name": "",
          "type": "address"
        }
      ],
      "name": "voteDelegations",
      "outputs": [
        {
          "internalType": "address",
          "name": "",
          "type": "address"
        }
      ],
      "payable": false,
      "stateMutability": "view",
      "type": "function"
    },
    {
      "constant": true,
      "inputs": [
        {
          "internalType": "address",
          "name": "",
          "type": "address"
        }
      ],
      "name": "voteState",
      "outputs": [
        {
          "internalType": "enum NoLossDao.VoteState",
          "name": "",
          "type": "uint8"
        }
      ],
      "payable": false,
      "stateMutability": "view",
      "type": "function"
    },
    {
      "constant": true,
      "inputs": [],
      "name": "votingInterval",
      "outputs": [
        {
          "internalType": "uint256",
          "name": "",
          "type": "uint256"
        }
      ],
      "payable": false,
      "stateMutability": "view",
      "type": "function"
    },
    {
      "constant": false,
      "inputs": [
        {
          "internalType": "address",
          "name": "daiAddress",
          "type": "address"
        },
        {
          "internalType": "address",
          "name": "aDaiAddress",
          "type": "address"
        },
        {
          "internalType": "address",
          "name": "aavePoolAddress",
          "type": "address"
        },
        {
          "internalType": "uint256",
          "name": "_proposalAmount",
          "type": "uint256"
        },
        {
          "internalType": "uint256",
          "name": "_votingInterval",
          "type": "uint256"
        }
      ],
      "name": "initialize",
      "outputs": [],
      "payable": false,
      "stateMutability": "nonpayable",
      "type": "function"
    },
    {
      "constant": false,
      "inputs": [
        {
          "internalType": "uint256",
          "name": "newInterval",
          "type": "uint256"
        }
      ],
      "name": "changeVotingInterval",
      "outputs": [],
      "payable": false,
      "stateMutability": "nonpayable",
      "type": "function"
    },
    {
      "constant": false,
      "inputs": [
        {
          "internalType": "uint256",
          "name": "amount",
          "type": "uint256"
        }
      ],
      "name": "deposit",
      "outputs": [],
      "payable": false,
      "stateMutability": "nonpayable",
      "type": "function"
    },
    {
      "constant": false,
      "inputs": [
        {
          "internalType": "uint256",
          "name": "amount",
          "type": "uint256"
        }
      ],
      "name": "withdrawFull",
      "outputs": [],
      "payable": false,
      "stateMutability": "nonpayable",
      "type": "function"
    },
    {
      "constant": false,
      "inputs": [
        {
          "internalType": "string",
          "name": "proposalHash",
          "type": "string"
        }
      ],
      "name": "createProposal",
      "outputs": [
        {
          "internalType": "uint256",
          "name": "newProposalId",
          "type": "uint256"
        }
      ],
      "payable": false,
      "stateMutability": "nonpayable",
      "type": "function"
    },
    {
      "constant": false,
      "inputs": [],
      "name": "withdrawProposal",
      "outputs": [],
      "payable": false,
      "stateMutability": "nonpayable",
      "type": "function"
    },
    {
      "constant": false,
      "inputs": [
        {
          "internalType": "uint256",
          "name": "proposalIdToVoteFor",
          "type": "uint256"
        }
      ],
      "name": "vote",
      "outputs": [],
      "payable": false,
      "stateMutability": "nonpayable",
      "type": "function"
    },
    {
      "constant": false,
      "inputs": [],
      "name": "distributeFunds",
      "outputs": [],
      "payable": false,
      "stateMutability": "nonpayable",
      "type": "function"
    },
    {
      "constant": false,
      "inputs": [
        {
          "internalType": "address",
          "name": "delegatedAddress",
          "type": "address"
        }
      ],
      "name": "delegateVoting",
      "outputs": [],
      "payable": false,
      "stateMutability": "nonpayable",
      "type": "function"
    }
  ],
  "bytecode": "0x608060405234801561001057600080fd5b50611905806100206000396000f3fe608060405234801561001057600080fd5b50600436106101cf5760003560e01c80637584939911610104578063b6b55f25116100a2578063d1c22c3b11610071578063d1c22c3b146105ae578063d8a3239f146105b6578063f851a440146105d3578063fcde9925146105db576101cf565b8063b6b55f2514610546578063bdd882f014610563578063c68dc6ad14610580578063ca28f0d014610588576101cf565b806382a0ca9c116100de57806382a0ca9c1461048c578063976ee2b6146104b2578063a5871182146104de578063a6b63eb814610504576101cf565b80637584939914610456578063765cb83a1461045e5780637ce1f84414610484576101cf565b806339ab499b1161017157806349c2a1a61161014b57806349c2a1a61461038357806351252f6c146104295780636b38def2146104465780637566ad531461044e576101cf565b806339ab499b146103385780633a6a4d2e1461035e5780633e4f49e614610366576101cf565b806316e9eaec116101ad57806316e9eaec14610230578063173a2b5c146102c25780631a5b6774146102ca5780632ce8b91314610314576101cf565b80630121b93f146101d4578063031cf1d9146101f35780630d68eb9e146101fb575b600080fd5b6101f1600480360360208110156101ea57600080fd5b50356105f8565b005b6101f16108d4565b61021e6004803603604081101561021157600080fd5b5080359060200135610986565b60408051918252519081900360200190f35b61024d6004803603602081101561024657600080fd5b50356109a3565b6040805160208082528351818301528351919283929083019185019080838360005b8381101561028757818101518382015260200161026f565b50505050905090810190601f1680156102b45780820380516001836020036101000a031916815260200191505b509250505060405180910390f35b61021e610a3e565b6102f0600480360360208110156102e057600080fd5b50356001600160a01b0316610a44565b6040518082600181111561030057fe5b60ff16815260200191505060405180910390f35b61031c610a59565b604080516001600160a01b039092168252519081900360200190f35b61021e6004803603602081101561034e57600080fd5b50356001600160a01b0316610a68565b6101f1610a7a565b6102f06004803603602081101561037c57600080fd5b5035610d3d565b61021e6004803603602081101561039957600080fd5b8101906020810181356401000000008111156103b457600080fd5b8201836020820111156103c657600080fd5b803590602001918460018302840111640100000000831117156103e857600080fd5b91908080601f016020809104026020016040519081016040528093929190818152602001838380828437600092019190915250929550610d52945050505050565b6101f16004803603602081101561043f57600080fd5b5035611061565b61031c6110b1565b61021e6110c0565b61021e6110c6565b6101f16004803603602081101561047457600080fd5b50356001600160a01b03166110cc565b61021e611214565b61021e600480360360208110156104a257600080fd5b50356001600160a01b031661121a565b61021e600480360360408110156104c857600080fd5b50803590602001356001600160a01b031661122c565b61021e600480360360208110156104f457600080fd5b50356001600160a01b0316611249565b6101f1600480360360a081101561051a57600080fd5b506001600160a01b0381358116916020810135821691604082013516906060810135906080013561125b565b6101f16004803603602081101561055c57600080fd5b5035611367565b61021e6004803603602081101561057957600080fd5b5035611694565b61031c6116a6565b61031c6004803603602081101561059e57600080fd5b50356001600160a01b03166116b5565b61021e6116d0565b6101f1600480360360208110156105cc57600080fd5b5035611211565b61031c6116d6565b61031c600480360360208110156105f157600080fd5b50356116e5565b806000808281526043602052604090205460ff16600181111561061757fe5b14610661576040805162461bcd60e51b815260206004820152601560248201527450726f706f73616c2069736e27742061637469766560581b604482015290519081900360640190fd5b6041546000908152603760209081526040808320338452909152902054156106ba5760405162461bcd60e51b815260040180806020018281038252602181526020018061185e6021913960400191505060405180910390fd5b3360009081526033602052604090205461070f576040805162461bcd60e51b81526020600482015260116024820152705573657220686173206e6f207374616b6560781b604482015290519081900360640190fd5b6001336000908152603860209081526040808320548352604390915290205460ff16600181111561073c57fe5b1480610755575033600090815260386020526040902054155b6107a6576040805162461bcd60e51b815260206004820152601b60248201527f557365722068617320616e206163746976652070726f706f73616c0000000000604482015290519081900360640190fd5b6041546000908152603760209081526040808320338452909152902054801561081f5733600090815260336020908152604080832054604154845260368352818420858552909252909120546108019163ffffffff61170016565b60415460009081526036602090815260408083208584529091529020555b33600090815260336020908152604080832054604154845260368352818420878552909252909120546108579163ffffffff61175d16565b60418054600090815260366020818152604080842089855282528084209590955583548352603781528483203384528152848320889055925482528252828120603a8352838220548252909152818120546042548252919020548110156108ce576042546041546000908152603a60205260409020555b50505050565b336000908152603860209081526040808320548352604390915281205460ff1660018111156108ff57fe5b1461093b5760405162461bcd60e51b81526004018080602001828103825260248152602001806118ad6024913960400191505060405180910390fd5b33600090815260386020908152604080832054835260439091529020805460ff19166001179055603c54603b5461097191611700565b603b5533600090815260336020526040812055565b603660209081526000928352604080842090915290825290205481565b60356020908152600091825260409182902080548351601f600260001961010060018616150201909316929092049182018490048402810184019094528084529091830182828015610a365780601f10610a0b57610100808354040283529160200191610a36565b820191906000526020600020905b815481529060010190602001808311610a1957829003601f168201915b505050505081565b603c5481565b60446020526000908152604090205460ff1681565b603d546001600160a01b031681565b60386020526000908152604090205481565b4260475411610ad0576040805162461bcd60e51b815260206004820152601960248201527f63757272656e7420766f7465207374696c6c2061637469766500000000000000604482015290519081900360640190fd5b6041546000908152603a602052604090205415610cfb57603b54603f54604080516370a0823160e01b81523060048201529051600093610b769390926001600160a01b03909116916370a0823191602480820192602092909190829003018186803b158015610b3e57600080fd5b505afa158015610b52573d6000803e3d6000fd5b505050506040513d6020811015610b6857600080fd5b50519063ffffffff61170016565b603f546040805163db006a7560e01b81526004810184905290519293506001600160a01b039091169163db006a759160248082019260009290919082900301818387803b158015610bc657600080fd5b505af1158015610bda573d6000803e3d6000fd5b50506041546000908152603a602090815260408083205483526034825280832054603d5482516370a0823160e01b815230600482015292516001600160a01b03928316975094955016926370a0823192602480840193919291829003018186803b158015610c4757600080fd5b505afa158015610c5b573d6000803e3d6000fd5b505050506040513d6020811015610c7157600080fd5b5051603d546040805163a9059cbb60e01b81526001600160a01b03868116600483015260248201859052915193945091169163a9059cbb916044808201926020929091908290030181600087803b158015610ccb57600080fd5b505af1158015610cdf573d6000803e3d6000fd5b505050506040513d6020811015610cf557600080fd5b50505050505b604654604754610d109163ffffffff61175d16565b604755604154610d2790600163ffffffff61175d16565b60418190556000908152603a6020526040812055565b60436020526000908152604090205460ff1681565b603c54603d5460408051636eb1769f60e11b81523360048201523060248201529051600093926001600160a01b03169163dd62ed3e916044808301926020929190829003018186803b158015610da757600080fd5b505afa158015610dbb573d6000803e3d6000fd5b505050506040513d6020811015610dd157600080fd5b5051811115610e1e576040805162461bcd60e51b8152602060048201526014602482015273616d6f756e74206e6f7420617661696c61626c6560601b604482015290519081900360640190fd5b603d54603c54604080516323b872dd60e01b81523360048201523060248201526044810192909252516001600160a01b03909216916323b872dd916064808201926020929091908290030181600087803b158015610e7b57600080fd5b505af1158015610e8f573d6000803e3d6000fd5b505050506040513d6020811015610ea557600080fd5b5050603d54603e54603c546040805163095ea7b360e01b81526001600160a01b039384166004820152602481019290925251919092169163095ea7b39160448083019260209291908290030181600087803b158015610f0357600080fd5b505af1158015610f17573d6000803e3d6000fd5b505050506040513d6020811015610f2d57600080fd5b5050603e54603d54603c5460408051636968703360e11b81526001600160a01b03938416600482015260248101929092526000604483018190529051929093169263d2d0e0669260648084019382900301818387803b158015610f8f57600080fd5b505af1158015610fa3573d6000803e3d6000fd5b5050603c54603b54610fbd9350915063ffffffff61175d16565b603b55603c5433600090815260336020526040902054610fe29163ffffffff61175d16565b3360009081526033602052604090205560425461100690600163ffffffff61175d16565b6000818152603560209081526040909120855192945061102a9290918601906117c5565b5050600081815260346020908152604080832080546001600160a01b0319163317905560439091529020805460ff19169055919050565b6040546001600160a01b031633146110ac576040805162461bcd60e51b81526020600482015260096024820152682737ba1030b236b4b760b91b604482015290519081900360640190fd5b604655565b603f546001600160a01b031681565b60465481565b60415481565b6041546000908152603760209081526040808320338452909152902054156111255760405162461bcd60e51b815260040180806020018281038252602181526020018061185e6021913960400191505060405180910390fd5b3360009081526033602052604090205461117a576040805162461bcd60e51b81526020600482015260116024820152705573657220686173206e6f207374616b6560781b604482015290519081900360640190fd5b6001336000908152603860209081526040808320548352604390915290205460ff1660018111156111a757fe5b14806111c0575033600090815260386020526040902054155b611211576040805162461bcd60e51b815260206004820152601b60248201527f557365722068617320616e206163746976652070726f706f73616c0000000000604482015290519081900360640190fd5b50565b60475481565b60336020526000908152604090205481565b603760209081526000928352604080842090915290825290205481565b60396020526000908152604090205481565b600054610100900460ff168061127457506112746117be565b80611282575060005460ff16155b6112bd5760405162461bcd60e51b815260040180806020018281038252602e81526020018061187f602e913960400191505060405180910390fd5b600054610100900460ff161580156112e8576000805460ff1961ff0019909116610100171660011790555b603d80546001600160a01b038089166001600160a01b031992831617909255603e8054878416908316179055603f8054928816928216929092179091556040805490911633179055603c839055604682905561134a428363ffffffff61175d16565b604755801561135f576000805461ff00191690555b505050505050565b33600090815260336020526040902054156113bf576040805162461bcd60e51b81526020600482015260136024820152725573657220616c72656164792065786973747360681b604482015290519081900360640190fd5b3360009081526038602052604090205415611421576040805162461bcd60e51b815260206004820152601b60248201527f5573657220616c72656164792068617320612070726f706f73616c0000000000604482015290519081900360640190fd5b603d5460408051636eb1769f60e11b8152336004820152306024820152905183926001600160a01b03169163dd62ed3e916044808301926020929190829003018186803b15801561147157600080fd5b505afa158015611485573d6000803e3d6000fd5b505050506040513d602081101561149b57600080fd5b50518111156114e8576040805162461bcd60e51b8152602060048201526014602482015273616d6f756e74206e6f7420617661696c61626c6560601b604482015290519081900360640190fd5b603d54604080516323b872dd60e01b81523360048201523060248201526044810185905290516001600160a01b03909216916323b872dd916064808201926020929091908290030181600087803b15801561154257600080fd5b505af1158015611556573d6000803e3d6000fd5b505050506040513d602081101561156c57600080fd5b5050603d54603e546040805163095ea7b360e01b81526001600160a01b039283166004820152602481018690529051919092169163095ea7b39160448083019260209291908290030181600087803b1580156115c757600080fd5b505af11580156115db573d6000803e3d6000fd5b505050506040513d60208110156115f157600080fd5b5050603e54603d5460408051636968703360e11b81526001600160a01b039283166004820152602481018690526000604482018190529151929093169263d2d0e066926064808301939282900301818387803b15801561165057600080fd5b505af1158015611664573d6000803e3d6000fd5b50503360009081526033602052604090208490555050603b5461168d908363ffffffff61175d16565b603b555050565b603a6020526000908152604090205481565b603e546001600160a01b031681565b6045602052600090815260409020546001600160a01b031681565b603b5481565b6040546001600160a01b031681565b6034602052600090815260409020546001600160a01b031681565b600082821115611757576040805162461bcd60e51b815260206004820152601e60248201527f536166654d6174683a207375627472616374696f6e206f766572666c6f770000604482015290519081900360640190fd5b50900390565b6000828201838110156117b7576040805162461bcd60e51b815260206004820152601b60248201527f536166654d6174683a206164646974696f6e206f766572666c6f770000000000604482015290519081900360640190fd5b9392505050565b303b155b90565b828054600181600116156101000203166002900490600052602060002090601f016020900481019282601f1061180657805160ff1916838001178555611833565b82800160010185558215611833579182015b82811115611833578251825591602001919060010190611818565b5061183f929150611843565b5090565b6117c291905b8082111561183f576000815560010161184956fe5573657220616c726561647920766f746564207468697320697465726174696f6e436f6e747261637420696e7374616e63652068617320616c7265616479206265656e20696e697469616c697a65645573657220646f65736e2774206861766520616e206163746976652070726f706f73616ca265627a7a72315820b17704be0a76e3285c5c978e304b7335cf8d52864089b4f689ff9d266e00f48b64736f6c63430005100032",
  "source": "pragma solidity 0.5.16;\n\n// import \"./interfaces/IERC20.sol\";\nimport './interfaces/IAaveLendingPool.sol';\nimport './interfaces/IADai.sol';\nimport '@openzeppelin/contracts-ethereum-package/contracts/token/ERC20/ERC20.sol';\n\ncontract NoLossDao is Initializable {\n  using SafeMath for uint256;\n\n  mapping(address => uint256) public depositedDai;\n  mapping(uint256 => address) public proposalOwner;\n  mapping(uint256 => string) public proposalDetails;\n  mapping(uint256 => mapping(uint256 => uint256)) public proposalVotes;\n\n  mapping(uint256 => mapping(address => uint256)) public usersNominatedProject; // Means user can only have one project.\n  mapping(address => uint256) public usersProposedProject;\n  mapping(address => uint256) public iterationJoined;\n\n  mapping(uint256 => uint256) public topProject;\n\n  uint256 public totalDepositedDai;\n  uint256 public proposalAmount;\n\n  IERC20 public daiContract;\n  IAaveLendingPool public aaveLendingContract;\n  IADai public adaiContract;\n  address public admin;\n\n  uint256 public proposalIteration;\n\n  uint256 proposalId;\n  enum ProposalState {Active, Withdrawn} // Cooldown\n  mapping(uint256 => ProposalState) public state; // ProposalId to current state\n\n  enum VoteState {Own, Delegated}\n  mapping(address => VoteState) public voteState; // ProposalId to current state\n  mapping(address => address) public voteDelegations;\n\n  uint256 public votingInterval;\n  uint256 public proposalDeadline;\n\n  modifier onlyAdmin() {\n    require(msg.sender == admin, 'Not admin');\n    _;\n  }\n\n  modifier blankUser() {\n    require(depositedDai[msg.sender] == 0, 'User already exists');\n    _;\n  }\n\n  modifier userStaked() {\n    require(depositedDai[msg.sender] > 0, 'User has no stake');\n    _;\n  }\n\n  modifier noProposal() {\n    require(\n      usersProposedProject[msg.sender] == 0,\n      'User already has a proposal'\n    );\n    _;\n  }\n\n  modifier noVoteYet() {\n    require(\n      usersNominatedProject[proposalIteration][msg.sender] == 0,\n      'User already voted this iteration'\n    );\n    _;\n  }\n\n  modifier userHasActiveProposal() {\n    require(\n      state[usersProposedProject[msg.sender]] == ProposalState.Active,\n      \"User doesn't have an active proposal\"\n    );\n    _;\n  }\n\n  modifier userHasNoActiveProposal() {\n    require(\n      state[usersProposedProject[msg.sender]] == ProposalState.Withdrawn ||\n        usersProposedProject[msg.sender] == 0,\n      'User has an active proposal'\n    );\n    _;\n  }\n\n  modifier proposalActive(uint256 propId) {\n    require(state[propId] == ProposalState.Active, \"Proposal isn't active\");\n    _;\n  }\n\n  modifier allowanceAvailable(uint256 amount) {\n    require(\n      amount <= daiContract.allowance(msg.sender, address(this)),\n      'amount not available'\n    );\n    _;\n  }\n\n  function initialize(\n    address daiAddress,\n    address aDaiAddress,\n    address aavePoolAddress,\n    uint256 _proposalAmount,\n    uint256 _votingInterval\n  ) public initializer {\n    daiContract = IERC20(daiAddress);\n    aaveLendingContract = IAaveLendingPool(aavePoolAddress);\n    adaiContract = IADai(aDaiAddress);\n    admin = msg.sender;\n    proposalAmount = _proposalAmount;\n    votingInterval = _votingInterval;\n\n    proposalDeadline = now.add(_votingInterval);\n  }\n\n  function changeVotingInterval(uint256 newInterval) public onlyAdmin {\n    votingInterval = newInterval;\n  }\n\n  function deposit(uint256 amount)\n    public\n    blankUser\n    noProposal\n    allowanceAvailable(amount)\n  {\n    daiContract.transferFrom(msg.sender, address(this), amount);\n    daiContract.approve(address(aaveLendingContract), amount);\n    aaveLendingContract.deposit(address(daiContract), amount, 0);\n\n    //setting values\n    depositedDai[msg.sender] = amount;\n    totalDepositedDai = totalDepositedDai.add(amount);\n  }\n\n  function withdrawFull(uint256 amount) public {\n    // Participant withdraws all there DAI and exits our system :(\n    // Check the user exists in our system\n    // Check the amount they have deposited\n    // Exchange aDAI to DAI for this amount\n    // Send them back their dai\n    // Remove their amount of dai from the total we have\n    // IMPORTANT, remove their vote amount...\n  }\n\n  function createProposal(string memory proposalHash)\n    public\n    allowanceAvailable(proposalAmount)\n    returns (uint256 newProposalId)\n  {\n    // DAI things. TODO: Approve where necessary\n    daiContract.transferFrom(msg.sender, address(this), proposalAmount);\n    daiContract.approve(address(aaveLendingContract), proposalAmount);\n    aaveLendingContract.deposit(\n      address(daiContract),\n      proposalAmount,\n      0 /* We should research this referal code stuff... https://developers.aave.com/#referral-program */\n    );\n\n    totalDepositedDai = totalDepositedDai.add(proposalAmount);\n    depositedDai[msg.sender] = depositedDai[msg.sender].add(proposalAmount);\n\n    // So the first proposal will have an ID of 1\n    newProposalId = proposalId.add(1);\n\n    proposalDetails[newProposalId] = proposalHash;\n    proposalOwner[newProposalId] = msg.sender;\n    state[newProposalId] = ProposalState.Active;\n  }\n\n  function withdrawProposal() public userHasActiveProposal {\n    //This can only be executed after every cycle\n    state[usersProposedProject[msg.sender]] = ProposalState.Withdrawn;\n    totalDepositedDai = totalDepositedDai.sub(proposalAmount);\n    depositedDai[msg.sender] = 0;\n    // TODO\n    // Remove proposalAmount from aDAI\n    // Convert to DAI\n    // Send back to owner\n  }\n\n  function vote(uint256 proposalIdToVoteFor)\n    public\n    proposalActive(proposalIdToVoteFor)\n    noVoteYet\n    userStaked\n    userHasNoActiveProposal\n  {\n    // Can only vote if they joined a previous iteration round...\n    // Check if the msg.sender has given approval rights to our steward to vote on their behalf\n    uint256 currentProposal = usersNominatedProject[proposalIteration][msg\n      .sender];\n    if (currentProposal != 0) {\n      proposalVotes[proposalIteration][currentProposal] = proposalVotes[proposalIteration][currentProposal]\n        .sub(depositedDai[msg.sender]);\n    }\n\n    proposalVotes[proposalIteration][proposalIdToVoteFor] = proposalVotes[proposalIteration][proposalIdToVoteFor]\n      .add(depositedDai[msg.sender]);\n\n    usersNominatedProject[proposalIteration][msg.sender] = proposalIdToVoteFor;\n\n    uint256 topProjectVotes = proposalVotes[proposalIteration][topProject[proposalIteration]];\n\n    // TODO:: if they are equal there is a problem (we must handle this!!)\n    if (proposalVotes[proposalIteration][proposalId] > topProjectVotes) {\n      topProject[proposalIteration] = proposalId;\n    }\n  }\n\n  function distributeFunds() public {\n    // On a *whatever we decide basis* the funds are distributed to the winning project\n    // E.g. every 2 weeks, the project with the most votes gets the generated interest.\n\n    require(proposalDeadline > now, 'current vote still active');\n\n    if (topProject[proposalIteration] != 0) {\n      uint256 interestEarnedSinceLastIteration = adaiContract\n        .balanceOf(address(this))\n        .sub(totalDepositedDai);\n\n      adaiContract.redeem(interestEarnedSinceLastIteration);\n\n      // Do some asserts here for safety...\n\n      address winner = proposalOwner[topProject[proposalIteration]];\n      uint256 amount = daiContract.balanceOf(address(this));\n\n      daiContract.transfer(winner, amount);\n    }\n\n    proposalDeadline = proposalDeadline.add(votingInterval);\n\n    proposalIteration = proposalIteration.add(1);\n    topProject[proposalIteration] = 0;\n  }\n\n  function delegateVoting(address delegatedAddress)\n    public\n    noVoteYet\n    userStaked\n    userHasNoActiveProposal\n  {\n    //TODO: MUCH LATER\n    // Allow the steward (US) to vote on their behalf through other medium (eg. scraping twitter)\n  }\n\n}\n",
  "sourcePath": "/home/jasoons/Documents/temp/app/contracts/contracts/NoLossDao.sol",
  "compiler": {
    "name": "solc",
    "version": "0.5.16+commit.9c3226ce.Emscripten.clang"
  },
  "schemaVersion": "3.0.23",
  "updatedAt": "2020-02-29T23:25:00.008Z",
  "devdoc": {
    "methods": {}
  },
  "userdoc": {
    "methods": {}
  }
}