{
  "contractName": "NoLossDao",
  "abi": [
    {
      "constant": true,
      "inputs": [],
      "name": "aaveLendingContract",
      "outputs": [
        {
          "internalType": "contract IAaveLendingPool",
          "name": "",
          "type": "address"
        }
      ],
      "payable": false,
      "stateMutability": "view",
      "type": "function"
    },
    {
      "constant": true,
      "inputs": [],
      "name": "adaiContract",
      "outputs": [
        {
          "internalType": "contract IADai",
          "name": "",
          "type": "address"
        }
      ],
      "payable": false,
      "stateMutability": "view",
      "type": "function"
    },
    {
      "constant": true,
      "inputs": [],
      "name": "admin",
      "outputs": [
        {
          "internalType": "address",
          "name": "",
          "type": "address"
        }
      ],
      "payable": false,
      "stateMutability": "view",
      "type": "function"
    },
    {
      "constant": true,
      "inputs": [],
      "name": "daiContract",
      "outputs": [
        {
          "internalType": "contract IERC20",
          "name": "",
          "type": "address"
        }
      ],
      "payable": false,
      "stateMutability": "view",
      "type": "function"
    },
    {
      "constant": true,
      "inputs": [
        {
          "internalType": "address",
          "name": "",
          "type": "address"
        }
      ],
      "name": "depositedDai",
      "outputs": [
        {
          "internalType": "uint256",
          "name": "",
          "type": "uint256"
        }
      ],
      "payable": false,
      "stateMutability": "view",
      "type": "function"
    },
    {
      "constant": true,
      "inputs": [
        {
          "internalType": "address",
          "name": "",
          "type": "address"
        }
      ],
      "name": "iterationJoined",
      "outputs": [
        {
          "internalType": "uint256",
          "name": "",
          "type": "uint256"
        }
      ],
      "payable": false,
      "stateMutability": "view",
      "type": "function"
    },
    {
      "constant": true,
      "inputs": [],
      "name": "proposalAmount",
      "outputs": [
        {
          "internalType": "uint256",
          "name": "",
          "type": "uint256"
        }
      ],
      "payable": false,
      "stateMutability": "view",
      "type": "function"
    },
    {
      "constant": true,
      "inputs": [],
      "name": "proposalDeadline",
      "outputs": [
        {
          "internalType": "uint256",
          "name": "",
          "type": "uint256"
        }
      ],
      "payable": false,
      "stateMutability": "view",
      "type": "function"
    },
    {
      "constant": true,
      "inputs": [
        {
          "internalType": "uint256",
          "name": "",
          "type": "uint256"
        }
      ],
      "name": "proposalDetails",
      "outputs": [
        {
          "internalType": "string",
          "name": "",
          "type": "string"
        }
      ],
      "payable": false,
      "stateMutability": "view",
      "type": "function"
    },
    {
      "constant": true,
      "inputs": [],
      "name": "proposalIteration",
      "outputs": [
        {
          "internalType": "uint256",
          "name": "",
          "type": "uint256"
        }
      ],
      "payable": false,
      "stateMutability": "view",
      "type": "function"
    },
    {
      "constant": true,
      "inputs": [
        {
          "internalType": "uint256",
          "name": "",
          "type": "uint256"
        }
      ],
      "name": "proposalOwner",
      "outputs": [
        {
          "internalType": "address",
          "name": "",
          "type": "address"
        }
      ],
      "payable": false,
      "stateMutability": "view",
      "type": "function"
    },
    {
      "constant": true,
      "inputs": [
        {
          "internalType": "uint256",
          "name": "",
          "type": "uint256"
        },
        {
          "internalType": "uint256",
          "name": "",
          "type": "uint256"
        }
      ],
      "name": "proposalVotes",
      "outputs": [
        {
          "internalType": "uint256",
          "name": "",
          "type": "uint256"
        }
      ],
      "payable": false,
      "stateMutability": "view",
      "type": "function"
    },
    {
      "constant": true,
      "inputs": [
        {
          "internalType": "uint256",
          "name": "",
          "type": "uint256"
        }
      ],
      "name": "state",
      "outputs": [
        {
          "internalType": "enum NoLossDao.ProposalState",
          "name": "",
          "type": "uint8"
        }
      ],
      "payable": false,
      "stateMutability": "view",
      "type": "function"
    },
    {
      "constant": true,
      "inputs": [
        {
          "internalType": "uint256",
          "name": "",
          "type": "uint256"
        }
      ],
      "name": "topProject",
      "outputs": [
        {
          "internalType": "uint256",
          "name": "",
          "type": "uint256"
        }
      ],
      "payable": false,
      "stateMutability": "view",
      "type": "function"
    },
    {
      "constant": true,
      "inputs": [],
      "name": "totalDepositedDai",
      "outputs": [
        {
          "internalType": "uint256",
          "name": "",
          "type": "uint256"
        }
      ],
      "payable": false,
      "stateMutability": "view",
      "type": "function"
    },
    {
      "constant": true,
      "inputs": [
        {
          "internalType": "uint256",
          "name": "",
          "type": "uint256"
        },
        {
          "internalType": "address",
          "name": "",
          "type": "address"
        }
      ],
      "name": "usersNominatedProject",
      "outputs": [
        {
          "internalType": "uint256",
          "name": "",
          "type": "uint256"
        }
      ],
      "payable": false,
      "stateMutability": "view",
      "type": "function"
    },
    {
      "constant": true,
      "inputs": [
        {
          "internalType": "address",
          "name": "",
          "type": "address"
        }
      ],
      "name": "usersProposedProject",
      "outputs": [
        {
          "internalType": "uint256",
          "name": "",
          "type": "uint256"
        }
      ],
      "payable": false,
      "stateMutability": "view",
      "type": "function"
    },
    {
      "constant": true,
      "inputs": [
        {
          "internalType": "address",
          "name": "",
          "type": "address"
        }
      ],
      "name": "voteDelegations",
      "outputs": [
        {
          "internalType": "address",
          "name": "",
          "type": "address"
        }
      ],
      "payable": false,
      "stateMutability": "view",
      "type": "function"
    },
    {
      "constant": true,
      "inputs": [],
      "name": "votingInterval",
      "outputs": [
        {
          "internalType": "uint256",
          "name": "",
          "type": "uint256"
        }
      ],
      "payable": false,
      "stateMutability": "view",
      "type": "function"
    },
    {
      "constant": false,
      "inputs": [
        {
          "internalType": "address",
          "name": "daiAddress",
          "type": "address"
        },
        {
          "internalType": "address",
          "name": "aDaiAddress",
          "type": "address"
        },
        {
          "internalType": "address",
          "name": "aavePoolAddress",
          "type": "address"
        },
        {
          "internalType": "uint256",
          "name": "_proposalAmount",
          "type": "uint256"
        },
        {
          "internalType": "uint256",
          "name": "_votingInterval",
          "type": "uint256"
        }
      ],
      "name": "initialize",
      "outputs": [],
      "payable": false,
      "stateMutability": "nonpayable",
      "type": "function"
    },
    {
      "constant": false,
      "inputs": [
        {
          "internalType": "uint256",
          "name": "newInterval",
          "type": "uint256"
        }
      ],
      "name": "changeVotingInterval",
      "outputs": [],
      "payable": false,
      "stateMutability": "nonpayable",
      "type": "function"
    },
    {
      "constant": false,
      "inputs": [
        {
          "internalType": "uint256",
          "name": "amount",
          "type": "uint256"
        }
      ],
      "name": "deposit",
      "outputs": [],
      "payable": false,
      "stateMutability": "nonpayable",
      "type": "function"
    },
    {
      "constant": false,
      "inputs": [
        {
          "internalType": "uint256",
          "name": "amount",
          "type": "uint256"
        }
      ],
      "name": "withdrawFull",
      "outputs": [],
      "payable": false,
      "stateMutability": "nonpayable",
      "type": "function"
    },
    {
      "constant": false,
      "inputs": [
        {
          "internalType": "string",
          "name": "proposalHash",
          "type": "string"
        }
      ],
      "name": "createProposal",
      "outputs": [
        {
          "internalType": "uint256",
          "name": "newProposalId",
          "type": "uint256"
        }
      ],
      "payable": false,
      "stateMutability": "nonpayable",
      "type": "function"
    },
    {
      "constant": false,
      "inputs": [],
      "name": "withdrawProposal",
      "outputs": [],
      "payable": false,
      "stateMutability": "nonpayable",
      "type": "function"
    },
    {
      "constant": false,
      "inputs": [
        {
          "internalType": "uint256",
          "name": "proposalIdToVoteFor",
          "type": "uint256"
        }
      ],
      "name": "vote",
      "outputs": [],
      "payable": false,
      "stateMutability": "nonpayable",
      "type": "function"
    },
    {
      "constant": false,
      "inputs": [],
      "name": "distributeFunds",
      "outputs": [],
      "payable": false,
      "stateMutability": "nonpayable",
      "type": "function"
    },
    {
      "constant": false,
      "inputs": [
        {
          "internalType": "address",
          "name": "delegatedAddress",
          "type": "address"
        }
      ],
      "name": "delegateVoting",
      "outputs": [],
      "payable": false,
      "stateMutability": "nonpayable",
      "type": "function"
    },
    {
      "constant": false,
      "inputs": [
        {
          "internalType": "uint256",
          "name": "proposalIdToVoteFor",
          "type": "uint256"
        },
        {
          "internalType": "address",
          "name": "delegatedFrom",
          "type": "address"
        }
      ],
      "name": "voteProxy",
      "outputs": [],
      "payable": false,
      "stateMutability": "nonpayable",
      "type": "function"
    }
  ],
  "bytecode": "0x608060405234801561001057600080fd5b50611e85806100206000396000f3fe608060405234801561001057600080fd5b50600436106101ec576000357c0100000000000000000000000000000000000000000000000000000000900480637584939911610121578063b6b55f25116100bf578063d1c22c3b1161008e578063d1c22c3b146105d1578063d8a3239f146105d9578063f851a440146105f6578063fcde9925146105fe576101ec565b8063b6b55f2514610569578063bdd882f014610586578063c68dc6ad146105a3578063ca28f0d0146105ab576101ec565b806382a0ca9c116100fb57806382a0ca9c146104af578063976ee2b6146104d5578063a587118214610501578063a6b63eb814610527576101ec565b80637584939914610479578063765cb83a146104815780637ce1f844146104a7576101ec565b806339ab499b1161018e57806349c2a1a61161016857806349c2a1a6146103a657806351252f6c1461044c5780636b38def2146104695780637566ad5314610471576101ec565b806339ab499b146103375780633a6a4d2e1461035d5780633e4f49e614610365576101ec565b80630d68eb9e116101ca5780630d68eb9e1461024457806316e9eaec14610279578063173a2b5c1461030b5780632ce8b91314610313576101ec565b80630121b93f146101f1578063031cf1d91461021057806303ef7f3914610218575b600080fd5b61020e6004803603602081101561020757600080fd5b503561061b565b005b61020e6108ff565b61020e6004803603604081101561022e57600080fd5b5080359060200135600160a060020a03166109b5565b6102676004803603604081101561025a57600080fd5b5080359060200135610d48565b60408051918252519081900360200190f35b6102966004803603602081101561028f57600080fd5b5035610d65565b6040805160208082528351818301528351919283929083019185019080838360005b838110156102d05781810151838201526020016102b8565b50505050905090810190601f1680156102fd5780820380516001836020036101000a031916815260200191505b509250505060405180910390f35b610267610e00565b61031b610e06565b60408051600160a060020a039092168252519081900360200190f35b6102676004803603602081101561034d57600080fd5b5035600160a060020a0316610e15565b61020e610e27565b6103826004803603602081101561037b57600080fd5b5035611151565b6040518082600181111561039257fe5b60ff16815260200191505060405180910390f35b610267600480360360208110156103bc57600080fd5b8101906020810181356401000000008111156103d757600080fd5b8201836020820111156103e957600080fd5b8035906020019184600183028401116401000000008311171561040b57600080fd5b91908080601f016020809104026020016040519081016040528093929190818152602001838380828437600092019190915250929550611166945050505050565b61020e6004803603602081101561046257600080fd5b50356114f7565b61031b61155e565b61026761156d565b610267611573565b61020e6004803603602081101561049757600080fd5b5035600160a060020a0316611579565b6102676116be565b610267600480360360208110156104c557600080fd5b5035600160a060020a03166116c4565b610267600480360360408110156104eb57600080fd5b5080359060200135600160a060020a03166116d6565b6102676004803603602081101561051757600080fd5b5035600160a060020a03166116f3565b61020e600480360360a081101561053d57600080fd5b50600160a060020a03813581169160208101358216916040820135169060608101359060800135611705565b61020e6004803603602081101561057f57600080fd5b5035611821565b6102676004803603602081101561059c57600080fd5b5035611be2565b61031b611bf4565b61031b600480360360208110156105c157600080fd5b5035600160a060020a0316611c03565b610267611c1e565b61020e600480360360208110156105ef57600080fd5b5035611c24565b61031b611c27565b61031b6004803603602081101561061457600080fd5b5035611c36565b806000808281526043602052604090205460ff16600181111561063a57fe5b1461068f576040805160e560020a62461bcd02815260206004820152601560248201527f50726f706f73616c2069736e2774206163746976650000000000000000000000604482015290519081900360640190fd5b604154600090815260376020908152604080832033808552925290912054156106ec5760405160e560020a62461bcd028152600401808060200182810382526021815260200180611db56021913960400191505060405180910390fd5b33600081815260336020526040902054610750576040805160e560020a62461bcd02815260206004820152601160248201527f5573657220686173206e6f207374616b65000000000000000000000000000000604482015290519081900360640190fd5b336000818152603860209081526040808320548352604390915290205460019060ff168181111561077d57fe5b148061079f5750600160a060020a038116600090815260386020526040902054155b6107f3576040805160e560020a62461bcd02815260206004820152601b60248201527f557365722068617320616e206163746976652070726f706f73616c0000000000604482015290519081900360640190fd5b604154336000818152603960205260409020549091116108475760405160e560020a62461bcd028152600401808060200182810382526029815260200180611dd66029913960400191505060405180910390fd5b336000908152603360209081526040808320546041548452603683528184208a85529092529091205461087f9163ffffffff611c5116565b6041805460009081526036602081815260408084208c8552825280842095909555835483526037815284832033845281528483208b9055925482528252828120603a8352838220548252909152818120546042548252919020548110156108f6576042546041546000908152603a60205260409020555b50505050505050565b336000818152603860209081526040808320548352604390915281205460ff16600181111561092a57fe5b146109695760405160e560020a62461bcd028152600401808060200182810382526024815260200180611e2d6024913960400191505060405180910390fd5b33600090815260386020908152604080832054835260439091529020805460ff19166001179055603c54603b5461099f91611cb5565b603b555033600090815260336020526040812055565b816000808281526043602052604090205460ff1660018111156109d457fe5b14610a29576040805160e560020a62461bcd02815260206004820152601560248201527f50726f706f73616c2069736e2774206163746976650000000000000000000000604482015290519081900360640190fd5b600160a060020a038083166000908152604460205260409020548391163314610a9c576040805160e560020a62461bcd02815260206004820152601d60248201527f5573657220646f65736e277420686176652070726f7879207269676874000000604482015290519081900360640190fd5b6041546000908152603760209081526040808320600160a060020a0387168452909152902054839015610b035760405160e560020a62461bcd028152600401808060200182810382526021815260200180611db56021913960400191505060405180910390fd5b600160a060020a0384166000908152603360205260409020548490610b72576040805160e560020a62461bcd02815260206004820152601160248201527f5573657220686173206e6f207374616b65000000000000000000000000000000604482015290519081900360640190fd5b846001600160a060020a0382166000908152603860209081526040808320548352604390915290205460ff166001811115610ba957fe5b1480610bcb5750600160a060020a038116600090815260386020526040902054155b610c1f576040805160e560020a62461bcd02815260206004820152601b60248201527f557365722068617320616e206163746976652070726f706f73616c0000000000604482015290519081900360640190fd5b604154600160a060020a038716600090815260396020526040902054879111610c7c5760405160e560020a62461bcd028152600401808060200182810382526029815260200180611dd66029913960400191505060405180910390fd5b600160a060020a0387166000908152603360209081526040808320546041548452603683528184208c855290925290912054610cbd9163ffffffff611c5116565b6041805460009081526036602081815260408084208e85528252808420959095558354835260378152848320600160a060020a038d16845281528483208d9055925482528252828120603a835283822054825290915281812054604254825291902054811015610d3d576042546041546000908152603a60205260409020555b505050505050505050565b603660209081526000928352604080842090915290825290205481565b60356020908152600091825260409182902080548351601f600260001961010060018616150201909316929092049182018490048402810184019094528084529091830182828015610df85780601f10610dcd57610100808354040283529160200191610df8565b820191906000526020600020905b815481529060010190602001808311610ddb57829003601f168201915b505050505081565b603c5481565b603d54600160a060020a031681565b60386020526000908152604090205481565b4260465411610e80576040805160e560020a62461bcd02815260206004820152601960248201527f63757272656e7420766f7465207374696c6c2061637469766500000000000000604482015290519081900360640190fd5b6041546000908152603a60205260409020541561110f57603b54603f54604080517f70a082310000000000000000000000000000000000000000000000000000000081523060048201529051600093610f3f939092600160a060020a03909116916370a0823191602480820192602092909190829003018186803b158015610f0757600080fd5b505afa158015610f1b573d6000803e3d6000fd5b505050506040513d6020811015610f3157600080fd5b50519063ffffffff611cb516565b603f54604080517fdb006a75000000000000000000000000000000000000000000000000000000008152600481018490529051929350600160a060020a039091169163db006a759160248082019260009290919082900301818387803b158015610fa857600080fd5b505af1158015610fbc573d6000803e3d6000fd5b50506041546000908152603a602090815260408083205483526034825280832054603d5482517f70a082310000000000000000000000000000000000000000000000000000000081523060048201529251600160a060020a03928316975094955016926370a0823192602480840193919291829003018186803b15801561104257600080fd5b505afa158015611056573d6000803e3d6000fd5b505050506040513d602081101561106c57600080fd5b5051603d54604080517fa9059cbb000000000000000000000000000000000000000000000000000000008152600160a060020a03868116600483015260248201859052915193945091169163a9059cbb916044808201926020929091908290030181600087803b1580156110df57600080fd5b505af11580156110f3573d6000803e3d6000fd5b505050506040513d602081101561110957600080fd5b50505050505b6045546046546111249163ffffffff611c5116565b60465560415461113b90600163ffffffff611c5116565b60418190556000908152603a6020526040812055565b60436020526000908152604090205460ff1681565b603c54603d54604080517fdd62ed3e000000000000000000000000000000000000000000000000000000008152336004820152306024820152905160009392600160a060020a03169163dd62ed3e916044808301926020929190829003018186803b1580156111d457600080fd5b505afa1580156111e8573d6000803e3d6000fd5b505050506040513d60208110156111fe57600080fd5b5051811115611257576040805160e560020a62461bcd02815260206004820152601460248201527f616d6f756e74206e6f7420617661696c61626c65000000000000000000000000604482015290519081900360640190fd5b603d54603c54604080517f23b872dd000000000000000000000000000000000000000000000000000000008152336004820152306024820152604481019290925251600160a060020a03909216916323b872dd916064808201926020929091908290030181600087803b1580156112cd57600080fd5b505af11580156112e1573d6000803e3d6000fd5b505050506040513d60208110156112f757600080fd5b5050603d54603e54603c54604080517f095ea7b3000000000000000000000000000000000000000000000000000000008152600160a060020a039384166004820152602481019290925251919092169163095ea7b39160448083019260209291908290030181600087803b15801561136e57600080fd5b505af1158015611382573d6000803e3d6000fd5b505050506040513d602081101561139857600080fd5b5050603e54603d54603c54604080517fd2d0e066000000000000000000000000000000000000000000000000000000008152600160a060020a03938416600482015260248101929092526000604483018190529051929093169263d2d0e0669260648084019382900301818387803b15801561141357600080fd5b505af1158015611427573d6000803e3d6000fd5b5050603c54603b546114419350915063ffffffff611c5116565b603b55603c54336000908152603360205260409020546114669163ffffffff611c5116565b3360009081526033602052604090205560425461148a90600163ffffffff611c5116565b6042819055600081815260356020908152604090912085519294506114b3929091860190611d1c565b50506000818152603460209081526040808320805473ffffffffffffffffffffffffffffffffffffffff19163317905560439091529020805460ff19169055919050565b604054600160a060020a03163314611559576040805160e560020a62461bcd02815260206004820152600960248201527f4e6f742061646d696e0000000000000000000000000000000000000000000000604482015290519081900360640190fd5b604555565b603f54600160a060020a031681565b60455481565b60415481565b336000818152603360205260409020546115dd576040805160e560020a62461bcd02815260206004820152601160248201527f5573657220686173206e6f207374616b65000000000000000000000000000000604482015290519081900360640190fd5b336000818152603860209081526040808320548352604390915290205460019060ff168181111561160a57fe5b148061162c5750600160a060020a038116600090815260386020526040902054155b611680576040805160e560020a62461bcd02815260206004820152601b60248201527f557365722068617320616e206163746976652070726f706f73616c0000000000604482015290519081900360640190fd5b5050336000908152604460205260409020805473ffffffffffffffffffffffffffffffffffffffff1916600160a060020a0392909216919091179055565b60465481565b60336020526000908152604090205481565b603760209081526000928352604080842090915290825290205481565b60396020526000908152604090205481565b600054610100900460ff168061171e575061171e611d15565b8061172c575060005460ff16155b61176a5760405160e560020a62461bcd02815260040180806020018281038252602e815260200180611dff602e913960400191505060405180910390fd5b600054610100900460ff16158015611795576000805460ff1961ff0019909116610100171660011790555b603d8054600160a060020a0380891673ffffffffffffffffffffffffffffffffffffffff1992831617909255603e8054878416908316179055603f8054928816928216929092179091556040805490911633179055603c8390556045829055611804428363ffffffff611c5116565b6046558015611819576000805461ff00191690555b505050505050565b3360009081526033602052604090205415611886576040805160e560020a62461bcd02815260206004820152601360248201527f5573657220616c72656164792065786973747300000000000000000000000000604482015290519081900360640190fd5b33600081815260386020526040902054156118eb576040805160e560020a62461bcd02815260206004820152601b60248201527f5573657220616c72656164792068617320612070726f706f73616c0000000000604482015290519081900360640190fd5b603d54604080517fdd62ed3e00000000000000000000000000000000000000000000000000000000815233600482015230602482015290518492600160a060020a03169163dd62ed3e916044808301926020929190829003018186803b15801561195457600080fd5b505afa158015611968573d6000803e3d6000fd5b505050506040513d602081101561197e57600080fd5b50518111156119d7576040805160e560020a62461bcd02815260206004820152601460248201527f616d6f756e74206e6f7420617661696c61626c65000000000000000000000000604482015290519081900360640190fd5b603d54604080517f23b872dd000000000000000000000000000000000000000000000000000000008152336004820152306024820152604481018690529051600160a060020a03909216916323b872dd916064808201926020929091908290030181600087803b158015611a4a57600080fd5b505af1158015611a5e573d6000803e3d6000fd5b505050506040513d6020811015611a7457600080fd5b5050603d54603e54604080517f095ea7b3000000000000000000000000000000000000000000000000000000008152600160a060020a039283166004820152602481018790529051919092169163095ea7b39160448083019260209291908290030181600087803b158015611ae857600080fd5b505af1158015611afc573d6000803e3d6000fd5b505050506040513d6020811015611b1257600080fd5b5050603e54603d54604080517fd2d0e066000000000000000000000000000000000000000000000000000000008152600160a060020a039283166004820152602481018790526000604482018190529151929093169263d2d0e066926064808301939282900301818387803b158015611b8a57600080fd5b505af1158015611b9e573d6000803e3d6000fd5b50503360009081526033602052604090208590555050603b54611bc7908463ffffffff611c5116565b603b5550506041543360009081526039602052604090205550565b603a6020526000908152604090205481565b603e54600160a060020a031681565b604460205260009081526040902054600160a060020a031681565b603b5481565b50565b604054600160a060020a031681565b603460205260009081526040902054600160a060020a031681565b600082820183811015611cae576040805160e560020a62461bcd02815260206004820152601b60248201527f536166654d6174683a206164646974696f6e206f766572666c6f770000000000604482015290519081900360640190fd5b9392505050565b600082821115611d0f576040805160e560020a62461bcd02815260206004820152601e60248201527f536166654d6174683a207375627472616374696f6e206f766572666c6f770000604482015290519081900360640190fd5b50900390565b303b155b90565b828054600181600116156101000203166002900490600052602060002090601f016020900481019282601f10611d5d57805160ff1916838001178555611d8a565b82800160010185558215611d8a579182015b82811115611d8a578251825591602001919060010190611d6f565b50611d96929150611d9a565b5090565b611d1991905b80821115611d965760008155600101611da056fe5573657220616c726561647920766f746564207468697320697465726174696f6e55736572206f6e6c7920656c696769626c6520746f20766f7465206e65787420697465726174696f6e436f6e747261637420696e7374616e63652068617320616c7265616479206265656e20696e697469616c697a65645573657220646f65736e2774206861766520616e206163746976652070726f706f73616ca265627a7a72315820d29d81d0baf222a3c7889bfdc853baf2eee1e609bce9276084fa372e4b4a21ce64736f6c63430005100032",
  "source": "pragma solidity 0.5.16;\n\n// import \"./interfaces/IERC20.sol\";\nimport './interfaces/IAaveLendingPool.sol';\nimport './interfaces/IADai.sol';\nimport '@openzeppelin/contracts-ethereum-package/contracts/token/ERC20/ERC20.sol';\n\ncontract NoLossDao is Initializable {\n  using SafeMath for uint256;\n\n  mapping(address => uint256) public depositedDai;\n  mapping(uint256 => address) public proposalOwner;\n  mapping(uint256 => string) public proposalDetails;\n  mapping(uint256 => mapping(uint256 => uint256)) public proposalVotes;\n\n  mapping(uint256 => mapping(address => uint256)) public usersNominatedProject; // Means user can only have one project.\n  mapping(address => uint256) public usersProposedProject;\n  mapping(address => uint256) public iterationJoined;\n\n  mapping(uint256 => uint256) public topProject;\n\n  uint256 public totalDepositedDai;\n  uint256 public proposalAmount;\n\n  IERC20 public daiContract;\n  IAaveLendingPool public aaveLendingContract;\n  IADai public adaiContract;\n  address public admin;\n\n  uint256 public proposalIteration;\n\n  uint256 proposalId;\n  enum ProposalState {Active, Withdrawn} // Cooldown\n  mapping(uint256 => ProposalState) public state; // ProposalId to current state\n\n  mapping(address => address) public voteDelegations;\n\n  uint256 public votingInterval;\n  uint256 public proposalDeadline;\n\n  modifier onlyAdmin() {\n    require(msg.sender == admin, 'Not admin');\n    _;\n  }\n\n  modifier blankUser() {\n    require(depositedDai[msg.sender] == 0, 'User already exists');\n    _;\n  }\n\n  modifier userStaked(address givenAddress) {\n    require(depositedDai[givenAddress] > 0, 'User has no stake');\n    _;\n  }\n\n  modifier noProposal(address givenAddress) {\n    require(\n      usersProposedProject[givenAddress] == 0,\n      'User already has a proposal'\n    );\n    _;\n  }\n\n  modifier noVoteYet(address givenAddress) {\n    require(\n      usersNominatedProject[proposalIteration][givenAddress] == 0,\n      'User already voted this iteration'\n    );\n    _;\n  }\n\n  modifier userHasActiveProposal(address givenAddress) {\n    require(\n      state[usersProposedProject[givenAddress]] == ProposalState.Active,\n      \"User doesn't have an active proposal\"\n    );\n    _;\n  }\n\n  modifier userHasNoActiveProposal(address givenAddress) {\n    require(\n      state[usersProposedProject[givenAddress]] == ProposalState.Withdrawn ||\n        usersProposedProject[givenAddress] == 0,\n      'User has an active proposal'\n    );\n    _;\n  }\n\n  modifier proposalActive(uint256 propId) {\n    require(state[propId] == ProposalState.Active, \"Proposal isn't active\");\n    _;\n  }\n\n  modifier allowanceAvailable(uint256 amount) {\n    require(\n      amount <= daiContract.allowance(msg.sender, address(this)),\n      'amount not available'\n    );\n    _;\n  }\n\n  // Modifiers for proxy\n  modifier proxyRight(address delegatedFrom) {\n    require(\n      voteDelegations[delegatedFrom] == msg.sender,\n      \"User doesn't have proxy right\"\n    );\n    _;\n  }\n\n  // Modifiers for proxy\n  modifier joinedInTime(address givenAddress) {\n    require(\n      iterationJoined[givenAddress] < proposalIteration,\n      'User only eligible to vote next iteration'\n    );\n    _;\n  }\n\n  function initialize(\n    address daiAddress,\n    address aDaiAddress,\n    address aavePoolAddress,\n    uint256 _proposalAmount,\n    uint256 _votingInterval\n  ) public initializer {\n    daiContract = IERC20(daiAddress);\n    aaveLendingContract = IAaveLendingPool(aavePoolAddress);\n    adaiContract = IADai(aDaiAddress);\n    admin = msg.sender;\n    proposalAmount = _proposalAmount;\n    votingInterval = _votingInterval;\n\n    proposalDeadline = now.add(_votingInterval);\n  }\n\n  function changeVotingInterval(uint256 newInterval) public onlyAdmin {\n    votingInterval = newInterval;\n  }\n\n  // This will return an empty array if no proposal added\n  //   function proposalHashes() public view returns (string[] memory) {\n  //     string[] memory myHashes = new string[](proposalId);\n  //     for (uint256 i = 1; i <= proposalId; i++) {\n  //       myHashes[i - 1] = proposalDetails[i];\n  //     }\n  //     return myHashes;\n  //   }\n\n  function deposit(uint256 amount)\n    public\n    blankUser\n    noProposal(msg.sender)\n    allowanceAvailable(amount)\n  {\n    daiContract.transferFrom(msg.sender, address(this), amount);\n    daiContract.approve(address(aaveLendingContract), amount);\n    aaveLendingContract.deposit(address(daiContract), amount, 0);\n\n    //setting values\n    depositedDai[msg.sender] = amount;\n    totalDepositedDai = totalDepositedDai.add(amount);\n    iterationJoined[msg.sender] = proposalIteration;\n  }\n\n  function withdrawFull(uint256 amount) public {\n    // Participant withdraws all there DAI and exits our system :(\n    // Check the user exists in our system\n    // Check the amount they have deposited\n    // Exchange aDAI to DAI for this amount\n    // Send them back their dai\n    // Remove their amount of dai from the total we have\n    // IMPORTANT, remove their vote amount...\n  }\n\n  function createProposal(string memory proposalHash)\n    public\n    allowanceAvailable(proposalAmount)\n    returns (uint256 newProposalId)\n  {\n    // DAI things. TODO: Approve where necessary\n    daiContract.transferFrom(msg.sender, address(this), proposalAmount);\n    daiContract.approve(address(aaveLendingContract), proposalAmount);\n    aaveLendingContract.deposit(\n      address(daiContract),\n      proposalAmount,\n      0 /* We should research this referal code stuff... https://developers.aave.com/#referral-program */\n    );\n\n    totalDepositedDai = totalDepositedDai.add(proposalAmount);\n    depositedDai[msg.sender] = depositedDai[msg.sender].add(proposalAmount);\n\n    // So the first proposal will have an ID of 1\n    proposalId = proposalId.add(1);\n    newProposalId = proposalId;\n\n    proposalDetails[newProposalId] = proposalHash;\n    proposalOwner[newProposalId] = msg.sender;\n    state[newProposalId] = ProposalState.Active;\n  }\n\n  function withdrawProposal() public userHasActiveProposal(msg.sender) {\n    //This can only be executed after every cycle\n    state[usersProposedProject[msg.sender]] = ProposalState.Withdrawn;\n    totalDepositedDai = totalDepositedDai.sub(proposalAmount);\n    depositedDai[msg.sender] = 0;\n    // TODO\n    // Remove proposalAmount from aDAI\n    // Convert to DAI\n    // Send back to owner\n  }\n\n  function vote(uint256 proposalIdToVoteFor)\n    public\n    proposalActive(proposalIdToVoteFor)\n    noVoteYet(msg.sender)\n    userStaked(msg.sender)\n    userHasNoActiveProposal(msg.sender)\n    joinedInTime(msg.sender)\n  {\n    proposalVotes[proposalIteration][proposalIdToVoteFor] = proposalVotes[proposalIteration][proposalIdToVoteFor]\n      .add(depositedDai[msg.sender]);\n    usersNominatedProject[proposalIteration][msg.sender] = proposalIdToVoteFor;\n\n    uint256 topProjectVotes = proposalVotes[proposalIteration][topProject[proposalIteration]];\n\n    // TODO:: if they are equal there is a problem (we must handle this!!)\n    if (proposalVotes[proposalIteration][proposalId] > topProjectVotes) {\n      topProject[proposalIteration] = proposalId;\n    }\n  }\n\n  function distributeFunds() public {\n    // On a *whatever we decide basis* the funds are distributed to the winning project\n    // E.g. every 2 weeks, the project with the most votes gets the generated interest.\n\n    require(proposalDeadline > now, 'current vote still active');\n\n    if (topProject[proposalIteration] != 0) {\n      uint256 interestEarnedSinceLastIteration = adaiContract\n        .balanceOf(address(this))\n        .sub(totalDepositedDai);\n\n      adaiContract.redeem(interestEarnedSinceLastIteration);\n\n      // Do some asserts here for safety...\n\n      address winner = proposalOwner[topProject[proposalIteration]];\n      uint256 amount = daiContract.balanceOf(address(this));\n\n      daiContract.transfer(winner, amount);\n    }\n\n    proposalDeadline = proposalDeadline.add(votingInterval);\n\n    proposalIteration = proposalIteration.add(1);\n    topProject[proposalIteration] = 0;\n  }\n\n  function delegateVoting(address delegatedAddress)\n    public\n    userStaked(msg.sender)\n    userHasNoActiveProposal(msg.sender)\n  {\n    voteDelegations[msg.sender] = delegatedAddress;\n  }\n\n  function voteProxy(uint256 proposalIdToVoteFor, address delegatedFrom)\n    public\n    proposalActive(proposalIdToVoteFor)\n    proxyRight(delegatedFrom)\n    noVoteYet(delegatedFrom)\n    userStaked(delegatedFrom)\n    userHasNoActiveProposal(delegatedFrom)\n    joinedInTime(delegatedFrom)\n  {\n    // CODE DUPLICATION: CAREFUL OF CHANGES IN BOTH\n    proposalVotes[proposalIteration][proposalIdToVoteFor] = proposalVotes[proposalIteration][proposalIdToVoteFor]\n      .add(depositedDai[delegatedFrom]);\n    usersNominatedProject[proposalIteration][delegatedFrom] = proposalIdToVoteFor;\n\n    uint256 topProjectVotes = proposalVotes[proposalIteration][topProject[proposalIteration]];\n\n    // TODO:: if they are equal there is a problem (we must handle this!!)\n    if (proposalVotes[proposalIteration][proposalId] > topProjectVotes) {\n      topProject[proposalIteration] = proposalId;\n    }\n  }\n\n}\n",
  "sourcePath": "/Users/johanthan/Code/hackathons/app/contracts/contracts/NoLossDao.sol",
  "compiler": {
    "name": "solc",
    "version": "0.5.16+commit.9c3226ce.Emscripten.clang"
  },
  "schemaVersion": "3.0.6",
  "updatedAt": "2020-03-01T00:58:10.623Z",
  "devdoc": {
    "methods": {}
  },
  "userdoc": {
    "methods": {}
  }
}