{
  "contractName": "NoLossDao",
  "abi": [
    {
      "constant": true,
      "inputs": [],
      "name": "aaveLendingContract",
      "outputs": [
        {
          "internalType": "contract IAaveLendingPool",
          "name": "",
          "type": "address"
        }
      ],
      "payable": false,
      "stateMutability": "view",
      "type": "function"
    },
    {
      "constant": true,
      "inputs": [],
      "name": "aaveLendingContractCore",
      "outputs": [
        {
          "internalType": "address",
          "name": "",
          "type": "address"
        }
      ],
      "payable": false,
      "stateMutability": "view",
      "type": "function"
    },
    {
      "constant": true,
      "inputs": [],
      "name": "adaiContract",
      "outputs": [
        {
          "internalType": "contract IADai",
          "name": "",
          "type": "address"
        }
      ],
      "payable": false,
      "stateMutability": "view",
      "type": "function"
    },
    {
      "constant": true,
      "inputs": [],
      "name": "admin",
      "outputs": [
        {
          "internalType": "address",
          "name": "",
          "type": "address"
        }
      ],
      "payable": false,
      "stateMutability": "view",
      "type": "function"
    },
    {
      "constant": true,
      "inputs": [
        {
          "internalType": "address",
          "name": "",
          "type": "address"
        }
      ],
      "name": "benefactorsProposal",
      "outputs": [
        {
          "internalType": "uint256",
          "name": "",
          "type": "uint256"
        }
      ],
      "payable": false,
      "stateMutability": "view",
      "type": "function"
    },
    {
      "constant": true,
      "inputs": [],
      "name": "daiContract",
      "outputs": [
        {
          "internalType": "contract IERC20",
          "name": "",
          "type": "address"
        }
      ],
      "payable": false,
      "stateMutability": "view",
      "type": "function"
    },
    {
      "constant": true,
      "inputs": [
        {
          "internalType": "address",
          "name": "",
          "type": "address"
        }
      ],
      "name": "depositedDai",
      "outputs": [
        {
          "internalType": "uint256",
          "name": "",
          "type": "uint256"
        }
      ],
      "payable": false,
      "stateMutability": "view",
      "type": "function"
    },
    {
      "constant": true,
      "inputs": [
        {
          "internalType": "address",
          "name": "",
          "type": "address"
        }
      ],
      "name": "iterationJoined",
      "outputs": [
        {
          "internalType": "uint256",
          "name": "",
          "type": "uint256"
        }
      ],
      "payable": false,
      "stateMutability": "view",
      "type": "function"
    },
    {
      "constant": true,
      "inputs": [],
      "name": "proposalAmount",
      "outputs": [
        {
          "internalType": "uint256",
          "name": "",
          "type": "uint256"
        }
      ],
      "payable": false,
      "stateMutability": "view",
      "type": "function"
    },
    {
      "constant": true,
      "inputs": [],
      "name": "proposalDeadline",
      "outputs": [
        {
          "internalType": "uint256",
          "name": "",
          "type": "uint256"
        }
      ],
      "payable": false,
      "stateMutability": "view",
      "type": "function"
    },
    {
      "constant": true,
      "inputs": [
        {
          "internalType": "uint256",
          "name": "",
          "type": "uint256"
        }
      ],
      "name": "proposalDetails",
      "outputs": [
        {
          "internalType": "string",
          "name": "",
          "type": "string"
        }
      ],
      "payable": false,
      "stateMutability": "view",
      "type": "function"
    },
    {
      "constant": true,
      "inputs": [],
      "name": "proposalId",
      "outputs": [
        {
          "internalType": "uint256",
          "name": "",
          "type": "uint256"
        }
      ],
      "payable": false,
      "stateMutability": "view",
      "type": "function"
    },
    {
      "constant": true,
      "inputs": [],
      "name": "proposalIteration",
      "outputs": [
        {
          "internalType": "uint256",
          "name": "",
          "type": "uint256"
        }
      ],
      "payable": false,
      "stateMutability": "view",
      "type": "function"
    },
    {
      "constant": true,
      "inputs": [
        {
          "internalType": "uint256",
          "name": "",
          "type": "uint256"
        }
      ],
      "name": "proposalOwner",
      "outputs": [
        {
          "internalType": "address",
          "name": "",
          "type": "address"
        }
      ],
      "payable": false,
      "stateMutability": "view",
      "type": "function"
    },
    {
      "constant": true,
      "inputs": [
        {
          "internalType": "uint256",
          "name": "",
          "type": "uint256"
        },
        {
          "internalType": "uint256",
          "name": "",
          "type": "uint256"
        }
      ],
      "name": "proposalVotes",
      "outputs": [
        {
          "internalType": "uint256",
          "name": "",
          "type": "uint256"
        }
      ],
      "payable": false,
      "stateMutability": "view",
      "type": "function"
    },
    {
      "constant": true,
      "inputs": [
        {
          "internalType": "uint256",
          "name": "",
          "type": "uint256"
        }
      ],
      "name": "state",
      "outputs": [
        {
          "internalType": "enum NoLossDao.ProposalState",
          "name": "",
          "type": "uint8"
        }
      ],
      "payable": false,
      "stateMutability": "view",
      "type": "function"
    },
    {
      "constant": true,
      "inputs": [
        {
          "internalType": "uint256",
          "name": "",
          "type": "uint256"
        }
      ],
      "name": "topProject",
      "outputs": [
        {
          "internalType": "uint256",
          "name": "",
          "type": "uint256"
        }
      ],
      "payable": false,
      "stateMutability": "view",
      "type": "function"
    },
    {
      "constant": true,
      "inputs": [],
      "name": "totalDepositedDai",
      "outputs": [
        {
          "internalType": "uint256",
          "name": "",
          "type": "uint256"
        }
      ],
      "payable": false,
      "stateMutability": "view",
      "type": "function"
    },
    {
      "constant": true,
      "inputs": [
        {
          "internalType": "uint256",
          "name": "",
          "type": "uint256"
        },
        {
          "internalType": "address",
          "name": "",
          "type": "address"
        }
      ],
      "name": "usersNominatedProject",
      "outputs": [
        {
          "internalType": "uint256",
          "name": "",
          "type": "uint256"
        }
      ],
      "payable": false,
      "stateMutability": "view",
      "type": "function"
    },
    {
      "constant": true,
      "inputs": [
        {
          "internalType": "address",
          "name": "",
          "type": "address"
        }
      ],
      "name": "voteDelegations",
      "outputs": [
        {
          "internalType": "address",
          "name": "",
          "type": "address"
        }
      ],
      "payable": false,
      "stateMutability": "view",
      "type": "function"
    },
    {
      "constant": true,
      "inputs": [],
      "name": "votingInterval",
      "outputs": [
        {
          "internalType": "uint256",
          "name": "",
          "type": "uint256"
        }
      ],
      "payable": false,
      "stateMutability": "view",
      "type": "function"
    },
    {
      "constant": false,
      "inputs": [
        {
          "internalType": "address",
          "name": "daiAddress",
          "type": "address"
        },
        {
          "internalType": "address",
          "name": "aDaiAddress",
          "type": "address"
        },
        {
          "internalType": "address",
          "name": "aavePoolAddress",
          "type": "address"
        },
        {
          "internalType": "address",
          "name": "aavePoolCoreAddress",
          "type": "address"
        },
        {
          "internalType": "uint256",
          "name": "_proposalAmount",
          "type": "uint256"
        },
        {
          "internalType": "uint256",
          "name": "_votingInterval",
          "type": "uint256"
        }
      ],
      "name": "initialize",
      "outputs": [],
      "payable": false,
      "stateMutability": "nonpayable",
      "type": "function"
    },
    {
      "constant": false,
      "inputs": [
        {
          "internalType": "uint256",
          "name": "newInterval",
          "type": "uint256"
        }
      ],
      "name": "changeVotingInterval",
      "outputs": [],
      "payable": false,
      "stateMutability": "nonpayable",
      "type": "function"
    },
    {
      "constant": false,
      "inputs": [
        {
          "internalType": "uint256",
          "name": "amount",
          "type": "uint256"
        }
      ],
      "name": "deposit",
      "outputs": [],
      "payable": false,
      "stateMutability": "nonpayable",
      "type": "function"
    },
    {
      "constant": false,
      "inputs": [],
      "name": "withdrawDeposit",
      "outputs": [],
      "payable": false,
      "stateMutability": "nonpayable",
      "type": "function"
    },
    {
      "constant": false,
      "inputs": [
        {
          "internalType": "string",
          "name": "proposalHash",
          "type": "string"
        }
      ],
      "name": "createProposal",
      "outputs": [
        {
          "internalType": "uint256",
          "name": "newProposalId",
          "type": "uint256"
        }
      ],
      "payable": false,
      "stateMutability": "nonpayable",
      "type": "function"
    },
    {
      "constant": false,
      "inputs": [],
      "name": "withdrawProposal",
      "outputs": [],
      "payable": false,
      "stateMutability": "nonpayable",
      "type": "function"
    },
    {
      "constant": false,
      "inputs": [
        {
          "internalType": "address",
          "name": "delegatedAddress",
          "type": "address"
        }
      ],
      "name": "delegateVoting",
      "outputs": [],
      "payable": false,
      "stateMutability": "nonpayable",
      "type": "function"
    },
    {
      "constant": false,
      "inputs": [
        {
          "internalType": "uint256",
          "name": "proposalIdToVoteFor",
          "type": "uint256"
        }
      ],
      "name": "voteDirect",
      "outputs": [],
      "payable": false,
      "stateMutability": "nonpayable",
      "type": "function"
    },
    {
      "constant": false,
      "inputs": [
        {
          "internalType": "uint256",
          "name": "proposalIdToVoteFor",
          "type": "uint256"
        },
        {
          "internalType": "address",
          "name": "delegatedFrom",
          "type": "address"
        }
      ],
      "name": "voteProxy",
      "outputs": [],
      "payable": false,
      "stateMutability": "nonpayable",
      "type": "function"
    },
    {
      "constant": false,
      "inputs": [],
      "name": "veto",
      "outputs": [],
      "payable": false,
      "stateMutability": "nonpayable",
      "type": "function"
    },
    {
      "constant": false,
      "inputs": [],
      "name": "distributeFunds",
      "outputs": [],
      "payable": false,
      "stateMutability": "nonpayable",
      "type": "function"
    }
  ],
  "bytecode": "0x608060405234801561001057600080fd5b50611cf8806100206000396000f3fe608060405234801561001057600080fd5b506004361061020d576000357c010000000000000000000000000000000000000000000000000000000090048063765cb83a1161012c578063c68dc6ad116100bf578063e8781a4a1161008e578063e8781a4a146105f6578063ef9b78c61461027d578063f851a4401461061c578063fcde9925146106245761020d565b8063c68dc6ad14610574578063ca28f0d01461057c578063d1c22c3b146105a2578063d7c41c79146105aa5761020d565b8063976ee2b6116100fb578063976ee2b6146104e8578063a587118214610514578063b6b55f251461053a578063bdd882f0146105575761020d565b8063765cb83a1461048c5780637ce1f844146104b257806382a0ca9c146104ba5780638cc6d535146104e05761020d565b80632dfca445116101a457806351252f6c1161017357806351252f6c146104575780636b38def2146104745780637566ad531461047c57806375849399146104845761020d565b80632dfca445146103605780633a6a4d2e146103685780633e4f49e61461037057806349c2a1a6146103b15761020d565b8063151f3252116101e0578063151f32521461028557806316e9eaec146102a2578063173a2b5c146103345780632ce8b9131461033c5761020d565b8063031cf1d91461021257806303ef7f391461021c5780630d68eb9e14610248578063117df0881461027d575b600080fd5b61021a610641565b005b61021a6004803603604081101561023257600080fd5b5080359060200135600160a060020a03166106ae565b61026b6004803603604081101561025e57600080fd5b5080359060200135610928565b60408051918252519081900360200190f35b61021a610945565b61021a6004803603602081101561029b57600080fd5b5035610947565b6102bf600480360360208110156102b857600080fd5b5035610b2d565b6040805160208082528351818301528351919283929083019185019080838360005b838110156102f95781810151838201526020016102e1565b50505050905090810190601f1680156103265780820380516001836020036101000a031916815260200191505b509250505060405180910390f35b61026b610bc8565b610344610bce565b60408051600160a060020a039092168252519081900360200190f35b61026b610bdd565b61021a610be3565b61038d6004803603602081101561038657600080fd5b5035610f0b565b6040518082600181111561039d57fe5b60ff16815260200191505060405180910390f35b61026b600480360360208110156103c757600080fd5b8101906020810181356401000000008111156103e257600080fd5b8201836020820111156103f457600080fd5b8035906020019184600183028401116401000000008311171561041657600080fd5b91908080601f016020809104026020016040519081016040528093929190818152602001838380828437600092019190915250929550610f20945050505050565b61021a6004803603602081101561046d57600080fd5b50356112a7565b61034461130e565b61026b61131d565b61026b611323565b61021a600480360360208110156104a257600080fd5b5035600160a060020a0316611329565b61026b61146e565b61026b600480360360208110156104d057600080fd5b5035600160a060020a0316611474565b610344611486565b61026b600480360360408110156104fe57600080fd5b5080359060200135600160a060020a0316611495565b61026b6004803603602081101561052a57600080fd5b5035600160a060020a03166114af565b61021a6004803603602081101561055057600080fd5b50356114c1565b61026b6004803603602081101561056d57600080fd5b5035611881565b610344611893565b6103446004803603602081101561059257600080fd5b5035600160a060020a03166118a2565b61026b6118bd565b61021a600480360360c08110156105c057600080fd5b50600160a060020a0381358116916020810135821691604082013581169160608101359091169060808101359060a001356118c3565b61026b6004803603602081101561060c57600080fd5b5035600160a060020a03166119ec565b6103446119fe565b6103446004803603602081101561063a57600080fd5b5035611a0d565b336000818152603b60209081526040808320548352603d90915281205460ff16600181111561066c57fe5b146106ab5760405160e560020a62461bcd028152600401808060200182810382526024815260200180611ca06024913960400191505060405180910390fd5b50565b81600080828152603d602052604090205460ff1660018111156106cd57fe5b14610722576040805160e560020a62461bcd02815260206004820152601560248201527f50726f706f73616c2069736e2774206163746976650000000000000000000000604482015290519081900360640190fd5b600160a060020a038083166000908152604360205260409020548391163314610795576040805160e560020a62461bcd02815260206004820152601d60248201527f5573657220646f65736e277420686176652070726f7879207269676874000000604482015290519081900360640190fd5b603654600090815260406020818152818320600160a060020a038716845290529020548390156107f95760405160e560020a62461bcd028152600401808060200182810382526021815260200180611c516021913960400191505060405180910390fd5b600160a060020a0384166000908152603e60205260409020548490610868576040805160e560020a62461bcd02815260206004820152601160248201527f5573657220686173206e6f207374616b65000000000000000000000000000000604482015290519081900360640190fd5b846001600160a060020a0382166000908152603b60209081526040808320548352603d90915290205460ff16600181111561089f57fe5b14806108c15750600160a060020a0381166000908152603b6020526040902054155b610915576040805160e560020a62461bcd02815260206004820152601b60248201527f557365722068617320616e206163746976652070726f706f73616c0000000000604482015290519081900360640190fd5b61091f8787611a28565b50505050505050565b604160209081526000928352604080842090915290825290205481565b565b80600080828152603d602052604090205460ff16600181111561096657fe5b146109bb576040805160e560020a62461bcd02815260206004820152601560248201527f50726f706f73616c2069736e2774206163746976650000000000000000000000604482015290519081900360640190fd5b60365460009081526040602081815281832033808552915291205415610a155760405160e560020a62461bcd028152600401808060200182810382526021815260200180611c516021913960400191505060405180910390fd5b336000818152603e6020526040902054610a79576040805160e560020a62461bcd02815260206004820152601160248201527f5573657220686173206e6f207374616b65000000000000000000000000000000604482015290519081900360640190fd5b336000818152603b60209081526040808320548352603d90915290205460019060ff1681811115610aa657fe5b1480610ac85750600160a060020a0381166000908152603b6020526040902054155b610b1c576040805160e560020a62461bcd02815260206004820152601b60248201527f557365722068617320616e206163746976652070726f706f73616c0000000000604482015290519081900360640190fd5b610b268533611a28565b5050505050565b603a6020908152600091825260409182902080548351601f600260001961010060018616150201909316929092049182018490048402810184019094528084529091830182828015610bc05780601f10610b9557610100808354040283529160200191610bc0565b820191906000526020600020905b815481529060010190602001808311610ba357829003601f168201915b505050505081565b60375481565b604454600160a060020a031681565b60385481565b4260395411610c3c576040805160e560020a62461bcd02815260206004820152601960248201527f63757272656e7420766f7465207374696c6c2061637469766500000000000000604482015290519081900360640190fd5b60365460009081526042602052604090205415610ec957603454604654604080517f70a082310000000000000000000000000000000000000000000000000000000081523060048201529051600093610cfb939092600160a060020a03909116916370a0823191602480820192602092909190829003018186803b158015610cc357600080fd5b505afa158015610cd7573d6000803e3d6000fd5b505050506040513d6020811015610ced57600080fd5b50519063ffffffff611aed16565b604654604080517fdb006a75000000000000000000000000000000000000000000000000000000008152600481018490529051929350600160a060020a039091169163db006a759160248082019260009290919082900301818387803b158015610d6457600080fd5b505af1158015610d78573d6000803e3d6000fd5b50506036546000908152604260209081526040808320548352603c82528083205460445482517f70a082310000000000000000000000000000000000000000000000000000000081523060048201529251600160a060020a03928316975094955016926370a0823192602480840193919291829003018186803b158015610dfe57600080fd5b505afa158015610e12573d6000803e3d6000fd5b505050506040513d6020811015610e2857600080fd5b505160448054604080517fa9059cbb000000000000000000000000000000000000000000000000000000008152600160a060020a03878116600483015260248201869052915194955091169263a9059cbb928281019260209291908290030181600087803b158015610e9957600080fd5b505af1158015610ead573d6000803e3d6000fd5b505050506040513d6020811015610ec357600080fd5b50505050505b603554603954610ede9163ffffffff611b4d16565b603955603654610ef590600163ffffffff611b4d16565b6036819055600090815260426020526040812055565b603d6020526000908152604090205460ff1681565b60375460448054604080517fdd62ed3e000000000000000000000000000000000000000000000000000000008152336004820152306024820152905160009493600160a060020a039093169263dd62ed3e92808201926020929091829003018186803b158015610f8f57600080fd5b505afa158015610fa3573d6000803e3d6000fd5b505050506040513d6020811015610fb957600080fd5b5051811115611012576040805160e560020a62461bcd02815260206004820152601460248201527f616d6f756e74206e6f7420617661696c61626c65000000000000000000000000604482015290519081900360640190fd5b60448054603754604080517f23b872dd0000000000000000000000000000000000000000000000000000000081523360048201523060248201529384019190915251600160a060020a03909116916323b872dd9160648083019260209291908290030181600087803b15801561108757600080fd5b505af115801561109b573d6000803e3d6000fd5b505050506040513d60208110156110b157600080fd5b505060448054604754603754604080517f095ea7b3000000000000000000000000000000000000000000000000000000008152600160a060020a039384166004820152602481019290925251919092169263095ea7b3928082019260209290918290030181600087803b15801561112757600080fd5b505af115801561113b573d6000803e3d6000fd5b505050506040513d602081101561115157600080fd5b505060455460448054603754604080517fd2d0e066000000000000000000000000000000000000000000000000000000008152600160a060020a0393841660048201526024810192909252600093820184905251919093169263d2d0e06692606480830193919282900301818387803b1580156111cd57600080fd5b505af11580156111e1573d6000803e3d6000fd5b50506037546034546111fb9350915063ffffffff611b4d16565b603455603754336000908152603e602052604090205560385461122590600163ffffffff611b4d16565b60388190556000908152603a60209081526040909120845161124992860190611bb8565b5050603880546000908152603c60209081526040808320805473ffffffffffffffffffffffffffffffffffffffff1916339081179091558454908452603b83528184208190558352603d9091529020805460ff191690555492915050565b603354600160a060020a03163314611309576040805160e560020a62461bcd02815260206004820152600960248201527f4e6f742061646d696e0000000000000000000000000000000000000000000000604482015290519081900360640190fd5b603555565b604654600160a060020a031681565b60355481565b60365481565b336000818152603e602052604090205461138d576040805160e560020a62461bcd02815260206004820152601160248201527f5573657220686173206e6f207374616b65000000000000000000000000000000604482015290519081900360640190fd5b336000818152603b60209081526040808320548352603d90915290205460019060ff16818111156113ba57fe5b14806113dc5750600160a060020a0381166000908152603b6020526040902054155b611430576040805160e560020a62461bcd02815260206004820152601b60248201527f557365722068617320616e206163746976652070726f706f73616c0000000000604482015290519081900360640190fd5b5050336000908152604360205260409020805473ffffffffffffffffffffffffffffffffffffffff1916600160a060020a0392909216919091179055565b60395481565b603e6020526000908152604090205481565b604754600160a060020a031681565b604060208181526000938452818420905290825290205481565b603f6020526000908152604090205481565b336000908152603e602052604090205415611526576040805160e560020a62461bcd02815260206004820152601360248201527f5573657220616c72656164792065786973747300000000000000000000000000604482015290519081900360640190fd5b336000818152603b60205260409020541561158b576040805160e560020a62461bcd02815260206004820152601b60248201527f5573657220616c72656164792068617320612070726f706f73616c0000000000604482015290519081900360640190fd5b60448054604080517fdd62ed3e00000000000000000000000000000000000000000000000000000000815233600482015230602482015290518593600160a060020a039093169263dd62ed3e92808201926020929091829003018186803b1580156115f557600080fd5b505afa158015611609573d6000803e3d6000fd5b505050506040513d602081101561161f57600080fd5b5051811115611678576040805160e560020a62461bcd02815260206004820152601460248201527f616d6f756e74206e6f7420617661696c61626c65000000000000000000000000604482015290519081900360640190fd5b60448054604080517f23b872dd00000000000000000000000000000000000000000000000000000000815233600482015230602482015292830186905251600160a060020a03909116916323b872dd9160648083019260209291908290030181600087803b1580156116e957600080fd5b505af11580156116fd573d6000803e3d6000fd5b505050506040513d602081101561171357600080fd5b505060448054604754604080517f095ea7b3000000000000000000000000000000000000000000000000000000008152600160a060020a039283166004820152602481018890529051919092169263095ea7b3928082019260209290918290030181600087803b15801561178657600080fd5b505af115801561179a573d6000803e3d6000fd5b505050506040513d60208110156117b057600080fd5b505060455460448054604080517fd2d0e066000000000000000000000000000000000000000000000000000000008152600160a060020a0392831660048201526024810188905260009381018490529051919093169263d2d0e06692606480830193919282900301818387803b15801561182957600080fd5b505af115801561183d573d6000803e3d6000fd5b5050336000908152603e602052604090208590555050603454611866908463ffffffff611b4d16565b6034555050603654336000908152603f602052604090205550565b60426020526000908152604090205481565b604554600160a060020a031681565b604360205260009081526040902054600160a060020a031681565b60345481565b600054610100900460ff16806118dc57506118dc611bb1565b806118ea575060005460ff16155b6119285760405160e560020a62461bcd02815260040180806020018281038252602e815260200180611c72602e913960400191505060405180910390fd5b600054610100900460ff16158015611953576000805460ff1961ff0019909116610100171660011790555b60448054600160a060020a03808a1673ffffffffffffffffffffffffffffffffffffffff1992831617909255604580548884169083161790556046805489841690831617905560478054928716928216929092179091556033805490911633179055603783905560358290556119cf428363ffffffff611b4d16565b603955801561091f576000805461ff001916905550505050505050565b603b6020526000908152604090205481565b603354600160a060020a031681565b603c60205260009081526040902054600160a060020a031681565b600160a060020a0381166000908152603e602090815260408083205460365484526041835281842086855290925290912054611a699163ffffffff611b4d16565b60368054600090815260416020818152604080842088855282528084209590955583548352848152848320600160a060020a038716845281528483208790559254825282528281206042835283822054825290915281812054603854825291902054811015611ae8576038546036546000908152604260205260409020555b505050565b600082821115611b47576040805160e560020a62461bcd02815260206004820152601e60248201527f536166654d6174683a207375627472616374696f6e206f766572666c6f770000604482015290519081900360640190fd5b50900390565b600082820183811015611baa576040805160e560020a62461bcd02815260206004820152601b60248201527f536166654d6174683a206164646974696f6e206f766572666c6f770000000000604482015290519081900360640190fd5b9392505050565b303b155b90565b828054600181600116156101000203166002900490600052602060002090601f016020900481019282601f10611bf957805160ff1916838001178555611c26565b82800160010185558215611c26579182015b82811115611c26578251825591602001919060010190611c0b565b50611c32929150611c36565b5090565b611bb591905b80821115611c325760008155600101611c3c56fe5573657220616c726561647920766f746564207468697320697465726174696f6e436f6e747261637420696e7374616e63652068617320616c7265616479206265656e20696e697469616c697a65645573657220646f65736e2774206861766520616e206163746976652070726f706f73616ca265627a7a723158201d25ed316e26429b85a0c0a34515e77ba5fc792cd3f73ef16f5be2196309db2364736f6c63430005100032",
  "source": "pragma solidity 0.5.16;\n\n// import \"./interfaces/IERC20.sol\";\nimport './interfaces/IAaveLendingPool.sol';\nimport './interfaces/IADai.sol';\nimport '@openzeppelin/contracts-ethereum-package/contracts/token/ERC20/ERC20.sol';\n\ncontract NoLossDao is Initializable {\n  using SafeMath for uint256;\n\n  //////// MASTER //////////////\n  address public admin;\n  uint256 public totalDepositedDai;\n\n  //////// Iteration specific //////////\n  uint256 public votingInterval;\n  uint256 public proposalIteration;\n\n  ///////// Proposal specific ///////////\n  uint256 public proposalAmount; // Add mapping of the proposal amount per iteration...\n  uint256 public proposalId;\n  uint256 public proposalDeadline; // keeping track of time\n  mapping(uint256 => string) public proposalDetails;\n  mapping(address => uint256) public benefactorsProposal; // benefactor -> proposal id\n  mapping(uint256 => address) public proposalOwner; // proposal id -> benefactor (1:1 mapping)\n  enum ProposalState {Active, Withdrawn} // Add Cooldown state\n  mapping(uint256 => ProposalState) public state; // ProposalId to current state\n\n  //////// User specific //////////\n  mapping(address => uint256) public depositedDai;\n  mapping(address => uint256) public iterationJoined; // Which iteration did user join DAO\n  mapping(uint256 => mapping(address => uint256)) public usersNominatedProject; // iteration -> user -> chosen project\n\n  //////// DAO / VOTE specific //////////\n  mapping(uint256 => mapping(uint256 => uint256)) public proposalVotes; /// iteration -> proposalId -> num votes\n  mapping(uint256 => uint256) public topProject;\n  mapping(address => address) public voteDelegations;\n\n  ///////// DEFI Contrcats ///////////\n  IERC20 public daiContract;\n  IAaveLendingPool public aaveLendingContract;\n  IADai public adaiContract;\n  address public aaveLendingContractCore;\n\n  ////////////////////////////////////\n  //////// Modifiers /////////////////\n  ////////////////////////////////////\n  modifier onlyAdmin() {\n    require(msg.sender == admin, 'Not admin');\n    _;\n  }\n\n  modifier blankUser() {\n    require(depositedDai[msg.sender] == 0, 'User already exists');\n    _;\n  }\n\n  modifier userStaked(address givenAddress) {\n    require(depositedDai[givenAddress] > 0, 'User has no stake');\n    _;\n  }\n\n  modifier noProposal(address givenAddress) {\n    require(\n      benefactorsProposal[givenAddress] == 0,\n      'User already has a proposal'\n    );\n    _;\n  }\n\n  modifier noVoteYet(address givenAddress) {\n    require(\n      usersNominatedProject[proposalIteration][givenAddress] == 0,\n      'User already voted this iteration'\n    );\n    _;\n  }\n\n  modifier userHasActiveProposal(address givenAddress) {\n    require(\n      state[benefactorsProposal[givenAddress]] == ProposalState.Active,\n      \"User doesn't have an active proposal\"\n    );\n    _;\n  }\n\n  modifier userHasNoActiveProposal(address givenAddress) {\n    require(\n      state[benefactorsProposal[givenAddress]] == ProposalState.Withdrawn ||\n        benefactorsProposal[givenAddress] == 0,\n      'User has an active proposal'\n    );\n    _;\n  }\n\n  modifier proposalActive(uint256 propId) {\n    require(state[propId] == ProposalState.Active, \"Proposal isn't active\");\n    _;\n  }\n\n  modifier allowanceAvailable(uint256 amount) {\n    require(\n      amount <= daiContract.allowance(msg.sender, address(this)),\n      'amount not available'\n    );\n    _;\n  }\n\n  modifier proxyRight(address delegatedFrom) {\n    require(\n      voteDelegations[delegatedFrom] == msg.sender,\n      \"User doesn't have proxy right\"\n    );\n    _;\n  }\n\n  modifier joinedInTime(address givenAddress) {\n    require(\n      iterationJoined[givenAddress] < proposalIteration,\n      'User only eligible to vote next iteration'\n    );\n    _;\n  }\n  ////////////////////////////////////\n  //////// SETUP CONTRACT////////////\n  //// NOTE: Upgradable at the moment\n  function initialize(\n    address daiAddress,\n    address aDaiAddress,\n    address aavePoolAddress,\n    address aavePoolCoreAddress,\n    uint256 _proposalAmount,\n    uint256 _votingInterval\n  ) public initializer {\n    daiContract = IERC20(daiAddress);\n    aaveLendingContract = IAaveLendingPool(aavePoolAddress);\n    adaiContract = IADai(aDaiAddress);\n    aaveLendingContractCore = aavePoolCoreAddress;\n    admin = msg.sender;\n    proposalAmount = _proposalAmount;\n    votingInterval = _votingInterval;\n\n    proposalDeadline = now.add(_votingInterval);\n  }\n\n  ///////////////////////////////////\n  /////// Config functions //////////\n  ///////////////////////////////////\n  function changeVotingInterval(uint256 newInterval) public onlyAdmin {\n    votingInterval = newInterval;\n  }\n\n  // Add function to change stake amount required for proposal\n\n  // change miner reward\n\n  ///////////////////////////////////\n  ///// Users join and leave ////////\n  ///////////////////////////////////\n  function deposit(uint256 amount)\n    public\n    blankUser // They haven't already deposited\n    noProposal(msg.sender) // Checks they are not a benefactor\n    allowanceAvailable(amount) // Apprroved DAI for this function\n  {\n    daiContract.transferFrom(msg.sender, address(this), amount);\n    daiContract.approve(address(aaveLendingContractCore), amount);\n    aaveLendingContract.deposit(address(daiContract), amount, 0);\n\n    //setting values\n    depositedDai[msg.sender] = amount;\n    totalDepositedDai = totalDepositedDai.add(amount);\n    iterationJoined[msg.sender] = proposalIteration;\n  }\n\n  // MOST CRITICAL\n  function withdrawDeposit() public {\n    // Participant withdraws all there DAI and exits our system :(\n    // Check the user exists in our system\n    // Check the amount they have deposited\n    // Exchange aDAI to DAI for this amount\n    // Send them back their dai\n    // Remove their amount of dai from the total we have\n    // IMPORTANT, remove their vote amount...\n  }\n\n  ///////////////////////////////////\n  /// Benefactors join and leave ////\n  ///////////////////////////////////\n  function createProposal(string memory proposalHash)\n    public\n    allowanceAvailable(proposalAmount)\n    returns (uint256 newProposalId)\n  {\n    // DAI things. TODO: Approve where necessary\n    daiContract.transferFrom(msg.sender, address(this), proposalAmount);\n    daiContract.approve(address(aaveLendingContractCore), proposalAmount);\n    aaveLendingContract.deposit(\n      address(daiContract),\n      proposalAmount,\n      0 /* We should research this referal code stuff... https://developers.aave.com/#referral-program */\n    );\n\n    totalDepositedDai = totalDepositedDai.add(proposalAmount);\n    depositedDai[msg.sender] = proposalAmount;\n\n    // So the first proposal will have an ID of 1\n    proposalId = proposalId.add(1);\n\n    proposalDetails[proposalId] = proposalHash;\n    proposalOwner[proposalId] = msg.sender;\n    benefactorsProposal[msg.sender] = proposalId;\n    state[proposalId] = ProposalState.Active;\n    return proposalId;\n  }\n\n  function withdrawProposal() public userHasActiveProposal(msg.sender) {\n    //This can only be executed after every cycle\n    //state[benefactorsProposal[msg.sender]] = ProposalState.Withdrawn;\n    //totalDepositedDai = totalDepositedDai.sub(depositedDai[msg.sender]);\n    //depositedDai[msg.sender] = 0;\n    // TODO\n    // Remove proposalAmount from aDAI\n    // Convert to DAI\n    // Send back to owner\n  }\n\n  ///////////////////////////////////\n  //// DAO functionality ////////////\n  ///////////////////////////////////\n  function delegateVoting(address delegatedAddress)\n    public\n    userStaked(msg.sender)\n    userHasNoActiveProposal(msg.sender)\n  {\n    voteDelegations[msg.sender] = delegatedAddress;\n  }\n\n  function voteDirect(\n    uint256 proposalIdToVoteFor // breaking change -> function name change from vote to voteDirect\n  )\n    public\n    proposalActive(proposalIdToVoteFor)\n    noVoteYet(msg.sender)\n    userStaked(msg.sender)\n    userHasNoActiveProposal(msg.sender)\n  // joinedInTime(msg.sender) // TODO: add this back, it is important! (only removed for ease of demoing)\n  {\n    _vote(proposalIdToVoteFor, msg.sender);\n  }\n\n  function voteProxy(uint256 proposalIdToVoteFor, address delegatedFrom)\n    public\n    proposalActive(proposalIdToVoteFor)\n    proxyRight(delegatedFrom)\n    noVoteYet(delegatedFrom)\n    userStaked(delegatedFrom)\n    userHasNoActiveProposal(delegatedFrom)\n  // joinedInTime(delegatedFrom) // TODO: add this back, it is important! (only removed for ease of demoing)\n  {\n    _vote(proposalIdToVoteFor, delegatedFrom);\n  }\n\n  function _vote(uint256 proposalIdToVoteFor, address voteAddress) internal {\n    proposalVotes[proposalIteration][proposalIdToVoteFor] = proposalVotes[proposalIteration][proposalIdToVoteFor]\n      .add(depositedDai[voteAddress]);\n    usersNominatedProject[proposalIteration][voteAddress] = proposalIdToVoteFor;\n\n    uint256 topProjectVotes = proposalVotes[proposalIteration][topProject[proposalIteration]];\n\n    // TODO:: if they are equal there is a problem (we must handle this!!)\n    // Currently, proposal getting to top vote first wins\n    if (proposalVotes[proposalIteration][proposalId] > topProjectVotes) {\n      topProject[proposalIteration] = proposalId;\n    }\n  }\n\n  // This function allows users to get their proportion of interest instead of redirecting\n  // it to the winning project for the next weeks. (RAGE-QUIT but stay in pool function)\n  function veto() public {}\n\n  ///////////////////////////////////\n  //// Iteration changes/////////////\n  ///////////////////////////////////\n  function distributeFunds() public {\n    // On a *whatever we decide basis* the funds are distributed to the winning project\n    // E.g. every 2 weeks, the project with the most votes gets the generated interest.\n\n    // anyone can call this when 2 cycle has ended - incentivize 'anyone' to call this transaction first and get a lil reward ;)\n    require(proposalDeadline > now, 'current vote still active');\n\n    // figure our what happens with the interest from the first proposal iteration\n    if (topProject[proposalIteration] != 0) {\n      uint256 interestEarnedSinceLastIteration = adaiContract\n        .balanceOf(address(this))\n        .sub(totalDepositedDai);\n\n      adaiContract.redeem(interestEarnedSinceLastIteration);\n\n      // Do some asserts here for safety...\n\n      address winner = proposalOwner[topProject[proposalIteration]];\n      uint256 amount = daiContract.balanceOf(address(this));\n\n      // TODO: change this redirectInterestStream to winner.\n      daiContract.transfer(winner, amount);\n    }\n\n    proposalDeadline = proposalDeadline.add(votingInterval);\n\n    proposalIteration = proposalIteration.add(1);\n    topProject[proposalIteration] = 0;\n\n    // send winning miner a little surprise\n\n  }\n\n}\n",
  "sourcePath": "/Users/johanthan/Code/hackathons/app/contracts/contracts/NoLossDao.sol",
  "compiler": {
    "name": "solc",
    "version": "0.5.16+commit.9c3226ce.Emscripten.clang"
  },
  "schemaVersion": "3.0.6",
  "updatedAt": "2020-03-02T23:35:04.858Z",
  "devdoc": {
    "methods": {}
  },
  "userdoc": {
    "methods": {
      "changeVotingInterval(uint256)": {
        "notice": "//////////////////////////////// //// Config functions ////////// ////////////////////////////////"
      },
      "createProposal(string)": {
        "notice": "//////////////////////////////// Benefactors join and leave //// ////////////////////////////////"
      },
      "delegateVoting(address)": {
        "notice": "//////////////////////////////// / DAO functionality //////////// ////////////////////////////////"
      },
      "deposit(uint256)": {
        "notice": "//////////////////////////////// // Users join and leave //////// ////////////////////////////////"
      },
      "distributeFunds()": {
        "notice": "//////////////////////////////// / Iteration changes///////////// ////////////////////////////////"
      },
      "initialize(address,address,address,address,uint256,uint256)": {
        "notice": "///////////////////////////////// ///// SETUP CONTRACT//////////// / NOTE: Upgradable at the moment"
      }
    }
  }
}