{
  "contractName": "NoLossDao",
  "abi": [
    {
      "constant": true,
      "inputs": [],
      "name": "aaveLendingContract",
      "outputs": [
        {
          "internalType": "contract IAaveLendingPool",
          "name": "",
          "type": "address"
        }
      ],
      "payable": false,
      "stateMutability": "view",
      "type": "function"
    },
    {
      "constant": true,
      "inputs": [],
      "name": "aaveLendingContractCore",
      "outputs": [
        {
          "internalType": "address",
          "name": "",
          "type": "address"
        }
      ],
      "payable": false,
      "stateMutability": "view",
      "type": "function"
    },
    {
      "constant": true,
      "inputs": [],
      "name": "adaiContract",
      "outputs": [
        {
          "internalType": "contract IADai",
          "name": "",
          "type": "address"
        }
      ],
      "payable": false,
      "stateMutability": "view",
      "type": "function"
    },
    {
      "constant": true,
      "inputs": [],
      "name": "admin",
      "outputs": [
        {
          "internalType": "address",
          "name": "",
          "type": "address"
        }
      ],
      "payable": false,
      "stateMutability": "view",
      "type": "function"
    },
    {
      "constant": true,
      "inputs": [
        {
          "internalType": "address",
          "name": "",
          "type": "address"
        }
      ],
      "name": "benefactorsProposal",
      "outputs": [
        {
          "internalType": "uint256",
          "name": "",
          "type": "uint256"
        }
      ],
      "payable": false,
      "stateMutability": "view",
      "type": "function"
    },
    {
      "constant": true,
      "inputs": [],
      "name": "daiContract",
      "outputs": [
        {
          "internalType": "contract IERC20",
          "name": "",
          "type": "address"
        }
      ],
      "payable": false,
      "stateMutability": "view",
      "type": "function"
    },
    {
      "constant": true,
      "inputs": [
        {
          "internalType": "address",
          "name": "",
          "type": "address"
        }
      ],
      "name": "depositedDai",
      "outputs": [
        {
          "internalType": "uint256",
          "name": "",
          "type": "uint256"
        }
      ],
      "payable": false,
      "stateMutability": "view",
      "type": "function"
    },
    {
      "constant": true,
      "inputs": [
        {
          "internalType": "address",
          "name": "",
          "type": "address"
        }
      ],
      "name": "iterationJoined",
      "outputs": [
        {
          "internalType": "uint256",
          "name": "",
          "type": "uint256"
        }
      ],
      "payable": false,
      "stateMutability": "view",
      "type": "function"
    },
    {
      "constant": true,
      "inputs": [],
      "name": "proposalAmount",
      "outputs": [
        {
          "internalType": "uint256",
          "name": "",
          "type": "uint256"
        }
      ],
      "payable": false,
      "stateMutability": "view",
      "type": "function"
    },
    {
      "constant": true,
      "inputs": [],
      "name": "proposalDeadline",
      "outputs": [
        {
          "internalType": "uint256",
          "name": "",
          "type": "uint256"
        }
      ],
      "payable": false,
      "stateMutability": "view",
      "type": "function"
    },
    {
      "constant": true,
      "inputs": [
        {
          "internalType": "uint256",
          "name": "",
          "type": "uint256"
        }
      ],
      "name": "proposalDetails",
      "outputs": [
        {
          "internalType": "string",
          "name": "",
          "type": "string"
        }
      ],
      "payable": false,
      "stateMutability": "view",
      "type": "function"
    },
    {
      "constant": true,
      "inputs": [],
      "name": "proposalId",
      "outputs": [
        {
          "internalType": "uint256",
          "name": "",
          "type": "uint256"
        }
      ],
      "payable": false,
      "stateMutability": "view",
      "type": "function"
    },
    {
      "constant": true,
      "inputs": [],
      "name": "proposalIteration",
      "outputs": [
        {
          "internalType": "uint256",
          "name": "",
          "type": "uint256"
        }
      ],
      "payable": false,
      "stateMutability": "view",
      "type": "function"
    },
    {
      "constant": true,
      "inputs": [
        {
          "internalType": "uint256",
          "name": "",
          "type": "uint256"
        }
      ],
      "name": "proposalOwner",
      "outputs": [
        {
          "internalType": "address",
          "name": "",
          "type": "address"
        }
      ],
      "payable": false,
      "stateMutability": "view",
      "type": "function"
    },
    {
      "constant": true,
      "inputs": [
        {
          "internalType": "uint256",
          "name": "",
          "type": "uint256"
        },
        {
          "internalType": "uint256",
          "name": "",
          "type": "uint256"
        }
      ],
      "name": "proposalVotes",
      "outputs": [
        {
          "internalType": "uint256",
          "name": "",
          "type": "uint256"
        }
      ],
      "payable": false,
      "stateMutability": "view",
      "type": "function"
    },
    {
      "constant": true,
      "inputs": [
        {
          "internalType": "uint256",
          "name": "",
          "type": "uint256"
        }
      ],
      "name": "state",
      "outputs": [
        {
          "internalType": "enum NoLossDao.ProposalState",
          "name": "",
          "type": "uint8"
        }
      ],
      "payable": false,
      "stateMutability": "view",
      "type": "function"
    },
    {
      "constant": true,
      "inputs": [
        {
          "internalType": "uint256",
          "name": "",
          "type": "uint256"
        }
      ],
      "name": "topProject",
      "outputs": [
        {
          "internalType": "uint256",
          "name": "",
          "type": "uint256"
        }
      ],
      "payable": false,
      "stateMutability": "view",
      "type": "function"
    },
    {
      "constant": true,
      "inputs": [],
      "name": "totalDepositedDai",
      "outputs": [
        {
          "internalType": "uint256",
          "name": "",
          "type": "uint256"
        }
      ],
      "payable": false,
      "stateMutability": "view",
      "type": "function"
    },
    {
      "constant": true,
      "inputs": [
        {
          "internalType": "uint256",
          "name": "",
          "type": "uint256"
        },
        {
          "internalType": "address",
          "name": "",
          "type": "address"
        }
      ],
      "name": "usersNominatedProject",
      "outputs": [
        {
          "internalType": "uint256",
          "name": "",
          "type": "uint256"
        }
      ],
      "payable": false,
      "stateMutability": "view",
      "type": "function"
    },
    {
      "constant": true,
      "inputs": [
        {
          "internalType": "address",
          "name": "",
          "type": "address"
        }
      ],
      "name": "voteDelegations",
      "outputs": [
        {
          "internalType": "address",
          "name": "",
          "type": "address"
        }
      ],
      "payable": false,
      "stateMutability": "view",
      "type": "function"
    },
    {
      "constant": true,
      "inputs": [],
      "name": "votingInterval",
      "outputs": [
        {
          "internalType": "uint256",
          "name": "",
          "type": "uint256"
        }
      ],
      "payable": false,
      "stateMutability": "view",
      "type": "function"
    },
    {
      "constant": false,
      "inputs": [
        {
          "internalType": "address",
          "name": "daiAddress",
          "type": "address"
        },
        {
          "internalType": "address",
          "name": "aDaiAddress",
          "type": "address"
        },
        {
          "internalType": "address",
          "name": "aavePoolAddress",
          "type": "address"
        },
        {
          "internalType": "address",
          "name": "aavePoolCoreAddress",
          "type": "address"
        },
        {
          "internalType": "uint256",
          "name": "_proposalAmount",
          "type": "uint256"
        },
        {
          "internalType": "uint256",
          "name": "_votingInterval",
          "type": "uint256"
        }
      ],
      "name": "initialize",
      "outputs": [],
      "payable": false,
      "stateMutability": "nonpayable",
      "type": "function"
    },
    {
      "constant": false,
      "inputs": [
        {
          "internalType": "uint256",
          "name": "newInterval",
          "type": "uint256"
        }
      ],
      "name": "changeVotingInterval",
      "outputs": [],
      "payable": false,
      "stateMutability": "nonpayable",
      "type": "function"
    },
    {
      "constant": false,
      "inputs": [
        {
          "internalType": "uint256",
          "name": "amount",
          "type": "uint256"
        }
      ],
      "name": "deposit",
      "outputs": [],
      "payable": false,
      "stateMutability": "nonpayable",
      "type": "function"
    },
    {
      "constant": false,
      "inputs": [],
      "name": "withdrawDeposit",
      "outputs": [],
      "payable": false,
      "stateMutability": "nonpayable",
      "type": "function"
    },
    {
      "constant": false,
      "inputs": [
        {
          "internalType": "string",
          "name": "proposalHash",
          "type": "string"
        }
      ],
      "name": "createProposal",
      "outputs": [
        {
          "internalType": "uint256",
          "name": "newProposalId",
          "type": "uint256"
        }
      ],
      "payable": false,
      "stateMutability": "nonpayable",
      "type": "function"
    },
    {
      "constant": false,
      "inputs": [],
      "name": "withdrawProposal",
      "outputs": [],
      "payable": false,
      "stateMutability": "nonpayable",
      "type": "function"
    },
    {
      "constant": false,
      "inputs": [
        {
          "internalType": "address",
          "name": "delegatedAddress",
          "type": "address"
        }
      ],
      "name": "delegateVoting",
      "outputs": [],
      "payable": false,
      "stateMutability": "nonpayable",
      "type": "function"
    },
    {
      "constant": false,
      "inputs": [
        {
          "internalType": "uint256",
          "name": "proposalIdToVoteFor",
          "type": "uint256"
        }
      ],
      "name": "voteDirect",
      "outputs": [],
      "payable": false,
      "stateMutability": "nonpayable",
      "type": "function"
    },
    {
      "constant": false,
      "inputs": [
        {
          "internalType": "uint256",
          "name": "proposalIdToVoteFor",
          "type": "uint256"
        },
        {
          "internalType": "address",
          "name": "delegatedFrom",
          "type": "address"
        }
      ],
      "name": "voteProxy",
      "outputs": [],
      "payable": false,
      "stateMutability": "nonpayable",
      "type": "function"
    },
    {
      "constant": false,
      "inputs": [],
      "name": "veto",
      "outputs": [],
      "payable": false,
      "stateMutability": "nonpayable",
      "type": "function"
    },
    {
      "constant": false,
      "inputs": [],
      "name": "vetoProxy",
      "outputs": [],
      "payable": false,
      "stateMutability": "nonpayable",
      "type": "function"
    },
    {
      "constant": false,
      "inputs": [],
      "name": "distributeFunds",
      "outputs": [],
      "payable": false,
      "stateMutability": "nonpayable",
      "type": "function"
    }
  ],
  "bytecode": "0x608060405234801561001057600080fd5b50612303806100206000396000f3fe608060405234801561001057600080fd5b5060043610610218576000357c010000000000000000000000000000000000000000000000000000000090048063765cb83a11610137578063bdd882f0116100ca578063d7c41c7911610099578063d7c41c79146105bd578063e8781a4a14610609578063ef9b78c6146104eb578063f851a4401461062f578063fcde99251461063757610218565b8063bdd882f01461056a578063c68dc6ad14610587578063ca28f0d01461058f578063d1c22c3b146105b557610218565b80638cc6d535116101065780638cc6d535146104f3578063976ee2b6146104fb578063a587118214610527578063b6b55f251461054d57610218565b8063765cb83a146104975780637ce1f844146104bd57806382a0ca9c146104c55780638a3b394c146104eb57610218565b80632dfca445116101af57806351252f6c1161017e57806351252f6c146104625780636b38def21461047f5780637566ad5314610487578063758493991461048f57610218565b80632dfca4451461036b5780633a6a4d2e146103735780633e4f49e61461037b57806349c2a1a6146103bc57610218565b8063151f3252116101eb578063151f32521461029057806316e9eaec146102ad578063173a2b5c1461033f5780632ce8b9131461034757610218565b8063031cf1d91461021d57806303ef7f39146102275780630d68eb9e14610253578063117df08814610288575b600080fd5b610225610654565b005b6102256004803603604081101561023d57600080fd5b5080359060200135600160a060020a031661088e565b6102766004803603604081101561026957600080fd5b5080359060200135610b44565b60408051918252519081900360200190f35b610225610b61565b610225600480360360208110156102a657600080fd5b5035610dc2565b6102ca600480360360208110156102c357600080fd5b5035610fd2565b6040805160208082528351818301528351919283929083019185019080838360005b838110156103045781810151838201526020016102ec565b50505050905090810190601f1680156103315780820380516001836020036101000a031916815260200191505b509250505060405180910390f35b61027661106d565b61034f611073565b60408051600160a060020a039092168252519081900360200190f35b610276611082565b610225611088565b6103986004803603602081101561039157600080fd5b50356111da565b604051808260028111156103a857fe5b60ff16815260200191505060405180910390f35b610276600480360360208110156103d257600080fd5b8101906020810181356401000000008111156103ed57600080fd5b8201836020820111156103ff57600080fd5b8035906020019184600183028401116401000000008311171561042157600080fd5b91908080601f0160208091040260200160405190810160405280939291908181526020018383808284376000920191909152509295506111ef945050505050565b6102256004803603602081101561047857600080fd5b5035611771565b61034f6117d8565b6102766117e7565b6102766117ed565b610225600480360360208110156104ad57600080fd5b5035600160a060020a03166117f3565b610276611914565b610276600480360360208110156104db57600080fd5b5035600160a060020a031661191a565b61022561192c565b61034f61192e565b6102766004803603604081101561051157600080fd5b5080359060200135600160a060020a031661193d565b6102766004803603602081101561053d57600080fd5b5035600160a060020a0316611957565b6102256004803603602081101561056357600080fd5b5035611969565b6102766004803603602081101561058057600080fd5b5035611e18565b61034f611e2a565b61034f600480360360208110156105a557600080fd5b5035600160a060020a0316611e39565b610276611e54565b610225600480360360c08110156105d357600080fd5b50600160a060020a0381358116916020810135821691604082013581169160608101359091169060808101359060a00135611e5a565b6102766004803603602081101561061f57600080fd5b5035600160a060020a0316611f84565b61034f611f96565b61034f6004803603602081101561064d57600080fd5b5035611fa5565b336000818152603b60209081526040808320548352603d90915290205460029060ff168181111561068157fe5b146106d6576040805160e560020a62461bcd02815260206004820152601c60248201527f557365722070726f706f73616c20646f6573206e6f7420657869737400000000604482015290519081900360640190fd5b603654336000818152603f6020526040902054909160029091011061072f5760405160e560020a62461bcd02815260040180806020018281038252603c815260200180612245603c913960400191505060405180910390fd5b336000818152603b60209081526040808320548352603d8252808320805460ff19166001179055928252603e905290812080549190556034546107729082611fc0565b603455604654604080517fdb006a75000000000000000000000000000000000000000000000000000000008152600481018490529051600160a060020a039092169163db006a759160248082019260009290919082900301818387803b1580156107db57600080fd5b505af11580156107ef573d6000803e3d6000fd5b505060448054604080517fa9059cbb000000000000000000000000000000000000000000000000000000008152336004820152602481018790529051600160a060020a03909216945063a9059cbb935080830192602092918290030181600087803b15801561085d57600080fd5b505af1158015610871573d6000803e3d6000fd5b505050506040513d602081101561088757600080fd5b5050505050565b8160026000828152603d602052604090205460ff1660028111156108ae57fe5b14610903576040805160e560020a62461bcd02815260206004820152601660248201527f50726f706f73616c206973206e6f742061637469766500000000000000000000604482015290519081900360640190fd5b600160a060020a038083166000908152604360205260409020548391163314610976576040805160e560020a62461bcd02815260206004820152601d60248201527f5573657220646f65736e277420686176652070726f7879207269676874000000604482015290519081900360640190fd5b603654600090815260406020818152818320600160a060020a038716845290529020548390156109da5760405160e560020a62461bcd0281526004018080602001828103825260218152602001806121db6021913960400191505060405180910390fd5b600160a060020a0384166000908152603e60205260409020548490610a37576040805160e560020a62461bcd02815260206004820152601160248201526000805160206122af833981519152604482015290519081900360640190fd5b600160a060020a0385166000908152603b602052604090205485901580610a9157506001600160a060020a0382166000908152603b60209081526040808320548352603d90915290205460ff166002811115610a8f57fe5b145b610ad3576040805160e560020a62461bcd02815260206004820152601b6024820152600080516020612225833981519152604482015290519081900360640190fd5b603654600160a060020a0387166000908152603f6020526040902054879111610b305760405160e560020a62461bcd0281526004018080602001828103825260298152602001806121fc6029913960400191505060405180910390fd5b610b3a8888612020565b5050505050505050565b604160209081526000928352604080842090915290825290205481565b336000818152603e6020526040902054610bb3576040805160e560020a62461bcd02815260206004820152601160248201526000805160206122af833981519152604482015290519081900360640190fd5b60365460009081526040602081815281832033808552915291205415610c0d5760405160e560020a62461bcd0281526004018080602001828103825260218152602001806121db6021913960400191505060405180910390fd5b336000818152603b602052604090205415610c72576040805160e560020a62461bcd02815260206004820152601360248201527f557365722068617320612070726f706f73616c00000000000000000000000000604482015290519081900360640190fd5b336000908152603e602052604081208054919055603454610c99908263ffffffff611fc016565b603455336000908152603f602052604080822082905560465481517fdb006a75000000000000000000000000000000000000000000000000000000008152600481018590529151600160a060020a039091169263db006a75926024808201939182900301818387803b158015610d0e57600080fd5b505af1158015610d22573d6000803e3d6000fd5b505060448054604080517fa9059cbb000000000000000000000000000000000000000000000000000000008152336004820152602481018790529051600160a060020a03909216945063a9059cbb935080830192602092918290030181600087803b158015610d9057600080fd5b505af1158015610da4573d6000803e3d6000fd5b505050506040513d6020811015610dba57600080fd5b505050505050565b8060026000828152603d602052604090205460ff166002811115610de257fe5b14610e37576040805160e560020a62461bcd02815260206004820152601660248201527f50726f706f73616c206973206e6f742061637469766500000000000000000000604482015290519081900360640190fd5b60365460009081526040602081815281832033808552915291205415610e915760405160e560020a62461bcd0281526004018080602001828103825260218152602001806121db6021913960400191505060405180910390fd5b336000818152603e6020526040902054610ee3576040805160e560020a62461bcd02815260206004820152601160248201526000805160206122af833981519152604482015290519081900360640190fd5b336000818152603b60205260409020541580610f3257506001600160a060020a0382166000908152603b60209081526040808320548352603d90915290205460ff166002811115610f3057fe5b145b610f74576040805160e560020a62461bcd02815260206004820152601b6024820152600080516020612225833981519152604482015290519081900360640190fd5b603654336000818152603f6020526040902054909111610fc85760405160e560020a62461bcd0281526004018080602001828103825260298152602001806121fc6029913960400191505060405180910390fd5b610dba8633612020565b603a6020908152600091825260409182902080548351601f6002600019610100600186161502019093169290920491820184900484028101840190945280845290918301828280156110655780601f1061103a57610100808354040283529160200191611065565b820191906000526020600020905b81548152906001019060200180831161104857829003601f168201915b505050505081565b60375481565b604454600160a060020a031681565b60385481565b42603954106110e1576040805160e560020a62461bcd02815260206004820152601960248201527f63757272656e7420766f7465207374696c6c2061637469766500000000000000604482015290519081900360640190fd5b60365460009081526042602052604090205415611198576036546000908152604260209081526040808320548352603c9091528082205460465482517f0e49072d000000000000000000000000000000000000000000000000000000008152600160a060020a0392831660048201819052935193949190921692630e49072d92602480820193929182900301818387803b15801561117e57600080fd5b505af1158015611192573d6000803e3d6000fd5b50505050505b6035546039546111ad9163ffffffff6120d716565b6039556036546111c490600163ffffffff6120d716565b6036819055600090815260426020526040812055565b603d6020526000908152604090205460ff1681565b60375460448054604080517fdd62ed3e000000000000000000000000000000000000000000000000000000008152336004820152306024820152905160009493600160a060020a039093169263dd62ed3e92808201926020929091829003018186803b15801561125e57600080fd5b505afa158015611272573d6000803e3d6000fd5b505050506040513d602081101561128857600080fd5b50518111156112e1576040805160e560020a62461bcd02815260206004820152601460248201527f616d6f756e74206e6f7420617661696c61626c65000000000000000000000000604482015290519081900360640190fd5b603754604454604080517f70a08231000000000000000000000000000000000000000000000000000000008152336004820181905291519193928392600160a060020a03909116916370a08231916024808301926020929190829003018186803b15801561134e57600080fd5b505afa158015611362573d6000803e3d6000fd5b505050506040513d602081101561137857600080fd5b505110156113d0576040805160e560020a62461bcd02815260206004820152601d60248201527f5573657220646f6573206e6f74206861766520656e6f75676820444149000000604482015290519081900360640190fd5b336000818152603b6020526040902054158061141f57506001600160a060020a0382166000908152603b60209081526040808320548352603d90915290205460ff16600281111561141d57fe5b145b611461576040805160e560020a62461bcd02815260206004820152601b6024820152600080516020612225833981519152604482015290519081900360640190fd5b336000908152603e6020526040902054156114c6576040805160e560020a62461bcd02815260206004820152601860248201527f506572736f6e20697320616c7265616479206120757365720000000000000000604482015290519081900360640190fd5b60448054603754604080517f23b872dd0000000000000000000000000000000000000000000000000000000081523360048201523060248201529384019190915251600160a060020a03909116916323b872dd9160648083019260209291908290030181600087803b15801561153b57600080fd5b505af115801561154f573d6000803e3d6000fd5b505050506040513d602081101561156557600080fd5b505060448054604754603754604080517f095ea7b3000000000000000000000000000000000000000000000000000000008152600160a060020a039384166004820152602481019290925251919092169263095ea7b3928082019260209290918290030181600087803b1580156115db57600080fd5b505af11580156115ef573d6000803e3d6000fd5b505050506040513d602081101561160557600080fd5b505060455460448054603754604080517fd2d0e066000000000000000000000000000000000000000000000000000000008152600160a060020a0393841660048201526024810192909252600093820184905251919093169263d2d0e06692606480830193919282900301818387803b15801561168157600080fd5b505af1158015611695573d6000803e3d6000fd5b50506037546034546116af9350915063ffffffff6120d716565b603455603754336000908152603e60205260409020556038546116d990600163ffffffff6120d716565b60388190556000908152603a6020908152604090912087516116fd92890190612142565b5050603880546000908152603c6020908152604080832080543373ffffffffffffffffffffffffffffffffffffffff1990911681179091558454818552603b84528285208190558452603d8352818420805460ff19166002179055603654908452603f909252909120555495945050505050565b603354600160a060020a031633146117d3576040805160e560020a62461bcd02815260206004820152600960248201527f4e6f742061646d696e0000000000000000000000000000000000000000000000604482015290519081900360640190fd5b603555565b604654600160a060020a031681565b60355481565b60365481565b336000818152603e6020526040902054611845576040805160e560020a62461bcd02815260206004820152601160248201526000805160206122af833981519152604482015290519081900360640190fd5b336000818152603b6020526040902054158061189457506001600160a060020a0382166000908152603b60209081526040808320548352603d90915290205460ff16600281111561189257fe5b145b6118d6576040805160e560020a62461bcd02815260206004820152601b6024820152600080516020612225833981519152604482015290519081900360640190fd5b5050336000908152604360205260409020805473ffffffffffffffffffffffffffffffffffffffff1916600160a060020a0392909216919091179055565b60395481565b603e6020526000908152604090205481565b565b604754600160a060020a031681565b604060208181526000938452818420905290825290205481565b603f6020526000908152604090205481565b336000908152603e6020526040902054156119ce576040805160e560020a62461bcd02815260206004820152601860248201527f506572736f6e20697320616c7265616479206120757365720000000000000000604482015290519081900360640190fd5b336000818152603b602052604090205415611a33576040805160e560020a62461bcd02815260206004820152601b60248201527f5573657220616c72656164792068617320612070726f706f73616c0000000000604482015290519081900360640190fd5b60448054604080517fdd62ed3e00000000000000000000000000000000000000000000000000000000815233600482015230602482015290518593600160a060020a039093169263dd62ed3e92808201926020929091829003018186803b158015611a9d57600080fd5b505afa158015611ab1573d6000803e3d6000fd5b505050506040513d6020811015611ac757600080fd5b5051811115611b20576040805160e560020a62461bcd02815260206004820152601460248201527f616d6f756e74206e6f7420617661696c61626c65000000000000000000000000604482015290519081900360640190fd5b604454604080517f70a0823100000000000000000000000000000000000000000000000000000000815233600482018190529151919286928392600160a060020a03909216916370a08231916024808301926020929190829003018186803b158015611b8b57600080fd5b505afa158015611b9f573d6000803e3d6000fd5b505050506040513d6020811015611bb557600080fd5b50511015611c0d576040805160e560020a62461bcd02815260206004820152601d60248201527f5573657220646f6573206e6f74206861766520656e6f75676820444149000000604482015290519081900360640190fd5b60448054604080517f23b872dd00000000000000000000000000000000000000000000000000000000815233600482015230602482015292830188905251600160a060020a03909116916323b872dd9160648083019260209291908290030181600087803b158015611c7e57600080fd5b505af1158015611c92573d6000803e3d6000fd5b505050506040513d6020811015611ca857600080fd5b505060448054604754604080517f095ea7b3000000000000000000000000000000000000000000000000000000008152600160a060020a039283166004820152602481018a90529051919092169263095ea7b3928082019260209290918290030181600087803b158015611d1b57600080fd5b505af1158015611d2f573d6000803e3d6000fd5b505050506040513d6020811015611d4557600080fd5b505060455460448054604080517fd2d0e066000000000000000000000000000000000000000000000000000000008152600160a060020a039283166004820152602481018a905260009381018490529051919093169263d2d0e06692606480830193919282900301818387803b158015611dbe57600080fd5b505af1158015611dd2573d6000803e3d6000fd5b5050336000908152603e602052604090208790555050603454611dfb908663ffffffff6120d716565b6034555050603654336000908152603f6020526040902055505050565b60426020526000908152604090205481565b604554600160a060020a031681565b604360205260009081526040902054600160a060020a031681565b60345481565b600054610100900460ff1680611e735750611e7361213b565b80611e81575060005460ff16155b611ebf5760405160e560020a62461bcd02815260040180806020018281038252602e815260200180612281602e913960400191505060405180910390fd5b600054610100900460ff16158015611eea576000805460ff1961ff0019909116610100171660011790555b60448054600160a060020a03808a1673ffffffffffffffffffffffffffffffffffffffff199283161790925560458054888416908316179055604680548984169083161790556047805492871692821692909217909155603380549091163317905560378390556035829055611f66428363ffffffff6120d716565b6039558015611f7b576000805461ff00191690555b50505050505050565b603b6020526000908152604090205481565b603354600160a060020a031681565b603c60205260009081526040902054600160a060020a031681565b60008282111561201a576040805160e560020a62461bcd02815260206004820152601e60248201527f536166654d6174683a207375627472616374696f6e206f766572666c6f770000604482015290519081900360640190fd5b50900390565b60368054600090815260406020818152818320600160a060020a03861684528152818320869055603e815281832054935483526041815281832086845290529020546120719163ffffffff6120d716565b60368054600090815260416020818152604080842088855282528084209590955592548252825282812060428352838220548252909152818120546038548252919020548110156120d2576038546036546000908152604260205260409020555b505050565b600082820183811015612134576040805160e560020a62461bcd02815260206004820152601b60248201527f536166654d6174683a206164646974696f6e206f766572666c6f770000000000604482015290519081900360640190fd5b9392505050565b303b155b90565b828054600181600116156101000203166002900490600052602060002090601f016020900481019282601f1061218357805160ff19168380011785556121b0565b828001600101855582156121b0579182015b828111156121b0578251825591602001919060010190612195565b506121bc9291506121c0565b5090565b61213f91905b808211156121bc57600081556001016121c656fe5573657220616c726561647920766f746564207468697320697465726174696f6e55736572206f6e6c7920656c696769626c6520746f20766f7465206e65787420697465726174696f6e557365722068617320616e206163746976652070726f706f73616c000000000042656e65666163746f72206f6e6c7920656c696769626c6520746f20726563656976652066756e647320696e206c6174657220697465726174696f6e436f6e747261637420696e7374616e63652068617320616c7265616479206265656e20696e697469616c697a65645573657220686173206e6f207374616b65000000000000000000000000000000a265627a7a7231582035c19e71941ea8bbec15370b82c896126e2967a72b7a835b5ec49609d672229064736f6c63430005100032",
  "source": "pragma solidity 0.5.16;\n\n// import \"./interfaces/IERC20.sol\";\nimport './interfaces/IAaveLendingPool.sol';\nimport './interfaces/IADai.sol';\nimport '@openzeppelin/contracts-ethereum-package/contracts/token/ERC20/ERC20.sol';\n\ncontract NoLossDao is Initializable {\n  using SafeMath for uint256;\n\n  //////// MASTER //////////////\n  address public admin;\n  uint256 public totalDepositedDai;\n\n  //////// Iteration specific //////////\n  uint256 public votingInterval;\n  uint256 public proposalIteration;\n\n  ///////// Proposal specific ///////////\n  uint256 public proposalAmount; // Add mapping of the proposal amount per iteration...\n  uint256 public proposalId;\n  uint256 public proposalDeadline; // keeping track of time\n  mapping(uint256 => string) public proposalDetails;\n  mapping(address => uint256) public benefactorsProposal; // benefactor -> proposal id\n  mapping(uint256 => address) public proposalOwner; // proposal id -> benefactor (1:1 mapping)\n  enum ProposalState {DoesNotExist, Withdrawn, Active} // Add Cooldown state and pending state\n  mapping(uint256 => ProposalState) public state; // ProposalId to current state\n\n  //////// User specific //////////\n  mapping(address => uint256) public depositedDai;\n  mapping(address => uint256) public iterationJoined; // Which iteration did user join DAO\n  mapping(uint256 => mapping(address => uint256)) public usersNominatedProject; // iteration -> user -> chosen project\n\n  //////// DAO / VOTE specific //////////\n  mapping(uint256 => mapping(uint256 => uint256)) public proposalVotes; /// iteration -> proposalId -> num votes\n  mapping(uint256 => uint256) public topProject;\n  mapping(address => address) public voteDelegations;\n\n  ///////// DEFI Contrcats ///////////\n  IERC20 public daiContract;\n  IAaveLendingPool public aaveLendingContract;\n  IADai public adaiContract;\n  address public aaveLendingContractCore;\n\n  ////////////////////////////////////\n  //////// Modifiers /////////////////\n  ////////////////////////////////////\n  modifier onlyAdmin() {\n    require(msg.sender == admin, 'Not admin');\n    _;\n  }\n\n  modifier blankUser() {\n    require(depositedDai[msg.sender] == 0, 'Person is already a user');\n    _;\n  }\n\n  modifier userStaked(address givenAddress) {\n    require(depositedDai[givenAddress] > 0, 'User has no stake');\n    _;\n  }\n\n  modifier noProposal(address givenAddress) {\n    require(\n      benefactorsProposal[givenAddress] == 0,\n      'User already has a proposal'\n    );\n    _;\n  }\n\n  modifier noVoteYet(address givenAddress) {\n    require(\n      usersNominatedProject[proposalIteration][givenAddress] == 0,\n      'User already voted this iteration'\n    );\n    _;\n  }\n\n  modifier userHasActiveProposal(address givenAddress) {\n    require(\n      state[benefactorsProposal[givenAddress]] == ProposalState.Active,\n      'User proposal does not exist'\n    );\n    _;\n  }\n\n  modifier requiredDai(address givenAddress, uint256 amount) {\n    require(\n      daiContract.balanceOf(givenAddress) >= amount,\n      'User does not have enough DAI'\n    );\n    _;\n  }\n\n  modifier userHasNoActiveProposal(address givenAddress) {\n    require(\n      benefactorsProposal[givenAddress] == 0 ||\n        state[benefactorsProposal[givenAddress]] == ProposalState.Withdrawn,\n      'User has an active proposal'\n    );\n    _;\n  }\n\n  modifier userHasNoProposal(address givenAddress) {\n    require(benefactorsProposal[givenAddress] == 0, 'User has a proposal');\n    _;\n  }\n\n  modifier proposalActive(uint256 propId) {\n    require(state[propId] == ProposalState.Active, 'Proposal is not active');\n    _;\n  }\n\n  modifier allowanceAvailable(uint256 amount) {\n    require(\n      amount <= daiContract.allowance(msg.sender, address(this)),\n      'amount not available'\n    );\n    _;\n  }\n\n  modifier proxyRight(address delegatedFrom) {\n    require(\n      voteDelegations[delegatedFrom] == msg.sender,\n      \"User doesn't have proxy right\"\n    );\n    _;\n  }\n\n  modifier joinedInTime(address givenAddress) {\n    require(\n      iterationJoined[givenAddress] < proposalIteration,\n      'User only eligible to vote next iteration'\n    );\n    _;\n  }\n\n  modifier lockInFulfilled(address givenAddress) {\n    require(\n      iterationJoined[givenAddress] + 2 < proposalIteration,\n      'Benefactor only eligible to receive funds in later iteration'\n    );\n    _;\n  }\n  ////////////////////////////////////\n  //////// SETUP CONTRACT////////////\n  //// NOTE: Upgradable at the moment\n  function initialize(\n    address daiAddress,\n    address aDaiAddress,\n    address aavePoolAddress,\n    address aavePoolCoreAddress,\n    uint256 _proposalAmount,\n    uint256 _votingInterval\n  ) public initializer {\n    daiContract = IERC20(daiAddress);\n    aaveLendingContract = IAaveLendingPool(aavePoolAddress);\n    adaiContract = IADai(aDaiAddress);\n    aaveLendingContractCore = aavePoolCoreAddress;\n    admin = msg.sender;\n    proposalAmount = _proposalAmount;\n    votingInterval = _votingInterval;\n\n    proposalDeadline = now.add(_votingInterval);\n  }\n\n  ///////////////////////////////////\n  /////// Config functions //////////\n  ///////////////////////////////////\n  function changeVotingInterval(uint256 newInterval) public onlyAdmin {\n    votingInterval = newInterval;\n  }\n\n  // Add function to change stake amount required for proposal\n\n  // change miner reward\n\n  ///////////////////////////////////\n  ///// Users join and leave /////////////////////////////////////////////////////////////////////////\n  ///////////////////////////////////\n  function deposit(uint256 amount)\n    public\n    blankUser // They haven't already deposited\n    noProposal(msg.sender) // Checks they are not a benefactor\n    allowanceAvailable(amount) // Apprroved DAI for this function\n    requiredDai(msg.sender, amount)\n  {\n    daiContract.transferFrom(msg.sender, address(this), amount);\n    daiContract.approve(address(aaveLendingContractCore), amount);\n    aaveLendingContract.deposit(address(daiContract), amount, 0);\n\n    //setting values\n    depositedDai[msg.sender] = amount;\n    totalDepositedDai = totalDepositedDai.add(amount);\n    iterationJoined[msg.sender] = proposalIteration;\n  }\n\n  // MOST CRITICAL\n  // Can't withdraw if voted\n  function withdrawDeposit()\n    public\n    userStaked(msg.sender)\n    noVoteYet(msg.sender)\n    userHasNoProposal(msg.sender)\n  {\n    uint256 amount = depositedDai[msg.sender];\n\n    //setting values\n    depositedDai[msg.sender] = 0;\n    totalDepositedDai = totalDepositedDai.sub(amount);\n    iterationJoined[msg.sender] = 0; // setting to default (haven't joined)\n\n    adaiContract.redeem(amount);\n    daiContract.transfer(msg.sender, amount);\n  }\n\n  ///////////////////////////////////\n  /// Benefactors join and leave ////////////////////////////////////////////////////////////////////\n  ///////////////////////////////////\n  function createProposal(string memory proposalHash)\n    public\n    allowanceAvailable(proposalAmount)\n    requiredDai(msg.sender, proposalAmount)\n    userHasNoActiveProposal(msg.sender)\n    blankUser()\n    returns (uint256 newProposalId)\n  {\n    // DAI things. TODO: Approve where necessary\n    daiContract.transferFrom(msg.sender, address(this), proposalAmount);\n    daiContract.approve(address(aaveLendingContractCore), proposalAmount);\n    aaveLendingContract.deposit(\n      address(daiContract),\n      proposalAmount,\n      0 /* We should research this referal code stuff... https://developers.aave.com/#referral-program */\n    );\n\n    totalDepositedDai = totalDepositedDai.add(proposalAmount);\n    depositedDai[msg.sender] = proposalAmount;\n\n    // So the first proposal will have an ID of 1\n    proposalId = proposalId.add(1);\n\n    proposalDetails[proposalId] = proposalHash;\n    proposalOwner[proposalId] = msg.sender;\n    benefactorsProposal[msg.sender] = proposalId;\n    state[proposalId] = ProposalState.Active;\n    iterationJoined[msg.sender] = proposalIteration;\n    return proposalId;\n  }\n\n  function withdrawProposal()\n    public\n    userHasActiveProposal(msg.sender)\n    lockInFulfilled(msg.sender)\n  {\n    //This can only be executed after every cycle\n    state[benefactorsProposal[msg.sender]] = ProposalState.Withdrawn;\n\n    uint256 amount = depositedDai[msg.sender];\n    depositedDai[msg.sender] = 0;\n    totalDepositedDai = totalDepositedDai.sub(amount);\n\n    adaiContract.redeem(amount);\n    daiContract.transfer(msg.sender, amount);\n  }\n\n  ///////////////////////////////////\n  //// DAO functionality ////////////////////////////////////////////////////////////////////////////\n  ///////////////////////////////////\n  function delegateVoting(address delegatedAddress)\n    public\n    userStaked(msg.sender)\n    userHasNoActiveProposal(msg.sender)\n  {\n    voteDelegations[msg.sender] = delegatedAddress;\n  }\n\n  function voteDirect(\n    uint256 proposalIdToVoteFor // breaking change -> function name change from vote to voteDirect\n  )\n    public\n    proposalActive(proposalIdToVoteFor)\n    noVoteYet(msg.sender)\n    userStaked(msg.sender)\n    userHasNoActiveProposal(msg.sender)\n    joinedInTime(msg.sender)\n  {\n    _vote(proposalIdToVoteFor, msg.sender);\n  }\n\n  function voteProxy(uint256 proposalIdToVoteFor, address delegatedFrom)\n    public\n    proposalActive(proposalIdToVoteFor)\n    proxyRight(delegatedFrom)\n    noVoteYet(delegatedFrom)\n    userStaked(delegatedFrom)\n    userHasNoActiveProposal(delegatedFrom)\n    joinedInTime(delegatedFrom)\n  {\n    _vote(proposalIdToVoteFor, delegatedFrom);\n  }\n\n  function _vote(uint256 proposalIdToVoteFor, address voteAddress) internal {\n    usersNominatedProject[proposalIteration][voteAddress] = proposalIdToVoteFor;\n    proposalVotes[proposalIteration][proposalIdToVoteFor] = proposalVotes[proposalIteration][proposalIdToVoteFor]\n      .add(depositedDai[voteAddress]);\n\n    uint256 topProjectVotes = proposalVotes[proposalIteration][topProject[proposalIteration]];\n\n    // TODO:: if they are equal there is a problem (we must handle this!!)\n    // Currently, proposal getting to top vote first wins\n    if (proposalVotes[proposalIteration][proposalId] > topProjectVotes) {\n      topProject[proposalIteration] = proposalId;\n    }\n  }\n\n  // This function allows users to get their proportion of interest instead of redirecting\n  // it to the winning project for the next weeks. (RAGE-QUIT but stay in pool function)\n  function veto() public {}\n  // Veto via twitter. v2 possibly.\n  function vetoProxy() public {}\n\n  ///////////////////////////////////\n  //// Iteration changes/////////////////////////////////////////////////////////////////////////////\n  ///////////////////////////////////\n  function distributeFunds() public {\n    // On a *whatever we decide basis* the funds are distributed to the winning project\n    // E.g. every 2 weeks, the project with the most votes gets the generated interest.\n\n    // anyone can call this when 2 cycle has ended - incentivize 'anyone' to call this transaction first and get a lil reward ;)\n    require(proposalDeadline < now, 'current vote still active');\n\n    // figure our what happens with the interest from the first proposal iteration\n    // Possibly make first iteration an extended one for our launch (for marketing)\n    if (topProject[proposalIteration] != 0) {\n      // Do some asserts here for safety...\n      address winner = proposalOwner[topProject[proposalIteration]]; // error if no-one voted for in this iteration\n      adaiContract.redirectInterestStream(winner);\n    }\n    //\n    proposalDeadline = proposalDeadline.add(votingInterval);\n\n    proposalIteration = proposalIteration.add(1);\n    topProject[proposalIteration] = 0;\n\n    // send winning miner a little surprise [NFT]\n\n  }\n\n}\n",
  "sourcePath": "/Users/johanthan/Code/hackathons/app/contracts/contracts/NoLossDao.sol",
  "compiler": {
    "name": "solc",
    "version": "0.5.16+commit.9c3226ce.Emscripten.clang"
  },
  "schemaVersion": "3.0.6",
  "updatedAt": "2020-03-05T00:42:30.265Z",
  "devdoc": {
    "methods": {}
  },
  "userdoc": {
    "methods": {
      "changeVotingInterval(uint256)": {
        "notice": "//////////////////////////////// //// Config functions ////////// ////////////////////////////////"
      },
      "createProposal(string)": {
        "notice": "//////////////////////////////// Benefactors join and leave //////////////////////////////////////////////////////////////////// ////////////////////////////////"
      },
      "delegateVoting(address)": {
        "notice": "//////////////////////////////// / DAO functionality //////////////////////////////////////////////////////////////////////////// ////////////////////////////////"
      },
      "deposit(uint256)": {
        "notice": "//////////////////////////////// // Users join and leave ///////////////////////////////////////////////////////////////////////// ////////////////////////////////"
      },
      "distributeFunds()": {
        "notice": "//////////////////////////////// / Iteration changes///////////////////////////////////////////////////////////////////////////// ////////////////////////////////"
      },
      "initialize(address,address,address,address,uint256,uint256)": {
        "notice": "///////////////////////////////// ///// SETUP CONTRACT//////////// / NOTE: Upgradable at the moment"
      }
    }
  }
}