{
  "contractName": "NoLossDao",
  "abi": [
    {
      "constant": true,
      "inputs": [],
      "name": "aaveLendingContract",
      "outputs": [
        {
          "internalType": "contract IAaveLendingPool",
          "name": "",
          "type": "address"
        }
      ],
      "payable": false,
      "stateMutability": "view",
      "type": "function"
    },
    {
      "constant": true,
      "inputs": [],
      "name": "adaiContract",
      "outputs": [
        {
          "internalType": "contract IADai",
          "name": "",
          "type": "address"
        }
      ],
      "payable": false,
      "stateMutability": "view",
      "type": "function"
    },
    {
      "constant": true,
      "inputs": [],
      "name": "admin",
      "outputs": [
        {
          "internalType": "address",
          "name": "",
          "type": "address"
        }
      ],
      "payable": false,
      "stateMutability": "view",
      "type": "function"
    },
    {
      "constant": true,
      "inputs": [],
      "name": "daiContract",
      "outputs": [
        {
          "internalType": "contract IERC20",
          "name": "",
          "type": "address"
        }
      ],
      "payable": false,
      "stateMutability": "view",
      "type": "function"
    },
    {
      "constant": true,
      "inputs": [
        {
          "internalType": "address",
          "name": "",
          "type": "address"
        }
      ],
      "name": "depositedDai",
      "outputs": [
        {
          "internalType": "uint256",
          "name": "",
          "type": "uint256"
        }
      ],
      "payable": false,
      "stateMutability": "view",
      "type": "function"
    },
    {
      "constant": true,
      "inputs": [
        {
          "internalType": "address",
          "name": "",
          "type": "address"
        }
      ],
      "name": "iterationJoined",
      "outputs": [
        {
          "internalType": "uint256",
          "name": "",
          "type": "uint256"
        }
      ],
      "payable": false,
      "stateMutability": "view",
      "type": "function"
    },
    {
      "constant": true,
      "inputs": [],
      "name": "proposalAmount",
      "outputs": [
        {
          "internalType": "uint256",
          "name": "",
          "type": "uint256"
        }
      ],
      "payable": false,
      "stateMutability": "view",
      "type": "function"
    },
    {
      "constant": true,
      "inputs": [],
      "name": "proposalDeadline",
      "outputs": [
        {
          "internalType": "uint256",
          "name": "",
          "type": "uint256"
        }
      ],
      "payable": false,
      "stateMutability": "view",
      "type": "function"
    },
    {
      "constant": true,
      "inputs": [
        {
          "internalType": "uint256",
          "name": "",
          "type": "uint256"
        }
      ],
      "name": "proposalDetails",
      "outputs": [
        {
          "internalType": "string",
          "name": "",
          "type": "string"
        }
      ],
      "payable": false,
      "stateMutability": "view",
      "type": "function"
    },
    {
      "constant": true,
      "inputs": [],
      "name": "proposalIteration",
      "outputs": [
        {
          "internalType": "uint256",
          "name": "",
          "type": "uint256"
        }
      ],
      "payable": false,
      "stateMutability": "view",
      "type": "function"
    },
    {
      "constant": true,
      "inputs": [
        {
          "internalType": "uint256",
          "name": "",
          "type": "uint256"
        }
      ],
      "name": "proposalOwner",
      "outputs": [
        {
          "internalType": "address",
          "name": "",
          "type": "address"
        }
      ],
      "payable": false,
      "stateMutability": "view",
      "type": "function"
    },
    {
      "constant": true,
      "inputs": [
        {
          "internalType": "uint256",
          "name": "",
          "type": "uint256"
        },
        {
          "internalType": "uint256",
          "name": "",
          "type": "uint256"
        }
      ],
      "name": "proposalVotes",
      "outputs": [
        {
          "internalType": "uint256",
          "name": "",
          "type": "uint256"
        }
      ],
      "payable": false,
      "stateMutability": "view",
      "type": "function"
    },
    {
      "constant": true,
      "inputs": [
        {
          "internalType": "uint256",
          "name": "",
          "type": "uint256"
        }
      ],
      "name": "state",
      "outputs": [
        {
          "internalType": "enum NoLossDao.ProposalState",
          "name": "",
          "type": "uint8"
        }
      ],
      "payable": false,
      "stateMutability": "view",
      "type": "function"
    },
    {
      "constant": true,
      "inputs": [
        {
          "internalType": "uint256",
          "name": "",
          "type": "uint256"
        }
      ],
      "name": "topProject",
      "outputs": [
        {
          "internalType": "uint256",
          "name": "",
          "type": "uint256"
        }
      ],
      "payable": false,
      "stateMutability": "view",
      "type": "function"
    },
    {
      "constant": true,
      "inputs": [],
      "name": "totalDepositedDai",
      "outputs": [
        {
          "internalType": "uint256",
          "name": "",
          "type": "uint256"
        }
      ],
      "payable": false,
      "stateMutability": "view",
      "type": "function"
    },
    {
      "constant": true,
      "inputs": [
        {
          "internalType": "uint256",
          "name": "",
          "type": "uint256"
        },
        {
          "internalType": "address",
          "name": "",
          "type": "address"
        }
      ],
      "name": "usersNominatedProject",
      "outputs": [
        {
          "internalType": "uint256",
          "name": "",
          "type": "uint256"
        }
      ],
      "payable": false,
      "stateMutability": "view",
      "type": "function"
    },
    {
      "constant": true,
      "inputs": [
        {
          "internalType": "address",
          "name": "",
          "type": "address"
        }
      ],
      "name": "usersProposedProject",
      "outputs": [
        {
          "internalType": "uint256",
          "name": "",
          "type": "uint256"
        }
      ],
      "payable": false,
      "stateMutability": "view",
      "type": "function"
    },
    {
      "constant": true,
      "inputs": [
        {
          "internalType": "address",
          "name": "",
          "type": "address"
        }
      ],
      "name": "voteDelegations",
      "outputs": [
        {
          "internalType": "address",
          "name": "",
          "type": "address"
        }
      ],
      "payable": false,
      "stateMutability": "view",
      "type": "function"
    },
    {
      "constant": true,
      "inputs": [
        {
          "internalType": "address",
          "name": "",
          "type": "address"
        },
        {
          "internalType": "address",
          "name": "aDaiAddress",
          "type": "address"
        },
        {
          "internalType": "address",
          "name": "aavePoolAddress",
          "type": "address"
        },
        {
          "internalType": "uint256",
          "name": "_proposalAmount",
          "type": "uint256"
        },
        {
          "internalType": "uint256",
          "name": "_votingInterval",
          "type": "uint256"
        }
      ],
      "name": "voteState",
      "outputs": [
        {
          "internalType": "enum NoLossDao.VoteState",
          "name": "",
          "type": "uint8"
        }
      ],
      "payable": false,
      "stateMutability": "view",
      "type": "function"
    },
    {
      "constant": true,
      "inputs": [
        {
          "internalType": "uint256",
          "name": "newInterval",
          "type": "uint256"
        }
      ],
      "name": "votingInterval",
      "outputs": [
        {
          "internalType": "uint256",
          "name": "",
          "type": "uint256"
        }
      ],
      "payable": false,
      "stateMutability": "view",
      "type": "function"
    },
    {
      "constant": false,
      "inputs": [
        {
          "internalType": "address",
          "name": "daiAddress",
          "type": "address"
        },
        {
          "internalType": "address",
          "name": "aDaiAddress",
          "type": "address"
        },
        {
          "internalType": "address",
          "name": "aavePoolAddress",
          "type": "address"
        },
        {
          "internalType": "uint256",
          "name": "_proposalAmount",
          "type": "uint256"
        },
        {
          "internalType": "uint256",
          "name": "_votingInterval",
          "type": "uint256"
        }
      ],
      "name": "initialize",
      "outputs": [],
      "payable": false,
      "stateMutability": "nonpayable",
      "type": "function"
    },
    {
      "constant": false,
      "inputs": [
        {
          "internalType": "uint256",
          "name": "newInterval",
          "type": "uint256"
        }
      ],
      "name": "changeVotingInterval",
      "outputs": [],
      "payable": false,
      "stateMutability": "nonpayable",
      "type": "function"
    },
    {
      "constant": false,
      "inputs": [
        {
          "internalType": "uint256",
          "name": "amount",
          "type": "uint256"
        }
      ],
      "name": "deposit",
      "outputs": [
        {
          "internalType": "uint256",
          "name": "newProposalId",
          "type": "uint256"
        }
      ],
      "payable": false,
      "stateMutability": "nonpayable",
      "type": "function"
    },
    {
      "constant": false,
      "inputs": [
        {
          "internalType": "uint256",
          "name": "amount",
          "type": "uint256"
        }
      ],
      "name": "withdrawFull",
      "outputs": [],
      "payable": false,
      "stateMutability": "nonpayable",
      "type": "function"
    },
    {
      "constant": false,
      "inputs": [
        {
          "internalType": "string",
          "name": "proposalHash",
          "type": "string"
        }
      ],
      "name": "createProposal",
      "outputs": [
        {
          "internalType": "uint256",
          "name": "newProposalId",
          "type": "uint256"
        }
      ],
      "payable": false,
      "stateMutability": "nonpayable",
      "type": "function"
    },
    {
      "constant": false,
      "inputs": [],
      "name": "withdrawProposal",
      "outputs": [],
      "payable": false,
      "stateMutability": "nonpayable",
      "type": "function"
    },
    {
      "constant": false,
      "inputs": [
        {
          "internalType": "uint256",
          "name": "proposalIdToVoteFor",
          "type": "uint256"
        }
      ],
      "name": "vote",
      "outputs": [],
      "payable": false,
      "stateMutability": "nonpayable",
      "type": "function"
    },
    {
      "constant": false,
      "inputs": [],
      "name": "distributeFunds",
      "outputs": [],
      "payable": false,
      "stateMutability": "nonpayable",
      "type": "function"
    },
    {
      "constant": false,
      "inputs": [
        {
          "internalType": "address",
          "name": "delegatedAddress",
          "type": "address"
        }
      ],
      "name": "delegateVoting",
      "outputs": [],
      "payable": false,
      "stateMutability": "nonpayable",
      "type": "function"
    }
  ],
  "bytecode": "0x608060405234801561001057600080fd5b50611867806100206000396000f3fe608060405234801561001057600080fd5b50600436106101ec576000357c0100000000000000000000000000000000000000000000000000000000900480637584939911610121578063b6b55f25116100bf578063d1c22c3b1161008e578063d1c22c3b146105cb578063d8a3239f146105d3578063f851a440146105f0578063fcde9925146105f8576101ec565b8063b6b55f2514610563578063bdd882f014610580578063c68dc6ad1461059d578063ca28f0d0146105a5576101ec565b806382a0ca9c116100fb57806382a0ca9c146104a9578063976ee2b6146104cf578063a5871182146104fb578063a6b63eb814610521576101ec565b80637584939914610473578063765cb83a1461047b5780637ce1f844146104a1576101ec565b806339ab499b1161018e57806349c2a1a61161016857806349c2a1a6146103a057806351252f6c146104465780636b38def2146104635780637566ad531461046b576101ec565b806339ab499b146103555780633a6a4d2e1461037b5780633e4f49e614610383576101ec565b806316e9eaec116101ca57806316e9eaec1461024d578063173a2b5c146102df5780631a5b6774146102e75780632ce8b91314610331576101ec565b80630121b93f146101f1578063031cf1d9146102105780630d68eb9e14610218575b600080fd5b61020e6004803603602081101561020757600080fd5b5035610615565b005b61020e610911565b61023b6004803603604081101561022e57600080fd5b50803590602001356109c6565b60408051918252519081900360200190f35b61026a6004803603602081101561026357600080fd5b50356109e3565b6040805160208082528351818301528351919283929083019185019080838360005b838110156102a457818101518382015260200161028c565b50505050905090810190601f1680156102d15780820380516001836020036101000a031916815260200191505b509250505060405180910390f35b61023b610a7e565b61030d600480360360208110156102fd57600080fd5b5035600160a060020a0316610a84565b6040518082600181111561031d57fe5b60ff16815260200191505060405180910390f35b610339610a99565b60408051600160a060020a039092168252519081900360200190f35b61023b6004803603602081101561036b57600080fd5b5035600160a060020a0316610aa8565b61020e610aba565b61030d6004803603602081101561039957600080fd5b5035610b60565b61023b600480360360208110156103b657600080fd5b8101906020810181356401000000008111156103d157600080fd5b8201836020820111156103e357600080fd5b8035906020019184600183028401116401000000008311171561040557600080fd5b91908080601f016020809104026020016040519081016040528093929190818152602001838380828437600092019190915250929550610b75945050505050565b61020e6004803603602081101561045c57600080fd5b5035610f01565b610339610f68565b61023b610f77565b61023b610f7d565b61020e6004803603602081101561049157600080fd5b5035600160a060020a0316610f83565b61023b6110e0565b61023b600480360360208110156104bf57600080fd5b5035600160a060020a03166110e6565b61023b600480360360408110156104e557600080fd5b5080359060200135600160a060020a03166110f8565b61023b6004803603602081101561051157600080fd5b5035600160a060020a0316611115565b61020e600480360360a081101561053757600080fd5b50600160a060020a03813581169160208101358216916040820135169060608101359060800135611127565b61020e6004803603602081101561057957600080fd5b5035611243565b61023b6004803603602081101561059657600080fd5b50356115f0565b610339611602565b610339600480360360208110156105bb57600080fd5b5035600160a060020a0316611611565b61023b61162c565b61020e600480360360208110156105e957600080fd5b50356110dd565b610339611632565b6103396004803603602081101561060e57600080fd5b5035611641565b806000808281526043602052604090205460ff16600181111561063457fe5b14610689576040805160e560020a62461bcd02815260206004820152601560248201527f50726f706f73616c2069736e2774206163746976650000000000000000000000604482015290519081900360640190fd5b6041546000908152603760209081526040808320338452909152902054156106e55760405160e560020a62461bcd0281526004018080602001828103825260218152602001806117c06021913960400191505060405180910390fd5b33600090815260336020526040902054610749576040805160e560020a62461bcd02815260206004820152601160248201527f5573657220686173206e6f207374616b65000000000000000000000000000000604482015290519081900360640190fd5b6001336000908152603860209081526040808320548352604390915290205460ff16600181111561077657fe5b148061078f575033600090815260386020526040902054155b6107e3576040805160e560020a62461bcd02815260206004820152601b60248201527f557365722068617320616e206163746976652070726f706f73616c0000000000604482015290519081900360640190fd5b6041546000908152603760209081526040808320338452909152902054801561085c57336000908152603360209081526040808320546041548452603683528184208585529092529091205461083e9163ffffffff61165c16565b60415460009081526036602090815260408083208584529091529020555b33600090815260336020908152604080832054604154845260368352818420878552909252909120546108949163ffffffff6116bc16565b60418054600090815260366020818152604080842089855282528084209590955583548352603781528483203384528152848320889055925482528252828120603a83528382205482529091528181205460425482529190205481101561090b576042546041546000908152603a60205260409020555b50505050565b336000908152603860209081526040808320548352604390915281205460ff16600181111561093c57fe5b1461097b5760405160e560020a62461bcd02815260040180806020018281038252602481526020018061180f6024913960400191505060405180910390fd5b33600090815260386020908152604080832054835260439091529020805460ff19166001179055603c54603b546109b19161165c565b603b5533600090815260336020526040812055565b603660209081526000928352604080842090915290825290205481565b60356020908152600091825260409182902080548351601f600260001961010060018616150201909316929092049182018490048402810184019094528084529091830182828015610a765780601f10610a4b57610100808354040283529160200191610a76565b820191906000526020600020905b815481529060010190602001808311610a5957829003601f168201915b505050505081565b603c5481565b60446020526000908152604090205460ff1681565b603d54600160a060020a031681565b60386020526000908152604090205481565b4260475411610b13576040805160e560020a62461bcd02815260206004820152601960248201527f63757272656e7420766f7465207374696c6c2061637469766500000000000000604482015290519081900360640190fd5b604154600052603a602052604654604754610b339163ffffffff6116bc16565b604755604154610b4a90600163ffffffff6116bc16565b60418190556000908152603a6020526040812055565b60436020526000908152604090205460ff1681565b603c54603d54604080517fdd62ed3e000000000000000000000000000000000000000000000000000000008152336004820152306024820152905160009392600160a060020a03169163dd62ed3e916044808301926020929190829003018186803b158015610be357600080fd5b505afa158015610bf7573d6000803e3d6000fd5b505050506040513d6020811015610c0d57600080fd5b5051811115610c66576040805160e560020a62461bcd02815260206004820152601460248201527f616d6f756e74206e6f7420617661696c61626c65000000000000000000000000604482015290519081900360640190fd5b603d54603c54604080517f23b872dd000000000000000000000000000000000000000000000000000000008152336004820152306024820152604481019290925251600160a060020a03909216916323b872dd916064808201926020929091908290030181600087803b158015610cdc57600080fd5b505af1158015610cf0573d6000803e3d6000fd5b505050506040513d6020811015610d0657600080fd5b5050603d54603e54603c54604080517f095ea7b3000000000000000000000000000000000000000000000000000000008152600160a060020a039384166004820152602481019290925251919092169163095ea7b39160448083019260209291908290030181600087803b158015610d7d57600080fd5b505af1158015610d91573d6000803e3d6000fd5b505050506040513d6020811015610da757600080fd5b5050603e54603d54603c54604080517fd2d0e066000000000000000000000000000000000000000000000000000000008152600160a060020a03938416600482015260248101929092526000604483018190529051929093169263d2d0e0669260648084019382900301818387803b158015610e2257600080fd5b505af1158015610e36573d6000803e3d6000fd5b5050603c54603b54610e509350915063ffffffff6116bc16565b603b55603c5433600090815260336020526040902054610e759163ffffffff6116bc16565b33600090815260336020526040902055604254610e9990600163ffffffff6116bc16565b60008181526035602090815260409091208551929450610ebd929091860190611727565b50506000818152603460209081526040808320805473ffffffffffffffffffffffffffffffffffffffff19163317905560439091529020805460ff19169055919050565b604054600160a060020a03163314610f63576040805160e560020a62461bcd02815260206004820152600960248201527f4e6f742061646d696e0000000000000000000000000000000000000000000000604482015290519081900360640190fd5b604655565b603f54600160a060020a031681565b60465481565b60415481565b604154600090815260376020908152604080832033845290915290205415610fdf5760405160e560020a62461bcd0281526004018080602001828103825260218152602001806117c06021913960400191505060405180910390fd5b33600090815260336020526040902054611043576040805160e560020a62461bcd02815260206004820152601160248201527f5573657220686173206e6f207374616b65000000000000000000000000000000604482015290519081900360640190fd5b6001336000908152603860209081526040808320548352604390915290205460ff16600181111561107057fe5b1480611089575033600090815260386020526040902054155b6110dd576040805160e560020a62461bcd02815260206004820152601b60248201527f557365722068617320616e206163746976652070726f706f73616c0000000000604482015290519081900360640190fd5b50565b60475481565b60336020526000908152604090205481565b603760209081526000928352604080842090915290825290205481565b60396020526000908152604090205481565b600054610100900460ff16806111405750611140611720565b8061114e575060005460ff16155b61118c5760405160e560020a62461bcd02815260040180806020018281038252602e8152602001806117e1602e913960400191505060405180910390fd5b600054610100900460ff161580156111b7576000805460ff1961ff0019909116610100171660011790555b603d8054600160a060020a0380891673ffffffffffffffffffffffffffffffffffffffff1992831617909255603e8054878416908316179055603f8054928816928216929092179091556040805490911633179055603c8390556046829055611226428363ffffffff6116bc16565b604755801561123b576000805461ff00191690555b505050505050565b33600090815260336020526040902054156112a8576040805160e560020a62461bcd02815260206004820152601360248201527f5573657220616c72656164792065786973747300000000000000000000000000604482015290519081900360640190fd5b336000908152603860205260409020541561130d576040805160e560020a62461bcd02815260206004820152601b60248201527f5573657220616c72656164792068617320612070726f706f73616c0000000000604482015290519081900360640190fd5b603d54604080517fdd62ed3e00000000000000000000000000000000000000000000000000000000815233600482015230602482015290518392600160a060020a03169163dd62ed3e916044808301926020929190829003018186803b15801561137657600080fd5b505afa15801561138a573d6000803e3d6000fd5b505050506040513d60208110156113a057600080fd5b50518111156113f9576040805160e560020a62461bcd02815260206004820152601460248201527f616d6f756e74206e6f7420617661696c61626c65000000000000000000000000604482015290519081900360640190fd5b603d54604080517f23b872dd000000000000000000000000000000000000000000000000000000008152336004820152306024820152604481018590529051600160a060020a03909216916323b872dd916064808201926020929091908290030181600087803b15801561146c57600080fd5b505af1158015611480573d6000803e3d6000fd5b505050506040513d602081101561149657600080fd5b5050603d54603e54604080517f095ea7b3000000000000000000000000000000000000000000000000000000008152600160a060020a039283166004820152602481018690529051919092169163095ea7b39160448083019260209291908290030181600087803b15801561150a57600080fd5b505af115801561151e573d6000803e3d6000fd5b505050506040513d602081101561153457600080fd5b5050603e54603d54604080517fd2d0e066000000000000000000000000000000000000000000000000000000008152600160a060020a039283166004820152602481018690526000604482018190529151929093169263d2d0e066926064808301939282900301818387803b1580156115ac57600080fd5b505af11580156115c0573d6000803e3d6000fd5b50503360009081526033602052604090208490555050603b546115e9908363ffffffff6116bc16565b603b555050565b603a6020526000908152604090205481565b603e54600160a060020a031681565b604560205260009081526040902054600160a060020a031681565b603b5481565b604054600160a060020a031681565b603460205260009081526040902054600160a060020a031681565b6000828211156116b6576040805160e560020a62461bcd02815260206004820152601e60248201527f536166654d6174683a207375627472616374696f6e206f766572666c6f770000604482015290519081900360640190fd5b50900390565b600082820183811015611719576040805160e560020a62461bcd02815260206004820152601b60248201527f536166654d6174683a206164646974696f6e206f766572666c6f770000000000604482015290519081900360640190fd5b9392505050565b303b155b90565b828054600181600116156101000203166002900490600052602060002090601f016020900481019282601f1061176857805160ff1916838001178555611795565b82800160010185558215611795579182015b8281111561179557825182559160200191906001019061177a565b506117a19291506117a5565b5090565b61172491905b808211156117a157600081556001016117ab56fe5573657220616c726561647920766f746564207468697320697465726174696f6e436f6e747261637420696e7374616e63652068617320616c7265616479206265656e20696e697469616c697a65645573657220646f65736e2774206861766520616e206163746976652070726f706f73616ca265627a7a72315820bb69b829f9098d9d48ee5e46e9b3fd638ddef344463bf9ae6e86fdf549cc535e64736f6c63430005100032",
  "source": "pragma solidity 0.5.16;\n\n// import \"./interfaces/IERC20.sol\";\nimport './interfaces/IAaveLendingPool.sol';\nimport './interfaces/IADai.sol';\nimport '@openzeppelin/contracts-ethereum-package/contracts/token/ERC20/ERC20.sol';\n\ncontract NoLossDao is Initializable {\n  using SafeMath for uint256;\n\n  mapping(address => uint256) public depositedDai;\n  mapping(uint256 => address) public proposalOwner;\n  mapping(uint256 => string) public proposalDetails;\n  mapping(uint256 => mapping(uint256 => uint256)) public proposalVotes;\n\n  mapping(uint256 => mapping(address => uint256)) public usersNominatedProject; // Means user can only have one project.\n  mapping(address => uint256) public usersProposedProject;\n  mapping(address => uint256) public iterationJoined;\n\n  mapping(uint256 => uint256) public topProject;\n\n  uint256 public totalDepositedDai;\n  uint256 public proposalAmount;\n\n  IERC20 public daiContract;\n  IAaveLendingPool public aaveLendingContract;\n  IADai public adaiContract;\n  address public admin;\n\n  uint256 public proposalIteration;\n\n  uint256 proposalId;\n  enum ProposalState {Active, Withdrawn} // Cooldown\n  mapping(uint256 => ProposalState) public state; // ProposalId to current state\n\n  enum VoteState {Own, Delegated}\n  mapping(address => VoteState) public voteState; // ProposalId to current state\n  mapping(address => address) public voteDelegations;\n\n  uint256 public votingInterval;\n  uint256 public proposalDeadline;\n\n  modifier onlyAdmin() {\n    require(msg.sender == admin, 'Not admin');\n    _;\n  }\n\n  modifier blankUser() {\n    require(depositedDai[msg.sender] == 0, 'User already exists');\n    _;\n  }\n\n  modifier userStaked() {\n    require(depositedDai[msg.sender] > 0, 'User has no stake');\n    _;\n  }\n\n  modifier noProposal() {\n    require(\n      usersProposedProject[msg.sender] == 0,\n      'User already has a proposal'\n    );\n    _;\n  }\n\n  modifier noVoteYet() {\n    require(\n      usersNominatedProject[proposalIteration][msg.sender] == 0,\n      'User already voted this iteration'\n    );\n    _;\n  }\n\n  modifier userHasActiveProposal() {\n    require(\n      state[usersProposedProject[msg.sender]] == ProposalState.Active,\n      \"User doesn't have an active proposal\"\n    );\n    _;\n  }\n\n  modifier userHasNoActiveProposal() {\n    require(\n      state[usersProposedProject[msg.sender]] == ProposalState.Withdrawn ||\n        usersProposedProject[msg.sender] == 0,\n      'User has an active proposal'\n    );\n    _;\n  }\n\n  modifier proposalActive(uint256 propId) {\n    require(state[propId] == ProposalState.Active, \"Proposal isn't active\");\n    _;\n  }\n\n  modifier allowanceAvailable(uint256 amount) {\n    require(\n      amount <= daiContract.allowance(msg.sender, address(this)),\n      'amount not available'\n    );\n    _;\n  }\n\n  function initialize(\n    address daiAddress,\n    address aDaiAddress,\n    address aavePoolAddress,\n    uint256 _proposalAmount,\n    uint256 _votingInterval\n  ) public initializer {\n    daiContract = IERC20(daiAddress);\n    aaveLendingContract = IAaveLendingPool(aavePoolAddress);\n    adaiContract = IADai(aDaiAddress);\n    admin = msg.sender;\n    proposalAmount = _proposalAmount;\n    votingInterval = _votingInterval;\n\n    proposalDeadline = now.add(_votingInterval);\n  }\n\n  function changeVotingInterval(uint256 newInterval) public onlyAdmin {\n    votingInterval = newInterval;\n  }\n\n  function deposit(uint256 amount)\n    public\n    blankUser\n    noProposal\n    allowanceAvailable(amount)\n  {\n    daiContract.transferFrom(msg.sender, address(this), amount);\n    daiContract.approve(address(aaveLendingContract), amount);\n    aaveLendingContract.deposit(address(daiContract), amount, 0);\n\n    //setting values\n    depositedDai[msg.sender] = amount;\n    totalDepositedDai = totalDepositedDai.add(amount);\n  }\n\n  function withdrawFull(uint256 amount) public {\n    // Participant withdraws all there DAI and exits our system :(\n    // Check the user exists in our system\n    // Check the amount they have deposited\n    // Exchange aDAI to DAI for this amount\n    // Send them back their dai\n    // Remove their amount of dai from the total we have\n    // IMPORTANT, remove their vote amount...\n  }\n\n  function createProposal(string memory proposalHash)\n    public\n    allowanceAvailable(proposalAmount)\n    returns (uint256 newProposalId)\n  {\n    // DAI things. TODO: Approve where necessary\n    daiContract.transferFrom(msg.sender, address(this), proposalAmount);\n    daiContract.approve(address(aaveLendingContract), proposalAmount);\n    aaveLendingContract.deposit(\n      address(daiContract),\n      proposalAmount,\n      0 /* We should research this referal code stuff... https://developers.aave.com/#referral-program */\n    );\n\n    totalDepositedDai = totalDepositedDai.add(proposalAmount);\n    depositedDai[msg.sender] = depositedDai[msg.sender].add(proposalAmount);\n\n    // So the first proposal will have an ID of 1\n    newProposalId = proposalId.add(1);\n\n    proposalDetails[newProposalId] = proposalHash;\n    proposalOwner[newProposalId] = msg.sender;\n    state[newProposalId] = ProposalState.Active;\n  }\n\n  function withdrawProposal() public userHasActiveProposal {\n    //This can only be executed after every cycle\n    state[usersProposedProject[msg.sender]] = ProposalState.Withdrawn;\n    totalDepositedDai = totalDepositedDai.sub(proposalAmount);\n    depositedDai[msg.sender] = 0;\n    // TODO\n    // Remove proposalAmount from aDAI\n    // Convert to DAI\n    // Send back to owner\n  }\n\n  function vote(uint256 proposalIdToVoteFor)\n    public\n    proposalActive(proposalIdToVoteFor)\n    noVoteYet\n    userStaked\n    userHasNoActiveProposal\n  {\n    // Can only vote if they joined a previous iteration round...\n    // Check if the msg.sender has given approval rights to our steward to vote on their behalf\n    uint256 currentProposal = usersNominatedProject[proposalIteration][msg\n      .sender];\n    if (currentProposal != 0) {\n      proposalVotes[proposalIteration][currentProposal] = proposalVotes[proposalIteration][currentProposal]\n        .sub(depositedDai[msg.sender]);\n    }\n\n    proposalVotes[proposalIteration][proposalIdToVoteFor] = proposalVotes[proposalIteration][proposalIdToVoteFor]\n      .add(depositedDai[msg.sender]);\n\n    usersNominatedProject[proposalIteration][msg.sender] = proposalIdToVoteFor;\n\n    uint256 topProjectVotes = proposalVotes[proposalIteration][topProject[proposalIteration]];\n\n    // TODO:: if they are equal there is a problem (we must handle this!!)\n    if (proposalVotes[proposalIteration][proposalId] > topProjectVotes) {\n      topProject[proposalIteration] = proposalId;\n    }\n  }\n\n  function distributeFunds() public {\n    // On a *whatever we decide basis* the funds are distributed to the winning project\n    // E.g. every 2 weeks, the project with the most votes gets the generated interest.\n\n    require(proposalDeadline > now, 'current vote still active');\n\n    if (topProject[proposalIteration] != 0) {\n      // TODO: do the payout!\n    }\n\n    proposalDeadline = proposalDeadline.add(votingInterval);\n\n    proposalIteration = proposalIteration.add(1);\n    topProject[proposalIteration] = 0;\n  }\n\n  function delegateVoting(address delegatedAddress)\n    public\n    noVoteYet\n    userStaked\n    userHasNoActiveProposal\n  {\n    //TODO: MUCH LATER\n    // Allow the steward (US) to vote on their behalf through other medium (eg. scraping twitter)\n  }\n\n}\n",
  "sourcePath": "/Users/johanthan/Code/hackathons/app/contracts/contracts/NoLossDao.sol",
  "compiler": {
    "name": "solc",
    "version": "0.5.16+commit.9c3226ce.Emscripten.clang"
  },
  "schemaVersion": "3.0.6",
  "updatedAt": "2020-02-29T22:10:21.251Z",
  "devdoc": {
    "methods": {}
  },
  "userdoc": {
    "methods": {}
  }
}