{
  "contractName": "NoLossDao",
  "abi": [
    {
      "constant": true,
      "inputs": [],
      "name": "aaveLendingContract",
      "outputs": [
        {
          "internalType": "contract IAaveLendingPool",
          "name": "",
          "type": "address"
        }
      ],
      "payable": false,
      "stateMutability": "view",
      "type": "function"
    },
    {
      "constant": true,
      "inputs": [],
      "name": "adaiContract",
      "outputs": [
        {
          "internalType": "contract IADai",
          "name": "",
          "type": "address"
        }
      ],
      "payable": false,
      "stateMutability": "view",
      "type": "function"
    },
    {
      "constant": true,
      "inputs": [],
      "name": "admin",
      "outputs": [
        {
          "internalType": "address",
          "name": "",
          "type": "address"
        }
      ],
      "payable": false,
      "stateMutability": "view",
      "type": "function"
    },
    {
      "constant": true,
      "inputs": [],
      "name": "daiContract",
      "outputs": [
        {
          "internalType": "contract IERC20",
          "name": "",
          "type": "address"
        }
      ],
      "payable": false,
      "stateMutability": "view",
      "type": "function"
    },
    {
      "constant": true,
      "inputs": [
        {
          "internalType": "address",
          "name": "",
          "type": "address"
        }
      ],
      "name": "depositedDai",
      "outputs": [
        {
          "internalType": "uint256",
          "name": "",
          "type": "uint256"
        }
      ],
      "payable": false,
      "stateMutability": "view",
      "type": "function"
    },
    {
      "constant": true,
      "inputs": [
        {
          "internalType": "address",
          "name": "",
          "type": "address"
        }
      ],
      "name": "iterationJoined",
      "outputs": [
        {
          "internalType": "uint256",
          "name": "",
          "type": "uint256"
        }
      ],
      "payable": false,
      "stateMutability": "view",
      "type": "function"
    },
    {
      "constant": true,
      "inputs": [],
      "name": "proposalAmount",
      "outputs": [
        {
          "internalType": "uint256",
          "name": "",
          "type": "uint256"
        }
      ],
      "payable": false,
      "stateMutability": "view",
      "type": "function"
    },
    {
      "constant": true,
      "inputs": [],
      "name": "proposalDeadline",
      "outputs": [
        {
          "internalType": "uint256",
          "name": "",
          "type": "uint256"
        }
      ],
      "payable": false,
      "stateMutability": "view",
      "type": "function"
    },
    {
      "constant": true,
      "inputs": [
        {
          "internalType": "uint256",
          "name": "",
          "type": "uint256"
        }
      ],
      "name": "proposalDetails",
      "outputs": [
        {
          "internalType": "string",
          "name": "",
          "type": "string"
        }
      ],
      "payable": false,
      "stateMutability": "view",
      "type": "function"
    },
    {
      "constant": true,
      "inputs": [],
      "name": "proposalIteration",
      "outputs": [
        {
          "internalType": "uint256",
          "name": "",
          "type": "uint256"
        }
      ],
      "payable": false,
      "stateMutability": "view",
      "type": "function"
    },
    {
      "constant": true,
      "inputs": [
        {
          "internalType": "uint256",
          "name": "",
          "type": "uint256"
        }
      ],
      "name": "proposalOwner",
      "outputs": [
        {
          "internalType": "address",
          "name": "",
          "type": "address"
        }
      ],
      "payable": false,
      "stateMutability": "view",
      "type": "function"
    },
    {
      "constant": true,
      "inputs": [
        {
          "internalType": "uint256",
          "name": "",
          "type": "uint256"
        },
        {
          "internalType": "uint256",
          "name": "",
          "type": "uint256"
        }
      ],
      "name": "proposalVotes",
      "outputs": [
        {
          "internalType": "uint256",
          "name": "",
          "type": "uint256"
        }
      ],
      "payable": false,
      "stateMutability": "view",
      "type": "function"
    },
    {
      "constant": true,
      "inputs": [
        {
          "internalType": "uint256",
          "name": "",
          "type": "uint256"
        }
      ],
      "name": "state",
      "outputs": [
        {
          "internalType": "enum NoLossDao.ProposalState",
          "name": "",
          "type": "uint8"
        }
      ],
      "payable": false,
      "stateMutability": "view",
      "type": "function"
    },
    {
      "constant": true,
      "inputs": [
        {
          "internalType": "uint256",
          "name": "",
          "type": "uint256"
        }
      ],
      "name": "topProject",
      "outputs": [
        {
          "internalType": "uint256",
          "name": "",
          "type": "uint256"
        }
      ],
      "payable": false,
      "stateMutability": "view",
      "type": "function"
    },
    {
      "constant": true,
      "inputs": [],
      "name": "totalDepositedDai",
      "outputs": [
        {
          "internalType": "uint256",
          "name": "",
          "type": "uint256"
        }
      ],
      "payable": false,
      "stateMutability": "view",
      "type": "function"
    },
    {
      "constant": true,
      "inputs": [
        {
          "internalType": "uint256",
          "name": "",
          "type": "uint256"
        },
        {
          "internalType": "address",
          "name": "",
          "type": "address"
        }
      ],
      "name": "usersNominatedProject",
      "outputs": [
        {
          "internalType": "uint256",
          "name": "",
          "type": "uint256"
        }
      ],
      "payable": false,
      "stateMutability": "view",
      "type": "function"
    },
    {
      "constant": true,
      "inputs": [
        {
          "internalType": "address",
          "name": "",
          "type": "address"
        }
      ],
      "name": "usersProposedProject",
      "outputs": [
        {
          "internalType": "uint256",
          "name": "",
          "type": "uint256"
        }
      ],
      "payable": false,
      "stateMutability": "view",
      "type": "function"
    },
    {
      "constant": true,
      "inputs": [],
      "name": "votingInterval",
      "outputs": [
        {
          "internalType": "uint256",
          "name": "",
          "type": "uint256"
        }
      ],
      "payable": false,
      "stateMutability": "view",
      "type": "function"
    },
    {
      "constant": false,
      "inputs": [
        {
          "internalType": "address",
          "name": "daiAddress",
          "type": "address"
        },
        {
          "internalType": "address",
          "name": "aaveAddress",
          "type": "address"
        },
        {
          "internalType": "uint256",
          "name": "_proposalAmount",
          "type": "uint256"
        },
        {
          "internalType": "uint256",
          "name": "_votingInterval",
          "type": "uint256"
        }
      ],
      "name": "initialize",
      "outputs": [],
      "payable": false,
      "stateMutability": "nonpayable",
      "type": "function"
    },
    {
      "constant": false,
      "inputs": [
        {
          "internalType": "uint256",
          "name": "newInterval",
          "type": "uint256"
        }
      ],
      "name": "changeVotingInterval",
      "outputs": [],
      "payable": false,
      "stateMutability": "nonpayable",
      "type": "function"
    },
    {
      "constant": false,
      "inputs": [
        {
          "internalType": "uint256",
          "name": "amount",
          "type": "uint256"
        }
      ],
      "name": "deposit",
      "outputs": [],
      "payable": false,
      "stateMutability": "nonpayable",
      "type": "function"
    },
    {
      "constant": false,
      "inputs": [
        {
          "internalType": "uint256",
          "name": "amount",
          "type": "uint256"
        }
      ],
      "name": "withdrawFull",
      "outputs": [],
      "payable": false,
      "stateMutability": "nonpayable",
      "type": "function"
    },
    {
      "constant": false,
      "inputs": [
        {
          "internalType": "string",
          "name": "proposalHash",
          "type": "string"
        }
      ],
      "name": "createProposal",
      "outputs": [
        {
          "internalType": "uint256",
          "name": "newProposalId",
          "type": "uint256"
        }
      ],
      "payable": false,
      "stateMutability": "nonpayable",
      "type": "function"
    },
    {
      "constant": false,
      "inputs": [],
      "name": "withdrawProposal",
      "outputs": [],
      "payable": false,
      "stateMutability": "nonpayable",
      "type": "function"
    },
    {
      "constant": false,
      "inputs": [
        {
          "internalType": "uint256",
          "name": "proposalIdToVoteFor",
          "type": "uint256"
        }
      ],
      "name": "vote",
      "outputs": [],
      "payable": false,
      "stateMutability": "nonpayable",
      "type": "function"
    },
    {
      "constant": false,
      "inputs": [],
      "name": "distributeFunds",
      "outputs": [],
      "payable": false,
      "stateMutability": "nonpayable",
      "type": "function"
    },
    {
      "constant": false,
      "inputs": [],
      "name": "delegateVoting",
      "outputs": [],
      "payable": false,
      "stateMutability": "nonpayable",
      "type": "function"
    }
  ],
  "bytecode": "0x608060405234801561001057600080fd5b506114d7806100206000396000f3fe608060405234801561001057600080fd5b50600436106101a95760003560e01c806375849399116100f9578063bdd882f011610097578063d8a3239f11610071578063d8a3239f146104e4578063eb990c5914610501578063f851a4401461053d578063fcde992514610545576101a9565b8063bdd882f0146104b7578063c68dc6ad146104d4578063d1c22c3b146104dc576101a9565b8063976ee2b6116100d3578063976ee2b614610440578063a58711821461046c578063b6b55f2514610492578063b81d858a146104af576101a9565b8063758493991461040a5780637ce1f8441461041257806382a0ca9c1461041a576101a9565b806339ab499b1161016657806349c2a1a61161014057806349c2a1a61461033757806351252f6c146103dd5780636b38def2146103fa5780637566ad5314610402576101a9565b806339ab499b146102c85780633a6a4d2e146102ee5780633e4f49e6146102f6576101a9565b80630121b93f146101ae578063031cf1d9146101cd5780630d68eb9e146101d557806316e9eaec1461020a578063173a2b5c1461029c5780632ce8b913146102a4575b600080fd5b6101cb600480360360208110156101c457600080fd5b5035610562565b005b6101cb61083e565b6101f8600480360360408110156101eb57600080fd5b50803590602001356108f0565b60408051918252519081900360200190f35b6102276004803603602081101561022057600080fd5b503561090d565b6040805160208082528351818301528351919283929083019185019080838360005b83811015610261578181015183820152602001610249565b50505050905090810190601f16801561028e5780820380516001836020036101000a031916815260200191505b509250505060405180910390f35b6101f86109a8565b6102ac6109ae565b604080516001600160a01b039092168252519081900360200190f35b6101f8600480360360208110156102de57600080fd5b50356001600160a01b03166109bd565b6101cb6109cf565b6103136004803603602081101561030c57600080fd5b5035610a72565b6040518082600181111561032357fe5b60ff16815260200191505060405180910390f35b6101f86004803603602081101561034d57600080fd5b81019060208101813564010000000081111561036857600080fd5b82018360208201111561037a57600080fd5b8035906020019184600183028401116401000000008311171561039c57600080fd5b91908080601f016020809104026020016040519081016040528093929190818152602001838380828437600092019190915250929550610a87945050505050565b6101cb600480360360208110156103f357600080fd5b5035610d96565b6102ac610de6565b6101f8610df5565b6101f8610dfb565b6101f8610e01565b6101f86004803603602081101561043057600080fd5b50356001600160a01b0316610e07565b6101f86004803603604081101561045657600080fd5b50803590602001356001600160a01b0316610e19565b6101f86004803603602081101561048257600080fd5b50356001600160a01b0316610e36565b6101cb600480360360208110156104a857600080fd5b5035610e48565b6101cb611175565b6101f8600480360360208110156104cd57600080fd5b5035611177565b6102ac611189565b6101f8611198565b6101cb600480360360208110156104fa57600080fd5b503561119e565b6101cb6004803603608081101561051757600080fd5b506001600160a01b038135811691602081013590911690604081013590606001356111a1565b6102ac6112a8565b6102ac6004803603602081101561055b57600080fd5b50356112b7565b806000808281526043602052604090205460ff16600181111561058157fe5b146105cb576040805162461bcd60e51b815260206004820152601560248201527450726f706f73616c2069736e27742061637469766560581b604482015290519081900360640190fd5b6041546000908152603760209081526040808320338452909152902054156106245760405162461bcd60e51b81526004018080602001828103825260218152602001806114306021913960400191505060405180910390fd5b33600090815260336020526040902054610679576040805162461bcd60e51b81526020600482015260116024820152705573657220686173206e6f207374616b6560781b604482015290519081900360640190fd5b6001336000908152603860209081526040808320548352604390915290205460ff1660018111156106a657fe5b14806106bf575033600090815260386020526040902054155b610710576040805162461bcd60e51b815260206004820152601b60248201527f557365722068617320616e206163746976652070726f706f73616c0000000000604482015290519081900360640190fd5b6041546000908152603760209081526040808320338452909152902054801561078957336000908152603360209081526040808320546041548452603683528184208585529092529091205461076b9163ffffffff6112d216565b60415460009081526036602090815260408083208584529091529020555b33600090815260336020908152604080832054604154845260368352818420878552909252909120546107c19163ffffffff61132f16565b60418054600090815260366020818152604080842089855282528084209590955583548352603781528483203384528152848320889055925482528252828120603a835283822054825290915281812054604254825291902054811015610838576042546041546000908152603a60205260409020555b50505050565b336000908152603860209081526040808320548352604390915281205460ff16600181111561086957fe5b146108a55760405162461bcd60e51b815260040180806020018281038252602481526020018061147f6024913960400191505060405180910390fd5b33600090815260386020908152604080832054835260439091529020805460ff19166001179055603c54603b546108db916112d2565b603b5533600090815260336020526040812055565b603660209081526000928352604080842090915290825290205481565b60356020908152600091825260409182902080548351601f6002600019610100600186161502019093169290920491820184900484028101840190945280845290918301828280156109a05780601f10610975576101008083540402835291602001916109a0565b820191906000526020600020905b81548152906001019060200180831161098357829003601f168201915b505050505081565b603c5481565b603d546001600160a01b031681565b60386020526000908152604090205481565b4260455411610a25576040805162461bcd60e51b815260206004820152601960248201527f63757272656e7420766f7465207374696c6c2061637469766500000000000000604482015290519081900360640190fd5b604154600052603a602052604454604554610a459163ffffffff61132f16565b604555604154610a5c90600163ffffffff61132f16565b60418190556000908152603a6020526040812055565b60436020526000908152604090205460ff1681565b603c54603d5460408051636eb1769f60e11b81523360048201523060248201529051600093926001600160a01b03169163dd62ed3e916044808301926020929190829003018186803b158015610adc57600080fd5b505afa158015610af0573d6000803e3d6000fd5b505050506040513d6020811015610b0657600080fd5b5051811115610b53576040805162461bcd60e51b8152602060048201526014602482015273616d6f756e74206e6f7420617661696c61626c6560601b604482015290519081900360640190fd5b603d54603c54604080516323b872dd60e01b81523360048201523060248201526044810192909252516001600160a01b03909216916323b872dd916064808201926020929091908290030181600087803b158015610bb057600080fd5b505af1158015610bc4573d6000803e3d6000fd5b505050506040513d6020811015610bda57600080fd5b5050603d54603e54603c546040805163095ea7b360e01b81526001600160a01b039384166004820152602481019290925251919092169163095ea7b39160448083019260209291908290030181600087803b158015610c3857600080fd5b505af1158015610c4c573d6000803e3d6000fd5b505050506040513d6020811015610c6257600080fd5b5050603e54603d54603c5460408051636968703360e11b81526001600160a01b03938416600482015260248101929092526000604483018190529051929093169263d2d0e0669260648084019382900301818387803b158015610cc457600080fd5b505af1158015610cd8573d6000803e3d6000fd5b5050603c54603b54610cf29350915063ffffffff61132f16565b603b55603c5433600090815260336020526040902054610d179163ffffffff61132f16565b33600090815260336020526040902055604254610d3b90600163ffffffff61132f16565b60008181526035602090815260409091208551929450610d5f929091860190611397565b5050600081815260346020908152604080832080546001600160a01b0319163317905560439091529020805460ff19169055919050565b6040546001600160a01b03163314610de1576040805162461bcd60e51b81526020600482015260096024820152682737ba1030b236b4b760b91b604482015290519081900360640190fd5b604455565b603f546001600160a01b031681565b60445481565b60415481565b60455481565b60336020526000908152604090205481565b603760209081526000928352604080842090915290825290205481565b60396020526000908152604090205481565b3360009081526033602052604090205415610ea0576040805162461bcd60e51b81526020600482015260136024820152725573657220616c72656164792065786973747360681b604482015290519081900360640190fd5b3360009081526038602052604090205415610f02576040805162461bcd60e51b815260206004820152601b60248201527f5573657220616c72656164792068617320612070726f706f73616c0000000000604482015290519081900360640190fd5b603d5460408051636eb1769f60e11b8152336004820152306024820152905183926001600160a01b03169163dd62ed3e916044808301926020929190829003018186803b158015610f5257600080fd5b505afa158015610f66573d6000803e3d6000fd5b505050506040513d6020811015610f7c57600080fd5b5051811115610fc9576040805162461bcd60e51b8152602060048201526014602482015273616d6f756e74206e6f7420617661696c61626c6560601b604482015290519081900360640190fd5b603d54604080516323b872dd60e01b81523360048201523060248201526044810185905290516001600160a01b03909216916323b872dd916064808201926020929091908290030181600087803b15801561102357600080fd5b505af1158015611037573d6000803e3d6000fd5b505050506040513d602081101561104d57600080fd5b5050603d54603e546040805163095ea7b360e01b81526001600160a01b039283166004820152602481018690529051919092169163095ea7b39160448083019260209291908290030181600087803b1580156110a857600080fd5b505af11580156110bc573d6000803e3d6000fd5b505050506040513d60208110156110d257600080fd5b5050603e54603d5460408051636968703360e11b81526001600160a01b039283166004820152602481018690526000604482018190529151929093169263d2d0e066926064808301939282900301818387803b15801561113157600080fd5b505af1158015611145573d6000803e3d6000fd5b50503360009081526033602052604090208490555050603b5461116e908363ffffffff61132f16565b603b555050565b565b603a6020526000908152604090205481565b603e546001600160a01b031681565b603b5481565b50565b600054610100900460ff16806111ba57506111ba611390565b806111c8575060005460ff16155b6112035760405162461bcd60e51b815260040180806020018281038252602e815260200180611451602e913960400191505060405180910390fd5b600054610100900460ff1615801561122e576000805460ff1961ff0019909116610100171660011790555b603d80546001600160a01b038088166001600160a01b031992831617909255603e805492871692821683179055603f805482169092179091556040805490911633179055603c839055604482905561128c428363ffffffff61132f16565b60455580156112a1576000805461ff00191690555b5050505050565b6040546001600160a01b031681565b6034602052600090815260409020546001600160a01b031681565b600082821115611329576040805162461bcd60e51b815260206004820152601e60248201527f536166654d6174683a207375627472616374696f6e206f766572666c6f770000604482015290519081900360640190fd5b50900390565b600082820183811015611389576040805162461bcd60e51b815260206004820152601b60248201527f536166654d6174683a206164646974696f6e206f766572666c6f770000000000604482015290519081900360640190fd5b9392505050565b303b155b90565b828054600181600116156101000203166002900490600052602060002090601f016020900481019282601f106113d857805160ff1916838001178555611405565b82800160010185558215611405579182015b828111156114055782518255916020019190600101906113ea565b50611411929150611415565b5090565b61139491905b80821115611411576000815560010161141b56fe5573657220616c726561647920766f746564207468697320697465726174696f6e436f6e747261637420696e7374616e63652068617320616c7265616479206265656e20696e697469616c697a65645573657220646f65736e2774206861766520616e206163746976652070726f706f73616ca265627a7a72315820189104b0af5ef38f8b49163174bfeac84588ab04f213bec3f872df5885da6fc764736f6c63430005100032",
  "source": "pragma solidity 0.5.16;\n\n// import \"./interfaces/IERC20.sol\";\nimport \"./interfaces/IAaveLendingPool.sol\";\nimport \"./interfaces/IADai.sol\";\nimport \"@openzeppelin/contracts-ethereum-package/contracts/token/ERC20/ERC20.sol\";\n\ncontract NoLossDao is Initializable {\n    using SafeMath for uint256;\n\n    mapping(address => uint256) public depositedDai;\n    mapping(uint256 => address) public proposalOwner;\n    mapping(uint256 => string) public proposalDetails;\n    mapping(uint256 => mapping(uint256 => uint256)) public proposalVotes;\n\n    mapping(uint256 => mapping(address => uint256)) public usersNominatedProject; // Means user can only have one project.\n    mapping(address => uint256) public usersProposedProject;\n    mapping(address => uint256) public iterationJoined;\n\n    mapping(uint256 => uint256) public topProject;\n\n    uint256 public totalDepositedDai;\n    uint256 public proposalAmount;\n\n    IERC20 public daiContract;\n    IAaveLendingPool public aaveLendingContract;\n    IADai public adaiContract;\n    address public admin;\n\n    uint256 public proposalIteration;\n\n    uint256 proposalId;\n    enum ProposalState {Active, Withdrawn} // Cooldown\n    mapping(uint256 => ProposalState) public state; // ProposalId to current state\n\n    uint256 public votingInterval;\n    uint256 public proposalDeadline;\n\n    modifier onlyAdmin() {\n        require(msg.sender == admin, \"Not admin\");\n        _;\n    }\n\n    modifier blankUser() {\n        require(depositedDai[msg.sender] == 0, \"User already exists\");\n        _;\n    }\n\n    modifier userStaked() {\n        require(depositedDai[msg.sender] > 0, \"User has no stake\");\n        _;\n    }\n\n    modifier noProposal() {\n        require(\n            usersProposedProject[msg.sender] == 0,\n            \"User already has a proposal\"\n        );\n        _;\n    }\n\n    modifier noVoteYet() {\n        require(\n            usersNominatedProject[proposalIteration][msg.sender] == 0,\n            \"User already voted this iteration\"\n        );\n        _;\n    }\n\n    modifier userHasActiveProposal() {\n        require(\n            state[usersProposedProject[msg.sender]] == ProposalState.Active,\n            \"User doesn't have an active proposal\"\n        );\n        _;\n    }\n\n    modifier userHasNoActiveProposal() {\n        require(\n            state[usersProposedProject[msg.sender]] ==\n                ProposalState.Withdrawn ||\n                usersProposedProject[msg.sender] == 0,\n            \"User has an active proposal\"\n        );\n        _;\n    }\n\n    modifier proposalActive(uint256 propId) {\n        require(state[propId] == ProposalState.Active, \"Proposal isn't active\");\n        _;\n    }\n\n    modifier allowanceAvailable(uint256 amount) {\n        require(\n            amount <= daiContract.allowance(msg.sender, address(this)),\n            \"amount not available\"\n        );\n        _;\n    }\n\n    function initialize(\n        address daiAddress,\n        address aaveAddress,\n        uint256 _proposalAmount,\n        uint256 _votingInterval\n    ) public initializer {\n        daiContract = IERC20(daiAddress);\n        aaveLendingContract = IAaveLendingPool(aaveAddress);\n        adaiContract = IADai(aaveAddress);\n        admin = msg.sender;\n        proposalAmount = _proposalAmount;\n        votingInterval = _votingInterval;\n\n        proposalDeadline = now.add(_votingInterval);\n    }\n\n    function changeVotingInterval(uint256 newInterval) public onlyAdmin {\n        votingInterval = newInterval;\n    }\n\n    function deposit(uint256 amount)\n        public\n        blankUser\n        noProposal\n        allowanceAvailable(amount)\n    {\n        daiContract.transferFrom(msg.sender, address(this), amount);\n        daiContract.approve(address(aaveLendingContract), amount);\n        aaveLendingContract.deposit(address(daiContract), amount, 0);\n\n        //setting values\n        depositedDai[msg.sender] = amount;\n        totalDepositedDai = totalDepositedDai.add(amount);\n    }\n\n    function withdrawFull(uint256 amount) public {\n        // Participant withdraws all there DAI and exits our system :(\n        // Check the user exists in our system\n        // Check the amount they have deposited\n        // Exchange aDAI to DAI for this amount\n        // Send them back their dai\n        // Remove their amount of dai from the total we have\n        // IMPORTANT, remove their vote amount...\n    }\n\n    function createProposal(string memory proposalHash)\n        public\n        allowanceAvailable(proposalAmount)\n        returns (uint256 newProposalId)\n    {\n        // DAI things. TODO: Approve where necessary\n        daiContract.transferFrom(msg.sender, address(this), proposalAmount);\n        daiContract.approve(address(aaveLendingContract), proposalAmount);\n        aaveLendingContract.deposit(\n            address(daiContract),\n            proposalAmount,\n            0 /* We should research this referal code stuff... https://developers.aave.com/#referral-program */\n        );\n\n        totalDepositedDai = totalDepositedDai.add(proposalAmount);\n        depositedDai[msg.sender] = depositedDai[msg.sender].add(proposalAmount);\n\n        // So the first proposal will have an ID of 1\n        newProposalId = proposalId.add(1);\n\n        proposalDetails[newProposalId] = proposalHash;\n        proposalOwner[newProposalId] = msg.sender;\n        state[newProposalId] = ProposalState.Active;\n    }\n\n    function withdrawProposal() public userHasActiveProposal {\n        //This can only be executed after every cycle\n        state[usersProposedProject[msg.sender]] = ProposalState.Withdrawn;\n        totalDepositedDai = totalDepositedDai.sub(proposalAmount);\n        depositedDai[msg.sender] = 0;\n        // TODO\n        // Remove proposalAmount from aDAI\n        // Convert to DAI\n        // Send back to owner\n    }\n\n    function vote(uint256 proposalIdToVoteFor)\n        public\n        proposalActive(proposalIdToVoteFor)\n        noVoteYet\n        userStaked\n        userHasNoActiveProposal\n    {\n        // Can only vote if they joined a previous iteration round...\n        // Check if the msg.sender has given approval rights to our steward to vote on their behalf\n        uint256 currentProposal = usersNominatedProject[proposalIteration][msg\n            .sender];\n        if (currentProposal != 0) {\n            proposalVotes[proposalIteration][currentProposal] = proposalVotes[proposalIteration][currentProposal]\n                .sub(depositedDai[msg.sender]);\n        }\n\n        proposalVotes[proposalIteration][proposalIdToVoteFor] = proposalVotes[proposalIteration][proposalIdToVoteFor]\n            .add(depositedDai[msg.sender]);\n\n        usersNominatedProject[proposalIteration][msg\n            .sender] = proposalIdToVoteFor;\n\n        uint256 topProjectVotes = proposalVotes[proposalIteration][topProject[proposalIteration]];\n\n        // TODO:: if they are equal there is a problem (we must handle this!!)\n        if (proposalVotes[proposalIteration][proposalId] > topProjectVotes) {\n            topProject[proposalIteration] = proposalId;\n        }\n    }\n\n    function distributeFunds() public {\n        // On a *whatever we decide basis* the funds are distributed to the winning project\n        // E.g. every 2 weeks, the project with the most votes gets the generated interest.\n\n        require(proposalDeadline > now, \"current vote still active\");\n\n        if (topProject[proposalIteration] != 0) {\n            // TODO: do the payout!\n        }\n\n        proposalDeadline = proposalDeadline.add(votingInterval);\n\n        proposalIteration = proposalIteration.add(1);\n        topProject[proposalIteration] = 0;\n    }\n\n    function delegateVoting() public {\n        //TODO: MUCH LATER\n        // Allow the steward (US) to vote on their behalf through other medium (eg. scraping twitter)\n    }\n}\n",
  "sourcePath": "/home/jasoons/Documents/temp/dao-contracts/contracts/NoLossDao.sol",
  "compiler": {
    "name": "solc",
    "version": "0.5.16+commit.9c3226ce.Emscripten.clang"
  },
  "schemaVersion": "3.0.23",
  "updatedAt": "2020-02-29T19:10:18.041Z",
  "devdoc": {
    "methods": {}
  },
  "userdoc": {
    "methods": {}
  }
}