{
  "contractName": "ADai",
  "abi": [
    {
      "inputs": [
        {
          "internalType": "contract MockERC20",
          "name": "daiAddress",
          "type": "address"
        }
      ],
      "payable": false,
      "stateMutability": "nonpayable",
      "type": "constructor"
    },
    {
      "anonymous": false,
      "inputs": [
        {
          "indexed": true,
          "internalType": "address",
          "name": "owner",
          "type": "address"
        },
        {
          "indexed": true,
          "internalType": "address",
          "name": "spender",
          "type": "address"
        },
        {
          "indexed": false,
          "internalType": "uint256",
          "name": "value",
          "type": "uint256"
        }
      ],
      "name": "Approval",
      "type": "event"
    },
    {
      "anonymous": false,
      "inputs": [
        {
          "indexed": true,
          "internalType": "address",
          "name": "account",
          "type": "address"
        }
      ],
      "name": "MinterAdded",
      "type": "event"
    },
    {
      "anonymous": false,
      "inputs": [
        {
          "indexed": true,
          "internalType": "address",
          "name": "account",
          "type": "address"
        }
      ],
      "name": "MinterRemoved",
      "type": "event"
    },
    {
      "anonymous": false,
      "inputs": [
        {
          "indexed": true,
          "internalType": "address",
          "name": "from",
          "type": "address"
        },
        {
          "indexed": true,
          "internalType": "address",
          "name": "to",
          "type": "address"
        },
        {
          "indexed": false,
          "internalType": "uint256",
          "name": "value",
          "type": "uint256"
        }
      ],
      "name": "Transfer",
      "type": "event"
    },
    {
      "constant": false,
      "inputs": [
        {
          "internalType": "address",
          "name": "account",
          "type": "address"
        }
      ],
      "name": "addMinter",
      "outputs": [],
      "payable": false,
      "stateMutability": "nonpayable",
      "type": "function"
    },
    {
      "constant": true,
      "inputs": [
        {
          "internalType": "address",
          "name": "owner",
          "type": "address"
        },
        {
          "internalType": "address",
          "name": "spender",
          "type": "address"
        }
      ],
      "name": "allowance",
      "outputs": [
        {
          "internalType": "uint256",
          "name": "",
          "type": "uint256"
        }
      ],
      "payable": false,
      "stateMutability": "view",
      "type": "function"
    },
    {
      "constant": false,
      "inputs": [
        {
          "internalType": "address",
          "name": "spender",
          "type": "address"
        },
        {
          "internalType": "uint256",
          "name": "amount",
          "type": "uint256"
        }
      ],
      "name": "approve",
      "outputs": [
        {
          "internalType": "bool",
          "name": "",
          "type": "bool"
        }
      ],
      "payable": false,
      "stateMutability": "nonpayable",
      "type": "function"
    },
    {
      "constant": true,
      "inputs": [
        {
          "internalType": "address",
          "name": "account",
          "type": "address"
        }
      ],
      "name": "balanceOf",
      "outputs": [
        {
          "internalType": "uint256",
          "name": "",
          "type": "uint256"
        }
      ],
      "payable": false,
      "stateMutability": "view",
      "type": "function"
    },
    {
      "constant": false,
      "inputs": [
        {
          "internalType": "uint256",
          "name": "amount",
          "type": "uint256"
        }
      ],
      "name": "burn",
      "outputs": [],
      "payable": false,
      "stateMutability": "nonpayable",
      "type": "function"
    },
    {
      "constant": false,
      "inputs": [
        {
          "internalType": "address",
          "name": "account",
          "type": "address"
        },
        {
          "internalType": "uint256",
          "name": "amount",
          "type": "uint256"
        }
      ],
      "name": "burnFrom",
      "outputs": [],
      "payable": false,
      "stateMutability": "nonpayable",
      "type": "function"
    },
    {
      "constant": true,
      "inputs": [],
      "name": "dai",
      "outputs": [
        {
          "internalType": "contract MockERC20",
          "name": "",
          "type": "address"
        }
      ],
      "payable": false,
      "stateMutability": "view",
      "type": "function"
    },
    {
      "constant": true,
      "inputs": [],
      "name": "decimals",
      "outputs": [
        {
          "internalType": "uint8",
          "name": "",
          "type": "uint8"
        }
      ],
      "payable": false,
      "stateMutability": "view",
      "type": "function"
    },
    {
      "constant": false,
      "inputs": [
        {
          "internalType": "address",
          "name": "spender",
          "type": "address"
        },
        {
          "internalType": "uint256",
          "name": "subtractedValue",
          "type": "uint256"
        }
      ],
      "name": "decreaseAllowance",
      "outputs": [
        {
          "internalType": "bool",
          "name": "",
          "type": "bool"
        }
      ],
      "payable": false,
      "stateMutability": "nonpayable",
      "type": "function"
    },
    {
      "constant": false,
      "inputs": [
        {
          "internalType": "address",
          "name": "spender",
          "type": "address"
        },
        {
          "internalType": "uint256",
          "name": "addedValue",
          "type": "uint256"
        }
      ],
      "name": "increaseAllowance",
      "outputs": [
        {
          "internalType": "bool",
          "name": "",
          "type": "bool"
        }
      ],
      "payable": false,
      "stateMutability": "nonpayable",
      "type": "function"
    },
    {
      "constant": false,
      "inputs": [
        {
          "internalType": "string",
          "name": "name",
          "type": "string"
        },
        {
          "internalType": "string",
          "name": "symbol",
          "type": "string"
        },
        {
          "internalType": "uint8",
          "name": "decimals",
          "type": "uint8"
        }
      ],
      "name": "initialize",
      "outputs": [],
      "payable": false,
      "stateMutability": "nonpayable",
      "type": "function"
    },
    {
      "constant": false,
      "inputs": [
        {
          "internalType": "address",
          "name": "sender",
          "type": "address"
        }
      ],
      "name": "initialize",
      "outputs": [],
      "payable": false,
      "stateMutability": "nonpayable",
      "type": "function"
    },
    {
      "constant": true,
      "inputs": [
        {
          "internalType": "address",
          "name": "account",
          "type": "address"
        }
      ],
      "name": "isMinter",
      "outputs": [
        {
          "internalType": "bool",
          "name": "",
          "type": "bool"
        }
      ],
      "payable": false,
      "stateMutability": "view",
      "type": "function"
    },
    {
      "constant": false,
      "inputs": [
        {
          "internalType": "address",
          "name": "account",
          "type": "address"
        },
        {
          "internalType": "uint256",
          "name": "amount",
          "type": "uint256"
        }
      ],
      "name": "mint",
      "outputs": [
        {
          "internalType": "bool",
          "name": "",
          "type": "bool"
        }
      ],
      "payable": false,
      "stateMutability": "nonpayable",
      "type": "function"
    },
    {
      "constant": true,
      "inputs": [],
      "name": "name",
      "outputs": [
        {
          "internalType": "string",
          "name": "",
          "type": "string"
        }
      ],
      "payable": false,
      "stateMutability": "view",
      "type": "function"
    },
    {
      "constant": false,
      "inputs": [],
      "name": "renounceMinter",
      "outputs": [],
      "payable": false,
      "stateMutability": "nonpayable",
      "type": "function"
    },
    {
      "constant": true,
      "inputs": [],
      "name": "steward",
      "outputs": [
        {
          "internalType": "address",
          "name": "",
          "type": "address"
        }
      ],
      "payable": false,
      "stateMutability": "view",
      "type": "function"
    },
    {
      "constant": true,
      "inputs": [],
      "name": "symbol",
      "outputs": [
        {
          "internalType": "string",
          "name": "",
          "type": "string"
        }
      ],
      "payable": false,
      "stateMutability": "view",
      "type": "function"
    },
    {
      "constant": true,
      "inputs": [],
      "name": "totalSupply",
      "outputs": [
        {
          "internalType": "uint256",
          "name": "",
          "type": "uint256"
        }
      ],
      "payable": false,
      "stateMutability": "view",
      "type": "function"
    },
    {
      "constant": false,
      "inputs": [
        {
          "internalType": "address",
          "name": "recipient",
          "type": "address"
        },
        {
          "internalType": "uint256",
          "name": "amount",
          "type": "uint256"
        }
      ],
      "name": "transfer",
      "outputs": [
        {
          "internalType": "bool",
          "name": "",
          "type": "bool"
        }
      ],
      "payable": false,
      "stateMutability": "nonpayable",
      "type": "function"
    },
    {
      "constant": false,
      "inputs": [
        {
          "internalType": "address",
          "name": "sender",
          "type": "address"
        },
        {
          "internalType": "address",
          "name": "recipient",
          "type": "address"
        },
        {
          "internalType": "uint256",
          "name": "amount",
          "type": "uint256"
        }
      ],
      "name": "transferFrom",
      "outputs": [
        {
          "internalType": "bool",
          "name": "",
          "type": "bool"
        }
      ],
      "payable": false,
      "stateMutability": "nonpayable",
      "type": "function"
    },
    {
      "constant": false,
      "inputs": [
        {
          "internalType": "uint256",
          "name": "_amount",
          "type": "uint256"
        }
      ],
      "name": "redeem",
      "outputs": [],
      "payable": false,
      "stateMutability": "nonpayable",
      "type": "function"
    },
    {
      "constant": false,
      "inputs": [
        {
          "internalType": "address",
          "name": "_to",
          "type": "address"
        }
      ],
      "name": "redirectInterestStream",
      "outputs": [],
      "payable": false,
      "stateMutability": "nonpayable",
      "type": "function"
    }
  ],
  "bytecode": "0x60806040523480156200001157600080fd5b5060405162001cd138038062001cd1833981810160405260208110156200003757600080fd5b505160408051808201825260048152636144616960e01b60208281019190915282518084019093526002835261105160f21b8382015290919060129033906200008f90859085908590620006a6620000d2821b17901c565b620000a581620001c560201b62000a721760201c565b505061013580546001600160a01b0319166001600160a01b039490941693909317909255506200056d9050565b600054610100900460ff1680620000f75750620000f76001600160e01b036200028f16565b8062000106575060005460ff16155b620001435760405162461bcd60e51b815260040180806020018281038252602e81526020018062001ca3602e913960400191505060405180910390fd5b600054610100900460ff161580156200016f576000805460ff1961ff0019909116610100171660011790555b8351620001849060ff906020870190620004cb565b5082516200019b90610100906020860190620004cb565b50610101805460ff191660ff84161790558015620001bf576000805461ff00191690555b50505050565b600054610100900460ff1680620001ea5750620001ea6001600160e01b036200028f16565b80620001f9575060005460ff16155b620002365760405162461bcd60e51b815260040180806020018281038252602e81526020018062001ca3602e913960400191505060405180910390fd5b600054610100900460ff1615801562000262576000805460ff1961ff0019909116610100171660011790555b62000278826200029660201b620012611760201c565b80156200028b576000805461ff00191690555b5050565b303b155b90565b600054610100900460ff1680620002bb5750620002bb6001600160e01b036200028f16565b80620002ca575060005460ff16155b620003075760405162461bcd60e51b815260040180806020018281038252602e81526020018062001ca3602e913960400191505060405180910390fd5b600054610100900460ff1615801562000333576000805460ff1961ff0019909116610100171660011790555b62000347826001600160e01b036200036016565b620002785762000278826001600160e01b036200038316565b60006200037d826068620003d560201b620011fa1790919060201c565b92915050565b6200039e8160686200043e60201b620013461790919060201c565b6040516001600160a01b038216907f6ae172837ea30b801fbfcdd4108aa1d5bf8ff775444fd70256b44e6bf3dfc3f690600090a250565b60006001600160a01b0382166200041e5760405162461bcd60e51b815260040180806020018281038252602281526020018062001c816022913960400191505060405180910390fd5b506001600160a01b03166000908152602091909152604090205460ff1690565b6200045382826001600160e01b03620003d516565b15620004a6576040805162461bcd60e51b815260206004820152601f60248201527f526f6c65733a206163636f756e7420616c72656164792068617320726f6c6500604482015290519081900360640190fd5b6001600160a01b0316600090815260209190915260409020805460ff19166001179055565b828054600181600116156101000203166002900490600052602060002090601f016020900481019282601f106200050e57805160ff19168380011785556200053e565b828001600101855582156200053e579182015b828111156200053e57825182559160200191906001019062000521565b506200054c92915062000550565b5090565b6200029391905b808211156200054c576000815560010162000557565b611704806200057d6000396000f3fe608060405234801561001057600080fd5b506004361061014d5760003560e01c806370a08231116100c3578063a9059cbb1161007c578063a9059cbb14610524578063aa271e1a14610550578063c4d66de814610576578063db006a751461059c578063dd62ed3e146105b9578063f4b9fa75146105e75761014d565b806370a082311461047057806379cc67901461049657806395d89b41146104c2578063983b2d56146104ca57806398650275146104f0578063a457c2d7146104f85761014d565b806323b872dd1161011557806323b872dd14610383578063313ce567146103b957806339509351146103d757806340c10f191461040357806342966c681461042f578063637eea191461044c5761014d565b806306fdde0314610152578063095ea7b3146101cf5780630e49072d1461020f5780631624f6c61461023757806318160ddd14610369575b600080fd5b61015a6105ef565b6040805160208082528351818301528351919283929083019185019080838360005b8381101561019457818101518382015260200161017c565b50505050905090810190601f1680156101c15780820380516001836020036101000a031916815260200191505b509250505060405180910390f35b6101fb600480360360408110156101e557600080fd5b506001600160a01b038135169060200135610686565b604080519115158252519081900360200190f35b6102356004803603602081101561022557600080fd5b50356001600160a01b03166106a3565b005b6102356004803603606081101561024d57600080fd5b81019060208101813564010000000081111561026857600080fd5b82018360208201111561027a57600080fd5b8035906020019184600183028401116401000000008311171561029c57600080fd5b91908080601f01602080910402602001604051908101604052809392919081815260200183838082843760009201919091525092959493602081019350359150506401000000008111156102ef57600080fd5b82018360208201111561030157600080fd5b8035906020019184600183028401116401000000008311171561032357600080fd5b91908080601f0160208091040260200160405190810160405280939291908181526020018383808284376000920191909152509295505050903560ff1691506106a69050565b610371610784565b60408051918252519081900360200190f35b6101fb6004803603606081101561039957600080fd5b506001600160a01b0381358116916020810135909116906040013561078a565b6103c1610817565b6040805160ff9092168252519081900360200190f35b6101fb600480360360408110156103ed57600080fd5b506001600160a01b038135169060200135610821565b6101fb6004803603604081101561041957600080fd5b506001600160a01b038135169060200135610875565b6102356004803603602081101561044557600080fd5b50356108cc565b6104546108dd565b604080516001600160a01b039092168252519081900360200190f35b6103716004803603602081101561048657600080fd5b50356001600160a01b03166108ed565b610235600480360360408110156104ac57600080fd5b506001600160a01b038135169060200135610908565b61015a610916565b610235600480360360208110156104e057600080fd5b50356001600160a01b0316610976565b6102356109c5565b6101fb6004803603604081101561050e57600080fd5b506001600160a01b0381351690602001356109d7565b6101fb6004803603604081101561053a57600080fd5b506001600160a01b038135169060200135610a45565b6101fb6004803603602081101561056657600080fd5b50356001600160a01b0316610a59565b6102356004803603602081101561058c57600080fd5b50356001600160a01b0316610a72565b610235600480360360208110156105b257600080fd5b5035610b1d565b610371600480360360408110156105cf57600080fd5b506001600160a01b0381358116916020013516610ba1565b610454610bcc565b60ff8054604080516020601f600260001961010060018816150201909516949094049384018190048102820181019092528281526060939092909183018282801561067b5780601f106106505761010080835404028352916020019161067b565b820191906000526020600020905b81548152906001019060200180831161065e57829003601f168201915b505050505090505b90565b600061069a610693610bdc565b8484610be0565b50600192915050565b50565b600054610100900460ff16806106bf57506106bf610ccc565b806106cd575060005460ff16155b6107085760405162461bcd60e51b815260040180806020018281038252602e8152602001806115ef602e913960400191505060405180910390fd5b600054610100900460ff16158015610733576000805460ff1961ff0019909116610100171660011790555b83516107469060ff90602087019061142e565b50825161075b9061010090602086019061142e565b50610101805460ff191660ff8416179055801561077e576000805461ff00191690555b50505050565b60355490565b6000610797848484610cd2565b61080d846107a3610bdc565b610808856040518060600160405280602881526020016115a5602891396001600160a01b038a166000908152603460205260408120906107e1610bdc565b6001600160a01b03168152602081019190915260400160002054919063ffffffff610e3016565b610be0565b5060019392505050565b6101015460ff1690565b600061069a61082e610bdc565b84610808856034600061083f610bdc565b6001600160a01b03908116825260208083019390935260409182016000908120918c16815292529020549063ffffffff610ec716565b6000610887610882610bdc565b610a59565b6108c25760405162461bcd60e51b81526004018080602001828103825260308152602001806115546030913960400191505060405180910390fd5b61069a8383610f28565b6106a36108d7610bdc565b8261101a565b610134546001600160a01b031681565b6001600160a01b031660009081526033602052604090205490565b6109128282611116565b5050565b6101008054604080516020601f60026000196001871615880201909516949094049384018190048102820181019092528281526060939092909183018282801561067b5780601f106106505761010080835404028352916020019161067b565b610981610882610bdc565b6109bc5760405162461bcd60e51b81526004018080602001828103825260308152602001806115546030913960400191505060405180910390fd5b6106a38161116a565b6109d56109d0610bdc565b6111b2565b565b600061069a6109e4610bdc565b84610808856040518060600160405280602581526020016116ab6025913960346000610a0e610bdc565b6001600160a01b03908116825260208083019390935260409182016000908120918d1681529252902054919063ffffffff610e3016565b600061069a610a52610bdc565b8484610cd2565b6000610a6c60688363ffffffff6111fa16565b92915050565b600054610100900460ff1680610a8b5750610a8b610ccc565b80610a99575060005460ff16155b610ad45760405162461bcd60e51b815260040180806020018281038252602e8152602001806115ef602e913960400191505060405180910390fd5b600054610100900460ff16158015610aff576000805460ff1961ff0019909116610100171660011790555b610b0882611261565b8015610912576000805461ff00191690555050565b61013554604080516340c10f1960e01b81523360048201526024810184905290516001600160a01b03909216916340c10f19916044808201926020929091908290030181600087803b158015610b7257600080fd5b505af1158015610b86573d6000803e3d6000fd5b505050506040513d6020811015610b9c57600080fd5b505050565b6001600160a01b03918216600090815260346020908152604080832093909416825291909152205490565b610135546001600160a01b031681565b3390565b6001600160a01b038316610c255760405162461bcd60e51b81526004018080602001828103825260248152602001806116876024913960400191505060405180910390fd5b6001600160a01b038216610c6a5760405162461bcd60e51b815260040180806020018281038252602281526020018061150c6022913960400191505060405180910390fd5b6001600160a01b03808416600081815260346020908152604080832094871680845294825291829020859055815185815291517f8c5be1e5ebec7d5bd14f71427d1e84f3dd0314c0f7b2291e5b200ac8c7c3b9259281900390910190a3505050565b303b1590565b6001600160a01b038316610d175760405162461bcd60e51b81526004018080602001828103825260258152602001806116626025913960400191505060405180910390fd5b6001600160a01b038216610d5c5760405162461bcd60e51b81526004018080602001828103825260238152602001806114c76023913960400191505060405180910390fd5b610d9f8160405180606001604052806026815260200161152e602691396001600160a01b038616600090815260336020526040902054919063ffffffff610e3016565b6001600160a01b038085166000908152603360205260408082209390935590841681522054610dd4908263ffffffff610ec716565b6001600160a01b0380841660008181526033602090815260409182902094909455805185815290519193928716927fddf252ad1be2c89b69c2b068fc378daa952ba7f163c4a11628f55a4df523b3ef92918290030190a3505050565b60008184841115610ebf5760405162461bcd60e51b81526004018080602001828103825283818151815260200191508051906020019080838360005b83811015610e84578181015183820152602001610e6c565b50505050905090810190601f168015610eb15780820380516001836020036101000a031916815260200191505b509250505060405180910390fd5b505050900390565b600082820183811015610f21576040805162461bcd60e51b815260206004820152601b60248201527f536166654d6174683a206164646974696f6e206f766572666c6f770000000000604482015290519081900360640190fd5b9392505050565b6001600160a01b038216610f83576040805162461bcd60e51b815260206004820152601f60248201527f45524332303a206d696e7420746f20746865207a65726f206164647265737300604482015290519081900360640190fd5b603554610f96908263ffffffff610ec716565b6035556001600160a01b038216600090815260336020526040902054610fc2908263ffffffff610ec716565b6001600160a01b03831660008181526033602090815260408083209490945583518581529351929391927fddf252ad1be2c89b69c2b068fc378daa952ba7f163c4a11628f55a4df523b3ef9281900390910190a35050565b6001600160a01b03821661105f5760405162461bcd60e51b81526004018080602001828103825260218152602001806116416021913960400191505060405180910390fd5b6110a2816040518060600160405280602281526020016114ea602291396001600160a01b038516600090815260336020526040902054919063ffffffff610e3016565b6001600160a01b0383166000908152603360205260409020556035546110ce908263ffffffff61130416565b6035556040805182815290516000916001600160a01b038516917fddf252ad1be2c89b69c2b068fc378daa952ba7f163c4a11628f55a4df523b3ef9181900360200190a35050565b611120828261101a565b6109128261112c610bdc565b6108088460405180606001604052806024815260200161161d602491396001600160a01b0388166000908152603460205260408120906107e1610bdc565b61117b60688263ffffffff61134616565b6040516001600160a01b038216907f6ae172837ea30b801fbfcdd4108aa1d5bf8ff775444fd70256b44e6bf3dfc3f690600090a250565b6111c360688263ffffffff6113c716565b6040516001600160a01b038216907fe94479a9f7e1952cc78f2d6baab678adc1b772d936c6583def489e524cb6669290600090a250565b60006001600160a01b0382166112415760405162461bcd60e51b81526004018080602001828103825260228152602001806115cd6022913960400191505060405180910390fd5b506001600160a01b03166000908152602091909152604090205460ff1690565b600054610100900460ff168061127a575061127a610ccc565b80611288575060005460ff16155b6112c35760405162461bcd60e51b815260040180806020018281038252602e8152602001806115ef602e913960400191505060405180910390fd5b600054610100900460ff161580156112ee576000805460ff1961ff0019909116610100171660011790555b6112f782610a59565b610b0857610b088261116a565b6000610f2183836040518060400160405280601e81526020017f536166654d6174683a207375627472616374696f6e206f766572666c6f770000815250610e30565b61135082826111fa565b156113a2576040805162461bcd60e51b815260206004820152601f60248201527f526f6c65733a206163636f756e7420616c72656164792068617320726f6c6500604482015290519081900360640190fd5b6001600160a01b0316600090815260209190915260409020805460ff19166001179055565b6113d182826111fa565b61140c5760405162461bcd60e51b81526004018080602001828103825260218152602001806115846021913960400191505060405180910390fd5b6001600160a01b0316600090815260209190915260409020805460ff19169055565b828054600181600116156101000203166002900490600052602060002090601f016020900481019282601f1061146f57805160ff191683800117855561149c565b8280016001018555821561149c579182015b8281111561149c578251825591602001919060010190611481565b506114a89291506114ac565b5090565b61068391905b808211156114a857600081556001016114b256fe45524332303a207472616e7366657220746f20746865207a65726f206164647265737345524332303a206275726e20616d6f756e7420657863656564732062616c616e636545524332303a20617070726f766520746f20746865207a65726f206164647265737345524332303a207472616e7366657220616d6f756e7420657863656564732062616c616e63654d696e746572526f6c653a2063616c6c657220646f6573206e6f74206861766520746865204d696e74657220726f6c65526f6c65733a206163636f756e7420646f6573206e6f74206861766520726f6c6545524332303a207472616e7366657220616d6f756e74206578636565647320616c6c6f77616e6365526f6c65733a206163636f756e7420697320746865207a65726f2061646472657373436f6e747261637420696e7374616e63652068617320616c7265616479206265656e20696e697469616c697a656445524332303a206275726e20616d6f756e74206578636565647320616c6c6f77616e636545524332303a206275726e2066726f6d20746865207a65726f206164647265737345524332303a207472616e736665722066726f6d20746865207a65726f206164647265737345524332303a20617070726f76652066726f6d20746865207a65726f206164647265737345524332303a2064656372656173656420616c6c6f77616e63652062656c6f77207a65726fa265627a7a7231582029f676e091fbcbd4dbc26c6588aedb7d0401d4e4bd7f007c110b4ef260c7179064736f6c63430005100032526f6c65733a206163636f756e7420697320746865207a65726f2061646472657373436f6e747261637420696e7374616e63652068617320616c7265616479206265656e20696e697469616c697a6564",
  "source": "pragma solidity ^0.5.0;\n\nimport '../interfaces/IADai.sol';\nimport './MockERC20.sol';\n// import '@openzeppelin/contracts-ethereum-package/contracts/token/ERC20/ERC20.sol';\n\n// MOCK ONLY\ncontract ADai is IADai, MockERC20 {\n  MockERC20 public dai;\n  constructor(MockERC20 daiAddress)\n    public\n    MockERC20('aDai', 'AD', 18, msg.sender)\n  {\n    dai = daiAddress;\n  }\n  function redeem(uint256 _amount) public {\n    dai.mint(msg.sender, _amount);\n  }\n  function redirectInterestStream(address _to) public {}\n}\n",
  "sourcePath": "/home/jasoons/Documents/temp/app/contracts/contracts/mocks/ADai.sol",
  "compiler": {
    "name": "solc",
    "version": "0.5.16+commit.9c3226ce.Emscripten.clang"
  },
  "schemaVersion": "3.0.23",
  "updatedAt": "2020-03-31T18:23:04.152Z",
  "devdoc": {
    "methods": {
      "allowance(address,address)": {
        "details": "See {IERC20-allowance}."
      },
      "approve(address,uint256)": {
        "details": "See {IERC20-approve}.     * Requirements:     * - `spender` cannot be the zero address."
      },
      "balanceOf(address)": {
        "details": "See {IERC20-balanceOf}."
      },
      "burn(uint256)": {
        "details": "Destroys `amount` tokens from the caller.     * See {ERC20-_burn}."
      },
      "burnFrom(address,uint256)": {
        "details": "See {ERC20-_burnFrom}."
      },
      "decimals()": {
        "details": "Returns the number of decimals used to get its user representation. For example, if `decimals` equals `2`, a balance of `505` tokens should be displayed to a user as `5,05` (`505 / 10 ** 2`).     * Tokens usually opt for a value of 18, imitating the relationship between Ether and Wei.     * NOTE: This information is only used for _display_ purposes: it in no way affects any of the arithmetic of the contract, including {IERC20-balanceOf} and {IERC20-transfer}."
      },
      "decreaseAllowance(address,uint256)": {
        "details": "Atomically decreases the allowance granted to `spender` by the caller.     * This is an alternative to {approve} that can be used as a mitigation for problems described in {IERC20-approve}.     * Emits an {Approval} event indicating the updated allowance.     * Requirements:     * - `spender` cannot be the zero address. - `spender` must have allowance for the caller of at least `subtractedValue`."
      },
      "increaseAllowance(address,uint256)": {
        "details": "Atomically increases the allowance granted to `spender` by the caller.     * This is an alternative to {approve} that can be used as a mitigation for problems described in {IERC20-approve}.     * Emits an {Approval} event indicating the updated allowance.     * Requirements:     * - `spender` cannot be the zero address."
      },
      "initialize(string,string,uint8)": {
        "details": "Sets the values for `name`, `symbol`, and `decimals`. All three of these values are immutable: they can only be set once during construction."
      },
      "mint(address,uint256)": {
        "details": "See {ERC20-_mint}.     * Requirements:     * - the caller must have the {MinterRole}."
      },
      "name()": {
        "details": "Returns the name of the token."
      },
      "symbol()": {
        "details": "Returns the symbol of the token, usually a shorter version of the name."
      },
      "totalSupply()": {
        "details": "See {IERC20-totalSupply}."
      },
      "transfer(address,uint256)": {
        "details": "See {IERC20-transfer}.     * Requirements:     * - `recipient` cannot be the zero address. - the caller must have a balance of at least `amount`."
      },
      "transferFrom(address,address,uint256)": {
        "details": "See {IERC20-transferFrom}.     * Emits an {Approval} event indicating the updated allowance. This is not required by the EIP. See the note at the beginning of {ERC20};     * Requirements: - `sender` and `recipient` cannot be the zero address. - `sender` must have a balance of at least `amount`. - the caller must have allowance for `sender`'s tokens of at least `amount`."
      }
    }
  },
  "userdoc": {
    "methods": {}
  }
}