{
  "contractName": "MockERC20",
  "abi": [
    {
      "inputs": [
        {
          "internalType": "string",
          "name": "name",
          "type": "string"
        },
        {
          "internalType": "string",
          "name": "symbol",
          "type": "string"
        },
        {
          "internalType": "uint8",
          "name": "decimals",
          "type": "uint8"
        },
        {
          "internalType": "address",
          "name": "minter",
          "type": "address"
        }
      ],
      "payable": false,
      "stateMutability": "nonpayable",
      "type": "constructor"
    },
    {
      "anonymous": false,
      "inputs": [
        {
          "indexed": true,
          "internalType": "address",
          "name": "owner",
          "type": "address"
        },
        {
          "indexed": true,
          "internalType": "address",
          "name": "spender",
          "type": "address"
        },
        {
          "indexed": false,
          "internalType": "uint256",
          "name": "value",
          "type": "uint256"
        }
      ],
      "name": "Approval",
      "type": "event"
    },
    {
      "anonymous": false,
      "inputs": [
        {
          "indexed": true,
          "internalType": "address",
          "name": "account",
          "type": "address"
        }
      ],
      "name": "MinterAdded",
      "type": "event"
    },
    {
      "anonymous": false,
      "inputs": [
        {
          "indexed": true,
          "internalType": "address",
          "name": "account",
          "type": "address"
        }
      ],
      "name": "MinterRemoved",
      "type": "event"
    },
    {
      "anonymous": false,
      "inputs": [
        {
          "indexed": true,
          "internalType": "address",
          "name": "from",
          "type": "address"
        },
        {
          "indexed": true,
          "internalType": "address",
          "name": "to",
          "type": "address"
        },
        {
          "indexed": false,
          "internalType": "uint256",
          "name": "value",
          "type": "uint256"
        }
      ],
      "name": "Transfer",
      "type": "event"
    },
    {
      "constant": false,
      "inputs": [
        {
          "internalType": "address",
          "name": "account",
          "type": "address"
        }
      ],
      "name": "addMinter",
      "outputs": [],
      "payable": false,
      "stateMutability": "nonpayable",
      "type": "function"
    },
    {
      "constant": true,
      "inputs": [
        {
          "internalType": "address",
          "name": "owner",
          "type": "address"
        },
        {
          "internalType": "address",
          "name": "spender",
          "type": "address"
        }
      ],
      "name": "allowance",
      "outputs": [
        {
          "internalType": "uint256",
          "name": "",
          "type": "uint256"
        }
      ],
      "payable": false,
      "stateMutability": "view",
      "type": "function"
    },
    {
      "constant": false,
      "inputs": [
        {
          "internalType": "address",
          "name": "spender",
          "type": "address"
        },
        {
          "internalType": "uint256",
          "name": "amount",
          "type": "uint256"
        }
      ],
      "name": "approve",
      "outputs": [
        {
          "internalType": "bool",
          "name": "",
          "type": "bool"
        }
      ],
      "payable": false,
      "stateMutability": "nonpayable",
      "type": "function"
    },
    {
      "constant": true,
      "inputs": [
        {
          "internalType": "address",
          "name": "account",
          "type": "address"
        }
      ],
      "name": "balanceOf",
      "outputs": [
        {
          "internalType": "uint256",
          "name": "",
          "type": "uint256"
        }
      ],
      "payable": false,
      "stateMutability": "view",
      "type": "function"
    },
    {
      "constant": false,
      "inputs": [
        {
          "internalType": "uint256",
          "name": "amount",
          "type": "uint256"
        }
      ],
      "name": "burn",
      "outputs": [],
      "payable": false,
      "stateMutability": "nonpayable",
      "type": "function"
    },
    {
      "constant": false,
      "inputs": [
        {
          "internalType": "address",
          "name": "account",
          "type": "address"
        },
        {
          "internalType": "uint256",
          "name": "amount",
          "type": "uint256"
        }
      ],
      "name": "burnFrom",
      "outputs": [],
      "payable": false,
      "stateMutability": "nonpayable",
      "type": "function"
    },
    {
      "constant": true,
      "inputs": [],
      "name": "decimals",
      "outputs": [
        {
          "internalType": "uint8",
          "name": "",
          "type": "uint8"
        }
      ],
      "payable": false,
      "stateMutability": "view",
      "type": "function"
    },
    {
      "constant": false,
      "inputs": [
        {
          "internalType": "address",
          "name": "spender",
          "type": "address"
        },
        {
          "internalType": "uint256",
          "name": "subtractedValue",
          "type": "uint256"
        }
      ],
      "name": "decreaseAllowance",
      "outputs": [
        {
          "internalType": "bool",
          "name": "",
          "type": "bool"
        }
      ],
      "payable": false,
      "stateMutability": "nonpayable",
      "type": "function"
    },
    {
      "constant": false,
      "inputs": [
        {
          "internalType": "address",
          "name": "spender",
          "type": "address"
        },
        {
          "internalType": "uint256",
          "name": "addedValue",
          "type": "uint256"
        }
      ],
      "name": "increaseAllowance",
      "outputs": [
        {
          "internalType": "bool",
          "name": "",
          "type": "bool"
        }
      ],
      "payable": false,
      "stateMutability": "nonpayable",
      "type": "function"
    },
    {
      "constant": false,
      "inputs": [
        {
          "internalType": "string",
          "name": "name",
          "type": "string"
        },
        {
          "internalType": "string",
          "name": "symbol",
          "type": "string"
        },
        {
          "internalType": "uint8",
          "name": "decimals",
          "type": "uint8"
        }
      ],
      "name": "initialize",
      "outputs": [],
      "payable": false,
      "stateMutability": "nonpayable",
      "type": "function"
    },
    {
      "constant": false,
      "inputs": [
        {
          "internalType": "address",
          "name": "sender",
          "type": "address"
        }
      ],
      "name": "initialize",
      "outputs": [],
      "payable": false,
      "stateMutability": "nonpayable",
      "type": "function"
    },
    {
      "constant": true,
      "inputs": [
        {
          "internalType": "address",
          "name": "account",
          "type": "address"
        }
      ],
      "name": "isMinter",
      "outputs": [
        {
          "internalType": "bool",
          "name": "",
          "type": "bool"
        }
      ],
      "payable": false,
      "stateMutability": "view",
      "type": "function"
    },
    {
      "constant": false,
      "inputs": [
        {
          "internalType": "address",
          "name": "account",
          "type": "address"
        },
        {
          "internalType": "uint256",
          "name": "amount",
          "type": "uint256"
        }
      ],
      "name": "mint",
      "outputs": [
        {
          "internalType": "bool",
          "name": "",
          "type": "bool"
        }
      ],
      "payable": false,
      "stateMutability": "nonpayable",
      "type": "function"
    },
    {
      "constant": true,
      "inputs": [],
      "name": "name",
      "outputs": [
        {
          "internalType": "string",
          "name": "",
          "type": "string"
        }
      ],
      "payable": false,
      "stateMutability": "view",
      "type": "function"
    },
    {
      "constant": false,
      "inputs": [],
      "name": "renounceMinter",
      "outputs": [],
      "payable": false,
      "stateMutability": "nonpayable",
      "type": "function"
    },
    {
      "constant": true,
      "inputs": [],
      "name": "steward",
      "outputs": [
        {
          "internalType": "address",
          "name": "",
          "type": "address"
        }
      ],
      "payable": false,
      "stateMutability": "view",
      "type": "function"
    },
    {
      "constant": true,
      "inputs": [],
      "name": "symbol",
      "outputs": [
        {
          "internalType": "string",
          "name": "",
          "type": "string"
        }
      ],
      "payable": false,
      "stateMutability": "view",
      "type": "function"
    },
    {
      "constant": true,
      "inputs": [],
      "name": "totalSupply",
      "outputs": [
        {
          "internalType": "uint256",
          "name": "",
          "type": "uint256"
        }
      ],
      "payable": false,
      "stateMutability": "view",
      "type": "function"
    },
    {
      "constant": false,
      "inputs": [
        {
          "internalType": "address",
          "name": "recipient",
          "type": "address"
        },
        {
          "internalType": "uint256",
          "name": "amount",
          "type": "uint256"
        }
      ],
      "name": "transfer",
      "outputs": [
        {
          "internalType": "bool",
          "name": "",
          "type": "bool"
        }
      ],
      "payable": false,
      "stateMutability": "nonpayable",
      "type": "function"
    },
    {
      "constant": false,
      "inputs": [
        {
          "internalType": "address",
          "name": "sender",
          "type": "address"
        },
        {
          "internalType": "address",
          "name": "recipient",
          "type": "address"
        },
        {
          "internalType": "uint256",
          "name": "amount",
          "type": "uint256"
        }
      ],
      "name": "transferFrom",
      "outputs": [
        {
          "internalType": "bool",
          "name": "",
          "type": "bool"
        }
      ],
      "payable": false,
      "stateMutability": "nonpayable",
      "type": "function"
    }
  ],
  "bytecode": "0x60806040523480156200001157600080fd5b5060405162001ce838038062001ce8833981810160405260808110156200003757600080fd5b81019080805160405193929190846401000000008211156200005857600080fd5b9083019060208201858111156200006e57600080fd5b82516401000000008111828201881017156200008957600080fd5b82525081516020918201929091019080838360005b83811015620000b85781810151838201526020016200009e565b50505050905090810190601f168015620000e65780820380516001836020036101000a031916815260200191505b50604052602001805160405193929190846401000000008211156200010a57600080fd5b9083019060208201858111156200012057600080fd5b82516401000000008111828201881017156200013b57600080fd5b82525081516020918201929091019080838360005b838110156200016a57818101518382015260200162000150565b50505050905090810190601f168015620001985780820380516001836020036101000a031916815260200191505b5060409081526020828101519290910151919350909150620001c99085908590859062000637620001e9821b17901c565b620001df81620002dc60201b62000a061760201c565b5050505062000684565b600054610100900460ff16806200020e57506200020e6001600160e01b03620003a616565b806200021d575060005460ff16155b6200025a5760405162461bcd60e51b815260040180806020018281038252602e81526020018062001cba602e913960400191505060405180910390fd5b600054610100900460ff1615801562000286576000805460ff1961ff0019909116610100171660011790555b83516200029b9060ff906020870190620005e2565b508251620002b290610100906020860190620005e2565b50610101805460ff191660ff84161790558015620002d6576000805461ff00191690555b50505050565b600054610100900460ff1680620003015750620003016001600160e01b03620003a616565b8062000310575060005460ff16155b6200034d5760405162461bcd60e51b815260040180806020018281038252602e81526020018062001cba602e913960400191505060405180910390fd5b600054610100900460ff1615801562000379576000805460ff1961ff0019909116610100171660011790555b6200038f82620003ad60201b620011611760201c565b8015620003a2576000805461ff00191690555b5050565b303b155b90565b600054610100900460ff1680620003d25750620003d26001600160e01b03620003a616565b80620003e1575060005460ff16155b6200041e5760405162461bcd60e51b815260040180806020018281038252602e81526020018062001cba602e913960400191505060405180910390fd5b600054610100900460ff161580156200044a576000805460ff1961ff0019909116610100171660011790555b6200045e826001600160e01b036200047716565b6200038f576200038f826001600160e01b036200049a16565b600062000494826068620004ec60201b620010fa1790919060201c565b92915050565b620004b58160686200055560201b620012461790919060201c565b6040516001600160a01b038216907f6ae172837ea30b801fbfcdd4108aa1d5bf8ff775444fd70256b44e6bf3dfc3f690600090a250565b60006001600160a01b038216620005355760405162461bcd60e51b815260040180806020018281038252602281526020018062001c986022913960400191505060405180910390fd5b506001600160a01b03166000908152602091909152604090205460ff1690565b6200056a82826001600160e01b03620004ec16565b15620005bd576040805162461bcd60e51b815260206004820152601f60248201527f526f6c65733a206163636f756e7420616c72656164792068617320726f6c6500604482015290519081900360640190fd5b6001600160a01b0316600090815260209190915260409020805460ff19166001179055565b828054600181600116156101000203166002900490600052602060002090601f016020900481019282601f106200062557805160ff191683800117855562000655565b8280016001018555821562000655579182015b828111156200065557825182559160200191906001019062000638565b506200066392915062000667565b5090565b620003aa91905b808211156200066357600081556001016200066e565b61160480620006946000396000f3fe608060405234801561001057600080fd5b506004361061012c5760003560e01c806370a08231116100ad578063a457c2d711610071578063a457c2d7146104b1578063a9059cbb146104dd578063aa271e1a14610509578063c4d66de81461052f578063dd62ed3e146105555761012c565b806370a082311461042957806379cc67901461044f57806395d89b411461047b578063983b2d561461048357806398650275146104a95761012c565b8063313ce567116100f4578063313ce56714610372578063395093511461039057806340c10f19146103bc57806342966c68146103e8578063637eea19146104055761012c565b806306fdde0314610131578063095ea7b3146101ae5780631624f6c6146101ee57806318160ddd1461032257806323b872dd1461033c575b600080fd5b610139610583565b6040805160208082528351818301528351919283929083019185019080838360005b8381101561017357818101518382015260200161015b565b50505050905090810190601f1680156101a05780820380516001836020036101000a031916815260200191505b509250505060405180910390f35b6101da600480360360408110156101c457600080fd5b506001600160a01b03813516906020013561061a565b604080519115158252519081900360200190f35b6103206004803603606081101561020457600080fd5b81019060208101813564010000000081111561021f57600080fd5b82018360208201111561023157600080fd5b8035906020019184600183028401116401000000008311171561025357600080fd5b91908080601f01602080910402602001604051908101604052809392919081815260200183838082843760009201919091525092959493602081019350359150506401000000008111156102a657600080fd5b8201836020820111156102b857600080fd5b803590602001918460018302840111640100000000831117156102da57600080fd5b91908080601f0160208091040260200160405190810160405280939291908181526020018383808284376000920191909152509295505050903560ff1691506106379050565b005b61032a610715565b60408051918252519081900360200190f35b6101da6004803603606081101561035257600080fd5b506001600160a01b0381358116916020810135909116906040013561071b565b61037a6107a8565b6040805160ff9092168252519081900360200190f35b6101da600480360360408110156103a657600080fd5b506001600160a01b0381351690602001356107b2565b6101da600480360360408110156103d257600080fd5b506001600160a01b038135169060200135610806565b610320600480360360208110156103fe57600080fd5b503561085d565b61040d610871565b604080516001600160a01b039092168252519081900360200190f35b61032a6004803603602081101561043f57600080fd5b50356001600160a01b0316610881565b6103206004803603604081101561046557600080fd5b506001600160a01b03813516906020013561089c565b6101396108aa565b6103206004803603602081101561049957600080fd5b50356001600160a01b031661090a565b610320610959565b6101da600480360360408110156104c757600080fd5b506001600160a01b03813516906020013561096b565b6101da600480360360408110156104f357600080fd5b506001600160a01b0381351690602001356109d9565b6101da6004803603602081101561051f57600080fd5b50356001600160a01b03166109ed565b6103206004803603602081101561054557600080fd5b50356001600160a01b0316610a06565b61032a6004803603604081101561056b57600080fd5b506001600160a01b0381358116916020013516610ab1565b60ff8054604080516020601f600260001961010060018816150201909516949094049384018190048102820181019092528281526060939092909183018282801561060f5780601f106105e45761010080835404028352916020019161060f565b820191906000526020600020905b8154815290600101906020018083116105f257829003601f168201915b505050505090505b90565b600061062e610627610adc565b8484610ae0565b50600192915050565b600054610100900460ff16806106505750610650610bcc565b8061065e575060005460ff16155b6106995760405162461bcd60e51b815260040180806020018281038252602e8152602001806114ef602e913960400191505060405180910390fd5b600054610100900460ff161580156106c4576000805460ff1961ff0019909116610100171660011790555b83516106d79060ff90602087019061132e565b5082516106ec9061010090602086019061132e565b50610101805460ff191660ff8416179055801561070f576000805461ff00191690555b50505050565b60355490565b6000610728848484610bd2565b61079e84610734610adc565b610799856040518060600160405280602881526020016114a5602891396001600160a01b038a16600090815260346020526040812090610772610adc565b6001600160a01b03168152602081019190915260400160002054919063ffffffff610d3016565b610ae0565b5060019392505050565b6101015460ff1690565b600061062e6107bf610adc565b8461079985603460006107d0610adc565b6001600160a01b03908116825260208083019390935260409182016000908120918c16815292529020549063ffffffff610dc716565b6000610818610813610adc565b6109ed565b6108535760405162461bcd60e51b81526004018080602001828103825260308152602001806114546030913960400191505060405180910390fd5b61062e8383610e28565b61086e610868610adc565b82610f1a565b50565b610134546001600160a01b031681565b6001600160a01b031660009081526033602052604090205490565b6108a68282611016565b5050565b6101008054604080516020601f60026000196001871615880201909516949094049384018190048102820181019092528281526060939092909183018282801561060f5780601f106105e45761010080835404028352916020019161060f565b610915610813610adc565b6109505760405162461bcd60e51b81526004018080602001828103825260308152602001806114546030913960400191505060405180910390fd5b61086e8161106a565b610969610964610adc565b6110b2565b565b600061062e610978610adc565b84610799856040518060600160405280602581526020016115ab60259139603460006109a2610adc565b6001600160a01b03908116825260208083019390935260409182016000908120918d1681529252902054919063ffffffff610d3016565b600061062e6109e6610adc565b8484610bd2565b6000610a0060688363ffffffff6110fa16565b92915050565b600054610100900460ff1680610a1f5750610a1f610bcc565b80610a2d575060005460ff16155b610a685760405162461bcd60e51b815260040180806020018281038252602e8152602001806114ef602e913960400191505060405180910390fd5b600054610100900460ff16158015610a93576000805460ff1961ff0019909116610100171660011790555b610a9c82611161565b80156108a6576000805461ff00191690555050565b6001600160a01b03918216600090815260346020908152604080832093909416825291909152205490565b3390565b6001600160a01b038316610b255760405162461bcd60e51b81526004018080602001828103825260248152602001806115876024913960400191505060405180910390fd5b6001600160a01b038216610b6a5760405162461bcd60e51b815260040180806020018281038252602281526020018061140c6022913960400191505060405180910390fd5b6001600160a01b03808416600081815260346020908152604080832094871680845294825291829020859055815185815291517f8c5be1e5ebec7d5bd14f71427d1e84f3dd0314c0f7b2291e5b200ac8c7c3b9259281900390910190a3505050565b303b1590565b6001600160a01b038316610c175760405162461bcd60e51b81526004018080602001828103825260258152602001806115626025913960400191505060405180910390fd5b6001600160a01b038216610c5c5760405162461bcd60e51b81526004018080602001828103825260238152602001806113c76023913960400191505060405180910390fd5b610c9f8160405180606001604052806026815260200161142e602691396001600160a01b038616600090815260336020526040902054919063ffffffff610d3016565b6001600160a01b038085166000908152603360205260408082209390935590841681522054610cd4908263ffffffff610dc716565b6001600160a01b0380841660008181526033602090815260409182902094909455805185815290519193928716927fddf252ad1be2c89b69c2b068fc378daa952ba7f163c4a11628f55a4df523b3ef92918290030190a3505050565b60008184841115610dbf5760405162461bcd60e51b81526004018080602001828103825283818151815260200191508051906020019080838360005b83811015610d84578181015183820152602001610d6c565b50505050905090810190601f168015610db15780820380516001836020036101000a031916815260200191505b509250505060405180910390fd5b505050900390565b600082820183811015610e21576040805162461bcd60e51b815260206004820152601b60248201527f536166654d6174683a206164646974696f6e206f766572666c6f770000000000604482015290519081900360640190fd5b9392505050565b6001600160a01b038216610e83576040805162461bcd60e51b815260206004820152601f60248201527f45524332303a206d696e7420746f20746865207a65726f206164647265737300604482015290519081900360640190fd5b603554610e96908263ffffffff610dc716565b6035556001600160a01b038216600090815260336020526040902054610ec2908263ffffffff610dc716565b6001600160a01b03831660008181526033602090815260408083209490945583518581529351929391927fddf252ad1be2c89b69c2b068fc378daa952ba7f163c4a11628f55a4df523b3ef9281900390910190a35050565b6001600160a01b038216610f5f5760405162461bcd60e51b81526004018080602001828103825260218152602001806115416021913960400191505060405180910390fd5b610fa2816040518060600160405280602281526020016113ea602291396001600160a01b038516600090815260336020526040902054919063ffffffff610d3016565b6001600160a01b038316600090815260336020526040902055603554610fce908263ffffffff61120416565b6035556040805182815290516000916001600160a01b038516917fddf252ad1be2c89b69c2b068fc378daa952ba7f163c4a11628f55a4df523b3ef9181900360200190a35050565b6110208282610f1a565b6108a68261102c610adc565b6107998460405180606001604052806024815260200161151d602491396001600160a01b038816600090815260346020526040812090610772610adc565b61107b60688263ffffffff61124616565b6040516001600160a01b038216907f6ae172837ea30b801fbfcdd4108aa1d5bf8ff775444fd70256b44e6bf3dfc3f690600090a250565b6110c360688263ffffffff6112c716565b6040516001600160a01b038216907fe94479a9f7e1952cc78f2d6baab678adc1b772d936c6583def489e524cb6669290600090a250565b60006001600160a01b0382166111415760405162461bcd60e51b81526004018080602001828103825260228152602001806114cd6022913960400191505060405180910390fd5b506001600160a01b03166000908152602091909152604090205460ff1690565b600054610100900460ff168061117a575061117a610bcc565b80611188575060005460ff16155b6111c35760405162461bcd60e51b815260040180806020018281038252602e8152602001806114ef602e913960400191505060405180910390fd5b600054610100900460ff161580156111ee576000805460ff1961ff0019909116610100171660011790555b6111f7826109ed565b610a9c57610a9c8261106a565b6000610e2183836040518060400160405280601e81526020017f536166654d6174683a207375627472616374696f6e206f766572666c6f770000815250610d30565b61125082826110fa565b156112a2576040805162461bcd60e51b815260206004820152601f60248201527f526f6c65733a206163636f756e7420616c72656164792068617320726f6c6500604482015290519081900360640190fd5b6001600160a01b0316600090815260209190915260409020805460ff19166001179055565b6112d182826110fa565b61130c5760405162461bcd60e51b81526004018080602001828103825260218152602001806114846021913960400191505060405180910390fd5b6001600160a01b0316600090815260209190915260409020805460ff19169055565b828054600181600116156101000203166002900490600052602060002090601f016020900481019282601f1061136f57805160ff191683800117855561139c565b8280016001018555821561139c579182015b8281111561139c578251825591602001919060010190611381565b506113a89291506113ac565b5090565b61061791905b808211156113a857600081556001016113b256fe45524332303a207472616e7366657220746f20746865207a65726f206164647265737345524332303a206275726e20616d6f756e7420657863656564732062616c616e636545524332303a20617070726f766520746f20746865207a65726f206164647265737345524332303a207472616e7366657220616d6f756e7420657863656564732062616c616e63654d696e746572526f6c653a2063616c6c657220646f6573206e6f74206861766520746865204d696e74657220726f6c65526f6c65733a206163636f756e7420646f6573206e6f74206861766520726f6c6545524332303a207472616e7366657220616d6f756e74206578636565647320616c6c6f77616e6365526f6c65733a206163636f756e7420697320746865207a65726f2061646472657373436f6e747261637420696e7374616e63652068617320616c7265616479206265656e20696e697469616c697a656445524332303a206275726e20616d6f756e74206578636565647320616c6c6f77616e636545524332303a206275726e2066726f6d20746865207a65726f206164647265737345524332303a207472616e736665722066726f6d20746865207a65726f206164647265737345524332303a20617070726f76652066726f6d20746865207a65726f206164647265737345524332303a2064656372656173656420616c6c6f77616e63652062656c6f77207a65726fa265627a7a72315820884c6c0a63a78b6bbe2d47b7e37e13b2c37fdabccc2869341884e94a04eb32bc64736f6c63430005100032526f6c65733a206163636f756e7420697320746865207a65726f2061646472657373436f6e747261637420696e7374616e63652068617320616c7265616479206265656e20696e697469616c697a6564",
  "source": "pragma solidity ^0.5.0;\n\nimport '@openzeppelin/contracts-ethereum-package/contracts/token/ERC20/ERC20.sol';\nimport '@openzeppelin/contracts-ethereum-package/contracts/token/ERC20/ERC20Mintable.sol';\nimport '@openzeppelin/contracts-ethereum-package/contracts/token/ERC20/ERC20Burnable.sol';\nimport '@openzeppelin/contracts-ethereum-package/contracts/token/ERC20/ERC20Detailed.sol';\n\ncontract MockERC20 is ERC20, ERC20Mintable, ERC20Burnable, ERC20Detailed {\n  address public steward;\n\n  constructor(\n    string memory name,\n    string memory symbol,\n    uint8 decimals,\n    address minter\n  ) public {\n    ERC20Detailed.initialize(name, symbol, decimals);\n    ERC20Mintable.initialize(minter);\n  }\n}\n",
  "sourcePath": "/home/jasoons/Documents/temp/app/contracts/contracts/mocks/MockERC20.sol",
  "compiler": {
    "name": "solc",
    "version": "0.5.16+commit.9c3226ce.Emscripten.clang"
  },
  "schemaVersion": "3.0.23",
  "updatedAt": "2020-03-31T21:09:44.210Z",
  "devdoc": {
    "methods": {
      "allowance(address,address)": {
        "details": "See {IERC20-allowance}."
      },
      "approve(address,uint256)": {
        "details": "See {IERC20-approve}.     * Requirements:     * - `spender` cannot be the zero address."
      },
      "balanceOf(address)": {
        "details": "See {IERC20-balanceOf}."
      },
      "burn(uint256)": {
        "details": "Destroys `amount` tokens from the caller.     * See {ERC20-_burn}."
      },
      "burnFrom(address,uint256)": {
        "details": "See {ERC20-_burnFrom}."
      },
      "decimals()": {
        "details": "Returns the number of decimals used to get its user representation. For example, if `decimals` equals `2`, a balance of `505` tokens should be displayed to a user as `5,05` (`505 / 10 ** 2`).     * Tokens usually opt for a value of 18, imitating the relationship between Ether and Wei.     * NOTE: This information is only used for _display_ purposes: it in no way affects any of the arithmetic of the contract, including {IERC20-balanceOf} and {IERC20-transfer}."
      },
      "decreaseAllowance(address,uint256)": {
        "details": "Atomically decreases the allowance granted to `spender` by the caller.     * This is an alternative to {approve} that can be used as a mitigation for problems described in {IERC20-approve}.     * Emits an {Approval} event indicating the updated allowance.     * Requirements:     * - `spender` cannot be the zero address. - `spender` must have allowance for the caller of at least `subtractedValue`."
      },
      "increaseAllowance(address,uint256)": {
        "details": "Atomically increases the allowance granted to `spender` by the caller.     * This is an alternative to {approve} that can be used as a mitigation for problems described in {IERC20-approve}.     * Emits an {Approval} event indicating the updated allowance.     * Requirements:     * - `spender` cannot be the zero address."
      },
      "initialize(string,string,uint8)": {
        "details": "Sets the values for `name`, `symbol`, and `decimals`. All three of these values are immutable: they can only be set once during construction."
      },
      "mint(address,uint256)": {
        "details": "See {ERC20-_mint}.     * Requirements:     * - the caller must have the {MinterRole}."
      },
      "name()": {
        "details": "Returns the name of the token."
      },
      "symbol()": {
        "details": "Returns the symbol of the token, usually a shorter version of the name."
      },
      "totalSupply()": {
        "details": "See {IERC20-totalSupply}."
      },
      "transfer(address,uint256)": {
        "details": "See {IERC20-transfer}.     * Requirements:     * - `recipient` cannot be the zero address. - the caller must have a balance of at least `amount`."
      },
      "transferFrom(address,address,uint256)": {
        "details": "See {IERC20-transferFrom}.     * Emits an {Approval} event indicating the updated allowance. This is not required by the EIP. See the note at the beginning of {ERC20};     * Requirements: - `sender` and `recipient` cannot be the zero address. - `sender` must have a balance of at least `amount`. - the caller must have allowance for `sender`'s tokens of at least `amount`."
      }
    }
  },
  "userdoc": {
    "methods": {}
  }
}