{
  "contractName": "NoLossDao",
  "abi": [
    {
      "anonymous": false,
      "inputs": [
        {
          "indexed": false,
          "internalType": "uint256",
          "name": "timeStamp",
          "type": "uint256"
        },
        {
          "indexed": false,
          "internalType": "address",
          "name": "miner",
          "type": "address"
        }
      ],
      "name": "IterationChanged",
      "type": "event"
    },
    {
      "anonymous": false,
      "inputs": [
        {
          "indexed": true,
          "internalType": "uint256",
          "name": "propsalIteration",
          "type": "uint256"
        },
        {
          "indexed": true,
          "internalType": "address",
          "name": "winner",
          "type": "address"
        },
        {
          "indexed": true,
          "internalType": "uint256",
          "name": "projectId",
          "type": "uint256"
        }
      ],
      "name": "IterationWinner",
      "type": "event"
    },
    {
      "anonymous": false,
      "inputs": [
        {
          "indexed": true,
          "internalType": "address",
          "name": "user",
          "type": "address"
        },
        {
          "indexed": false,
          "internalType": "address",
          "name": "delegatedTo",
          "type": "address"
        }
      ],
      "name": "VoteDelegated",
      "type": "event"
    },
    {
      "anonymous": false,
      "inputs": [
        {
          "indexed": true,
          "internalType": "address",
          "name": "user",
          "type": "address"
        },
        {
          "indexed": true,
          "internalType": "uint256",
          "name": "iteration",
          "type": "uint256"
        },
        {
          "indexed": true,
          "internalType": "uint256",
          "name": "proposalId",
          "type": "uint256"
        }
      ],
      "name": "VotedDirect",
      "type": "event"
    },
    {
      "anonymous": false,
      "inputs": [
        {
          "indexed": true,
          "internalType": "address",
          "name": "proxy",
          "type": "address"
        },
        {
          "indexed": false,
          "internalType": "address",
          "name": "user",
          "type": "address"
        },
        {
          "indexed": true,
          "internalType": "uint256",
          "name": "iteration",
          "type": "uint256"
        },
        {
          "indexed": true,
          "internalType": "uint256",
          "name": "proposalId",
          "type": "uint256"
        }
      ],
      "name": "VotedViaProxy",
      "type": "event"
    },
    {
      "constant": true,
      "inputs": [],
      "name": "admin",
      "outputs": [
        {
          "internalType": "address",
          "name": "",
          "type": "address"
        }
      ],
      "payable": false,
      "stateMutability": "view",
      "type": "function"
    },
    {
      "constant": true,
      "inputs": [
        {
          "internalType": "address",
          "name": "",
          "type": "address"
        }
      ],
      "name": "benefactorsProposal",
      "outputs": [
        {
          "internalType": "uint256",
          "name": "",
          "type": "uint256"
        }
      ],
      "payable": false,
      "stateMutability": "view",
      "type": "function"
    },
    {
      "constant": true,
      "inputs": [],
      "name": "depositContract",
      "outputs": [
        {
          "internalType": "contract IPoolDeposits",
          "name": "",
          "type": "address"
        }
      ],
      "payable": false,
      "stateMutability": "view",
      "type": "function"
    },
    {
      "constant": true,
      "inputs": [
        {
          "internalType": "address",
          "name": "",
          "type": "address"
        }
      ],
      "name": "iterationJoined",
      "outputs": [
        {
          "internalType": "uint256",
          "name": "",
          "type": "uint256"
        }
      ],
      "payable": false,
      "stateMutability": "view",
      "type": "function"
    },
    {
      "constant": true,
      "inputs": [],
      "name": "proposalDeadline",
      "outputs": [
        {
          "internalType": "uint256",
          "name": "",
          "type": "uint256"
        }
      ],
      "payable": false,
      "stateMutability": "view",
      "type": "function"
    },
    {
      "constant": true,
      "inputs": [
        {
          "internalType": "uint256",
          "name": "",
          "type": "uint256"
        }
      ],
      "name": "proposalDetails",
      "outputs": [
        {
          "internalType": "string",
          "name": "",
          "type": "string"
        }
      ],
      "payable": false,
      "stateMutability": "view",
      "type": "function"
    },
    {
      "constant": true,
      "inputs": [],
      "name": "proposalId",
      "outputs": [
        {
          "internalType": "uint256",
          "name": "",
          "type": "uint256"
        }
      ],
      "payable": false,
      "stateMutability": "view",
      "type": "function"
    },
    {
      "constant": true,
      "inputs": [],
      "name": "proposalIteration",
      "outputs": [
        {
          "internalType": "uint256",
          "name": "",
          "type": "uint256"
        }
      ],
      "payable": false,
      "stateMutability": "view",
      "type": "function"
    },
    {
      "constant": true,
      "inputs": [
        {
          "internalType": "uint256",
          "name": "",
          "type": "uint256"
        }
      ],
      "name": "proposalOwner",
      "outputs": [
        {
          "internalType": "address",
          "name": "",
          "type": "address"
        }
      ],
      "payable": false,
      "stateMutability": "view",
      "type": "function"
    },
    {
      "constant": true,
      "inputs": [
        {
          "internalType": "uint256",
          "name": "",
          "type": "uint256"
        },
        {
          "internalType": "uint256",
          "name": "",
          "type": "uint256"
        }
      ],
      "name": "proposalVotes",
      "outputs": [
        {
          "internalType": "uint256",
          "name": "",
          "type": "uint256"
        }
      ],
      "payable": false,
      "stateMutability": "view",
      "type": "function"
    },
    {
      "constant": true,
      "inputs": [
        {
          "internalType": "uint256",
          "name": "",
          "type": "uint256"
        }
      ],
      "name": "state",
      "outputs": [
        {
          "internalType": "enum NoLossDao.ProposalState",
          "name": "",
          "type": "uint8"
        }
      ],
      "payable": false,
      "stateMutability": "view",
      "type": "function"
    },
    {
      "constant": true,
      "inputs": [
        {
          "internalType": "uint256",
          "name": "",
          "type": "uint256"
        }
      ],
      "name": "topProject",
      "outputs": [
        {
          "internalType": "uint256",
          "name": "",
          "type": "uint256"
        }
      ],
      "payable": false,
      "stateMutability": "view",
      "type": "function"
    },
    {
      "constant": true,
      "inputs": [
        {
          "internalType": "uint256",
          "name": "",
          "type": "uint256"
        },
        {
          "internalType": "address",
          "name": "",
          "type": "address"
        }
      ],
      "name": "usersNominatedProject",
      "outputs": [
        {
          "internalType": "uint256",
          "name": "",
          "type": "uint256"
        }
      ],
      "payable": false,
      "stateMutability": "view",
      "type": "function"
    },
    {
      "constant": true,
      "inputs": [
        {
          "internalType": "address",
          "name": "",
          "type": "address"
        }
      ],
      "name": "voteDelegations",
      "outputs": [
        {
          "internalType": "address",
          "name": "",
          "type": "address"
        }
      ],
      "payable": false,
      "stateMutability": "view",
      "type": "function"
    },
    {
      "constant": true,
      "inputs": [],
      "name": "votingInterval",
      "outputs": [
        {
          "internalType": "uint256",
          "name": "",
          "type": "uint256"
        }
      ],
      "payable": false,
      "stateMutability": "view",
      "type": "function"
    },
    {
      "constant": false,
      "inputs": [
        {
          "internalType": "address",
          "name": "depositContractAddress",
          "type": "address"
        },
        {
          "internalType": "uint256",
          "name": "_votingInterval",
          "type": "uint256"
        }
      ],
      "name": "initialize",
      "outputs": [],
      "payable": false,
      "stateMutability": "nonpayable",
      "type": "function"
    },
    {
      "constant": false,
      "inputs": [
        {
          "internalType": "uint256",
          "name": "newInterval",
          "type": "uint256"
        }
      ],
      "name": "changeVotingInterval",
      "outputs": [],
      "payable": false,
      "stateMutability": "nonpayable",
      "type": "function"
    },
    {
      "constant": false,
      "inputs": [
        {
          "internalType": "address",
          "name": "userAddress",
          "type": "address"
        }
      ],
      "name": "noLossDeposit",
      "outputs": [
        {
          "internalType": "bool",
          "name": "",
          "type": "bool"
        }
      ],
      "payable": false,
      "stateMutability": "nonpayable",
      "type": "function"
    },
    {
      "constant": false,
      "inputs": [
        {
          "internalType": "address",
          "name": "userAddress",
          "type": "address"
        }
      ],
      "name": "noLossWithdraw",
      "outputs": [
        {
          "internalType": "bool",
          "name": "",
          "type": "bool"
        }
      ],
      "payable": false,
      "stateMutability": "nonpayable",
      "type": "function"
    },
    {
      "constant": false,
      "inputs": [
        {
          "internalType": "string",
          "name": "proposalHash",
          "type": "string"
        },
        {
          "internalType": "address",
          "name": "benefactorAddress",
          "type": "address"
        }
      ],
      "name": "noLossCreateProposal",
      "outputs": [
        {
          "internalType": "uint256",
          "name": "newProposalId",
          "type": "uint256"
        }
      ],
      "payable": false,
      "stateMutability": "nonpayable",
      "type": "function"
    },
    {
      "constant": false,
      "inputs": [
        {
          "internalType": "address",
          "name": "benefactorAddress",
          "type": "address"
        }
      ],
      "name": "noLossWithdrawProposal",
      "outputs": [
        {
          "internalType": "bool",
          "name": "",
          "type": "bool"
        }
      ],
      "payable": false,
      "stateMutability": "nonpayable",
      "type": "function"
    },
    {
      "constant": false,
      "inputs": [
        {
          "internalType": "address",
          "name": "delegatedAddress",
          "type": "address"
        }
      ],
      "name": "delegateVoting",
      "outputs": [],
      "payable": false,
      "stateMutability": "nonpayable",
      "type": "function"
    },
    {
      "constant": false,
      "inputs": [
        {
          "internalType": "uint256",
          "name": "proposalIdToVoteFor",
          "type": "uint256"
        }
      ],
      "name": "voteDirect",
      "outputs": [],
      "payable": false,
      "stateMutability": "nonpayable",
      "type": "function"
    },
    {
      "constant": false,
      "inputs": [
        {
          "internalType": "uint256",
          "name": "proposalIdToVoteFor",
          "type": "uint256"
        },
        {
          "internalType": "address",
          "name": "delegatedFrom",
          "type": "address"
        }
      ],
      "name": "voteProxy",
      "outputs": [],
      "payable": false,
      "stateMutability": "nonpayable",
      "type": "function"
    },
    {
      "constant": false,
      "inputs": [],
      "name": "distributeFunds",
      "outputs": [],
      "payable": false,
      "stateMutability": "nonpayable",
      "type": "function"
    },
    {
      "constant": false,
      "inputs": [
        {
          "internalType": "address",
          "name": "redirectTo",
          "type": "address"
        }
      ],
      "name": "daoCareFunding",
      "outputs": [],
      "payable": false,
      "stateMutability": "nonpayable",
      "type": "function"
    }
  ],
  "bytecode": "0x608060405234801561001057600080fd5b50611d7b806100206000396000f3fe608060405234801561001057600080fd5b506004361061018e5760003560e01c806375849399116100de578063ca28f0d011610097578063e8781a4a11610071578063e8781a4a14610553578063e94ad65b14610579578063f851a44014610581578063fcde9925146105895761018e565b8063ca28f0d0146104bf578063cd6dc68714610501578063e1de780e1461052d5761018e565b8063758493991461041a578063765cb83a146104225780637ce1f84414610448578063976ee2b614610450578063a58711821461047c578063bdd882f0146104a25761018e565b806330d39ce21161014b5780634ad59387116101255780634ad59387146103a957806351252f6c146103cf5780636c89be9b146103ec5780637566ad53146104125761018e565b806330d39ce2146103265780633a6a4d2e146103605780633e4f49e6146103685761018e565b806303ef7f39146101935780630d68eb9e146101c15780630dd59cac146101f6578063151f32521461026f57806316e9eaec1461028c5780632dfca4451461031e575b600080fd5b6101bf600480360360408110156101a957600080fd5b50803590602001356001600160a01b03166105a6565b005b6101e4600480360360408110156101d757600080fd5b50803590602001356108d0565b60408051918252519081900360200190f35b6101e46004803603604081101561020c57600080fd5b81019060208101813564010000000081111561022757600080fd5b82018360208201111561023957600080fd5b8035906020019184600183028401116401000000008311171561025b57600080fd5b9193509150356001600160a01b03166108ed565b6101bf6004803603602081101561028557600080fd5b50356109db565b6102a9600480360360208110156102a257600080fd5b5035610c66565b6040805160208082528351818301528351919283929083019185019080838360005b838110156102e35781810151838201526020016102cb565b50505050905090810190601f1680156103105780820380516001836020036101000a031916815260200191505b509250505060405180910390f35b6101e4610d01565b61034c6004803603602081101561033c57600080fd5b50356001600160a01b0316610d07565b604080519115158252519081900360200190f35b6101bf610de5565b6103856004803603602081101561037e57600080fd5b50356110a1565b6040518082600381111561039557fe5b60ff16815260200191505060405180910390f35b61034c600480360360208110156103bf57600080fd5b50356001600160a01b03166110b6565b6101bf600480360360208110156103e557600080fd5b50356111e9565b61034c6004803603602081101561040257600080fd5b50356001600160a01b0316611239565b6101e46113af565b6101e46113b5565b6101bf6004803603602081101561043857600080fd5b50356001600160a01b03166113bb565b6101e46115ca565b6101e46004803603604081101561046657600080fd5b50803590602001356001600160a01b03166115d0565b6101e46004803603602081101561049257600080fd5b50356001600160a01b03166115ed565b6101e4600480360360208110156104b857600080fd5b50356115ff565b6104e5600480360360208110156104d557600080fd5b50356001600160a01b0316611611565b604080516001600160a01b039092168252519081900360200190f35b6101bf6004803603604081101561051757600080fd5b506001600160a01b03813516906020013561162c565b6101bf6004803603602081101561054357600080fd5b50356001600160a01b0316611711565b6101e46004803603602081101561056957600080fd5b50356001600160a01b031661182a565b6104e561183c565b6104e561184b565b6104e56004803603602081101561059f57600080fd5b503561185a565b8160026000828152603b602052604090205460ff1660038111156105c657fe5b14610611576040805162461bcd60e51b815260206004820152601660248201527550726f706f73616c206973206e6f742061637469766560501b604482015290519081900360640190fd5b6001600160a01b038083166000908152604060208190529020548391163314610681576040805162461bcd60e51b815260206004820152601e60248201527f5573657220646f6573206e6f7420686176652070726f78792072696768740000604482015290519081900360640190fd5b6035546000908152603d602090815260408083206001600160a01b03871684529091529020548390156106e55760405162461bcd60e51b8152600401808060200182810382526021815260200180611c186021913960400191505060405180910390fd5b604154604080516320a832a760e21b81526001600160a01b0380881660048301529151879360009316916382a0ca9c916024808301926020929190829003018186803b15801561073457600080fd5b505afa158015610748573d6000803e3d6000fd5b505050506040513d602081101561075e57600080fd5b5051116107a6576040805162461bcd60e51b81526020600482015260116024820152705573657220686173206e6f207374616b6560781b604482015290519081900360640190fd5b8460026001600160a01b0382166000908152603960209081526040808320548352603b90915290205460ff1660038111156107dd57fe5b141561081e576040805162461bcd60e51b815260206004820152601b6024820152600080516020611c8e833981519152604482015290519081900360640190fd5b6035546001600160a01b0387166000908152603c60205260409020548791116108785760405162461bcd60e51b8152600401808060200182810382526029815260200180611c656029913960400191505060405180910390fd5b6108828888611875565b603554604080516001600160a01b038a16815290518a929133917f2ad023ce3b57fd860d7710c74817e216652c0be38dad91d87e83a53631aeb6649181900360200190a45050505050505050565b603e60209081526000928352604080842090915290825290205481565b6041546000906001600160a01b031633146109395760405162461bcd60e51b815260040180806020018281038252602f815260200180611cea602f913960400191505060405180910390fd5b60365461094d90600163ffffffff61199716565b6036819055600090815260386020526040902061096b908585611b7f565b5050603680546000908152603a6020908152604080832080546001600160a01b03969096166001600160a01b0319909616861790558354858452603983528184208190558352603b8252808320805460ff19166002179055603554948352603c9091529020919091555492915050565b8060026000828152603b602052604090205460ff1660038111156109fb57fe5b14610a46576040805162461bcd60e51b815260206004820152601660248201527550726f706f73616c206973206e6f742061637469766560501b604482015290519081900360640190fd5b6035546000908152603d602090815260408083203380855292529091205415610aa05760405162461bcd60e51b8152600401808060200182810382526021815260200180611c186021913960400191505060405180910390fd5b604154604080516320a832a760e21b81523360048201819052915191926000926001600160a01b03909116916382a0ca9c916024808301926020929190829003018186803b158015610af157600080fd5b505afa158015610b05573d6000803e3d6000fd5b505050506040513d6020811015610b1b57600080fd5b505111610b63576040805162461bcd60e51b81526020600482015260116024820152705573657220686173206e6f207374616b6560781b604482015290519081900360640190fd5b336000818152603960209081526040808320548352603b90915290205460029060ff166003811115610b9157fe5b1415610bd2576040805162461bcd60e51b815260206004820152601b6024820152600080516020611c8e833981519152604482015290519081900360640190fd5b603554336000818152603c6020526040902054909111610c235760405162461bcd60e51b8152600401808060200182810382526029815260200180611c656029913960400191505060405180910390fd5b610c2d8633611875565b60355460405187919033907fdaedf1f767f8478a4218849a8c37afccf9bb2de57036f0697565208a78a1284e90600090a4505050505050565b60386020908152600091825260409182902080548351601f600260001961010060018616150201909316929092049182018490048402810184019094528084529091830182828015610cf95780601f10610cce57610100808354040283529160200191610cf9565b820191906000526020600020905b815481529060010190602001808311610cdc57829003601f168201915b505050505081565b60365481565b6041546000906001600160a01b03163314610d535760405162461bcd60e51b815260040180806020018281038252602f815260200180611cea602f913960400191505060405180910390fd5b6001600160a01b038216600090815260396020526040902054829015610dc0576040805162461bcd60e51b815260206004820152601b60248201527f5573657220616c72656164792068617320612070726f706f73616c0000000000604482015290519081900360640190fd5b50506035546001600160a01b03919091166000908152603c6020526040902055600190565b4260375410610e3b576040805162461bcd60e51b815260206004820152601c60248201527f697465726174696f6e20696e74657276616c206e6f7420656e64656400000000604482015290519081900360640190fd5b6035546000908152603f602052604090205415611037576003603b6000603f6000610e7260016035546119f890919063ffffffff16565b815260200190815260200160002054815260200190815260200160002060009054906101000a900460ff166003811115610ea857fe5b1415610f0c576002603b6000603f6000610ece60016035546119f890919063ffffffff16565b815260200190815260200160002054815260200190815260200160002060006101000a81548160ff02191690836003811115610f0657fe5b02179055505b60016035546000908152603f60209081526040808320548352603b90915290205460ff166003811115610f3b57fe5b14610f6a576035546000908152603f60209081526040808320548352603b9091529020805460ff191660031790555b6035546000908152603f60209081526040808320548352603a909152808220546041548251639904a02d60e01b81526001600160a01b0392831660048201819052935193949190921692639904a02d92602480820193929182900301818387803b158015610fd757600080fd5b505af1158015610feb573d6000803e3d6000fd5b50506035546000818152603f60205260408082205490519094506001600160a01b03861693507f228915586fd0c8cdfa98f2eeaa94da445174756c39687ee8ad79e09e062fa8bf9190a4505b60345461104b90429063ffffffff61199716565b60375560355461106290600163ffffffff61199716565b6035556040805142815233602082015281517fca649c9914f4eda25ce853b2e6a39264bc3d61aefda561bf276f17588aa86677929181900390910190a1565b603b6020526000908152604090205460ff1681565b6041546000906001600160a01b031633146111025760405162461bcd60e51b815260040180806020018281038252602f815260200180611cea602f913960400191505060405180910390fd5b6035546000908152603d602090815260408083206001600160a01b03861684529091529020548290156111665760405162461bcd60e51b8152600401808060200182810382526021815260200180611c186021913960400191505060405180910390fd5b6001600160a01b0383166000908152603960205260409020548390156111c9576040805162461bcd60e51b8152602060048201526013602482015272155cd95c881a185cc818481c1c9bdc1bdcd85b606a1b604482015290519081900360640190fd5b5050506001600160a01b03166000908152603c6020526040812055600190565b6033546001600160a01b03163314611234576040805162461bcd60e51b81526020600482015260096024820152682737ba1030b236b4b760b91b604482015290519081900360640190fd5b603455565b6041546000906001600160a01b031633146112855760405162461bcd60e51b815260040180806020018281038252602f815260200180611cea602f913960400191505060405180910390fd5b8160026001600160a01b0382166000908152603960209081526040808320548352603b90915290205460ff1660038111156112bc57fe5b1461130e576040805162461bcd60e51b815260206004820152601c60248201527f557365722070726f706f73616c20646f6573206e6f7420657869737400000000604482015290519081900360640190fd5b6035546001600160a01b0384166000908152603c6020526040902054849160029091011061136d5760405162461bcd60e51b815260040180806020018281038252603c815260200180611cae603c913960400191505060405180910390fd5b5050506001600160a01b03166000908152603c6020908152604080832083905560398252808320548352603b9091529020805460ff1916600190811790915590565b60345481565b60355481565b604154604080516320a832a760e21b81523360048201819052915191926000926001600160a01b03909116916382a0ca9c916024808301926020929190829003018186803b15801561140c57600080fd5b505afa158015611420573d6000803e3d6000fd5b505050506040513d602081101561143657600080fd5b50511161147e576040805162461bcd60e51b81526020600482015260116024820152705573657220686173206e6f207374616b6560781b604482015290519081900360640190fd5b336000818152603960209081526040808320548352603b90915290205460029060ff1660038111156114ac57fe5b14156114ed576040805162461bcd60e51b815260206004820152601b6024820152600080516020611c8e833981519152604482015290519081900360640190fd5b8260026001600160a01b0382166000908152603960209081526040808320548352603b90915290205460ff16600381111561152457fe5b1415611565576040805162461bcd60e51b815260206004820152601b6024820152600080516020611c8e833981519152604482015290519081900360640190fd5b336000818152604060208181529181902080546001600160a01b0319166001600160a01b038916908117909155815190815290517fa0ff2fa6909fe4ddd94349fc9d8e2932f3dfe666216f3cc2aa3a72f5a03b655e929181900390910190a250505050565b60375481565b603d60209081526000928352604080842090915290825290205481565b603c6020526000908152604090205481565b603f6020526000908152604090205481565b6040602081905260009182529020546001600160a01b031681565b600054610100900460ff16806116455750611645611a3a565b80611653575060005460ff16155b61168e5760405162461bcd60e51b815260040180806020018281038252602e815260200180611d19602e913960400191505060405180910390fd5b600054610100900460ff161580156116b9576000805460ff1961ff0019909116610100171660011790555b604180546001600160a01b0385166001600160a01b031991821617909155603380549091163317905560348290556116f7428363ffffffff61199716565b603755801561170c576000805461ff00191690555b505050565b6033546001600160a01b0316331461175c576040805162461bcd60e51b81526020600482015260096024820152682737ba1030b236b4b760b91b604482015290519081900360640190fd5b426117856117766007603454611a4190919063ffffffff16565b6037549063ffffffff6119f816565b106117c15760405162461bcd60e51b815260040180806020018281038252602c815260200180611c39602c913960400191505060405180910390fd5b60415460408051639904a02d60e01b81526001600160a01b03848116600483015291519190921691639904a02d91602480830192600092919082900301818387803b15801561180f57600080fd5b505af1158015611823573d6000803e3d6000fd5b5050505050565b60396020526000908152604090205481565b6041546001600160a01b031681565b6033546001600160a01b031681565b603a602052600090815260409020546001600160a01b031681565b6035546000908152603d602090815260408083206001600160a01b038086168086529184529382902086905560415482516320a832a760e21b8152600481019290925291516119389492909216926382a0ca9c92602480840193829003018186803b1580156118e357600080fd5b505afa1580156118f7573d6000803e3d6000fd5b505050506040513d602081101561190d57600080fd5b50516035546000908152603e602090815260408083208784529091529020549063ffffffff61199716565b603580546000908152603e60208181526040808420888552825280842095909555925482528252828120603f8352838220548252909152818120548482529190205481101561170c5750506035546000908152603f6020526040902055565b6000828201838110156119f1576040805162461bcd60e51b815260206004820152601b60248201527f536166654d6174683a206164646974696f6e206f766572666c6f770000000000604482015290519081900360640190fd5b9392505050565b60006119f183836040518060400160405280601e81526020017f536166654d6174683a207375627472616374696f6e206f766572666c6f770000815250611a83565b303b155b90565b60006119f183836040518060400160405280601a81526020017f536166654d6174683a206469766973696f6e206279207a65726f000000000000815250611b1a565b60008184841115611b125760405162461bcd60e51b81526004018080602001828103825283818151815260200191508051906020019080838360005b83811015611ad7578181015183820152602001611abf565b50505050905090810190601f168015611b045780820380516001836020036101000a031916815260200191505b509250505060405180910390fd5b505050900390565b60008183611b695760405162461bcd60e51b8152602060048201818152835160248401528351909283926044909101919085019080838360008315611ad7578181015183820152602001611abf565b506000838581611b7557fe5b0495945050505050565b828054600181600116156101000203166002900490600052602060002090601f016020900481019282601f10611bc05782800160ff19823516178555611bed565b82800160010185558215611bed579182015b82811115611bed578235825591602001919060010190611bd2565b50611bf9929150611bfd565b5090565b611a3e91905b80821115611bf95760008155600101611c0356fe5573657220616c726561647920766f746564207468697320697465726174696f6e4e6f742079657420656c696769626c6520746f20726564697265637420696e7465726573742073747265616d55736572206f6e6c7920656c696769626c6520746f20766f7465206e65787420697465726174696f6e557365722068617320616e206163746976652070726f706f73616c000000000042656e65666163746f72206f6e6c7920656c696769626c6520746f20726563656976652066756e647320696e206c6174657220697465726174696f6e66756e6374696f6e2063616e206f6e6c792062652063616c6c6564206279206465706f73697420636f6e7472616374436f6e747261637420696e7374616e63652068617320616c7265616479206265656e20696e697469616c697a6564a265627a7a7231582053891c6dfe0c11e685473e3e8343ceed621c481507dae86cbdb88fc6c8755fd964736f6c63430005100032",
  "source": "pragma solidity 0.5.16;\n\n// import \"./interfaces/IERC20.sol\";\nimport './interfaces/IAaveLendingPool.sol';\nimport './interfaces/IADai.sol';\nimport './interfaces/IPoolDeposits.sol';\nimport '@openzeppelin/contracts-ethereum-package/contracts/token/ERC20/ERC20.sol';\n\n\n/** @title No Loss Dao Contract. */\ncontract NoLossDao is Initializable {\n  using SafeMath for uint256;\n\n  //////// MASTER //////////////\n  address public admin;\n\n  //////// Iteration specific //////////\n  uint256 public votingInterval;\n  uint256 public proposalIteration;\n\n  ///////// Proposal specific ///////////\n  uint256 public proposalId;\n  uint256 public proposalDeadline; // keeping track of time\n  mapping(uint256 => string) public proposalDetails; // IPFS hash of proposal\n  mapping(address => uint256) public benefactorsProposal; // benefactor -> proposal id\n  mapping(uint256 => address) public proposalOwner; // proposal id -> benefactor (1:1 mapping)\n  enum ProposalState {DoesNotExist, Withdrawn, Active, Cooldown} // Add Cooldown state and pending state\n  mapping(uint256 => ProposalState) public state; // ProposalId to current state\n\n  //////// User specific //////////\n  mapping(address => uint256) public iterationJoined; // Which iteration did user join DAO\n  mapping(uint256 => mapping(address => uint256)) public usersNominatedProject; // iteration -> user -> chosen project\n\n  //////// DAO / VOTE specific //////////\n  mapping(uint256 => mapping(uint256 => uint256)) public proposalVotes; /// iteration -> proposalId -> num votes\n  mapping(uint256 => uint256) public topProject;\n  mapping(address => address) public voteDelegations; // For vote proxy\n\n  ///////// DEFI Contrcats ///////////\n  IPoolDeposits public depositContract;\n\n  // Crrate blank 256 arrays of fixed length for upgradability.\n\n  ///////// Events ///////////\n  event VoteDelegated(address indexed user, address delegatedTo);\n  event VotedDirect(\n    address indexed user,\n    uint256 indexed iteration,\n    uint256 indexed proposalId\n  );\n  event VotedViaProxy(\n    address indexed proxy,\n    address user,\n    uint256 indexed iteration,\n    uint256 indexed proposalId\n  );\n  event IterationChanged(uint256 timeStamp, address miner);\n  event IterationWinner(\n    uint256 indexed propsalIteration,\n    address indexed winner,\n    uint256 indexed projectId\n  );\n\n  ////////////////////////////////////\n  //////// Modifiers /////////////////\n  ////////////////////////////////////\n  modifier onlyAdmin() {\n    require(msg.sender == admin, 'Not admin');\n    _;\n  }\n\n  modifier userStaked(address givenAddress) {\n    require(\n      depositContract.depositedDai(givenAddress) > 0,\n      'User has no stake'\n    );\n    _;\n  }\n\n  modifier noProposal(address givenAddress) {\n    require(\n      benefactorsProposal[givenAddress] == 0,\n      'User already has a proposal'\n    );\n    _;\n  }\n\n  modifier noVoteYet(address givenAddress) {\n    require(\n      usersNominatedProject[proposalIteration][givenAddress] == 0,\n      'User already voted this iteration'\n    );\n    _;\n  }\n\n  modifier userHasActiveProposal(address givenAddress) {\n    require(\n      state[benefactorsProposal[givenAddress]] == ProposalState.Active,\n      'User proposal does not exist'\n    );\n    _;\n  }\n\n  modifier userHasNoActiveProposal(address givenAddress) {\n    require(\n      state[benefactorsProposal[givenAddress]] != ProposalState.Active,\n      'User has an active proposal'\n    );\n    _;\n  }\n\n  modifier userHasNoProposal(address givenAddress) {\n    require(benefactorsProposal[givenAddress] == 0, 'User has a proposal');\n    _;\n  }\n\n  modifier proposalActive(uint256 propId) {\n    require(state[propId] == ProposalState.Active, 'Proposal is not active');\n    _;\n  }\n\n  modifier proxyRight(address delegatedFrom) {\n    require(\n      voteDelegations[delegatedFrom] == msg.sender,\n      'User does not have proxy right'\n    );\n    _;\n  }\n\n  // We reset the iteration back to zero when a user leaves. Means this modifier will no longer protect.\n  // But, its okay because it cannot be exploited. When 0, the user will have zero deposit.\n  // Therefore that modifier will always catch them in that case :)\n  modifier joinedInTime(address givenAddress) {\n    require(\n      iterationJoined[givenAddress] < proposalIteration,\n      'User only eligible to vote next iteration'\n    );\n    _;\n  }\n\n  modifier lockInFulfilled(address givenAddress) {\n    require(\n      iterationJoined[givenAddress] + 2 < proposalIteration,\n      'Benefactor only eligible to receive funds in later iteration'\n    );\n    _;\n  }\n  modifier iterationElapsed() {\n    require(proposalDeadline < now, 'iteration interval not ended');\n    _;\n  }\n\n  // These are both indentical\n\n  // modifier iterationMostlyElapsed() {\n  //   require(\n  //     proposalDeadline.mul(7) < votingInterval.add(now.mul(7)),\n  //     'Not yet eligible to redirect interest stream'\n  //   );\n  //   _;\n  // }\n  modifier iterationMostlyElapsed() {\n    require(\n      proposalDeadline.sub(votingInterval.div(7)) < now,\n      'Not yet eligible to redirect interest stream'\n    );\n    _;\n  }\n\n  modifier depositContractOnly() {\n    require(\n      address(depositContract) == msg.sender, // Is this a valid way of getting the address?\n      'function can only be called by deposit contract'\n    );\n    _;\n  }\n\n  ////////////////////////////////////\n  //////// SETUP CONTRACT////////////\n  //// NOTE: Upgradable at the moment\n  function initialize(address depositContractAddress, uint256 _votingInterval)\n    public\n    initializer\n  {\n    depositContract = IPoolDeposits(depositContractAddress);\n    admin = msg.sender;\n    votingInterval = _votingInterval;\n    proposalDeadline = now.add(_votingInterval);\n  }\n\n  ///////////////////////////////////\n  /////// Config functions //////////\n  ///////////////////////////////////\n\n  /// @dev Changes the time iteration  between intervals\n  /// @param newInterval new time interval between interations\n  function changeVotingInterval(uint256 newInterval) public onlyAdmin {\n    votingInterval = newInterval;\n  }\n\n  // change miner reward here\n\n  ////////////////////////////////////////////////////////////////////////////////////////////////////////////////\n  /////// Deposit & withdraw function for users //////////\n  ////////and proposal holders (benefactors) /////////////\n  ////////////////////////////////////////////////////////\n\n  /// @dev Checks whether user is eligible deposit and sets the proposal iteration joined, to the current iteration\n  /// @param userAddress address of the user wanting to deposit\n  /// @return boolean whether the above executes successfully\n  function noLossDeposit(address userAddress)\n    external\n    depositContractOnly\n    noProposal(userAddress) // Checks they are not a benefactor\n    returns (bool)\n  {\n    iterationJoined[userAddress] = proposalIteration;\n    return true;\n  }\n\n  /// @dev Checks whether user is eligible to withdraw their deposit and sets the proposal iteration joined to zero\n  /// @param userAddress address of the user wanting to withdraw\n  /// @return boolean whether the above executes successfully\n  function noLossWithdraw(address userAddress)\n    external\n    depositContractOnly\n    noVoteYet(userAddress)\n    userHasNoProposal(userAddress)\n    returns (bool)\n  {\n    iterationJoined[userAddress] = 0;\n    return true;\n  }\n\n  /// @dev Checks whether user is eligible to create a proposal then creates it. Executes a range of logic to add the new propsal (increments proposal ID, sets proposal owner, sets iteration joined, etc...)\n  /// @param proposalHash Hash of the proposal text\n  /// @param benefactorAddress address of benefactor creating proposal\n  /// @return boolean whether the above executes successfully\n  function noLossCreateProposal(\n    string calldata proposalHash,\n    address benefactorAddress\n  ) external depositContractOnly returns (uint256 newProposalId) {\n    proposalId = proposalId.add(1);\n\n    proposalDetails[proposalId] = proposalHash;\n    proposalOwner[proposalId] = benefactorAddress;\n    benefactorsProposal[benefactorAddress] = proposalId;\n    state[proposalId] = ProposalState.Active;\n    iterationJoined[benefactorAddress] = proposalIteration;\n    return proposalId;\n  }\n\n  /// @dev Checks whether user is eligible to withdraw their proposal\n  /// Sets the state of the users proposal to withdrawn\n  /// resets the iteration of user joined back to 0\n  /// @param benefactorAddress address of benefactor withdrawing proposal\n  /// @return boolean whether the above is possible\n  function noLossWithdrawProposal(address benefactorAddress)\n    external\n    depositContractOnly\n    userHasActiveProposal(benefactorAddress)\n    lockInFulfilled(benefactorAddress)\n    returns (bool)\n  {\n    iterationJoined[benefactorAddress] = 0;\n    state[benefactorsProposal[benefactorAddress]] = ProposalState.Withdrawn;\n    return true;\n  }\n\n  ////////////////////////////////////////////////////////////////////////////////////////////////////////////////\n\n  ////////////////////////////////////////////////////////////////////////////////////////////////////////////////\n  /////// DAO voting functionality  //////////////////////\n  ////////////////////////////////////////////////////////\n\n  /// @dev Allows user to delegate their full voting power to another user\n  /// @param delegatedAddress the address to which you are delegating your voting rights\n  function delegateVoting(address delegatedAddress)\n    external\n    userStaked(msg.sender)\n    userHasNoActiveProposal(msg.sender) //Careful when in cooldown can delegate then ???\n    userHasNoActiveProposal(delegatedAddress)\n  {\n    voteDelegations[msg.sender] = delegatedAddress;\n    emit VoteDelegated(msg.sender, delegatedAddress);\n  }\n\n  /// @dev Allows user to vote for an active proposal. Once voted they cannot withdraw till next iteration.\n  /// @param proposalIdToVoteFor Id of the proposal they are voting for\n  function voteDirect(\n    uint256 proposalIdToVoteFor // breaking change -> function name change from vote to voteDirect\n  )\n    external\n    proposalActive(proposalIdToVoteFor)\n    noVoteYet(msg.sender)\n    userStaked(msg.sender)\n    userHasNoActiveProposal(msg.sender)\n    joinedInTime(msg.sender)\n  {\n    _vote(proposalIdToVoteFor, msg.sender);\n    emit VotedDirect(msg.sender, proposalIteration, proposalIdToVoteFor);\n  }\n\n  /// @dev Allows user proxy to vote on behalf of a user.\n  /// @param proposalIdToVoteFor Id of the proposal they are voting for\n  /// @param delegatedFrom user they are voting on behalf of\n  function voteProxy(uint256 proposalIdToVoteFor, address delegatedFrom)\n    external\n    proposalActive(proposalIdToVoteFor)\n    proxyRight(delegatedFrom)\n    noVoteYet(delegatedFrom)\n    userStaked(delegatedFrom)\n    userHasNoActiveProposal(delegatedFrom)\n    joinedInTime(delegatedFrom)\n  {\n    _vote(proposalIdToVoteFor, delegatedFrom);\n    emit VotedViaProxy(\n      msg.sender,\n      delegatedFrom,\n      proposalIteration,\n      proposalIdToVoteFor\n    );\n  }\n\n  /// @dev Internal function casting the actual vote from the requested address\n  /// @param proposalIdToVoteFor Id of the proposal they are voting for\n  /// @param voteAddress address the vote is stemming from\n  function _vote(uint256 proposalIdToVoteFor, address voteAddress) internal {\n    usersNominatedProject[proposalIteration][voteAddress] = proposalIdToVoteFor;\n    proposalVotes[proposalIteration][proposalIdToVoteFor] = proposalVotes[proposalIteration][proposalIdToVoteFor]\n      .add(depositContract.depositedDai(voteAddress));\n\n\n      uint256 topProjectVotes\n     = proposalVotes[proposalIteration][topProject[proposalIteration]];\n\n    // Currently, proposal getting to top vote first will win [this is fine]\n    if (\n      proposalVotes[proposalIteration][proposalIdToVoteFor] > topProjectVotes\n    ) {\n      topProject[proposalIteration] = proposalIdToVoteFor;\n    }\n  }\n\n  ////////////////////////////////////////////////////////////////////////////////////////////////////////////////\n\n  ////////////////////////////////////////////////////////////////////////////////////////////////////////////////\n  /////// Iteration changer / mining function  //////////////////////\n  ///////////////////////////////////////////////////////////////////\n\n  /// @dev Anyone can call this every 2 weeks (more specifically every *iteration interval*) to receive a reward, and increment onto the next iteration of voting\n  function distributeFunds() external iterationElapsed {\n    // On a *whatever we decide basis* the funds are distributed to the winning project\n    // E.g. every 2 weeks, the project with the most votes gets the generated interest.\n    // figure our what happens with the interest from the first proposal iteration\n    // Possibly make first iteration an extended one for our launch (for marketing)\n    if (topProject[proposalIteration] != 0) {\n      // Do some asserts here for safety...\n\n      // Only if last winner is not withdrawn (i.e. still in cooldown) make it active again\n      if (\n        state[topProject[proposalIteration.sub(1)]] == ProposalState.Cooldown\n      ) {\n        state[topProject[proposalIteration.sub(1)]] = ProposalState.Active;\n      }\n      // Only if they haven't withdrawn, put them in cooldown\n      if (state[topProject[proposalIteration]] != ProposalState.Withdrawn) {\n        state[topProject[proposalIteration]] = ProposalState.Cooldown;\n      }\n      address winner = proposalOwner[topProject[proposalIteration]]; // error if no-one voted for in this iteration\n      depositContract.redirectInterestStreamToWinner(winner);\n      emit IterationWinner(\n        proposalIteration,\n        winner,\n        topProject[proposalIteration]\n      );\n    }\n\n    proposalDeadline = now.add(votingInterval);\n    proposalIteration = proposalIteration.add(1);\n\n    // send winning miner a little surprise [NFT]\n    emit IterationChanged(now, msg.sender);\n  }\n\n  // Allows admin to redirect interest stream to themselves for (1/7 of the total time = 15%) fee to continue funding developement\n  function daoCareFunding(address redirectTo)\n    external\n    onlyAdmin\n    iterationMostlyElapsed\n  {\n    depositContract.redirectInterestStreamToWinner(redirectTo);\n  }\n}\n",
  "sourcePath": "/home/jasoons/Documents/temp/app/contracts/contracts/NoLossDao.sol",
  "compiler": {
    "name": "solc",
    "version": "0.5.16+commit.9c3226ce.Emscripten.clang"
  },
  "schemaVersion": "3.0.23",
  "updatedAt": "2020-03-31T19:45:50.400Z",
  "networkType": "ethereum",
  "devdoc": {
    "methods": {
      "changeVotingInterval(uint256)": {
        "details": "Changes the time iteration  between intervals",
        "params": {
          "newInterval": "new time interval between interations"
        }
      },
      "delegateVoting(address)": {
        "details": "Allows user to delegate their full voting power to another user",
        "params": {
          "delegatedAddress": "the address to which you are delegating your voting rights"
        }
      },
      "distributeFunds()": {
        "details": "Anyone can call this every 2 weeks (more specifically every *iteration interval*) to receive a reward, and increment onto the next iteration of voting"
      },
      "noLossCreateProposal(string,address)": {
        "details": "Checks whether user is eligible to create a proposal then creates it. Executes a range of logic to add the new propsal (increments proposal ID, sets proposal owner, sets iteration joined, etc...)",
        "params": {
          "benefactorAddress": "address of benefactor creating proposal",
          "proposalHash": "Hash of the proposal text"
        },
        "return": "boolean whether the above executes successfully"
      },
      "noLossDeposit(address)": {
        "details": "Checks whether user is eligible deposit and sets the proposal iteration joined, to the current iteration",
        "params": {
          "userAddress": "address of the user wanting to deposit"
        },
        "return": "boolean whether the above executes successfully"
      },
      "noLossWithdraw(address)": {
        "details": "Checks whether user is eligible to withdraw their deposit and sets the proposal iteration joined to zero",
        "params": {
          "userAddress": "address of the user wanting to withdraw"
        },
        "return": "boolean whether the above executes successfully"
      },
      "noLossWithdrawProposal(address)": {
        "details": "Checks whether user is eligible to withdraw their proposal Sets the state of the users proposal to withdrawn resets the iteration of user joined back to 0",
        "params": {
          "benefactorAddress": "address of benefactor withdrawing proposal"
        },
        "return": "boolean whether the above is possible"
      },
      "voteDirect(uint256)": {
        "details": "Allows user to vote for an active proposal. Once voted they cannot withdraw till next iteration.",
        "params": {
          "proposalIdToVoteFor": "Id of the proposal they are voting for"
        }
      },
      "voteProxy(uint256,address)": {
        "details": "Allows user proxy to vote on behalf of a user.",
        "params": {
          "delegatedFrom": "user they are voting on behalf of",
          "proposalIdToVoteFor": "Id of the proposal they are voting for"
        }
      }
    },
    "title": "No Loss Dao Contract. "
  },
  "userdoc": {
    "methods": {
      "changeVotingInterval(uint256)": {
        "notice": "//////////////////////////////// //// Config functions ////////// ////////////////////////////////"
      },
      "delegateVoting(address)": {
        "notice": "///////////////////////////////////////////////////////////////////////////////////////////////////////////// ///////////////////////////////////////////////////////////////////////////////////////////////////////////// //// DAO voting functionality  ////////////////////// /////////////////////////////////////////////////////"
      },
      "distributeFunds()": {
        "notice": "///////////////////////////////////////////////////////////////////////////////////////////////////////////// ///////////////////////////////////////////////////////////////////////////////////////////////////////////// //// Iteration changer / mining function  ////////////////////// ////////////////////////////////////////////////////////////////"
      },
      "initialize(address,uint256)": {
        "notice": "///////////////////////////////// ///// SETUP CONTRACT//////////// / NOTE: Upgradable at the moment"
      },
      "noLossDeposit(address)": {
        "notice": "///////////////////////////////////////////////////////////////////////////////////////////////////////////// //// Deposit & withdraw function for users ////////// /////and proposal holders (benefactors) ///////////// /////////////////////////////////////////////////////"
      }
    }
  }
}