{
  "contractName": "NoLossDao_v0",
  "abi": [
    {
      "anonymous": false,
      "inputs": [
        {
          "indexed": false,
          "internalType": "address[]",
          "name": "addresses",
          "type": "address[]"
        },
        {
          "indexed": false,
          "internalType": "uint256[]",
          "name": "percentages",
          "type": "uint256[]"
        },
        {
          "indexed": false,
          "internalType": "uint256",
          "name": "iteration",
          "type": "uint256"
        }
      ],
      "name": "InterestConfigChanged",
      "type": "event"
    },
    {
      "anonymous": false,
      "inputs": [
        {
          "indexed": true,
          "internalType": "uint256",
          "name": "newIterationId",
          "type": "uint256"
        },
        {
          "indexed": false,
          "internalType": "address",
          "name": "miner",
          "type": "address"
        },
        {
          "indexed": false,
          "internalType": "uint256",
          "name": "timeStamp",
          "type": "uint256"
        }
      ],
      "name": "IterationChanged",
      "type": "event"
    },
    {
      "anonymous": false,
      "inputs": [
        {
          "indexed": true,
          "internalType": "uint256",
          "name": "propsalIteration",
          "type": "uint256"
        },
        {
          "indexed": true,
          "internalType": "address",
          "name": "winner",
          "type": "address"
        },
        {
          "indexed": true,
          "internalType": "uint256",
          "name": "projectId",
          "type": "uint256"
        }
      ],
      "name": "IterationWinner",
      "type": "event"
    },
    {
      "anonymous": false,
      "inputs": [
        {
          "indexed": true,
          "internalType": "uint256",
          "name": "proposalId",
          "type": "uint256"
        },
        {
          "indexed": false,
          "internalType": "address",
          "name": "benefactor",
          "type": "address"
        },
        {
          "indexed": false,
          "internalType": "uint256",
          "name": "iteration",
          "type": "uint256"
        }
      ],
      "name": "ProposalActive",
      "type": "event"
    },
    {
      "anonymous": false,
      "inputs": [
        {
          "indexed": true,
          "internalType": "uint256",
          "name": "proposalId",
          "type": "uint256"
        },
        {
          "indexed": false,
          "internalType": "uint256",
          "name": "iteration",
          "type": "uint256"
        }
      ],
      "name": "ProposalCooldown",
      "type": "event"
    },
    {
      "anonymous": false,
      "inputs": [
        {
          "indexed": true,
          "internalType": "uint256",
          "name": "proposalId",
          "type": "uint256"
        },
        {
          "indexed": false,
          "internalType": "uint256",
          "name": "iteration",
          "type": "uint256"
        }
      ],
      "name": "ProposalWithdrawn",
      "type": "event"
    },
    {
      "anonymous": false,
      "inputs": [
        {
          "indexed": true,
          "internalType": "address",
          "name": "user",
          "type": "address"
        },
        {
          "indexed": false,
          "internalType": "address",
          "name": "delegatedTo",
          "type": "address"
        }
      ],
      "name": "VoteDelegated",
      "type": "event"
    },
    {
      "anonymous": false,
      "inputs": [
        {
          "indexed": true,
          "internalType": "address",
          "name": "user",
          "type": "address"
        },
        {
          "indexed": true,
          "internalType": "uint256",
          "name": "iteration",
          "type": "uint256"
        },
        {
          "indexed": true,
          "internalType": "uint256",
          "name": "proposalId",
          "type": "uint256"
        }
      ],
      "name": "VotedDirect",
      "type": "event"
    },
    {
      "anonymous": false,
      "inputs": [
        {
          "indexed": true,
          "internalType": "address",
          "name": "proxy",
          "type": "address"
        },
        {
          "indexed": false,
          "internalType": "address",
          "name": "user",
          "type": "address"
        },
        {
          "indexed": true,
          "internalType": "uint256",
          "name": "iteration",
          "type": "uint256"
        },
        {
          "indexed": true,
          "internalType": "uint256",
          "name": "proposalId",
          "type": "uint256"
        }
      ],
      "name": "VotedViaProxy",
      "type": "event"
    },
    {
      "constant": true,
      "inputs": [],
      "name": "admin",
      "outputs": [
        {
          "internalType": "address",
          "name": "",
          "type": "address"
        }
      ],
      "payable": false,
      "stateMutability": "view",
      "type": "function"
    },
    {
      "constant": true,
      "inputs": [
        {
          "internalType": "address",
          "name": "",
          "type": "address"
        }
      ],
      "name": "benefactorsProposal",
      "outputs": [
        {
          "internalType": "uint256",
          "name": "",
          "type": "uint256"
        }
      ],
      "payable": false,
      "stateMutability": "view",
      "type": "function"
    },
    {
      "constant": true,
      "inputs": [],
      "name": "depositContract",
      "outputs": [
        {
          "internalType": "contract IPoolDeposits",
          "name": "",
          "type": "address"
        }
      ],
      "payable": false,
      "stateMutability": "view",
      "type": "function"
    },
    {
      "constant": true,
      "inputs": [
        {
          "internalType": "address",
          "name": "",
          "type": "address"
        }
      ],
      "name": "iterationJoined",
      "outputs": [
        {
          "internalType": "uint256",
          "name": "",
          "type": "uint256"
        }
      ],
      "payable": false,
      "stateMutability": "view",
      "type": "function"
    },
    {
      "constant": true,
      "inputs": [],
      "name": "proposalDeadline",
      "outputs": [
        {
          "internalType": "uint256",
          "name": "",
          "type": "uint256"
        }
      ],
      "payable": false,
      "stateMutability": "view",
      "type": "function"
    },
    {
      "constant": true,
      "inputs": [],
      "name": "proposalId",
      "outputs": [
        {
          "internalType": "uint256",
          "name": "",
          "type": "uint256"
        }
      ],
      "payable": false,
      "stateMutability": "view",
      "type": "function"
    },
    {
      "constant": true,
      "inputs": [
        {
          "internalType": "uint256",
          "name": "",
          "type": "uint256"
        }
      ],
      "name": "proposalIdentifier",
      "outputs": [
        {
          "internalType": "string",
          "name": "",
          "type": "string"
        }
      ],
      "payable": false,
      "stateMutability": "view",
      "type": "function"
    },
    {
      "constant": true,
      "inputs": [],
      "name": "proposalIteration",
      "outputs": [
        {
          "internalType": "uint256",
          "name": "",
          "type": "uint256"
        }
      ],
      "payable": false,
      "stateMutability": "view",
      "type": "function"
    },
    {
      "constant": true,
      "inputs": [
        {
          "internalType": "uint256",
          "name": "",
          "type": "uint256"
        }
      ],
      "name": "proposalOwner",
      "outputs": [
        {
          "internalType": "address",
          "name": "",
          "type": "address"
        }
      ],
      "payable": false,
      "stateMutability": "view",
      "type": "function"
    },
    {
      "constant": true,
      "inputs": [
        {
          "internalType": "uint256",
          "name": "",
          "type": "uint256"
        },
        {
          "internalType": "uint256",
          "name": "",
          "type": "uint256"
        }
      ],
      "name": "proposalVotes",
      "outputs": [
        {
          "internalType": "uint256",
          "name": "",
          "type": "uint256"
        }
      ],
      "payable": false,
      "stateMutability": "view",
      "type": "function"
    },
    {
      "constant": true,
      "inputs": [
        {
          "internalType": "uint256",
          "name": "",
          "type": "uint256"
        }
      ],
      "name": "state",
      "outputs": [
        {
          "internalType": "enum NoLossDao_v0.ProposalState",
          "name": "",
          "type": "uint8"
        }
      ],
      "payable": false,
      "stateMutability": "view",
      "type": "function"
    },
    {
      "constant": true,
      "inputs": [
        {
          "internalType": "uint256",
          "name": "",
          "type": "uint256"
        }
      ],
      "name": "topProject",
      "outputs": [
        {
          "internalType": "uint256",
          "name": "",
          "type": "uint256"
        }
      ],
      "payable": false,
      "stateMutability": "view",
      "type": "function"
    },
    {
      "constant": true,
      "inputs": [
        {
          "internalType": "uint256",
          "name": "",
          "type": "uint256"
        },
        {
          "internalType": "address",
          "name": "",
          "type": "address"
        }
      ],
      "name": "usersNominatedProject",
      "outputs": [
        {
          "internalType": "uint256",
          "name": "",
          "type": "uint256"
        }
      ],
      "payable": false,
      "stateMutability": "view",
      "type": "function"
    },
    {
      "constant": true,
      "inputs": [
        {
          "internalType": "address",
          "name": "",
          "type": "address"
        }
      ],
      "name": "voteDelegations",
      "outputs": [
        {
          "internalType": "address",
          "name": "",
          "type": "address"
        }
      ],
      "payable": false,
      "stateMutability": "view",
      "type": "function"
    },
    {
      "constant": true,
      "inputs": [],
      "name": "votingInterval",
      "outputs": [
        {
          "internalType": "uint256",
          "name": "",
          "type": "uint256"
        }
      ],
      "payable": false,
      "stateMutability": "view",
      "type": "function"
    },
    {
      "constant": false,
      "inputs": [
        {
          "internalType": "address",
          "name": "depositContractAddress",
          "type": "address"
        },
        {
          "internalType": "uint256",
          "name": "_votingInterval",
          "type": "uint256"
        }
      ],
      "name": "initialize",
      "outputs": [],
      "payable": false,
      "stateMutability": "nonpayable",
      "type": "function"
    },
    {
      "constant": false,
      "inputs": [
        {
          "internalType": "uint256",
          "name": "newInterval",
          "type": "uint256"
        }
      ],
      "name": "changeVotingInterval",
      "outputs": [],
      "payable": false,
      "stateMutability": "nonpayable",
      "type": "function"
    },
    {
      "constant": false,
      "inputs": [
        {
          "internalType": "uint256",
          "name": "amount",
          "type": "uint256"
        }
      ],
      "name": "changeProposalStakingAmount",
      "outputs": [],
      "payable": false,
      "stateMutability": "nonpayable",
      "type": "function"
    },
    {
      "constant": false,
      "inputs": [
        {
          "internalType": "address[]",
          "name": "_interestReceivers",
          "type": "address[]"
        },
        {
          "internalType": "uint256[]",
          "name": "_percentages",
          "type": "uint256[]"
        }
      ],
      "name": "setInterestReceivers",
      "outputs": [],
      "payable": false,
      "stateMutability": "nonpayable",
      "type": "function"
    },
    {
      "constant": false,
      "inputs": [
        {
          "internalType": "address",
          "name": "userAddress",
          "type": "address"
        }
      ],
      "name": "noLossDeposit",
      "outputs": [
        {
          "internalType": "bool",
          "name": "",
          "type": "bool"
        }
      ],
      "payable": false,
      "stateMutability": "nonpayable",
      "type": "function"
    },
    {
      "constant": false,
      "inputs": [
        {
          "internalType": "address",
          "name": "userAddress",
          "type": "address"
        }
      ],
      "name": "noLossWithdraw",
      "outputs": [
        {
          "internalType": "bool",
          "name": "",
          "type": "bool"
        }
      ],
      "payable": false,
      "stateMutability": "nonpayable",
      "type": "function"
    },
    {
      "constant": false,
      "inputs": [
        {
          "internalType": "string",
          "name": "_proposalIdentifier",
          "type": "string"
        },
        {
          "internalType": "address",
          "name": "benefactorAddress",
          "type": "address"
        }
      ],
      "name": "noLossCreateProposal",
      "outputs": [
        {
          "internalType": "uint256",
          "name": "newProposalId",
          "type": "uint256"
        }
      ],
      "payable": false,
      "stateMutability": "nonpayable",
      "type": "function"
    },
    {
      "constant": false,
      "inputs": [
        {
          "internalType": "address",
          "name": "benefactorAddress",
          "type": "address"
        }
      ],
      "name": "noLossWithdrawProposal",
      "outputs": [
        {
          "internalType": "bool",
          "name": "",
          "type": "bool"
        }
      ],
      "payable": false,
      "stateMutability": "nonpayable",
      "type": "function"
    },
    {
      "constant": false,
      "inputs": [
        {
          "internalType": "address",
          "name": "delegatedAddress",
          "type": "address"
        }
      ],
      "name": "delegateVoting",
      "outputs": [],
      "payable": false,
      "stateMutability": "nonpayable",
      "type": "function"
    },
    {
      "constant": false,
      "inputs": [
        {
          "internalType": "uint256",
          "name": "proposalIdToVoteFor",
          "type": "uint256"
        }
      ],
      "name": "voteDirect",
      "outputs": [],
      "payable": false,
      "stateMutability": "nonpayable",
      "type": "function"
    },
    {
      "constant": false,
      "inputs": [
        {
          "internalType": "uint256",
          "name": "proposalIdToVoteFor",
          "type": "uint256"
        },
        {
          "internalType": "address",
          "name": "delegatedFrom",
          "type": "address"
        }
      ],
      "name": "voteProxy",
      "outputs": [],
      "payable": false,
      "stateMutability": "nonpayable",
      "type": "function"
    },
    {
      "constant": false,
      "inputs": [],
      "name": "distributeFunds",
      "outputs": [],
      "payable": false,
      "stateMutability": "nonpayable",
      "type": "function"
    }
  ],
  "bytecode": "0x608060405234801561001057600080fd5b506122cf806100206000396000f3fe608060405234801561001057600080fd5b50600436106101a95760003560e01c8063765cb83a116100f9578063bdd882f011610097578063e8781a4a11610071578063e8781a4a1461068c578063e94ad65b146106b2578063f851a440146106ba578063fcde9925146106c2576101a9565b8063bdd882f014610601578063ca28f0d01461061e578063cd6dc68714610660576101a9565b80639853c627116100d35780639853c62714610405578063a58711821461052c578063a83805c014610552578063bb8a5d451461056f576101a9565b8063765cb83a146103ab5780637ce1f844146103d1578063976ee2b6146103d9576101a9565b80633a6a4d2e1161016657806351252f6c1161014057806351252f6c146103585780636c89be9b146103755780637566ad531461039b57806375849399146103a3576101a9565b80633a6a4d2e146102e95780633e4f49e6146102f15780634ad5938714610332576101a9565b806303ef7f39146101ae5780630d68eb9e146101dc5780630dd59cac14610211578063151f32521461028a5780632dfca445146102a757806330d39ce2146102af575b600080fd5b6101da600480360360408110156101c457600080fd5b50803590602001356001600160a01b03166106df565b005b6101ff600480360360408110156101f257600080fd5b5080359060200135610a09565b60408051918252519081900360200190f35b6101ff6004803603604081101561022757600080fd5b81019060208101813564010000000081111561024257600080fd5b82018360208201111561025457600080fd5b8035906020019184600183028401116401000000008311171561027657600080fd5b9193509150356001600160a01b0316610a26565b6101da600480360360208110156102a057600080fd5b5035610b51565b6101ff610ddc565b6102d5600480360360208110156102c557600080fd5b50356001600160a01b0316610de2565b604080519115158252519081900360200190f35b6101da610eb6565b61030e6004803603602081101561030757600080fd5b503561127e565b6040518082600381111561031e57fe5b60ff16815260200191505060405180910390f35b6102d56004803603602081101561034857600080fd5b50356001600160a01b0316611293565b6101da6004803603602081101561036e57600080fd5b50356113c6565b6102d56004803603602081101561038b57600080fd5b50356001600160a01b0316611416565b6101ff6115c5565b6101ff6115cb565b6101da600480360360208110156103c157600080fd5b50356001600160a01b03166115d1565b6101ff6117e0565b6101ff600480360360408110156103ef57600080fd5b50803590602001356001600160a01b03166117e6565b6101da6004803603604081101561041b57600080fd5b81019060208101813564010000000081111561043657600080fd5b82018360208201111561044857600080fd5b8035906020019184602083028401116401000000008311171561046a57600080fd5b91908080602002602001604051908101604052809392919081815260200183836020028082843760009201919091525092959493602081019350359150506401000000008111156104ba57600080fd5b8201836020820111156104cc57600080fd5b803590602001918460208302840111640100000000831117156104ee57600080fd5b919080806020026020016040519081016040528093929190818152602001838360200280828437600092019190915250929550611803945050505050565b6101ff6004803603602081101561054257600080fd5b50356001600160a01b0316611a2a565b6101da6004803603602081101561056857600080fd5b5035611a3c565b61058c6004803603602081101561058557600080fd5b5035611aef565b6040805160208082528351818301528351919283929083019185019080838360005b838110156105c65781810151838201526020016105ae565b50505050905090810190601f1680156105f35780820380516001836020036101000a031916815260200191505b509250505060405180910390f35b6101ff6004803603602081101561061757600080fd5b5035611b8a565b6106446004803603602081101561063457600080fd5b50356001600160a01b0316611b9c565b604080516001600160a01b039092168252519081900360200190f35b6101da6004803603604081101561067657600080fd5b506001600160a01b038135169060200135611bb7565b6101ff600480360360208110156106a257600080fd5b50356001600160a01b0316611d87565b610644611d99565b610644611da8565b610644600480360360208110156106d857600080fd5b5035611db7565b8160026000828152603b602052604090205460ff1660038111156106ff57fe5b1461074a576040805162461bcd60e51b815260206004820152601660248201527550726f706f73616c206973206e6f742061637469766560501b604482015290519081900360640190fd5b6001600160a01b0380831660009081526040602081905290205483911633146107ba576040805162461bcd60e51b815260206004820152601e60248201527f5573657220646f6573206e6f7420686176652070726f78792072696768740000604482015290519081900360640190fd5b6035546000908152603d602090815260408083206001600160a01b038716845290915290205483901561081e5760405162461bcd60e51b815260040180806020018281038252602181526020018061218e6021913960400191505060405180910390fd5b604354604080516320a832a760e21b81526001600160a01b0380881660048301529151879360009316916382a0ca9c916024808301926020929190829003018186803b15801561086d57600080fd5b505afa158015610881573d6000803e3d6000fd5b505050506040513d602081101561089757600080fd5b5051116108df576040805162461bcd60e51b81526020600482015260116024820152705573657220686173206e6f207374616b6560781b604482015290519081900360640190fd5b8460026001600160a01b0382166000908152603960209081526040808320548352603b90915290205460ff16600381111561091657fe5b1415610957576040805162461bcd60e51b815260206004820152601b602482015260008051602061221e833981519152604482015290519081900360640190fd5b6035546001600160a01b0387166000908152603c60205260409020548791116109b15760405162461bcd60e51b81526004018080602001828103825260298152602001806121f56029913960400191505060405180910390fd5b6109bb8888611dd2565b603554604080516001600160a01b038a16815290518a929133917f2ad023ce3b57fd860d7710c74817e216652c0be38dad91d87e83a53631aeb6649181900360200190a45050505050505050565b603e60209081526000928352604080842090915290825290205481565b6043546000906001600160a01b03163314610a725760405162461bcd60e51b815260040180806020018281038252602f81526020018061223e602f913960400191505060405180910390fd5b603654610a8690600163ffffffff611ef416565b60368190556000908152603860205260409020610aa4908585612035565b50603680546000908152603a6020908152604080832080546001600160a01b0388166001600160a01b031990911681179091558454818552603984528285208190558452603b8352818420805460ff19166002179055603554818552603c8452938290208490559354815194855291840192909252815190927f2b70ad0e4e1960604c99b0622933f522a4f2ce308284f86cf89860931a2a602092908290030190a2506036549392505050565b8060026000828152603b602052604090205460ff166003811115610b7157fe5b14610bbc576040805162461bcd60e51b815260206004820152601660248201527550726f706f73616c206973206e6f742061637469766560501b604482015290519081900360640190fd5b6035546000908152603d602090815260408083203380855292529091205415610c165760405162461bcd60e51b815260040180806020018281038252602181526020018061218e6021913960400191505060405180910390fd5b604354604080516320a832a760e21b81523360048201819052915191926000926001600160a01b03909116916382a0ca9c916024808301926020929190829003018186803b158015610c6757600080fd5b505afa158015610c7b573d6000803e3d6000fd5b505050506040513d6020811015610c9157600080fd5b505111610cd9576040805162461bcd60e51b81526020600482015260116024820152705573657220686173206e6f207374616b6560781b604482015290519081900360640190fd5b336000818152603960209081526040808320548352603b90915290205460029060ff166003811115610d0757fe5b1415610d48576040805162461bcd60e51b815260206004820152601b602482015260008051602061221e833981519152604482015290519081900360640190fd5b603554336000818152603c6020526040902054909111610d995760405162461bcd60e51b81526004018080602001828103825260298152602001806121f56029913960400191505060405180910390fd5b610da38633611dd2565b60355460405187919033907fdaedf1f767f8478a4218849a8c37afccf9bb2de57036f0697565208a78a1284e90600090a4505050505050565b60365481565b6043546000906001600160a01b03163314610e2e5760405162461bcd60e51b815260040180806020018281038252602f81526020018061223e602f913960400191505060405180910390fd5b6001600160a01b038216600090815260396020526040902054829015610e91576040805162461bcd60e51b8152602060048201526013602482015272155cd95c881a185cc818481c1c9bdc1bdcd85b606a1b604482015290519081900360640190fd5b50506035546001600160a01b03919091166000908152603c6020526040902055600190565b4260375410610f0c576040805162461bcd60e51b815260206004820152601c60248201527f697465726174696f6e20696e74657276616c206e6f7420656e64656400000000604482015290519081900360640190fd5b336041600081548110610f1b57fe5b600091825260209091200180546001600160a01b0319166001600160a01b039290921691909117905560355415611212576000603f6000610f686001603554611f5590919063ffffffff16565b8152602001908152602001600020549050806000146111345760036000828152603b602052604090205460ff166003811115610fa057fe5b1415611011576000818152603b60209081526040808320805460ff19166002179055603a8252918290205460355483516001600160a01b03909216825291810191909152815183927f2b70ad0e4e1960604c99b0622933f522a4f2ce308284f86cf89860931a2a6020928290030190a25b6000818152603a602052604090819020546043546035549251634129763960e01b81526001600160a01b039283166044820181905260648201859052608060048301908152604180546084850181905292969590941694634129763994936042938893918291602482019160a40190889080156110b757602002820191906000526020600020905b81546001600160a01b03168152600190910190602001808311611099575b505083810382528681815481526020019150805480156110f657602002820191906000526020600020905b8154815260200190600101908083116110e2575b50509650505050505050600060405180830381600087803b15801561111a57600080fd5b505af115801561112e573d6000803e3d6000fd5b50505050505b6035546000908152603f6020526040902054801561120f5760016000828152603b602052604090205460ff16600381111561116b57fe5b146111c3576000818152603b6020908152604091829020805460ff191660031790556035548251908152915183927fadc6c45f4d97dab4fbeb19d978ca7912496ce53ef018b0363a72b51c3f52e61f92908290030190a25b6000818152603a60205260408082205460355491516001600160a01b03909116928492849290917f228915586fd0c8cdfa98f2eeaa94da445174756c39687ee8ad79e09e062fa8bf91a4505b50505b60345461122690429063ffffffff611ef416565b60375560355461123d90600163ffffffff611ef416565b60358190556040805133815242602082015281517fa9ed9b80871a446bfefd4c16ae6b3ae4e8041f4d9623b796d28fe6aa0e4f59fa929181900390910190a2565b603b6020526000908152604090205460ff1681565b6043546000906001600160a01b031633146112df5760405162461bcd60e51b815260040180806020018281038252602f81526020018061223e602f913960400191505060405180910390fd5b6035546000908152603d602090815260408083206001600160a01b03861684529091529020548290156113435760405162461bcd60e51b815260040180806020018281038252602181526020018061218e6021913960400191505060405180910390fd5b6001600160a01b0383166000908152603960205260409020548390156113a6576040805162461bcd60e51b8152602060048201526013602482015272155cd95c881a185cc818481c1c9bdc1bdcd85b606a1b604482015290519081900360640190fd5b5050506001600160a01b03166000908152603c6020526040812055600190565b6033546001600160a01b03163314611411576040805162461bcd60e51b81526020600482015260096024820152682737ba1030b236b4b760b91b604482015290519081900360640190fd5b603455565b6043546000906001600160a01b031633146114625760405162461bcd60e51b815260040180806020018281038252602f81526020018061223e602f913960400191505060405180910390fd5b8160026001600160a01b0382166000908152603960209081526040808320548352603b90915290205460ff16600381111561149957fe5b146114eb576040805162461bcd60e51b815260206004820152601c60248201527f557365722070726f706f73616c20646f6573206e6f7420657869737400000000604482015290519081900360640190fd5b6035546001600160a01b0384166000908152603c6020526040902054849160029091011061154a5760405162461bcd60e51b81526004018080602001828103825260468152602001806121af6046913960600191505060405180910390fd5b6001600160a01b038416600090815260396020908152604080832054603c8352818420849055808452603b835292819020805460ff191660011790556035548151908152905183927f09fd6ccae033cd10efcab1ce0f10bea5cd27ea4703adb28f9c03ce3d3f10bf43928290030190a2506001949350505050565b60345481565b60355481565b604354604080516320a832a760e21b81523360048201819052915191926000926001600160a01b03909116916382a0ca9c916024808301926020929190829003018186803b15801561162257600080fd5b505afa158015611636573d6000803e3d6000fd5b505050506040513d602081101561164c57600080fd5b505111611694576040805162461bcd60e51b81526020600482015260116024820152705573657220686173206e6f207374616b6560781b604482015290519081900360640190fd5b336000818152603960209081526040808320548352603b90915290205460029060ff1660038111156116c257fe5b1415611703576040805162461bcd60e51b815260206004820152601b602482015260008051602061221e833981519152604482015290519081900360640190fd5b8260026001600160a01b0382166000908152603960209081526040808320548352603b90915290205460ff16600381111561173a57fe5b141561177b576040805162461bcd60e51b815260206004820152601b602482015260008051602061221e833981519152604482015290519081900360640190fd5b336000818152604060208181529181902080546001600160a01b0319166001600160a01b038916908117909155815190815290517fa0ff2fa6909fe4ddd94349fc9d8e2932f3dfe666216f3cc2aa3a72f5a03b655e929181900390910190a250505050565b60375481565b603d60209081526000928352604080842090915290825290205481565b6033546001600160a01b0316331461184e576040805162461bcd60e51b81526020600482015260096024820152682737ba1030b236b4b760b91b604482015290519081900360640190fd5b80518251146118a4576040805162461bcd60e51b815260206004820152601d60248201527f4172726179732073686f756c6420626520657175616c206c656e677468000000604482015290519081900360640190fd5b6000805b82518110156118e1576118d78382815181106118c057fe5b602002602001015183611ef490919063ffffffff16565b91506001016118a8565b506103e88110611938576040805162461bcd60e51b815260206004820152601a60248201527f50657263656e746167657320746f74616c20746f6f2068696768000000000000604482015290519081900360640190fd5b825161194b9060419060208601906120b3565b50815161195f906042906020850190612114565b507f0a8f66b1db0cf2bd693c17e48782a849e6220c72aa0922d5bde91a017707830d8383603554604051808060200180602001848152602001838103835286818151815260200191508051906020019060200280838360005b838110156119d05781810151838201526020016119b8565b50505050905001838103825285818151815260200191508051906020019060200280838360005b83811015611a0f5781810151838201526020016119f7565b505050509050019550505050505060405180910390a1505050565b603c6020526000908152604090205481565b6033546001600160a01b03163314611a87576040805162461bcd60e51b81526020600482015260096024820152682737ba1030b236b4b760b91b604482015290519081900360640190fd5b604354604080516338aefa2b60e11b81526004810184905290516001600160a01b039092169163715df4569160248082019260009290919082900301818387803b158015611ad457600080fd5b505af1158015611ae8573d6000803e3d6000fd5b5050505050565b60386020908152600091825260409182902080548351601f600260001961010060018616150201909316929092049182018490048402810184019094528084529091830182828015611b825780601f10611b5757610100808354040283529160200191611b82565b820191906000526020600020905b815481529060010190602001808311611b6557829003601f168201915b505050505081565b603f6020526000908152604090205481565b6040602081905260009182529020546001600160a01b031681565b600054610100900460ff1680611bd05750611bd0611f97565b80611bde575060005460ff16155b611c195760405162461bcd60e51b815260040180806020018281038252602e81526020018061226d602e913960400191505060405180910390fd5b600054610100900460ff16158015611c44576000805460ff1961ff0019909116610100171660011790555b604380546001600160a01b0385166001600160a01b03199182161790915560338054909116331790556034829055611c82428363ffffffff611ef416565b6037556033805460418054600180820183557f7c9785e8241615bc80415d89775984a1337d15dc1bf4ce50f41988b2a2b336a791820180546001600160a01b039586166001600160a01b031991821617909155604280548084018255600f7f38dfe4635b27babeca8be38d3b448cb5161a639b899a14825ba9c8d7892eb8c391820155965485548085019096559490930180549490951693169290921790925581549081018255600091825260879201919091556040805133815242602082015281517fa9ed9b80871a446bfefd4c16ae6b3ae4e8041f4d9623b796d28fe6aa0e4f59fa929181900390910190a28015611d82576000805461ff00191690555b505050565b60396020526000908152604090205481565b6043546001600160a01b031681565b6033546001600160a01b031681565b603a602052600090815260409020546001600160a01b031681565b6035546000908152603d602090815260408083206001600160a01b038086168086529184529382902086905560435482516320a832a760e21b815260048101929092529151611e959492909216926382a0ca9c92602480840193829003018186803b158015611e4057600080fd5b505afa158015611e54573d6000803e3d6000fd5b505050506040513d6020811015611e6a57600080fd5b50516035546000908152603e602090815260408083208784529091529020549063ffffffff611ef416565b603580546000908152603e60208181526040808420888552825280842095909555925482528252828120603f83528382205482529091528181205484825291902054811015611d825750506035546000908152603f6020526040902055565b600082820183811015611f4e576040805162461bcd60e51b815260206004820152601b60248201527f536166654d6174683a206164646974696f6e206f766572666c6f770000000000604482015290519081900360640190fd5b9392505050565b6000611f4e83836040518060400160405280601e81526020017f536166654d6174683a207375627472616374696f6e206f766572666c6f770000815250611f9e565b303b155b90565b6000818484111561202d5760405162461bcd60e51b81526004018080602001828103825283818151815260200191508051906020019080838360005b83811015611ff2578181015183820152602001611fda565b50505050905090810190601f16801561201f5780820380516001836020036101000a031916815260200191505b509250505060405180910390fd5b505050900390565b828054600181600116156101000203166002900490600052602060002090601f016020900481019282601f106120765782800160ff198235161785556120a3565b828001600101855582156120a3579182015b828111156120a3578235825591602001919060010190612088565b506120af92915061214f565b5090565b828054828255906000526020600020908101928215612108579160200282015b8281111561210857825182546001600160a01b0319166001600160a01b039091161782556020909201916001909101906120d3565b506120af929150612169565b8280548282559060005260206000209081019282156120a3579160200282015b828111156120a3578251825591602001919060010190612134565b611f9b91905b808211156120af5760008155600101612155565b611f9b91905b808211156120af5780546001600160a01b031916815560010161216f56fe5573657220616c726561647920766f746564207468697320697465726174696f6e42656e65666163746f7220686173206e6f742066756c66696c6c656420746865206d696e696d756d206c6f636b696e20706572696f64206f66203220697465726174696f6e7355736572206f6e6c7920656c696769626c6520746f20766f7465206e65787420697465726174696f6e557365722068617320616e206163746976652070726f706f73616c000000000066756e6374696f6e2063616e206f6e6c792062652063616c6c6564206279206465706f73697420636f6e7472616374436f6e747261637420696e7374616e63652068617320616c7265616479206265656e20696e697469616c697a6564a265627a7a7231582000cdbfc47ba9b37e4021988594e4bccc6bd23d598d49ac907020a06f5ec49df664736f6c634300050f0032",
  "source": "pragma solidity 0.5.15;\n\n// import \"./interfaces/IERC20.sol\";\nimport './interfaces/IAaveLendingPool.sol';\nimport './interfaces/IADai.sol';\nimport './interfaces/IPoolDeposits.sol';\nimport '@nomiclabs/buidler/console.sol';\nimport '@openzeppelin/contracts-ethereum-package/contracts/math/SafeMath.sol';\nimport '@openzeppelin/upgrades/contracts/Initializable.sol';\n\n\n/** @title No Loss Dao Contract. */\ncontract NoLossDao_v0 is Initializable {\n  using SafeMath for uint256;\n\n  //////// MASTER //////////////\n  address public admin;\n\n  //////// Iteration specific //////////\n  uint256 public votingInterval;\n  uint256 public proposalIteration;\n\n  ///////// Proposal specific ///////////\n  uint256 public proposalId;\n  uint256 public proposalDeadline; // keeping track of time\n  mapping(uint256 => string) public proposalIdentifier;\n  mapping(address => uint256) public benefactorsProposal; // benefactor -> proposal id\n  mapping(uint256 => address) public proposalOwner; // proposal id -> benefactor (1:1 mapping)\n  enum ProposalState {DoesNotExist, Withdrawn, Active, Cooldown} // Add Cooldown state and pending state\n  mapping(uint256 => ProposalState) public state; // ProposalId to current state\n\n  //////// User specific //////////\n  mapping(address => uint256) public iterationJoined; // Which iteration did user join DAO\n  mapping(uint256 => mapping(address => uint256)) public usersNominatedProject; // iteration -> user -> chosen project\n\n  //////// DAO / VOTE specific //////////\n  mapping(uint256 => mapping(uint256 => uint256)) public proposalVotes; /// iteration -> proposalId -> num votes\n  mapping(uint256 => uint256) public topProject;\n  mapping(address => address) public voteDelegations; // For vote proxy\n\n  //////// Necessary to fund dev and miners //////////\n  address[] interestReceivers; // in v0, the interestReceivers is the address of the miner.\n  uint256[] percentages;\n\n  ///////// DEFI Contrcats ///////////\n  IPoolDeposits public depositContract;\n\n  // Crrate blank 256 arrays of fixed length for upgradability.\n\n  ///////// Events ///////////\n  event VoteDelegated(address indexed user, address delegatedTo);\n  event VotedDirect(\n    address indexed user,\n    uint256 indexed iteration,\n    uint256 indexed proposalId\n  );\n  event VotedViaProxy(\n    address indexed proxy,\n    address user,\n    uint256 indexed iteration,\n    uint256 indexed proposalId\n  );\n  event IterationChanged(\n    uint256 indexed newIterationId,\n    address miner,\n    uint256 timeStamp\n  );\n  event IterationWinner(\n    uint256 indexed propsalIteration,\n    address indexed winner,\n    uint256 indexed projectId\n  );\n  event InterestConfigChanged(\n    address[] addresses,\n    uint256[] percentages,\n    uint256 iteration\n  );\n  // Test these events\n  event ProposalActive(\n    uint256 indexed proposalId,\n    address benefactor,\n    uint256 iteration\n  );\n  event ProposalCooldown(uint256 indexed proposalId, uint256 iteration);\n  event ProposalWithdrawn(uint256 indexed proposalId, uint256 iteration);\n\n  ////////////////////////////////////\n  //////// Modifiers /////////////////\n  ////////////////////////////////////\n  modifier onlyAdmin() {\n    require(msg.sender == admin, 'Not admin');\n    _;\n  }\n\n  modifier userStaked(address givenAddress) {\n    require(\n      depositContract.depositedDai(givenAddress) > 0,\n      'User has no stake'\n    );\n    _;\n  }\n\n  modifier noVoteYet(address givenAddress) {\n    require(\n      usersNominatedProject[proposalIteration][givenAddress] == 0,\n      'User already voted this iteration'\n    );\n    _;\n  }\n\n  modifier userHasActiveProposal(address givenAddress) {\n    require(\n      state[benefactorsProposal[givenAddress]] == ProposalState.Active,\n      'User proposal does not exist'\n    );\n    _;\n  }\n\n  modifier userHasNoActiveProposal(address givenAddress) {\n    require(\n      state[benefactorsProposal[givenAddress]] != ProposalState.Active,\n      'User has an active proposal'\n    );\n    _;\n  }\n\n  modifier userHasNoProposal(address givenAddress) {\n    require(benefactorsProposal[givenAddress] == 0, 'User has a proposal');\n    _;\n  }\n\n  modifier proposalActive(uint256 propId) {\n    require(state[propId] == ProposalState.Active, 'Proposal is not active');\n    _;\n  }\n\n  modifier proxyRight(address delegatedFrom) {\n    require(\n      voteDelegations[delegatedFrom] == msg.sender,\n      'User does not have proxy right'\n    );\n    _;\n  }\n\n  // We reset the iteration back to zero when a user leaves. Means this modifier will no longer protect.\n  // But, its okay because it cannot be exploited. When 0, the user will have zero deposit.\n  // Therefore that modifier will always catch them in that case :)\n  modifier joinedInTime(address givenAddress) {\n    require(\n      iterationJoined[givenAddress] < proposalIteration,\n      'User only eligible to vote next iteration'\n    );\n    _;\n  }\n\n  modifier lockInFulfilled(address givenAddress) {\n    require(\n      iterationJoined[givenAddress] + 2 < proposalIteration,\n      'Benefactor has not fulfilled the minimum lockin period of 2 iterations'\n    );\n    _;\n  }\n  modifier iterationElapsed() {\n    require(proposalDeadline < now, 'iteration interval not ended');\n    _;\n  }\n\n  modifier depositContractOnly() {\n    require(\n      address(depositContract) == msg.sender, // Is this a valid way of getting the address?\n      'function can only be called by deposit contract'\n    );\n    _;\n  }\n\n  ////////////////////////////////////\n  //////// SETUP CONTRACT////////////\n  //// NOTE: Upgradable at the moment\n  function initialize(address depositContractAddress, uint256 _votingInterval)\n    public\n    initializer\n  {\n    depositContract = IPoolDeposits(depositContractAddress);\n    admin = msg.sender;\n    votingInterval = _votingInterval;\n    proposalDeadline = now.add(_votingInterval);\n    interestReceivers.push(admin); // This will change to miner when iterationchanges\n    percentages.push(15); // 1.5% for miner\n    interestReceivers.push(admin);\n    percentages.push(135); // 13.5% for devlopers\n\n    emit IterationChanged(0, msg.sender, now);\n  }\n\n  ///////////////////////////////////\n  /////// Config functions //////////\n  ///////////////////////////////////\n\n  /// @dev Changes the time iteration  between intervals\n  /// @param newInterval new time interval between interations\n  function changeVotingInterval(uint256 newInterval) public onlyAdmin {\n    votingInterval = newInterval;\n  }\n\n  /// @dev Changes the amount required to stake for new proposal\n  /// @param amount how much new amount is.\n  function changeProposalStakingAmount(uint256 amount) public onlyAdmin {\n    depositContract.changeProposalAmount(amount);\n  }\n\n  /// @dev Changes the amount required to stake for new proposal\n  function setInterestReceivers(\n    address[] memory _interestReceivers,\n    uint256[] memory _percentages\n  ) public onlyAdmin {\n    require(\n      _interestReceivers.length == _percentages.length,\n      'Arrays should be equal length'\n    );\n    uint256 percentagesSum = 0;\n    for (uint256 i = 0; i < _percentages.length; i++) {\n      percentagesSum = percentagesSum.add(_percentages[i]);\n    }\n    require(percentagesSum < 1000, 'Percentages total too high');\n\n    interestReceivers = _interestReceivers;\n    percentages = _percentages;\n    emit InterestConfigChanged(\n      _interestReceivers,\n      _percentages,\n      proposalIteration\n    );\n  }\n\n  ////////////////////////////////////////////////////////////////////////////////////////////////////////////////\n  /////// Deposit & withdraw function for users //////////\n  ////////and proposal holders (benefactors) /////////////\n  ////////////////////////////////////////////////////////\n\n  /// @dev Checks whether user is eligible deposit and sets the proposal iteration joined, to the current iteration\n  /// @param userAddress address of the user wanting to deposit\n  /// @return boolean whether the above executes successfully\n  function noLossDeposit(address userAddress)\n    external\n    depositContractOnly\n    userHasNoProposal(userAddress) // Checks they are not a benefactor\n    returns (bool)\n  {\n    iterationJoined[userAddress] = proposalIteration;\n    return true;\n  }\n\n  /// @dev Checks whether user is eligible to withdraw their deposit and sets the proposal iteration joined to zero\n  /// @param userAddress address of the user wanting to withdraw\n  /// @return boolean whether the above executes successfully\n  function noLossWithdraw(address userAddress)\n    external\n    depositContractOnly\n    noVoteYet(userAddress)\n    userHasNoProposal(userAddress)\n    returns (bool)\n  {\n    iterationJoined[userAddress] = 0;\n    return true;\n  }\n\n  /// @dev Checks whether user is eligible to create a proposal then creates it. Executes a range of logic to add the new propsal (increments proposal ID, sets proposal owner, sets iteration joined, etc...)\n  /// @param _proposalIdentifier Hash of the proposal text\n  /// @param benefactorAddress address of benefactor creating proposal\n  /// @return boolean whether the above executes successfully\n  function noLossCreateProposal(\n    string calldata _proposalIdentifier,\n    address benefactorAddress\n  ) external depositContractOnly returns (uint256 newProposalId) {\n    proposalId = proposalId.add(1);\n\n    proposalIdentifier[proposalId] = _proposalIdentifier;\n    proposalOwner[proposalId] = benefactorAddress;\n    benefactorsProposal[benefactorAddress] = proposalId;\n    state[proposalId] = ProposalState.Active;\n    iterationJoined[benefactorAddress] = proposalIteration;\n    emit ProposalActive(proposalId, benefactorAddress, proposalIteration);\n    return proposalId;\n  }\n\n  /// @dev Checks whether user is eligible to withdraw their proposal\n  /// Sets the state of the users proposal to withdrawn\n  /// resets the iteration of user joined back to 0\n  /// @param benefactorAddress address of benefactor withdrawing proposal\n  /// @return boolean whether the above is possible\n  function noLossWithdrawProposal(address benefactorAddress)\n    external\n    depositContractOnly\n    userHasActiveProposal(benefactorAddress)\n    lockInFulfilled(benefactorAddress)\n    returns (bool)\n  {\n    uint256 benefactorsProposalId = benefactorsProposal[benefactorAddress];\n    iterationJoined[benefactorAddress] = 0;\n    state[benefactorsProposalId] = ProposalState.Withdrawn;\n    emit ProposalWithdrawn(benefactorsProposalId, proposalIteration);\n    return true;\n  }\n\n  ////////////////////////////////////////////////////////////////////////////////////////////////////////////////\n\n  ////////////////////////////////////////////////////////////////////////////////////////////////////////////////\n  /////// DAO voting functionality  //////////////////////\n  ////////////////////////////////////////////////////////\n\n  /// @dev Allows user to delegate their full voting power to another user\n  /// @param delegatedAddress the address to which you are delegating your voting rights\n  function delegateVoting(address delegatedAddress)\n    external\n    userStaked(msg.sender)\n    userHasNoActiveProposal(msg.sender)\n    userHasNoActiveProposal(delegatedAddress)\n  {\n    voteDelegations[msg.sender] = delegatedAddress;\n    emit VoteDelegated(msg.sender, delegatedAddress);\n  }\n\n  /// @dev Allows user to vote for an active proposal. Once voted they cannot withdraw till next iteration.\n  /// @param proposalIdToVoteFor Id of the proposal they are voting for\n  function voteDirect(\n    uint256 proposalIdToVoteFor // breaking change -> function name change from vote to voteDirect\n  )\n    external\n    proposalActive(proposalIdToVoteFor)\n    noVoteYet(msg.sender)\n    userStaked(msg.sender)\n    userHasNoActiveProposal(msg.sender)\n    joinedInTime(msg.sender)\n  {\n    _vote(proposalIdToVoteFor, msg.sender);\n    emit VotedDirect(msg.sender, proposalIteration, proposalIdToVoteFor);\n  }\n\n  /// @dev Allows user proxy to vote on behalf of a user.\n  /// @param proposalIdToVoteFor Id of the proposal they are voting for\n  /// @param delegatedFrom user they are voting on behalf of\n  function voteProxy(uint256 proposalIdToVoteFor, address delegatedFrom)\n    external\n    proposalActive(proposalIdToVoteFor)\n    proxyRight(delegatedFrom)\n    noVoteYet(delegatedFrom)\n    userStaked(delegatedFrom)\n    userHasNoActiveProposal(delegatedFrom)\n    joinedInTime(delegatedFrom)\n  {\n    _vote(proposalIdToVoteFor, delegatedFrom);\n    emit VotedViaProxy(\n      msg.sender,\n      delegatedFrom,\n      proposalIteration,\n      proposalIdToVoteFor\n    );\n  }\n\n  /// @dev Internal function casting the actual vote from the requested address\n  /// @param proposalIdToVoteFor Id of the proposal they are voting for\n  /// @param voteAddress address the vote is stemming from\n  function _vote(uint256 proposalIdToVoteFor, address voteAddress) internal {\n    usersNominatedProject[proposalIteration][voteAddress] = proposalIdToVoteFor;\n    proposalVotes[proposalIteration][proposalIdToVoteFor] = proposalVotes[proposalIteration][proposalIdToVoteFor]\n      .add(depositContract.depositedDai(voteAddress));\n\n\n      uint256 topProjectVotes\n     = proposalVotes[proposalIteration][topProject[proposalIteration]];\n\n    // Currently, proposal getting to top vote first will win [this is fine]\n    if (\n      proposalVotes[proposalIteration][proposalIdToVoteFor] > topProjectVotes\n    ) {\n      topProject[proposalIteration] = proposalIdToVoteFor;\n    }\n  }\n\n  ////////////////////////////////////////////////////////////////////////////////////////////////////////////////\n\n  ////////////////////////////////////////////////////////////////////////////////////////////////////////////////\n  /////// Iteration changer / mining function  //////////////////////\n  ///////////////////////////////////////////////////////////////////\n\n  /// @dev Anyone can call this every 2 weeks (more specifically every *iteration interval*) to receive a reward, and increment onto the next iteration of voting\n  function distributeFunds() external iterationElapsed {\n    interestReceivers[0] = msg.sender; // Set the miners address to receive a small reward\n\n    if (proposalIteration > 0) {\n      // distribute interest from previous week.\n      uint256 previousIterationTopProject = topProject[proposalIteration.sub(\n        1\n      )];\n      if (previousIterationTopProject != 0) {\n        // Only if last winner is not withdrawn (i.e. st ill in cooldown) make it active again\n        if (state[previousIterationTopProject] == ProposalState.Cooldown) {\n          state[previousIterationTopProject] = ProposalState.Active;\n          emit ProposalActive(\n            previousIterationTopProject,\n            proposalOwner[previousIterationTopProject],\n            proposalIteration\n          );\n        }\n\n        address previousWinner = proposalOwner[previousIterationTopProject]; // This cannot be null, since we check that there was a winner above.\n        depositContract.distributeInterest(\n          interestReceivers,\n          percentages,\n          previousWinner,\n          proposalIteration\n        );\n      }\n\n      uint256 iterationTopProject = topProject[proposalIteration];\n      if (iterationTopProject != 0) {\n        // TODO: Do some asserts here for safety...\n        if (state[iterationTopProject] != ProposalState.Withdrawn) {\n          state[iterationTopProject] = ProposalState.Cooldown;\n          emit ProposalCooldown(iterationTopProject, proposalIteration);\n        }\n        address winner = proposalOwner[iterationTopProject]; // This cannot be null, since we check that there was a winner above.\n        emit IterationWinner(proposalIteration, winner, iterationTopProject);\n      }\n    }\n\n    proposalDeadline = now.add(votingInterval);\n    proposalIteration = proposalIteration.add(1);\n\n    // send winning miner a little surprise [NFT]\n    emit IterationChanged(proposalIteration, msg.sender, now);\n  }\n}\n",
  "sourcePath": "/home/jonjon/code/daocare/app/contracts/contracts/NoLossDao_v0.sol",
  "compiler": {
    "name": "solc",
    "version": "0.5.15+commit.6a57276f.Emscripten.clang"
  },
  "schemaVersion": "3.0.23",
  "updatedAt": "2020-05-13T11:55:12.986Z",
  "networkType": "ethereum",
  "devdoc": {
    "methods": {
      "changeProposalStakingAmount(uint256)": {
        "details": "Changes the amount required to stake for new proposal",
        "params": {
          "amount": "how much new amount is."
        }
      },
      "changeVotingInterval(uint256)": {
        "details": "Changes the time iteration  between intervals",
        "params": {
          "newInterval": "new time interval between interations"
        }
      },
      "delegateVoting(address)": {
        "details": "Allows user to delegate their full voting power to another user",
        "params": {
          "delegatedAddress": "the address to which you are delegating your voting rights"
        }
      },
      "distributeFunds()": {
        "details": "Anyone can call this every 2 weeks (more specifically every *iteration interval*) to receive a reward, and increment onto the next iteration of voting"
      },
      "noLossCreateProposal(string,address)": {
        "details": "Checks whether user is eligible to create a proposal then creates it. Executes a range of logic to add the new propsal (increments proposal ID, sets proposal owner, sets iteration joined, etc...)",
        "params": {
          "_proposalIdentifier": "Hash of the proposal text",
          "benefactorAddress": "address of benefactor creating proposal"
        },
        "return": "boolean whether the above executes successfully"
      },
      "noLossDeposit(address)": {
        "details": "Checks whether user is eligible deposit and sets the proposal iteration joined, to the current iteration",
        "params": {
          "userAddress": "address of the user wanting to deposit"
        },
        "return": "boolean whether the above executes successfully"
      },
      "noLossWithdraw(address)": {
        "details": "Checks whether user is eligible to withdraw their deposit and sets the proposal iteration joined to zero",
        "params": {
          "userAddress": "address of the user wanting to withdraw"
        },
        "return": "boolean whether the above executes successfully"
      },
      "noLossWithdrawProposal(address)": {
        "details": "Checks whether user is eligible to withdraw their proposal Sets the state of the users proposal to withdrawn resets the iteration of user joined back to 0",
        "params": {
          "benefactorAddress": "address of benefactor withdrawing proposal"
        },
        "return": "boolean whether the above is possible"
      },
      "setInterestReceivers(address[],uint256[])": {
        "details": "Changes the amount required to stake for new proposal"
      },
      "voteDirect(uint256)": {
        "details": "Allows user to vote for an active proposal. Once voted they cannot withdraw till next iteration.",
        "params": {
          "proposalIdToVoteFor": "Id of the proposal they are voting for"
        }
      },
      "voteProxy(uint256,address)": {
        "details": "Allows user proxy to vote on behalf of a user.",
        "params": {
          "delegatedFrom": "user they are voting on behalf of",
          "proposalIdToVoteFor": "Id of the proposal they are voting for"
        }
      }
    },
    "title": "No Loss Dao Contract. "
  },
  "userdoc": {
    "methods": {
      "changeVotingInterval(uint256)": {
        "notice": "//////////////////////////////// //// Config functions ////////// ////////////////////////////////"
      },
      "delegateVoting(address)": {
        "notice": "///////////////////////////////////////////////////////////////////////////////////////////////////////////// ///////////////////////////////////////////////////////////////////////////////////////////////////////////// //// DAO voting functionality  ////////////////////// /////////////////////////////////////////////////////"
      },
      "distributeFunds()": {
        "notice": "///////////////////////////////////////////////////////////////////////////////////////////////////////////// ///////////////////////////////////////////////////////////////////////////////////////////////////////////// //// Iteration changer / mining function  ////////////////////// ////////////////////////////////////////////////////////////////"
      },
      "initialize(address,uint256)": {
        "notice": "///////////////////////////////// ///// SETUP CONTRACT//////////// / NOTE: Upgradable at the moment"
      },
      "noLossDeposit(address)": {
        "notice": "///////////////////////////////////////////////////////////////////////////////////////////////////////////// //// Deposit & withdraw function for users ////////// /////and proposal holders (benefactors) ///////////// /////////////////////////////////////////////////////"
      }
    }
  }
}