{
  "contractName": "PoolDeposits",
  "abi": [
    {
      "inputs": [
        {
          "internalType": "address",
          "name": "daiAddress",
          "type": "address"
        },
        {
          "internalType": "address",
          "name": "aDaiAddress",
          "type": "address"
        },
        {
          "internalType": "address",
          "name": "lendingPoolAddressProvider",
          "type": "address"
        },
        {
          "internalType": "address",
          "name": "noLossDaoAddress",
          "type": "address"
        },
        {
          "internalType": "uint256",
          "name": "_proposalAmount",
          "type": "uint256"
        }
      ],
      "payable": false,
      "stateMutability": "nonpayable",
      "type": "constructor"
    },
    {
      "anonymous": false,
      "inputs": [
        {
          "indexed": true,
          "internalType": "address",
          "name": "user",
          "type": "address"
        },
        {
          "indexed": false,
          "internalType": "uint256",
          "name": "amount",
          "type": "uint256"
        }
      ],
      "name": "DepositAdded",
      "type": "event"
    },
    {
      "anonymous": false,
      "inputs": [
        {
          "indexed": true,
          "internalType": "address",
          "name": "user",
          "type": "address"
        }
      ],
      "name": "DepositWithdrawn",
      "type": "event"
    },
    {
      "anonymous": false,
      "inputs": [
        {
          "indexed": true,
          "internalType": "address",
          "name": "user",
          "type": "address"
        },
        {
          "indexed": false,
          "internalType": "uint256",
          "name": "timeStamp",
          "type": "uint256"
        },
        {
          "indexed": false,
          "internalType": "uint256",
          "name": "totalDaiInContract",
          "type": "uint256"
        },
        {
          "indexed": false,
          "internalType": "uint256",
          "name": "totalEmergencyVotes",
          "type": "uint256"
        }
      ],
      "name": "EmergencyStateReached",
      "type": "event"
    },
    {
      "anonymous": false,
      "inputs": [
        {
          "indexed": true,
          "internalType": "address",
          "name": "user",
          "type": "address"
        },
        {
          "indexed": false,
          "internalType": "uint256",
          "name": "emergencyVoteAmount",
          "type": "uint256"
        }
      ],
      "name": "EmergencyVote",
      "type": "event"
    },
    {
      "anonymous": false,
      "inputs": [
        {
          "indexed": true,
          "internalType": "address",
          "name": "user",
          "type": "address"
        }
      ],
      "name": "EmergencyWithdrawl",
      "type": "event"
    },
    {
      "anonymous": false,
      "inputs": [
        {
          "indexed": true,
          "internalType": "address",
          "name": "user",
          "type": "address"
        },
        {
          "indexed": false,
          "internalType": "uint256",
          "name": "amount",
          "type": "uint256"
        },
        {
          "indexed": false,
          "internalType": "uint256",
          "name": "iteration",
          "type": "uint256"
        }
      ],
      "name": "InterestSent",
      "type": "event"
    },
    {
      "anonymous": false,
      "inputs": [
        {
          "indexed": true,
          "internalType": "address",
          "name": "benefactor",
          "type": "address"
        },
        {
          "indexed": true,
          "internalType": "uint256",
          "name": "proposalId",
          "type": "uint256"
        },
        {
          "indexed": false,
          "internalType": "string",
          "name": "proposalIdentifier",
          "type": "string"
        }
      ],
      "name": "ProposalAdded",
      "type": "event"
    },
    {
      "anonymous": false,
      "inputs": [
        {
          "indexed": true,
          "internalType": "address",
          "name": "benefactor",
          "type": "address"
        }
      ],
      "name": "ProposalWithdrawn",
      "type": "event"
    },
    {
      "anonymous": false,
      "inputs": [
        {
          "indexed": true,
          "internalType": "address",
          "name": "user",
          "type": "address"
        },
        {
          "indexed": false,
          "internalType": "uint256",
          "name": "emergencyVoteAmount",
          "type": "uint256"
        }
      ],
      "name": "RemoveEmergencyVote",
      "type": "event"
    },
    {
      "constant": true,
      "inputs": [],
      "name": "aaveLendingContract",
      "outputs": [
        {
          "internalType": "contract IAaveLendingPool",
          "name": "",
          "type": "address"
        }
      ],
      "payable": false,
      "stateMutability": "view",
      "type": "function"
    },
    {
      "constant": true,
      "inputs": [],
      "name": "aaveLendingContractCore",
      "outputs": [
        {
          "internalType": "address",
          "name": "",
          "type": "address"
        }
      ],
      "payable": false,
      "stateMutability": "view",
      "type": "function"
    },
    {
      "constant": true,
      "inputs": [],
      "name": "adaiContract",
      "outputs": [
        {
          "internalType": "contract IADai",
          "name": "",
          "type": "address"
        }
      ],
      "payable": false,
      "stateMutability": "view",
      "type": "function"
    },
    {
      "constant": true,
      "inputs": [],
      "name": "admin",
      "outputs": [
        {
          "internalType": "address",
          "name": "",
          "type": "address"
        }
      ],
      "payable": false,
      "stateMutability": "view",
      "type": "function"
    },
    {
      "constant": true,
      "inputs": [],
      "name": "daiContract",
      "outputs": [
        {
          "internalType": "contract IERC20",
          "name": "",
          "type": "address"
        }
      ],
      "payable": false,
      "stateMutability": "view",
      "type": "function"
    },
    {
      "constant": true,
      "inputs": [
        {
          "internalType": "address",
          "name": "",
          "type": "address"
        }
      ],
      "name": "depositedDai",
      "outputs": [
        {
          "internalType": "uint256",
          "name": "",
          "type": "uint256"
        }
      ],
      "payable": false,
      "stateMutability": "view",
      "type": "function"
    },
    {
      "constant": true,
      "inputs": [],
      "name": "emergencyVoteAmount",
      "outputs": [
        {
          "internalType": "uint256",
          "name": "",
          "type": "uint256"
        }
      ],
      "payable": false,
      "stateMutability": "view",
      "type": "function"
    },
    {
      "constant": true,
      "inputs": [
        {
          "internalType": "address",
          "name": "",
          "type": "address"
        }
      ],
      "name": "emergencyVoted",
      "outputs": [
        {
          "internalType": "bool",
          "name": "",
          "type": "bool"
        }
      ],
      "payable": false,
      "stateMutability": "view",
      "type": "function"
    },
    {
      "constant": true,
      "inputs": [],
      "name": "isEmergencyState",
      "outputs": [
        {
          "internalType": "bool",
          "name": "",
          "type": "bool"
        }
      ],
      "payable": false,
      "stateMutability": "view",
      "type": "function"
    },
    {
      "constant": true,
      "inputs": [],
      "name": "noLossDaoContract",
      "outputs": [
        {
          "internalType": "contract INoLossDao",
          "name": "",
          "type": "address"
        }
      ],
      "payable": false,
      "stateMutability": "view",
      "type": "function"
    },
    {
      "constant": true,
      "inputs": [],
      "name": "proposalAmount",
      "outputs": [
        {
          "internalType": "uint256",
          "name": "",
          "type": "uint256"
        }
      ],
      "payable": false,
      "stateMutability": "view",
      "type": "function"
    },
    {
      "constant": true,
      "inputs": [],
      "name": "provider",
      "outputs": [
        {
          "internalType": "contract ILendingPoolAddressesProvider",
          "name": "",
          "type": "address"
        }
      ],
      "payable": false,
      "stateMutability": "view",
      "type": "function"
    },
    {
      "constant": true,
      "inputs": [
        {
          "internalType": "address",
          "name": "",
          "type": "address"
        }
      ],
      "name": "timeJoined",
      "outputs": [
        {
          "internalType": "uint256",
          "name": "",
          "type": "uint256"
        }
      ],
      "payable": false,
      "stateMutability": "view",
      "type": "function"
    },
    {
      "constant": true,
      "inputs": [],
      "name": "totalDepositedDai",
      "outputs": [
        {
          "internalType": "uint256",
          "name": "",
          "type": "uint256"
        }
      ],
      "payable": false,
      "stateMutability": "view",
      "type": "function"
    },
    {
      "constant": false,
      "inputs": [
        {
          "internalType": "uint256",
          "name": "amount",
          "type": "uint256"
        }
      ],
      "name": "changeProposalAmount",
      "outputs": [],
      "payable": false,
      "stateMutability": "nonpayable",
      "type": "function"
    },
    {
      "constant": false,
      "inputs": [
        {
          "internalType": "uint256",
          "name": "amount",
          "type": "uint256"
        }
      ],
      "name": "deposit",
      "outputs": [],
      "payable": false,
      "stateMutability": "nonpayable",
      "type": "function"
    },
    {
      "constant": false,
      "inputs": [],
      "name": "withdrawDeposit",
      "outputs": [],
      "payable": false,
      "stateMutability": "nonpayable",
      "type": "function"
    },
    {
      "constant": false,
      "inputs": [
        {
          "internalType": "string",
          "name": "proposalIdentifier",
          "type": "string"
        }
      ],
      "name": "createProposal",
      "outputs": [
        {
          "internalType": "uint256",
          "name": "newProposalId",
          "type": "uint256"
        }
      ],
      "payable": false,
      "stateMutability": "nonpayable",
      "type": "function"
    },
    {
      "constant": false,
      "inputs": [],
      "name": "withdrawProposal",
      "outputs": [],
      "payable": false,
      "stateMutability": "nonpayable",
      "type": "function"
    },
    {
      "constant": false,
      "inputs": [
        {
          "internalType": "address[]",
          "name": "receivers",
          "type": "address[]"
        },
        {
          "internalType": "uint256[]",
          "name": "percentages",
          "type": "uint256[]"
        },
        {
          "internalType": "address",
          "name": "winner",
          "type": "address"
        },
        {
          "internalType": "uint256",
          "name": "iteration",
          "type": "uint256"
        }
      ],
      "name": "distributeInterest",
      "outputs": [],
      "payable": false,
      "stateMutability": "nonpayable",
      "type": "function"
    },
    {
      "constant": false,
      "inputs": [],
      "name": "declareStateOfEmergency",
      "outputs": [],
      "payable": false,
      "stateMutability": "nonpayable",
      "type": "function"
    },
    {
      "constant": false,
      "inputs": [],
      "name": "emergencyWithdraw",
      "outputs": [],
      "payable": false,
      "stateMutability": "nonpayable",
      "type": "function"
    },
    {
      "constant": false,
      "inputs": [],
      "name": "voteEmergency",
      "outputs": [],
      "payable": false,
      "stateMutability": "nonpayable",
      "type": "function"
    }
  ],
  "bytecode": "0x608060405234801561001057600080fd5b50604051611df0380380611df0833981810160405260a081101561003357600080fd5b508051602082015160408301516060840151608090940151600480546001600160a01b039586166001600160a01b031991821617909155600880549386169382169390931790925560068054938516938316939093179092556007805493909416928116929092179092556000805490911633179055600355600d805460ff19169055611d2b806100c56000396000f3fe608060405234801561001057600080fd5b506004361061014d5760003560e01c806360ee6829116100c3578063b6b55f251161007c578063b6b55f25146103be578063c68dc6ad146103db578063d1c22c3b146103e3578063db2e21bc146103eb578063dd989280146103f3578063f851a440146103fb5761014d565b806360ee68291461033d57806368608087146103635780636b38def21461036b578063715df4561461037357806382a0ca9c146103905780638cc6d535146103b65761014d565b806315064c961161011557806315064c96146101aa578063173a2b5c146101c65780632ce8b913146101ce5780632fda9d61146101d657806341297639146101fc57806349c2a1a6146102cd5761014d565b8063031cf1d914610152578063085d48831461015c57806308c0b4d2146101805780630dd4b7751461019a578063117df088146101a2575b600080fd5b61015a610403565b005b6101646104b1565b604080516001600160a01b039092168252519081900360200190f35b6101886104c0565b60408051918252519081900360200190f35b61015a6104c6565b61015a6105bd565b6101b26106c0565b604080519115158252519081900360200190f35b6101886106c9565b6101646106cf565b6101b2600480360360208110156101ec57600080fd5b50356001600160a01b03166106de565b61015a6004803603608081101561021257600080fd5b81019060208101813564010000000081111561022d57600080fd5b82018360208201111561023f57600080fd5b8035906020019184602083028401116401000000008311171561026157600080fd5b91939092909160208101903564010000000081111561027f57600080fd5b82018360208201111561029157600080fd5b803590602001918460208302840111640100000000831117156102b357600080fd5b91935091506001600160a01b0381351690602001356106f3565b610188600480360360208110156102e357600080fd5b8101906020810181356401000000008111156102fe57600080fd5b82018360208201111561031057600080fd5b8035906020019184600183028401116401000000008311171561033257600080fd5b509092509050610b62565b6101886004803603602081101561035357600080fd5b50356001600160a01b0316610edc565b61015a610eee565b61016461108a565b61015a6004803603602081101561038957600080fd5b5035611099565b610188600480360360208110156103a657600080fd5b50356001600160a01b03166110e7565b6101646110f9565b61015a600480360360208110156103d457600080fd5b5035611108565b610164611413565b610188611422565b61015a611428565b61016461150e565b61016461151d565b61040b61152c565b60075460408051636c89be9b60e01b815233600482015290516001600160a01b0390921691636c89be9b916024808201926020929091908290030181600087803b15801561045857600080fd5b505af115801561046c573d6000803e3d6000fd5b505050506040513d602081101561048257600080fd5b505060405133907fa5b08a9ecdbd5a58ad2cad96fbad20d1d2ee3924a737a6c305c389136ab2cf5590600090a2565b6008546001600160a01b031681565b600a5481565b600a546104da90600263ffffffff61165316565b600154106105195760405162461bcd60e51b8152600401808060200182810382526039815260200180611c496039913960400191505060405180910390fd5b692a5a058fc295ed000000600154116105635760405162461bcd60e51b8152600401808060200182810382526042815260200180611c826042913960600191505060405180910390fd5b600d805460ff1916600190811790915554600a54604080514281526020810193909352828101919091525133917f0f3f54623fdcb616cdd26971c35bdd757d232ca2d70d5b0f645f39204ec0dab7919081900360600190a2565b33600090815260026020526040902054610612576040805162461bcd60e51b81526020600482015260116024820152705573657220686173206e6f207374616b6560781b604482015290519081900360640190fd5b61061a61152c565b60075460408051634ad5938760e01b815233600482015290516001600160a01b0390921691634ad59387916024808201926020929091908290030181600087803b15801561066757600080fd5b505af115801561067b573d6000803e3d6000fd5b505050506040513d602081101561069157600080fd5b505060405133907f42a6eeb93f2df0023ef2e3a05d2f2e1b9969c57a110d5fb06ac87d5fb63506d690600090a2565b600d5460ff1681565b60035481565b6004546001600160a01b031681565b600b6020526000908152604090205460ff1681565b8585808060200260200160405190810160405280939291908181526020018383602002808284376000920191909152505060408051602080890282810182019093528882529093508892508791829185019084908082843760009201919091525050825184511491506107a89050576040805162461bcd60e51b8152602060048201526016602482015275125b9c1d5d081b195b99dd1a081b9bdd08195c5d585b60521b604482015290519081900360640190fd5b6007546001600160a01b031633146107f15760405162461bcd60e51b8152600401808060200182810382526033815260200180611cc46033913960400191505060405180910390fd5b600154600654604080516370a0823160e01b815230600482015290516000936108809390926001600160a01b03909116916370a0823191602480820192602092909190829003018186803b15801561084857600080fd5b505afa15801561085c573d6000803e3d6000fd5b505050506040513d602081101561087257600080fd5b50519063ffffffff6116b516565b6006546040805163db006a7560e01b81526004810184905290519293506001600160a01b039091169163db006a759160248082019260009290919082900301818387803b1580156108d057600080fd5b505af11580156108e4573d6000803e3d6000fd5b506103e8925060009150505b89811015610a725761091d89898381811061090757fe5b90506020020135836116b590919063ffffffff16565b915060006109586103e861094c8c8c8681811061093657fe5b905060200201358761165390919063ffffffff16565b9063ffffffff6116f716565b6004549091506001600160a01b031663a9059cbb8d8d8581811061097857fe5b905060200201356001600160a01b0316836040518363ffffffff1660e01b815260040180836001600160a01b03166001600160a01b0316815260200182815260200192505050602060405180830381600087803b1580156109d857600080fd5b505af11580156109ec573d6000803e3d6000fd5b505050506040513d6020811015610a0257600080fd5b508c90508b83818110610a1157fe5b905060200201356001600160a01b03166001600160a01b03167f9c519f8c3e0327df555365fe845098151a0599784748ec268bd18bcd0be935428289604051808381526020018281526020019250505060405180910390a2506001016108f0565b506000610a8b6103e861094c858563ffffffff61165316565b600480546040805163a9059cbb60e01b81526001600160a01b038c81169482019490945260248101859052905193945091169163a9059cbb916044808201926020929091908290030181600087803b158015610ae657600080fd5b505af1158015610afa573d6000803e3d6000fd5b505050506040513d6020811015610b1057600080fd5b5050604080518281526020810188905281516001600160a01b038a16927f9c519f8c3e0327df555365fe845098151a0599784748ec268bd18bcd0be93542928290030190a25050505050505050505050565b3360009081526002602052604081205415610bbf576040805162461bcd60e51b81526020600482015260186024820152772832b939b7b71034b99030b63932b0b23c9030903ab9b2b960411b604482015290519081900360640190fd5b6003546004805460408051636eb1769f60e11b81523393810193909352306024840152516001600160a01b039091169163dd62ed3e916044808301926020929190829003018186803b158015610c1457600080fd5b505afa158015610c28573d6000803e3d6000fd5b505050506040513d6020811015610c3e57600080fd5b5051811115610c8b576040805162461bcd60e51b8152602060048201526014602482015273616d6f756e74206e6f7420617661696c61626c6560601b604482015290519081900360640190fd5b60035460048054604080516370a0823160e01b815233938101939093525183926001600160a01b03909216916370a08231916024808301926020929190829003018186803b158015610cdc57600080fd5b505afa158015610cf0573d6000803e3d6000fd5b505050506040513d6020811015610d0657600080fd5b50511015610d5b576040805162461bcd60e51b815260206004820152601d60248201527f5573657220646f6573206e6f74206861766520656e6f75676820444149000000604482015290519081900360640190fd5b600d5460ff1615610db3576040805162461bcd60e51b815260206004820152601b60248201527f5374617465206f6620656d657267656e6379206465636c617265640000000000604482015290519081900360640190fd5b610dbe600354611739565b60075460408051630375672b60e21b8152336024820181905260048201928352604482018890526000936001600160a01b031692630dd59cac928a928a9290918190606401858580828437600081840152601f19601f820116905080830192505050945050505050602060405180830381600087803b158015610e4057600080fd5b505af1158015610e54573d6000803e3d6000fd5b505050506040513d6020811015610e6a57600080fd5b50516040805160208082528101889052919250829133917fc07acef038b6eb78641fd29d4d916bc1178a913d8950f162fb46f38a4f3aa4b8918a918a919081908101848480828437600083820152604051601f909101601f19169092018290039550909350505050a395945050505050565b600c6020526000908152604090205481565b33600090815260026020526040902054610f43576040805162461bcd60e51b81526020600482015260116024820152705573657220686173206e6f207374616b6560781b604482015290519081900360640190fd5b336000908152600b602052604090205460ff1615610fa8576040805162461bcd60e51b815260206004820152601b60248201527f416c726561647920766f74656420666f7220656d657267656e63790000000000604482015290519081900360640190fd5b336000908152600c60205260409020544290610fcd906283d60063ffffffff611a0816565b106110095760405162461bcd60e51b8152600401808060200182810382526034815260200180611bf46034913960400191505060405180910390fd5b336000908152600b60209081526040808320805460ff191660011790556002909152902054600a546110409163ffffffff611a0816565b600a553360008181526002602090815260409182902054825190815291517f67456ecf663e39ee91395a0f29a28e22bdccf5e2d3ca7760ebd48d04f46ea1909281900390910190a2565b6006546001600160a01b031681565b6007546001600160a01b031633146110e25760405162461bcd60e51b8152600401808060200182810382526033815260200180611cc46033913960400191505060405180910390fd5b600355565b60026020526000908152604090205481565b6009546001600160a01b031681565b3360009081526002602052604090205415611165576040805162461bcd60e51b81526020600482015260186024820152772832b939b7b71034b99030b63932b0b23c9030903ab9b2b960411b604482015290519081900360640190fd5b6004805460408051636eb1769f60e11b815233938101939093523060248401525183926001600160a01b039092169163dd62ed3e916044808301926020929190829003018186803b1580156111b957600080fd5b505afa1580156111cd573d6000803e3d6000fd5b505050506040513d60208110156111e357600080fd5b5051811115611230576040805162461bcd60e51b8152602060048201526014602482015273616d6f756e74206e6f7420617661696c61626c6560601b604482015290519081900360640190fd5b60048054604080516370a0823160e01b8152339381019390935251849283926001600160a01b0316916370a0823191602480820192602092909190829003018186803b15801561127f57600080fd5b505afa158015611293573d6000803e3d6000fd5b505050506040513d60208110156112a957600080fd5b505110156112fe576040805162461bcd60e51b815260206004820152601d60248201527f5573657220646f6573206e6f74206861766520656e6f75676820444149000000604482015290519081900360640190fd5b600d5460ff1615611356576040805162461bcd60e51b815260206004820152601b60248201527f5374617465206f6620656d657267656e6379206465636c617265640000000000604482015290519081900360640190fd5b61135f83611739565b60075460408051631869ce7160e11b815233600482015290516001600160a01b03909216916330d39ce2916024808201926020929091908290030181600087803b1580156113ac57600080fd5b505af11580156113c0573d6000803e3d6000fd5b505050506040513d60208110156113d657600080fd5b505060408051848152905133917fa2a2db73af12c9f5bef6303364d44e78f97e992c353cd8659f3474c471427e9b919081900360200190a2505050565b6005546001600160a01b031681565b60015481565b3360009081526002602052604090205461147d576040805162461bcd60e51b81526020600482015260116024820152705573657220686173206e6f207374616b6560781b604482015290519081900360640190fd5b600d5460ff1615156001146114d9576040805162461bcd60e51b815260206004820152601f60248201527f5374617465206f6620656d657267656e6379206e6f74206465636c6172656400604482015290519081900360640190fd5b6114e161152c565b60405133907fd0d41202ba4822463690c8ef7bf93fb1cbfa4e3a8ae767bb53473227f00ce0ce90600090a2565b6007546001600160a01b031681565b6000546001600160a01b031681565b33600090815260026020526040902054611544611a62565b33600090815260026020526040812055600154611567908263ffffffff6116b516565b6001556006546040805163db006a7560e01b81526004810184905290516001600160a01b039092169163db006a759160248082019260009290919082900301818387803b1580156115b757600080fd5b505af11580156115cb573d6000803e3d6000fd5b5050600480546040805163a9059cbb60e01b8152339381019390935260248301869052516001600160a01b03909116935063a9059cbb925060448083019260209291908290030181600087803b15801561162457600080fd5b505af1158015611638573d6000803e3d6000fd5b505050506040513d602081101561164e57600080fd5b505050565b600082611662575060006116af565b8282028284828161166f57fe5b04146116ac5760405162461bcd60e51b8152600401808060200182810382526021815260200180611c286021913960400191505060405180910390fd5b90505b92915050565b60006116ac83836040518060400160405280601e81526020017f536166654d6174683a207375627472616374696f6e206f766572666c6f770000815250611af7565b60006116ac83836040518060400160405280601a81526020017f536166654d6174683a206469766973696f6e206279207a65726f000000000000815250611b8e565b600860009054906101000a90046001600160a01b03166001600160a01b0316630261bf8b6040518163ffffffff1660e01b815260040160206040518083038186803b15801561178757600080fd5b505afa15801561179b573d6000803e3d6000fd5b505050506040513d60208110156117b157600080fd5b5051600580546001600160a01b0319166001600160a01b039283161790556008546040805163076b7fbb60e51b81529051919092169163ed6ff760916004808301926020929190829003018186803b15801561180c57600080fd5b505afa158015611820573d6000803e3d6000fd5b505050506040513d602081101561183657600080fd5b5051600980546001600160a01b0319166001600160a01b0392831617905560048054604080516323b872dd60e01b8152339381019390935230602484015260448301859052519216916323b872dd916064808201926020929091908290030181600087803b1580156118a757600080fd5b505af11580156118bb573d6000803e3d6000fd5b505050506040513d60208110156118d157600080fd5b5050600480546009546040805163095ea7b360e01b81526001600160a01b0392831694810194909452602484018590525191169163095ea7b39160448083019260209291908290030181600087803b15801561192c57600080fd5b505af1158015611940573d6000803e3d6000fd5b505050506040513d602081101561195657600080fd5b50506005546004805460408051636968703360e11b81526001600160a01b039283169381019390935260248301859052601e60448401525192169163d2d0e0669160648082019260009290919082900301818387803b1580156119b857600080fd5b505af11580156119cc573d6000803e3d6000fd5b5050336000908152600c60209081526040808320429055600290915290208390555050600154611a02908263ffffffff611a0816565b60015550565b6000828201838110156116ac576040805162461bcd60e51b815260206004820152601b60248201527f536166654d6174683a206164646974696f6e206f766572666c6f770000000000604482015290519081900360640190fd5b336000908152600b60205260409020805460ff19811690915560ff1680151560011415611af45733600090815260026020526040902054600a54611aab9163ffffffff6116b516565b600a553360008181526002602090815260409182902054825190815291517f75c449b77058efd7ed4f75aeb787832819a662ad0e1bd629167dd550205122559281900390910190a25b50565b60008184841115611b865760405162461bcd60e51b81526004018080602001828103825283818151815260200191508051906020019080838360005b83811015611b4b578181015183820152602001611b33565b50505050905090810190601f168015611b785780820380516001836020036101000a031916815260200191505b509250505060405180910390fd5b505050900390565b60008183611bdd5760405162461bcd60e51b8152602060048201818152835160248401528351909283926044909101919085019080838360008315611b4b578181015183820152602001611b33565b506000838581611be957fe5b049594505050505056fe4e65656420746f2068617665206a6f696e656420666f72203130306461797320746f20766f746520616e20656d657267656e6379536166654d6174683a206d756c7469706c69636174696f6e206f766572666c6f77353025206f6620746f74616c20706f6f6c206e6565647320746f206861766520766f74656420666f7220656d657267656e63792073746174653230302030303044414920726571756972656420696e20706f6f6c206265666f726520656d657267656e63792073746174652063616e206265206465636c6172656466756e6374696f6e2063616e206f6e6c792062652063616c6c6564206279206e6f204c6f73732044616f20636f6e7472616374a265627a7a723158201ca521342dd6dc1feca01a5cbb7917476c235af4e4d8658366058fd10b70772664736f6c634300050f0032",
  "source": "pragma solidity 0.5.15;\n\nimport './interfaces/IAaveLendingPool.sol';\nimport './interfaces/IADai.sol';\nimport './interfaces/INoLossDao.sol';\nimport './interfaces/ILendingPoolAddressesProvider.sol';\nimport '@openzeppelin/contracts-ethereum-package/contracts/math/SafeMath.sol';\nimport '@nomiclabs/buidler/console.sol';\n\n\n/** @title Pooled Deposits Contract*/\ncontract PoolDeposits {\n  using SafeMath for uint256;\n\n  address public admin;\n  uint256 public totalDepositedDai;\n  mapping(address => uint256) public depositedDai;\n\n  uint256 public proposalAmount; // Stake required to submit a proposal\n\n  ///////// DEFI Contrcats ///////////\n  IERC20 public daiContract;\n  IAaveLendingPool public aaveLendingContract;\n  IADai public adaiContract;\n  INoLossDao public noLossDaoContract; // should we be able to change this as admin.\n  ILendingPoolAddressesProvider public provider;\n  address public aaveLendingContractCore;\n\n  //////// EMERGENCY MODULE ONLY ///////\n  uint256 public emergencyVoteAmount;\n  mapping(address => bool) public emergencyVoted;\n  mapping(address => uint256) public timeJoined;\n  bool public isEmergencyState;\n\n  ///////// Events ///////////\n  event DepositAdded(address indexed user, uint256 amount);\n  event ProposalAdded(\n    address indexed benefactor,\n    uint256 indexed proposalId,\n    string proposalIdentifier\n  );\n  event DepositWithdrawn(address indexed user);\n  event ProposalWithdrawn(address indexed benefactor);\n  event InterestSent(address indexed user, uint256 amount, uint256 iteration);\n\n  ///////// Emergency Events ///////////\n  event EmergencyStateReached(\n    address indexed user,\n    uint256 timeStamp,\n    uint256 totalDaiInContract,\n    uint256 totalEmergencyVotes\n  );\n  event EmergencyVote(address indexed user, uint256 emergencyVoteAmount);\n  event RemoveEmergencyVote(address indexed user, uint256 emergencyVoteAmount);\n  event EmergencyWithdrawl(address indexed user);\n\n  ///////////////////////////////////////////////////////////////////\n  //////// EMERGENCY MODIFIERS //////////////////////////////////////\n  ///////////////////////////////////////////////////////////////////\n  modifier emergencyEnacted() {\n    require(\n      totalDepositedDai < emergencyVoteAmount.mul(2), //safe 50%\n      '50% of total pool needs to have voted for emergency state'\n    );\n    require(\n      totalDepositedDai > 200000000000000000000000, //200 000 DAI needed in contract\n      '200 000DAI required in pool before emergency state can be declared'\n    );\n    _;\n  }\n  modifier noEmergencyVoteYet() {\n    require(emergencyVoted[msg.sender] == false, 'Already voted for emergency');\n    _;\n  }\n  modifier stableState() {\n    require(isEmergencyState == false, 'State of emergency declared');\n    _;\n  }\n  modifier emergencyState() {\n    require(isEmergencyState == true, 'State of emergency not declared');\n    _;\n  }\n  // Required to be part of the pool for 100 days. Make it costly to borrow and put into state of emergency.\n  modifier eligibleToEmergencyVote() {\n    require(\n      timeJoined[msg.sender].add(8640000) < now,\n      'Need to have joined for 100days to vote an emergency'\n    );\n    _;\n  }\n  ////////////////////////////////////////////////////////////////////////\n\n  ////////////////////////////////////\n  //////// Modifiers /////////////////\n  ////////////////////////////////////\n  modifier noLossDaoContractOnly() {\n    require(\n      address(noLossDaoContract) == msg.sender, // Is this a valid way of getting the address?\n      'function can only be called by no Loss Dao contract'\n    );\n    _;\n  }\n\n  modifier allowanceAvailable(uint256 amount) {\n    require(\n      amount <= daiContract.allowance(msg.sender, address(this)), // checking the pool deposits contract\n      'amount not available'\n    );\n    _;\n  }\n\n  modifier requiredDai(uint256 amount) {\n    require(\n      daiContract.balanceOf(msg.sender) >= amount,\n      'User does not have enough DAI'\n    );\n    _;\n  }\n\n  modifier blankUser() {\n    require(depositedDai[msg.sender] == 0, 'Person is already a user');\n    _;\n  }\n\n  modifier userStaked() {\n    require(depositedDai[msg.sender] > 0, 'User has no stake');\n    _;\n  }\n\n  modifier validInterestSplitInput(\n    address[] memory addresses,\n    uint256[] memory percentages\n  ) {\n    require(addresses.length == percentages.length, 'Input length not equal');\n    _;\n  }\n\n  /***************\n    Contract set-up: Not Upgradaable\n    ***************/\n  constructor(\n    address daiAddress,\n    address aDaiAddress,\n    // lendingPoolAddressProvider should be one of below depending on deployment\n    // kovan 0x506B0B2CF20FAA8f38a4E2B524EE43e1f4458Cc5\n    // mainnet 0x24a42fD28C976A61Df5D00D0599C34c4f90748c8\n    address lendingPoolAddressProvider,\n    address noLossDaoAddress,\n    uint256 _proposalAmount\n  ) public {\n    daiContract = IERC20(daiAddress);\n    provider = ILendingPoolAddressesProvider(lendingPoolAddressProvider);\n    adaiContract = IADai(aDaiAddress);\n    noLossDaoContract = INoLossDao(noLossDaoAddress);\n    admin = msg.sender;\n    proposalAmount = _proposalAmount; // if we want this configurable put in other contract\n    isEmergencyState = false;\n  }\n\n  /// @dev allows the proposalAmount (amount proposal has to stake to enter the pool) to be configurable\n  /// @param amount new proposalAmount\n  function changeProposalAmount(uint256 amount) external noLossDaoContractOnly {\n    proposalAmount = amount;\n  }\n\n  /// @dev Internal function completing the actual deposit to Aave and crediting users account\n  /// @param amount amount being deosited into pool\n  function _depositFunds(uint256 amount) internal {\n    aaveLendingContract = IAaveLendingPool(provider.getLendingPool());\n    aaveLendingContractCore = provider.getLendingPoolCore();\n\n    daiContract.transferFrom(msg.sender, address(this), amount);\n    daiContract.approve(aaveLendingContractCore, amount);\n    aaveLendingContract.deposit(address(daiContract), amount, 30);\n\n    timeJoined[msg.sender] = now;\n    depositedDai[msg.sender] = amount;\n    totalDepositedDai = totalDepositedDai.add(amount);\n  }\n\n  /// @dev Internal function completing the actual redemption from Aave and sendinding funds back to user\n  function _withdrawFunds() internal {\n    uint256 amount = depositedDai[msg.sender];\n    _removeEmergencyVote();\n\n    depositedDai[msg.sender] = 0;\n    totalDepositedDai = totalDepositedDai.sub(amount);\n\n    adaiContract.redeem(amount);\n    daiContract.transfer(msg.sender, amount);\n  }\n\n  /// @dev Lets a user join DAOcare through depositing\n  /// @param amount the user wants to deposit into the DAOcare pool\n  function deposit(uint256 amount)\n    external\n    blankUser\n    allowanceAvailable(amount)\n    requiredDai(amount)\n    stableState\n  {\n    _depositFunds(amount);\n    noLossDaoContract.noLossDeposit(msg.sender);\n    emit DepositAdded(msg.sender, amount);\n  }\n\n  /// @dev Lets a user withdraw their original amount sent to DAOcare\n  /// Calls the NoLossDao conrrtact to determine eligibility to withdraw\n  /// Withdraws the proposalAmount (50DAI) if succesful\n  function withdrawDeposit() external userStaked {\n    _withdrawFunds();\n    noLossDaoContract.noLossWithdraw(msg.sender);\n    emit DepositWithdrawn(msg.sender);\n  }\n\n  /// @dev Lets user create proposal\n  /// @param proposalIdentifier hash of the users new proposal\n  function createProposal(string calldata proposalIdentifier)\n    external\n    blankUser\n    allowanceAvailable(proposalAmount)\n    requiredDai(proposalAmount)\n    stableState\n    returns (uint256 newProposalId)\n  {\n    _depositFunds(proposalAmount);\n    uint256 proposalId = noLossDaoContract.noLossCreateProposal(\n      proposalIdentifier,\n      msg.sender\n    );\n    emit ProposalAdded(msg.sender, proposalId, proposalIdentifier);\n    return proposalId;\n  }\n\n  /// @dev Lets user withdraw proposal\n  function withdrawProposal() external {\n    _withdrawFunds();\n    noLossDaoContract.noLossWithdrawProposal(msg.sender);\n    emit ProposalWithdrawn(msg.sender);\n  }\n\n  /// @dev Splits the accrued interest between winners.\n  /// @param receivers An array of the addresses to split between\n  /// @param percentages the respective percentage to split\n  function distributeInterest(\n    address[] calldata receivers,\n    uint256[] calldata percentages,\n    address winner,\n    uint256 iteration\n  )\n    external\n    validInterestSplitInput(receivers, percentages)\n    noLossDaoContractOnly\n  {\n    uint256 amountToRedeem = adaiContract.balanceOf(address(this)).sub(\n      totalDepositedDai\n    );\n    adaiContract.redeem(amountToRedeem);\n\n    uint256 percentageWinner = 1000;\n    for (uint256 i = 0; i < receivers.length; i++) {\n      percentageWinner = percentageWinner.sub(percentages[i]); //SafeMath prevents this going below 0\n      uint256 amountToSend = amountToRedeem.mul(percentages[i]).div(1000);\n      daiContract.transfer(receivers[i], amountToSend);\n      emit InterestSent(receivers[i], amountToSend, iteration);\n    }\n\n    uint256 amountToSendToWinner = amountToRedeem.mul(percentageWinner).div(\n      1000\n    );\n    daiContract.transfer(winner, amountToSendToWinner);\n    emit InterestSent(winner, amountToSendToWinner, iteration);\n  }\n\n  //////////////////////////////////////////////////\n  //////// EMERGENCY MODULE FUNCTIONS  //////////////\n  ///////////////////////////////////////////////////\n\n  /// @dev Declares a state of emergency and enables emergency withdrawls that are not dependant on any external smart contracts\n  function declareStateOfEmergency() external emergencyEnacted {\n    isEmergencyState = true;\n    emit EmergencyStateReached(\n      msg.sender,\n      now,\n      totalDepositedDai,\n      emergencyVoteAmount\n    );\n  }\n\n  /// @dev Immediately lets yoou withdraw your funds in an state of emergency\n  function emergencyWithdraw() external userStaked emergencyState {\n    _withdrawFunds();\n    emit EmergencyWithdrawl(msg.sender);\n  }\n\n  /// @dev lets users vote that the a state of emergency should be decalred\n  /// Requires time lock here to defeat flash loan punks\n  function voteEmergency()\n    external\n    userStaked\n    noEmergencyVoteYet\n    eligibleToEmergencyVote\n  {\n    emergencyVoted[msg.sender] = true;\n    emergencyVoteAmount = emergencyVoteAmount.add(depositedDai[msg.sender]);\n    emit EmergencyVote(msg.sender, depositedDai[msg.sender]);\n  }\n\n  /// @dev Internal function removing a users emergency vote if they leave the pool\n  function _removeEmergencyVote() internal {\n    bool status = emergencyVoted[msg.sender];\n    emergencyVoted[msg.sender] = false;\n    if (status == true) {\n      emergencyVoteAmount = emergencyVoteAmount.sub(depositedDai[msg.sender]);\n      emit RemoveEmergencyVote(msg.sender, depositedDai[msg.sender]);\n    }\n  }\n}\n",
  "sourcePath": "/home/jonjon/code/daocare/app/contracts/contracts/PoolDeposits.sol",
  "compiler": {
    "name": "solc",
    "version": "0.5.15+commit.6a57276f.Emscripten.clang"
  },
  "schemaVersion": "3.0.23",
  "updatedAt": "2020-05-13T11:55:13.006Z",
  "networkType": "ethereum",
  "devdoc": {
    "methods": {
      "changeProposalAmount(uint256)": {
        "details": "allows the proposalAmount (amount proposal has to stake to enter the pool) to be configurable",
        "params": {
          "amount": "new proposalAmount"
        }
      },
      "createProposal(string)": {
        "details": "Lets user create proposal",
        "params": {
          "proposalIdentifier": "hash of the users new proposal"
        }
      },
      "declareStateOfEmergency()": {
        "details": "Declares a state of emergency and enables emergency withdrawls that are not dependant on any external smart contracts"
      },
      "deposit(uint256)": {
        "details": "Lets a user join DAOcare through depositing",
        "params": {
          "amount": "the user wants to deposit into the DAOcare pool"
        }
      },
      "distributeInterest(address[],uint256[],address,uint256)": {
        "details": "Splits the accrued interest between winners.",
        "params": {
          "percentages": "the respective percentage to split",
          "receivers": "An array of the addresses to split between"
        }
      },
      "emergencyWithdraw()": {
        "details": "Immediately lets yoou withdraw your funds in an state of emergency"
      },
      "voteEmergency()": {
        "details": "lets users vote that the a state of emergency should be decalred Requires time lock here to defeat flash loan punks"
      },
      "withdrawDeposit()": {
        "details": "Lets a user withdraw their original amount sent to DAOcare Calls the NoLossDao conrrtact to determine eligibility to withdraw Withdraws the proposalAmount (50DAI) if succesful"
      },
      "withdrawProposal()": {
        "details": "Lets user withdraw proposal"
      }
    },
    "title": "Pooled Deposits Contract"
  },
  "userdoc": {
    "methods": {
      "constructor": "************* Contract set-up: Not Upgradaable**************",
      "declareStateOfEmergency()": {
        "notice": "/////////////////////////////////////////////// ///// EMERGENCY MODULE FUNCTIONS  ////////////// ////////////////////////////////////////////////"
      }
    }
  }
}