{
  "contractName": "PoolDeposits",
  "abi": [
    {
      "inputs": [
        {
          "internalType": "address",
          "name": "daiAddress",
          "type": "address"
        },
        {
          "internalType": "address",
          "name": "aDaiAddress",
          "type": "address"
        },
        {
          "internalType": "address",
          "name": "lendingPoolAddressProvider",
          "type": "address"
        },
        {
          "internalType": "address",
          "name": "noLossDaoAddress",
          "type": "address"
        },
        {
          "internalType": "uint256",
          "name": "_proposalAmount",
          "type": "uint256"
        }
      ],
      "payable": false,
      "stateMutability": "nonpayable",
      "type": "constructor"
    },
    {
      "anonymous": false,
      "inputs": [
        {
          "indexed": true,
          "internalType": "address",
          "name": "user",
          "type": "address"
        },
        {
          "indexed": false,
          "internalType": "uint256",
          "name": "amount",
          "type": "uint256"
        }
      ],
      "name": "DepositAdded",
      "type": "event"
    },
    {
      "anonymous": false,
      "inputs": [
        {
          "indexed": true,
          "internalType": "address",
          "name": "user",
          "type": "address"
        }
      ],
      "name": "DepositWithdrawn",
      "type": "event"
    },
    {
      "anonymous": false,
      "inputs": [
        {
          "indexed": true,
          "internalType": "address",
          "name": "user",
          "type": "address"
        },
        {
          "indexed": false,
          "internalType": "uint256",
          "name": "timeStamp",
          "type": "uint256"
        },
        {
          "indexed": false,
          "internalType": "uint256",
          "name": "totalDaiInContract",
          "type": "uint256"
        },
        {
          "indexed": false,
          "internalType": "uint256",
          "name": "totalEmergencyVotes",
          "type": "uint256"
        }
      ],
      "name": "EmergencyStateReached",
      "type": "event"
    },
    {
      "anonymous": false,
      "inputs": [
        {
          "indexed": true,
          "internalType": "address",
          "name": "user",
          "type": "address"
        },
        {
          "indexed": false,
          "internalType": "uint256",
          "name": "emergencyVoteAmount",
          "type": "uint256"
        }
      ],
      "name": "EmergencyVote",
      "type": "event"
    },
    {
      "anonymous": false,
      "inputs": [
        {
          "indexed": true,
          "internalType": "address",
          "name": "user",
          "type": "address"
        }
      ],
      "name": "EmergencyWithdrawl",
      "type": "event"
    },
    {
      "anonymous": false,
      "inputs": [
        {
          "indexed": true,
          "internalType": "address",
          "name": "benefactor",
          "type": "address"
        },
        {
          "indexed": true,
          "internalType": "uint256",
          "name": "proposalId",
          "type": "uint256"
        },
        {
          "indexed": false,
          "internalType": "string",
          "name": "proposalHash",
          "type": "string"
        }
      ],
      "name": "ProposalAdded",
      "type": "event"
    },
    {
      "anonymous": false,
      "inputs": [
        {
          "indexed": true,
          "internalType": "address",
          "name": "benefactor",
          "type": "address"
        }
      ],
      "name": "ProposalWithdrawn",
      "type": "event"
    },
    {
      "anonymous": false,
      "inputs": [
        {
          "indexed": true,
          "internalType": "address",
          "name": "user",
          "type": "address"
        },
        {
          "indexed": false,
          "internalType": "uint256",
          "name": "emergencyVoteAmount",
          "type": "uint256"
        }
      ],
      "name": "RemoveEmergencyVote",
      "type": "event"
    },
    {
      "constant": true,
      "inputs": [],
      "name": "aaveLendingContract",
      "outputs": [
        {
          "internalType": "contract IAaveLendingPool",
          "name": "",
          "type": "address"
        }
      ],
      "payable": false,
      "stateMutability": "view",
      "type": "function"
    },
    {
      "constant": true,
      "inputs": [],
      "name": "aaveLendingContractCore",
      "outputs": [
        {
          "internalType": "address",
          "name": "",
          "type": "address"
        }
      ],
      "payable": false,
      "stateMutability": "view",
      "type": "function"
    },
    {
      "constant": true,
      "inputs": [],
      "name": "adaiContract",
      "outputs": [
        {
          "internalType": "contract IADai",
          "name": "",
          "type": "address"
        }
      ],
      "payable": false,
      "stateMutability": "view",
      "type": "function"
    },
    {
      "constant": true,
      "inputs": [],
      "name": "admin",
      "outputs": [
        {
          "internalType": "address",
          "name": "",
          "type": "address"
        }
      ],
      "payable": false,
      "stateMutability": "view",
      "type": "function"
    },
    {
      "constant": true,
      "inputs": [],
      "name": "daiContract",
      "outputs": [
        {
          "internalType": "contract IERC20",
          "name": "",
          "type": "address"
        }
      ],
      "payable": false,
      "stateMutability": "view",
      "type": "function"
    },
    {
      "constant": true,
      "inputs": [
        {
          "internalType": "address",
          "name": "",
          "type": "address"
        }
      ],
      "name": "depositedDai",
      "outputs": [
        {
          "internalType": "uint256",
          "name": "",
          "type": "uint256"
        }
      ],
      "payable": false,
      "stateMutability": "view",
      "type": "function"
    },
    {
      "constant": true,
      "inputs": [],
      "name": "emergencyVoteAmount",
      "outputs": [
        {
          "internalType": "uint256",
          "name": "",
          "type": "uint256"
        }
      ],
      "payable": false,
      "stateMutability": "view",
      "type": "function"
    },
    {
      "constant": true,
      "inputs": [
        {
          "internalType": "address",
          "name": "",
          "type": "address"
        }
      ],
      "name": "emergencyVoted",
      "outputs": [
        {
          "internalType": "bool",
          "name": "",
          "type": "bool"
        }
      ],
      "payable": false,
      "stateMutability": "view",
      "type": "function"
    },
    {
      "constant": true,
      "inputs": [],
      "name": "isEmergencyState",
      "outputs": [
        {
          "internalType": "bool",
          "name": "",
          "type": "bool"
        }
      ],
      "payable": false,
      "stateMutability": "view",
      "type": "function"
    },
    {
      "constant": true,
      "inputs": [],
      "name": "noLossDaoContract",
      "outputs": [
        {
          "internalType": "contract INoLossDao",
          "name": "",
          "type": "address"
        }
      ],
      "payable": false,
      "stateMutability": "view",
      "type": "function"
    },
    {
      "constant": true,
      "inputs": [],
      "name": "proposalAmount",
      "outputs": [
        {
          "internalType": "uint256",
          "name": "",
          "type": "uint256"
        }
      ],
      "payable": false,
      "stateMutability": "view",
      "type": "function"
    },
    {
      "constant": true,
      "inputs": [],
      "name": "provider",
      "outputs": [
        {
          "internalType": "contract ILendingPoolAddressesProvider",
          "name": "",
          "type": "address"
        }
      ],
      "payable": false,
      "stateMutability": "view",
      "type": "function"
    },
    {
      "constant": true,
      "inputs": [
        {
          "internalType": "address",
          "name": "",
          "type": "address"
        }
      ],
      "name": "timeJoined",
      "outputs": [
        {
          "internalType": "uint256",
          "name": "",
          "type": "uint256"
        }
      ],
      "payable": false,
      "stateMutability": "view",
      "type": "function"
    },
    {
      "constant": true,
      "inputs": [],
      "name": "totalDepositedDai",
      "outputs": [
        {
          "internalType": "uint256",
          "name": "",
          "type": "uint256"
        }
      ],
      "payable": false,
      "stateMutability": "view",
      "type": "function"
    },
    {
      "constant": false,
      "inputs": [
        {
          "internalType": "uint256",
          "name": "amount",
          "type": "uint256"
        }
      ],
      "name": "deposit",
      "outputs": [],
      "payable": false,
      "stateMutability": "nonpayable",
      "type": "function"
    },
    {
      "constant": false,
      "inputs": [],
      "name": "withdrawDeposit",
      "outputs": [],
      "payable": false,
      "stateMutability": "nonpayable",
      "type": "function"
    },
    {
      "constant": false,
      "inputs": [
        {
          "internalType": "string",
          "name": "proposalHash",
          "type": "string"
        }
      ],
      "name": "createProposal",
      "outputs": [
        {
          "internalType": "uint256",
          "name": "newProposalId",
          "type": "uint256"
        }
      ],
      "payable": false,
      "stateMutability": "nonpayable",
      "type": "function"
    },
    {
      "constant": false,
      "inputs": [],
      "name": "withdrawProposal",
      "outputs": [],
      "payable": false,
      "stateMutability": "nonpayable",
      "type": "function"
    },
    {
      "constant": false,
      "inputs": [
        {
          "internalType": "address",
          "name": "_winner",
          "type": "address"
        }
      ],
      "name": "redirectInterestStreamToWinner",
      "outputs": [],
      "payable": false,
      "stateMutability": "nonpayable",
      "type": "function"
    },
    {
      "constant": false,
      "inputs": [],
      "name": "declareStateOfEmergency",
      "outputs": [],
      "payable": false,
      "stateMutability": "nonpayable",
      "type": "function"
    },
    {
      "constant": false,
      "inputs": [],
      "name": "emergencyWithdraw",
      "outputs": [],
      "payable": false,
      "stateMutability": "nonpayable",
      "type": "function"
    },
    {
      "constant": false,
      "inputs": [],
      "name": "voteEmergency",
      "outputs": [],
      "payable": false,
      "stateMutability": "nonpayable",
      "type": "function"
    }
  ],
  "bytecode": "0x608060405234801561001057600080fd5b506040516117ef3803806117ef833981810160405260a081101561003357600080fd5b508051602082015160408301516060840151608090940151600480546001600160a01b039586166001600160a01b031991821617909155600880549386169382169390931790925560068054938516938316939093179092556007805493909416928116929092179092556000805490911633179055600355600d805460ff1916905561172a806100c56000396000f3fe608060405234801561001057600080fd5b50600436106101425760003560e01c806368608087116100b8578063b6b55f251161007c578063b6b55f25146102eb578063c68dc6ad14610308578063d1c22c3b14610310578063db2e21bc14610318578063dd98928014610320578063f851a4401461032857610142565b806368608087146102875780636b38def21461028f57806382a0ca9c146102975780638cc6d535146102bd5780639904a02d146102c557610142565b806315064c961161010a57806315064c961461019f578063173a2b5c146101bb5780632ce8b913146101c35780632fda9d61146101cb57806349c2a1a6146101f157806360ee68291461026157610142565b8063031cf1d914610147578063085d48831461015157806308c0b4d2146101755780630dd4b7751461018f578063117df08814610197575b600080fd5b61014f610330565b005b6101596103de565b604080516001600160a01b039092168252519081900360200190f35b61017d6103ed565b60408051918252519081900360200190f35b61014f6103f3565b61014f6104ea565b6101a76105ed565b604080519115158252519081900360200190f35b61017d6105f6565b6101596105fc565b6101a7600480360360208110156101e157600080fd5b50356001600160a01b031661060b565b61017d6004803603602081101561020757600080fd5b81019060208101813564010000000081111561022257600080fd5b82018360208201111561023457600080fd5b8035906020019184600183028401116401000000008311171561025657600080fd5b509092509050610620565b61017d6004803603602081101561027757600080fd5b50356001600160a01b031661099a565b61014f6109ac565b610159610b48565b61017d600480360360208110156102ad57600080fd5b50356001600160a01b0316610b57565b610159610b69565b61014f600480360360208110156102db57600080fd5b50356001600160a01b0316610b78565b61014f6004803603602081101561030157600080fd5b5035610c2a565b610159610f35565b61017d610f44565b61014f610f4a565b610159611030565b61015961103f565b61033861104e565b60075460408051636c89be9b60e01b815233600482015290516001600160a01b0390921691636c89be9b916024808201926020929091908290030181600087803b15801561038557600080fd5b505af1158015610399573d6000803e3d6000fd5b505050506040513d60208110156103af57600080fd5b505060405133907fa5b08a9ecdbd5a58ad2cad96fbad20d1d2ee3924a737a6c305c389136ab2cf5590600090a2565b6008546001600160a01b031681565b600a5481565b600a5461040790600263ffffffff61117516565b600154106104465760405162461bcd60e51b81526004018080602001828103825260398152602001806116486039913960400191505060405180910390fd5b692a5a058fc295ed000000600154116104905760405162461bcd60e51b81526004018080602001828103825260428152602001806116816042913960600191505060405180910390fd5b600d805460ff1916600190811790915554600a54604080514281526020810193909352828101919091525133917f0f3f54623fdcb616cdd26971c35bdd757d232ca2d70d5b0f645f39204ec0dab7919081900360600190a2565b3360009081526002602052604090205461053f576040805162461bcd60e51b81526020600482015260116024820152705573657220686173206e6f207374616b6560781b604482015290519081900360640190fd5b61054761104e565b60075460408051634ad5938760e01b815233600482015290516001600160a01b0390921691634ad59387916024808201926020929091908290030181600087803b15801561059457600080fd5b505af11580156105a8573d6000803e3d6000fd5b505050506040513d60208110156105be57600080fd5b505060405133907f42a6eeb93f2df0023ef2e3a05d2f2e1b9969c57a110d5fb06ac87d5fb63506d690600090a2565b600d5460ff1681565b60035481565b6004546001600160a01b031681565b600b6020526000908152604090205460ff1681565b336000908152600260205260408120541561067d576040805162461bcd60e51b81526020600482015260186024820152772832b939b7b71034b99030b63932b0b23c9030903ab9b2b960411b604482015290519081900360640190fd5b6003546004805460408051636eb1769f60e11b81523393810193909352306024840152516001600160a01b039091169163dd62ed3e916044808301926020929190829003018186803b1580156106d257600080fd5b505afa1580156106e6573d6000803e3d6000fd5b505050506040513d60208110156106fc57600080fd5b5051811115610749576040805162461bcd60e51b8152602060048201526014602482015273616d6f756e74206e6f7420617661696c61626c6560601b604482015290519081900360640190fd5b60035460048054604080516370a0823160e01b815233938101939093525183926001600160a01b03909216916370a08231916024808301926020929190829003018186803b15801561079a57600080fd5b505afa1580156107ae573d6000803e3d6000fd5b505050506040513d60208110156107c457600080fd5b50511015610819576040805162461bcd60e51b815260206004820152601d60248201527f5573657220646f6573206e6f74206861766520656e6f75676820444149000000604482015290519081900360640190fd5b600d5460ff1615610871576040805162461bcd60e51b815260206004820152601b60248201527f5374617465206f6620656d657267656e6379206465636c617265640000000000604482015290519081900360640190fd5b61087c6003546111d7565b60075460408051630375672b60e21b8152336024820181905260048201928352604482018890526000936001600160a01b031692630dd59cac928a928a9290918190606401858580828437600081840152601f19601f820116905080830192505050945050505050602060405180830381600087803b1580156108fe57600080fd5b505af1158015610912573d6000803e3d6000fd5b505050506040513d602081101561092857600080fd5b50516040805160208082528101889052919250829133917fc07acef038b6eb78641fd29d4d916bc1178a913d8950f162fb46f38a4f3aa4b8918a918a919081908101848480828437600083820152604051601f909101601f19169092018290039550909350505050a395945050505050565b600c6020526000908152604090205481565b33600090815260026020526040902054610a01576040805162461bcd60e51b81526020600482015260116024820152705573657220686173206e6f207374616b6560781b604482015290519081900360640190fd5b336000908152600b602052604090205460ff1615610a66576040805162461bcd60e51b815260206004820152601b60248201527f416c726561647920766f74656420666f7220656d657267656e63790000000000604482015290519081900360640190fd5b336000908152600c60205260409020544290610a8b906283d60063ffffffff6114a616565b10610ac75760405162461bcd60e51b81526004018080602001828103825260348152602001806115f36034913960400191505060405180910390fd5b336000908152600b60209081526040808320805460ff191660011790556002909152902054600a54610afe9163ffffffff6114a616565b600a553360008181526002602090815260409182902054825190815291517f67456ecf663e39ee91395a0f29a28e22bdccf5e2d3ca7760ebd48d04f46ea1909281900390910190a2565b6006546001600160a01b031681565b60026020526000908152604090205481565b6009546001600160a01b031681565b6007546001600160a01b03163314610bc15760405162461bcd60e51b81526004018080602001828103825260338152602001806116c36033913960400191505060405180910390fd5b60065460408051630e49072d60e01b81526001600160a01b03848116600483015291519190921691630e49072d91602480830192600092919082900301818387803b158015610c0f57600080fd5b505af1158015610c23573d6000803e3d6000fd5b5050505050565b3360009081526002602052604090205415610c87576040805162461bcd60e51b81526020600482015260186024820152772832b939b7b71034b99030b63932b0b23c9030903ab9b2b960411b604482015290519081900360640190fd5b6004805460408051636eb1769f60e11b815233938101939093523060248401525183926001600160a01b039092169163dd62ed3e916044808301926020929190829003018186803b158015610cdb57600080fd5b505afa158015610cef573d6000803e3d6000fd5b505050506040513d6020811015610d0557600080fd5b5051811115610d52576040805162461bcd60e51b8152602060048201526014602482015273616d6f756e74206e6f7420617661696c61626c6560601b604482015290519081900360640190fd5b60048054604080516370a0823160e01b8152339381019390935251849283926001600160a01b0316916370a0823191602480820192602092909190829003018186803b158015610da157600080fd5b505afa158015610db5573d6000803e3d6000fd5b505050506040513d6020811015610dcb57600080fd5b50511015610e20576040805162461bcd60e51b815260206004820152601d60248201527f5573657220646f6573206e6f74206861766520656e6f75676820444149000000604482015290519081900360640190fd5b600d5460ff1615610e78576040805162461bcd60e51b815260206004820152601b60248201527f5374617465206f6620656d657267656e6379206465636c617265640000000000604482015290519081900360640190fd5b610e81836111d7565b60075460408051631869ce7160e11b815233600482015290516001600160a01b03909216916330d39ce2916024808201926020929091908290030181600087803b158015610ece57600080fd5b505af1158015610ee2573d6000803e3d6000fd5b505050506040513d6020811015610ef857600080fd5b505060408051848152905133917fa2a2db73af12c9f5bef6303364d44e78f97e992c353cd8659f3474c471427e9b919081900360200190a2505050565b6005546001600160a01b031681565b60015481565b33600090815260026020526040902054610f9f576040805162461bcd60e51b81526020600482015260116024820152705573657220686173206e6f207374616b6560781b604482015290519081900360640190fd5b600d5460ff161515600114610ffb576040805162461bcd60e51b815260206004820152601f60248201527f5374617465206f6620656d657267656e6379206e6f74206465636c6172656400604482015290519081900360640190fd5b61100361104e565b60405133907fd0d41202ba4822463690c8ef7bf93fb1cbfa4e3a8ae767bb53473227f00ce0ce90600090a2565b6007546001600160a01b031681565b6000546001600160a01b031681565b33600090815260026020526040902054611066611500565b33600090815260026020526040812055600154611089908263ffffffff61159516565b6001556006546040805163db006a7560e01b81526004810184905290516001600160a01b039092169163db006a759160248082019260009290919082900301818387803b1580156110d957600080fd5b505af11580156110ed573d6000803e3d6000fd5b5050600480546040805163a9059cbb60e01b8152339381019390935260248301869052516001600160a01b03909116935063a9059cbb925060448083019260209291908290030181600087803b15801561114657600080fd5b505af115801561115a573d6000803e3d6000fd5b505050506040513d602081101561117057600080fd5b505050565b600082611184575060006111d1565b8282028284828161119157fe5b04146111ce5760405162461bcd60e51b81526004018080602001828103825260218152602001806116276021913960400191505060405180910390fd5b90505b92915050565b600860009054906101000a90046001600160a01b03166001600160a01b0316630261bf8b6040518163ffffffff1660e01b815260040160206040518083038186803b15801561122557600080fd5b505afa158015611239573d6000803e3d6000fd5b505050506040513d602081101561124f57600080fd5b5051600580546001600160a01b0319166001600160a01b039283161790556008546040805163076b7fbb60e51b81529051919092169163ed6ff760916004808301926020929190829003018186803b1580156112aa57600080fd5b505afa1580156112be573d6000803e3d6000fd5b505050506040513d60208110156112d457600080fd5b5051600980546001600160a01b0319166001600160a01b0392831617905560048054604080516323b872dd60e01b8152339381019390935230602484015260448301859052519216916323b872dd916064808201926020929091908290030181600087803b15801561134557600080fd5b505af1158015611359573d6000803e3d6000fd5b505050506040513d602081101561136f57600080fd5b5050600480546009546040805163095ea7b360e01b81526001600160a01b0392831694810194909452602484018590525191169163095ea7b39160448083019260209291908290030181600087803b1580156113ca57600080fd5b505af11580156113de573d6000803e3d6000fd5b505050506040513d60208110156113f457600080fd5b50506005546004805460408051636968703360e11b81526001600160a01b039283169381019390935260248301859052601e60448401525192169163d2d0e0669160648082019260009290919082900301818387803b15801561145657600080fd5b505af115801561146a573d6000803e3d6000fd5b5050336000908152600c602090815260408083204290556002909152902083905550506001546114a0908263ffffffff6114a616565b60015550565b6000828201838110156111ce576040805162461bcd60e51b815260206004820152601b60248201527f536166654d6174683a206164646974696f6e206f766572666c6f770000000000604482015290519081900360640190fd5b336000908152600b60205260409020805460ff19811690915560ff16801515600114156115925733600090815260026020526040902054600a546115499163ffffffff61159516565b600a553360008181526002602090815260409182902054825190815291517f75c449b77058efd7ed4f75aeb787832819a662ad0e1bd629167dd550205122559281900390910190a25b50565b6000828211156115ec576040805162461bcd60e51b815260206004820152601e60248201527f536166654d6174683a207375627472616374696f6e206f766572666c6f770000604482015290519081900360640190fd5b5090039056fe4e65656420746f2068617665206a6f696e656420666f72203130306461797320746f20766f746520616e20656d657267656e6379536166654d6174683a206d756c7469706c69636174696f6e206f766572666c6f77353025206f6620746f74616c20706f6f6c206e6565647320746f206861766520766f74656420666f7220656d657267656e63792073746174653230302030303044414920726571756972656420696e20706f6f6c206265666f726520656d657267656e63792073746174652063616e206265206465636c6172656466756e6374696f6e2063616e206f6e6c792062652063616c6c6564206279206e6f204c6f73732044616f20636f6e7472616374a265627a7a723158202548fdd141f30914ecbc35400c7b67cf198568952359bf5b0bb22137e3633a9464736f6c634300050f0032",
  "source": "pragma solidity 0.5.15;\n\n//import './interfaces/IERC20.sol';\nimport './interfaces/IAaveLendingPool.sol';\nimport './interfaces/IADai.sol';\nimport './interfaces/INoLossDao.sol';\nimport './interfaces/ILendingPoolAddressesProvider.sol';\nimport '@openzeppelin/contracts-ethereum-package/contracts/token/ERC20/ERC20.sol';\nimport '@nomiclabs/buidler/console.sol';\n\n\n/** @title Pooled Deposits Contract*/\ncontract PoolDeposits {\n  using SafeMath for uint256;\n\n  address public admin;\n  uint256 public totalDepositedDai;\n  mapping(address => uint256) public depositedDai;\n\n  uint256 public proposalAmount; // Stake required to submit a proposal\n\n  ///////// DEFI Contrcats ///////////\n  IERC20 public daiContract;\n  IAaveLendingPool public aaveLendingContract;\n  IADai public adaiContract;\n  INoLossDao public noLossDaoContract; // should we be able to change this as admin.\n  ILendingPoolAddressesProvider public provider;\n  address public aaveLendingContractCore;\n\n  //////// EMERGENCY MODULE ONLY ///////\n  uint256 public emergencyVoteAmount;\n  mapping(address => bool) public emergencyVoted;\n  mapping(address => uint256) public timeJoined;\n  bool public isEmergencyState;\n\n  ///////// Events ///////////\n  event DepositAdded(address indexed user, uint256 amount);\n  event ProposalAdded(\n    address indexed benefactor,\n    uint256 indexed proposalId,\n    string proposalHash\n  );\n  event DepositWithdrawn(address indexed user);\n  event ProposalWithdrawn(address indexed benefactor);\n\n  ///////// Emergency Events ///////////\n  event EmergencyStateReached(\n    address indexed user,\n    uint256 timeStamp,\n    uint256 totalDaiInContract,\n    uint256 totalEmergencyVotes\n  );\n  event EmergencyVote(address indexed user, uint256 emergencyVoteAmount);\n  event RemoveEmergencyVote(address indexed user, uint256 emergencyVoteAmount);\n  event EmergencyWithdrawl(address indexed user);\n\n  ///////////////////////////////////////////////////////////////////\n  //////// EMERGENCY MODIFIERS //////////////////////////////////////\n  ///////////////////////////////////////////////////////////////////\n  modifier emergencyEnacted() {\n    require(\n      totalDepositedDai < emergencyVoteAmount.mul(2), //safe 50%\n      '50% of total pool needs to have voted for emergency state'\n    );\n    require(\n      totalDepositedDai > 200000000000000000000000, //200 000 DAI needed in contract\n      '200 000DAI required in pool before emergency state can be declared'\n    );\n    _;\n  }\n  modifier noEmergencyVoteYet() {\n    require(emergencyVoted[msg.sender] == false, 'Already voted for emergency');\n    _;\n  }\n  modifier stableState() {\n    require(isEmergencyState == false, 'State of emergency declared');\n    _;\n  }\n  modifier emergencyState() {\n    require(isEmergencyState == true, 'State of emergency not declared');\n    _;\n  }\n  // Required to be part of the pool for 100 days. Make it costly to borrow and put into state of emergency.\n  modifier eligibleToEmergencyVote() {\n    require(\n      timeJoined[msg.sender].add(8640000) < now,\n      'Need to have joined for 100days to vote an emergency'\n    );\n    _;\n  }\n  ////////////////////////////////////////////////////////////////////////\n\n  ////////////////////////////////////\n  //////// Modifiers /////////////////\n  ////////////////////////////////////\n  modifier noLossDaoContractOnly() {\n    require(\n      address(noLossDaoContract) == msg.sender, // Is this a valid way of getting the address?\n      'function can only be called by no Loss Dao contract'\n    );\n    _;\n  }\n\n  modifier allowanceAvailable(uint256 amount) {\n    require(\n      amount <= daiContract.allowance(msg.sender, address(this)), // checking the pool deposits contract\n      'amount not available'\n    );\n    _;\n  }\n\n  modifier requiredDai(uint256 amount) {\n    require(\n      daiContract.balanceOf(msg.sender) >= amount,\n      'User does not have enough DAI'\n    );\n    _;\n  }\n\n  modifier blankUser() {\n    require(depositedDai[msg.sender] == 0, 'Person is already a user');\n    _;\n  }\n\n  modifier userStaked() {\n    require(depositedDai[msg.sender] > 0, 'User has no stake');\n    _;\n  }\n\n  /***************\n    Contract set-up: Not Upgradaable\n    ***************/\n  constructor(\n    address daiAddress,\n    address aDaiAddress,\n    // lendingPoolAddressProvider should be one of below depending on deployment\n    // kovan 0x506B0B2CF20FAA8f38a4E2B524EE43e1f4458Cc5\n    // mainnet 0x24a42fD28C976A61Df5D00D0599C34c4f90748c8\n    address lendingPoolAddressProvider,\n    address noLossDaoAddress,\n    uint256 _proposalAmount\n  ) public {\n    daiContract = IERC20(daiAddress);\n    provider = ILendingPoolAddressesProvider(lendingPoolAddressProvider);\n    adaiContract = IADai(aDaiAddress);\n    noLossDaoContract = INoLossDao(noLossDaoAddress);\n    admin = msg.sender;\n    proposalAmount = _proposalAmount; // if we want this configurable put in other contract\n    isEmergencyState = false;\n  }\n\n  /// @dev Internal function completing the actual deposit to Aave and crediting users account\n  /// @param amount amount being deosited into pool\n  function _depositFunds(uint256 amount) internal {\n    aaveLendingContract = IAaveLendingPool(provider.getLendingPool());\n    aaveLendingContractCore = provider.getLendingPoolCore();\n\n    daiContract.transferFrom(msg.sender, address(this), amount);\n    daiContract.approve(aaveLendingContractCore, amount);\n    aaveLendingContract.deposit(address(daiContract), amount, 30);\n\n    timeJoined[msg.sender] = now;\n    depositedDai[msg.sender] = amount;\n    totalDepositedDai = totalDepositedDai.add(amount);\n  }\n\n  /// @dev Internal function completing the actual redemption from Aave and sendinding funds back to user\n  function _withdrawFunds() internal {\n    uint256 amount = depositedDai[msg.sender];\n    _removeEmergencyVote();\n\n    depositedDai[msg.sender] = 0;\n    totalDepositedDai = totalDepositedDai.sub(amount);\n\n    adaiContract.redeem(amount);\n    daiContract.transfer(msg.sender, amount);\n  }\n\n  /// @dev Lets a user join DAOcare through depositing\n  /// @param amount the user wants to deposit into the DAOcare pool\n  function deposit(uint256 amount)\n    external\n    blankUser\n    allowanceAvailable(amount)\n    requiredDai(amount)\n    stableState\n  {\n    _depositFunds(amount);\n    noLossDaoContract.noLossDeposit(msg.sender);\n    emit DepositAdded(msg.sender, amount);\n  }\n\n  /// @dev Lets a user withdraw their original amount sent to DAOcare\n  /// Calls the NoLossDao conrrtact to determine eligibility to withdraw\n  /// Withdraws the proposalAmount (50DAI) if succesful\n  function withdrawDeposit() external userStaked {\n    _withdrawFunds();\n    noLossDaoContract.noLossWithdraw(msg.sender);\n    emit DepositWithdrawn(msg.sender);\n  }\n\n  /// @dev Lets user create proposal\n  /// @param proposalHash hash of the users new proposal\n  function createProposal(string calldata proposalHash)\n    external\n    blankUser\n    allowanceAvailable(proposalAmount)\n    requiredDai(proposalAmount)\n    stableState\n    returns (uint256 newProposalId)\n  {\n    _depositFunds(proposalAmount);\n    uint256 proposalId = noLossDaoContract.noLossCreateProposal(\n      proposalHash,\n      msg.sender\n    );\n    emit ProposalAdded(msg.sender, proposalId, proposalHash);\n    return proposalId;\n  }\n\n  /// @dev Lets user withdraw proposal\n  function withdrawProposal() external {\n    _withdrawFunds();\n    noLossDaoContract.noLossWithdrawProposal(msg.sender);\n    emit ProposalWithdrawn(msg.sender);\n  }\n\n  /// @dev Sets the interest to acrue to winner of the iteration\n  /// @param _winner The address of the proposal winning the iteration\n  function redirectInterestStreamToWinner(address _winner)\n    external\n    noLossDaoContractOnly\n  {\n    adaiContract.redirectInterestStream(_winner);\n  }\n\n  //////////////////////////////////////////////////\n  //////// EMERGENCY MODULE FUNCTIONS  //////////////\n  ///////////////////////////////////////////////////\n\n  /// @dev Declares a state of emergency and enables emergency withdrawls that are not dependant on any external smart contracts\n  function declareStateOfEmergency() external emergencyEnacted {\n    isEmergencyState = true;\n    emit EmergencyStateReached(\n      msg.sender,\n      now,\n      totalDepositedDai,\n      emergencyVoteAmount\n    );\n  }\n\n  /// @dev Immediately lets yoou withdraw your funds in an state of emergency\n  function emergencyWithdraw() external userStaked emergencyState {\n    _withdrawFunds();\n    emit EmergencyWithdrawl(msg.sender);\n  }\n\n  /// @dev lets users vote that the a state of emergency should be decalred\n  /// Requires time lock here to defeat flash loan punks\n  function voteEmergency()\n    external\n    userStaked\n    noEmergencyVoteYet\n    eligibleToEmergencyVote\n  {\n    emergencyVoted[msg.sender] = true;\n    emergencyVoteAmount = emergencyVoteAmount.add(depositedDai[msg.sender]);\n    emit EmergencyVote(msg.sender, depositedDai[msg.sender]);\n  }\n\n  /// @dev Internal function removing a users emergency vote if they leave the pool\n  function _removeEmergencyVote() internal {\n    bool status = emergencyVoted[msg.sender];\n    emergencyVoted[msg.sender] = false;\n    if (status == true) {\n      emergencyVoteAmount = emergencyVoteAmount.sub(depositedDai[msg.sender]);\n      emit RemoveEmergencyVote(msg.sender, depositedDai[msg.sender]);\n    }\n  }\n}\n",
  "sourcePath": "/home/jonjon/code/daocare/app/contracts/contracts/PoolDeposits.sol",
  "compiler": {
    "name": "solc",
    "version": "0.5.15+commit.6a57276f.Emscripten.clang"
  },
  "schemaVersion": "3.0.23",
  "updatedAt": "2020-04-07T12:28:20.668Z",
  "networkType": "ethereum",
  "devdoc": {
    "methods": {
      "createProposal(string)": {
        "details": "Lets user create proposal",
        "params": {
          "proposalHash": "hash of the users new proposal"
        }
      },
      "declareStateOfEmergency()": {
        "details": "Declares a state of emergency and enables emergency withdrawls that are not dependant on any external smart contracts"
      },
      "deposit(uint256)": {
        "details": "Lets a user join DAOcare through depositing",
        "params": {
          "amount": "the user wants to deposit into the DAOcare pool"
        }
      },
      "emergencyWithdraw()": {
        "details": "Immediately lets yoou withdraw your funds in an state of emergency"
      },
      "redirectInterestStreamToWinner(address)": {
        "details": "Sets the interest to acrue to winner of the iteration",
        "params": {
          "_winner": "The address of the proposal winning the iteration"
        }
      },
      "voteEmergency()": {
        "details": "lets users vote that the a state of emergency should be decalred Requires time lock here to defeat flash loan punks"
      },
      "withdrawDeposit()": {
        "details": "Lets a user withdraw their original amount sent to DAOcare Calls the NoLossDao conrrtact to determine eligibility to withdraw Withdraws the proposalAmount (50DAI) if succesful"
      },
      "withdrawProposal()": {
        "details": "Lets user withdraw proposal"
      }
    },
    "title": "Pooled Deposits Contract"
  },
  "userdoc": {
    "methods": {
      "constructor": "************* Contract set-up: Not Upgradaable**************",
      "declareStateOfEmergency()": {
        "notice": "/////////////////////////////////////////////// ///// EMERGENCY MODULE FUNCTIONS  ////////////// ////////////////////////////////////////////////"
      }
    }
  }
}