{
  "contractName": "PoolDeposits",
  "abi": [
    {
      "inputs": [
        {
          "internalType": "address",
          "name": "daiAddress",
          "type": "address"
        },
        {
          "internalType": "address",
          "name": "aDaiAddress",
          "type": "address"
        },
        {
          "internalType": "address",
          "name": "aavePoolAddress",
          "type": "address"
        },
        {
          "internalType": "address",
          "name": "aavePoolCoreAddress",
          "type": "address"
        },
        {
          "internalType": "address",
          "name": "noLossDaoAddress",
          "type": "address"
        },
        {
          "internalType": "uint256",
          "name": "_proposalAmount",
          "type": "uint256"
        }
      ],
      "payable": false,
      "stateMutability": "nonpayable",
      "type": "constructor"
    },
    {
      "anonymous": false,
      "inputs": [
        {
          "indexed": true,
          "internalType": "address",
          "name": "user",
          "type": "address"
        },
        {
          "indexed": false,
          "internalType": "uint256",
          "name": "amount",
          "type": "uint256"
        }
      ],
      "name": "DepositAdded",
      "type": "event"
    },
    {
      "anonymous": false,
      "inputs": [
        {
          "indexed": true,
          "internalType": "address",
          "name": "user",
          "type": "address"
        }
      ],
      "name": "DepositWithdrawn",
      "type": "event"
    },
    {
      "anonymous": false,
      "inputs": [
        {
          "indexed": true,
          "internalType": "address",
          "name": "user",
          "type": "address"
        },
        {
          "indexed": false,
          "internalType": "uint256",
          "name": "timeStamp",
          "type": "uint256"
        },
        {
          "indexed": false,
          "internalType": "uint256",
          "name": "totalDaiInContract",
          "type": "uint256"
        },
        {
          "indexed": false,
          "internalType": "uint256",
          "name": "totalEmergencyVotes",
          "type": "uint256"
        }
      ],
      "name": "EmergencyStateReached",
      "type": "event"
    },
    {
      "anonymous": false,
      "inputs": [
        {
          "indexed": true,
          "internalType": "address",
          "name": "user",
          "type": "address"
        },
        {
          "indexed": false,
          "internalType": "uint256",
          "name": "emergencyVoteAmount",
          "type": "uint256"
        }
      ],
      "name": "EmergencyVote",
      "type": "event"
    },
    {
      "anonymous": false,
      "inputs": [
        {
          "indexed": true,
          "internalType": "address",
          "name": "user",
          "type": "address"
        }
      ],
      "name": "EmergencyWithdrawl",
      "type": "event"
    },
    {
      "anonymous": false,
      "inputs": [
        {
          "indexed": true,
          "internalType": "address",
          "name": "benefactor",
          "type": "address"
        },
        {
          "indexed": true,
          "internalType": "uint256",
          "name": "proposalId",
          "type": "uint256"
        },
        {
          "indexed": true,
          "internalType": "string",
          "name": "proposalHash",
          "type": "string"
        }
      ],
      "name": "ProposalAdded",
      "type": "event"
    },
    {
      "anonymous": false,
      "inputs": [
        {
          "indexed": true,
          "internalType": "address",
          "name": "benefactor",
          "type": "address"
        }
      ],
      "name": "ProposalWithdrawn",
      "type": "event"
    },
    {
      "anonymous": false,
      "inputs": [
        {
          "indexed": true,
          "internalType": "address",
          "name": "user",
          "type": "address"
        },
        {
          "indexed": false,
          "internalType": "uint256",
          "name": "emergencyVoteAmount",
          "type": "uint256"
        }
      ],
      "name": "RemoveEmergencyVote",
      "type": "event"
    },
    {
      "constant": true,
      "inputs": [],
      "name": "aaveLendingContract",
      "outputs": [
        {
          "internalType": "contract IAaveLendingPool",
          "name": "",
          "type": "address"
        }
      ],
      "payable": false,
      "stateMutability": "view",
      "type": "function"
    },
    {
      "constant": true,
      "inputs": [],
      "name": "aaveLendingContractCore",
      "outputs": [
        {
          "internalType": "address",
          "name": "",
          "type": "address"
        }
      ],
      "payable": false,
      "stateMutability": "view",
      "type": "function"
    },
    {
      "constant": true,
      "inputs": [],
      "name": "adaiContract",
      "outputs": [
        {
          "internalType": "contract IADai",
          "name": "",
          "type": "address"
        }
      ],
      "payable": false,
      "stateMutability": "view",
      "type": "function"
    },
    {
      "constant": true,
      "inputs": [],
      "name": "admin",
      "outputs": [
        {
          "internalType": "address",
          "name": "",
          "type": "address"
        }
      ],
      "payable": false,
      "stateMutability": "view",
      "type": "function"
    },
    {
      "constant": true,
      "inputs": [],
      "name": "daiContract",
      "outputs": [
        {
          "internalType": "contract IERC20",
          "name": "",
          "type": "address"
        }
      ],
      "payable": false,
      "stateMutability": "view",
      "type": "function"
    },
    {
      "constant": true,
      "inputs": [
        {
          "internalType": "address",
          "name": "",
          "type": "address"
        }
      ],
      "name": "depositedDai",
      "outputs": [
        {
          "internalType": "uint256",
          "name": "",
          "type": "uint256"
        }
      ],
      "payable": false,
      "stateMutability": "view",
      "type": "function"
    },
    {
      "constant": true,
      "inputs": [],
      "name": "emergencyVoteAmount",
      "outputs": [
        {
          "internalType": "uint256",
          "name": "",
          "type": "uint256"
        }
      ],
      "payable": false,
      "stateMutability": "view",
      "type": "function"
    },
    {
      "constant": true,
      "inputs": [
        {
          "internalType": "address",
          "name": "",
          "type": "address"
        }
      ],
      "name": "emergencyVoted",
      "outputs": [
        {
          "internalType": "bool",
          "name": "",
          "type": "bool"
        }
      ],
      "payable": false,
      "stateMutability": "view",
      "type": "function"
    },
    {
      "constant": true,
      "inputs": [],
      "name": "isEmergencyState",
      "outputs": [
        {
          "internalType": "bool",
          "name": "",
          "type": "bool"
        }
      ],
      "payable": false,
      "stateMutability": "view",
      "type": "function"
    },
    {
      "constant": true,
      "inputs": [],
      "name": "noLossDaoContract",
      "outputs": [
        {
          "internalType": "contract INoLossDao",
          "name": "",
          "type": "address"
        }
      ],
      "payable": false,
      "stateMutability": "view",
      "type": "function"
    },
    {
      "constant": true,
      "inputs": [],
      "name": "proposalAmount",
      "outputs": [
        {
          "internalType": "uint256",
          "name": "",
          "type": "uint256"
        }
      ],
      "payable": false,
      "stateMutability": "view",
      "type": "function"
    },
    {
      "constant": true,
      "inputs": [
        {
          "internalType": "address",
          "name": "",
          "type": "address"
        }
      ],
      "name": "timeJoined",
      "outputs": [
        {
          "internalType": "uint256",
          "name": "",
          "type": "uint256"
        }
      ],
      "payable": false,
      "stateMutability": "view",
      "type": "function"
    },
    {
      "constant": true,
      "inputs": [],
      "name": "totalDepositedDai",
      "outputs": [
        {
          "internalType": "uint256",
          "name": "",
          "type": "uint256"
        }
      ],
      "payable": false,
      "stateMutability": "view",
      "type": "function"
    },
    {
      "constant": false,
      "inputs": [
        {
          "internalType": "uint256",
          "name": "amount",
          "type": "uint256"
        }
      ],
      "name": "deposit",
      "outputs": [],
      "payable": false,
      "stateMutability": "nonpayable",
      "type": "function"
    },
    {
      "constant": false,
      "inputs": [],
      "name": "withdrawDeposit",
      "outputs": [],
      "payable": false,
      "stateMutability": "nonpayable",
      "type": "function"
    },
    {
      "constant": false,
      "inputs": [
        {
          "internalType": "string",
          "name": "proposalHash",
          "type": "string"
        }
      ],
      "name": "createProposal",
      "outputs": [
        {
          "internalType": "uint256",
          "name": "newProposalId",
          "type": "uint256"
        }
      ],
      "payable": false,
      "stateMutability": "nonpayable",
      "type": "function"
    },
    {
      "constant": false,
      "inputs": [],
      "name": "withdrawProposal",
      "outputs": [],
      "payable": false,
      "stateMutability": "nonpayable",
      "type": "function"
    },
    {
      "constant": false,
      "inputs": [
        {
          "internalType": "address",
          "name": "_winner",
          "type": "address"
        }
      ],
      "name": "redirectInterestStreamToWinner",
      "outputs": [],
      "payable": false,
      "stateMutability": "nonpayable",
      "type": "function"
    },
    {
      "constant": false,
      "inputs": [],
      "name": "declareStateOfEmergency",
      "outputs": [],
      "payable": false,
      "stateMutability": "nonpayable",
      "type": "function"
    },
    {
      "constant": false,
      "inputs": [],
      "name": "emergencyWithdraw",
      "outputs": [],
      "payable": false,
      "stateMutability": "nonpayable",
      "type": "function"
    },
    {
      "constant": false,
      "inputs": [],
      "name": "voteEmergency",
      "outputs": [],
      "payable": false,
      "stateMutability": "nonpayable",
      "type": "function"
    }
  ],
  "bytecode": "0x608060405234801561001057600080fd5b50604051611729380380611729833981810160405260c081101561003357600080fd5b508051602082015160408301516060840151608085015160a090950151600480546001600160a01b039687166001600160a01b03199182161790915560058054948716948216949094179093556006805494861694841694909417909355600880549185169183169190911790556007805493909416928116929092179092556000805490911633179055600355600c805460ff1916905561164f806100da6000396000f3fe608060405234801561001057600080fd5b50600436106101375760003560e01c806368608087116100b8578063b6b55f251161007c578063b6b55f25146102d8578063c68dc6ad146102f5578063d1c22c3b146102fd578063db2e21bc14610305578063dd9892801461030d578063f851a4401461031557610137565b806368608087146102745780636b38def21461027c57806382a0ca9c146102845780638cc6d535146102aa5780639904a02d146102b257610137565b8063173a2b5c116100ff578063173a2b5c1461018c5780632ce8b913146101945780632fda9d61146101b857806349c2a1a6146101de57806360ee68291461024e57610137565b8063031cf1d91461013c57806308c0b4d2146101465780630dd4b77514610160578063117df0881461016857806315064c9614610170575b600080fd5b61014461031d565b005b61014e6103cb565b60408051918252519081900360200190f35b6101446103d1565b6101446104c8565b6101786105cb565b604080519115158252519081900360200190f35b61014e6105d4565b61019c6105da565b604080516001600160a01b039092168252519081900360200190f35b610178600480360360208110156101ce57600080fd5b50356001600160a01b03166105e9565b61014e600480360360208110156101f457600080fd5b81019060208101813564010000000081111561020f57600080fd5b82018360208201111561022157600080fd5b8035906020019184600183028401116401000000008311171561024357600080fd5b5090925090506105fe565b61014e6004803603602081101561026457600080fd5b50356001600160a01b031661095b565b61014461096d565b61019c610b09565b61014e6004803603602081101561029a57600080fd5b50356001600160a01b0316610b18565b61019c610b2a565b610144600480360360208110156102c857600080fd5b50356001600160a01b0316610b39565b610144600480360360208110156102ee57600080fd5b5035610beb565b61019c610ef6565b61014e610f05565b610144610f0b565b61019c610ff1565b61019c611000565b61032561100f565b60075460408051636c89be9b60e01b815233600482015290516001600160a01b0390921691636c89be9b916024808201926020929091908290030181600087803b15801561037257600080fd5b505af1158015610386573d6000803e3d6000fd5b505050506040513d602081101561039c57600080fd5b505060405133907fa5b08a9ecdbd5a58ad2cad96fbad20d1d2ee3924a737a6c305c389136ab2cf5590600090a2565b60095481565b6009546103e590600263ffffffff61113616565b600154106104245760405162461bcd60e51b815260040180806020018281038252603981526020018061156d6039913960400191505060405180910390fd5b692a5a058fc295ed0000006001541161046e5760405162461bcd60e51b81526004018080602001828103825260428152602001806115a66042913960600191505060405180910390fd5b600c805460ff1916600190811790915554600954604080514281526020810193909352828101919091525133917f0f3f54623fdcb616cdd26971c35bdd757d232ca2d70d5b0f645f39204ec0dab7919081900360600190a2565b3360009081526002602052604090205461051d576040805162461bcd60e51b81526020600482015260116024820152705573657220686173206e6f207374616b6560781b604482015290519081900360640190fd5b61052561100f565b60075460408051634ad5938760e01b815233600482015290516001600160a01b0390921691634ad59387916024808201926020929091908290030181600087803b15801561057257600080fd5b505af1158015610586573d6000803e3d6000fd5b505050506040513d602081101561059c57600080fd5b505060405133907f42a6eeb93f2df0023ef2e3a05d2f2e1b9969c57a110d5fb06ac87d5fb63506d690600090a2565b600c5460ff1681565b60035481565b6004546001600160a01b031681565b600a6020526000908152604090205460ff1681565b336000908152600260205260408120541561065b576040805162461bcd60e51b81526020600482015260186024820152772832b939b7b71034b99030b63932b0b23c9030903ab9b2b960411b604482015290519081900360640190fd5b6003546004805460408051636eb1769f60e11b81523393810193909352306024840152516001600160a01b039091169163dd62ed3e916044808301926020929190829003018186803b1580156106b057600080fd5b505afa1580156106c4573d6000803e3d6000fd5b505050506040513d60208110156106da57600080fd5b5051811115610727576040805162461bcd60e51b8152602060048201526014602482015273616d6f756e74206e6f7420617661696c61626c6560601b604482015290519081900360640190fd5b60035460048054604080516370a0823160e01b815233938101939093525183926001600160a01b03909216916370a08231916024808301926020929190829003018186803b15801561077857600080fd5b505afa15801561078c573d6000803e3d6000fd5b505050506040513d60208110156107a257600080fd5b505110156107f7576040805162461bcd60e51b815260206004820152601d60248201527f5573657220646f6573206e6f74206861766520656e6f75676820444149000000604482015290519081900360640190fd5b600c5460ff161561084f576040805162461bcd60e51b815260206004820152601b60248201527f5374617465206f6620656d657267656e6379206465636c617265640000000000604482015290519081900360640190fd5b61085a600354611198565b60075460408051630375672b60e21b8152336024820181905260048201928352604482018890526000936001600160a01b031692630dd59cac928a928a9290918190606401858580828437600081840152601f19601f820116905080830192505050945050505050602060405180830381600087803b1580156108dc57600080fd5b505af11580156108f0573d6000803e3d6000fd5b505050506040513d602081101561090657600080fd5b505160405190915086908690808383808284376040519201829003822094508593503392507fc07acef038b6eb78641fd29d4d916bc1178a913d8950f162fb46f38a4f3aa4b89160009150a495945050505050565b600b6020526000908152604090205481565b336000908152600260205260409020546109c2576040805162461bcd60e51b81526020600482015260116024820152705573657220686173206e6f207374616b6560781b604482015290519081900360640190fd5b336000908152600a602052604090205460ff1615610a27576040805162461bcd60e51b815260206004820152601b60248201527f416c726561647920766f74656420666f7220656d657267656e63790000000000604482015290519081900360640190fd5b336000908152600b60205260409020544290610a4c906283d60063ffffffff61135416565b10610a885760405162461bcd60e51b81526004018080602001828103825260348152602001806115186034913960400191505060405180910390fd5b336000908152600a60209081526040808320805460ff191660011790556002909152902054600954610abf9163ffffffff61135416565b6009553360008181526002602090815260409182902054825190815291517f67456ecf663e39ee91395a0f29a28e22bdccf5e2d3ca7760ebd48d04f46ea1909281900390910190a2565b6006546001600160a01b031681565b60026020526000908152604090205481565b6008546001600160a01b031681565b6007546001600160a01b03163314610b825760405162461bcd60e51b81526004018080602001828103825260338152602001806115e86033913960400191505060405180910390fd5b60065460408051630e49072d60e01b81526001600160a01b03848116600483015291519190921691630e49072d91602480830192600092919082900301818387803b158015610bd057600080fd5b505af1158015610be4573d6000803e3d6000fd5b5050505050565b3360009081526002602052604090205415610c48576040805162461bcd60e51b81526020600482015260186024820152772832b939b7b71034b99030b63932b0b23c9030903ab9b2b960411b604482015290519081900360640190fd5b6004805460408051636eb1769f60e11b815233938101939093523060248401525183926001600160a01b039092169163dd62ed3e916044808301926020929190829003018186803b158015610c9c57600080fd5b505afa158015610cb0573d6000803e3d6000fd5b505050506040513d6020811015610cc657600080fd5b5051811115610d13576040805162461bcd60e51b8152602060048201526014602482015273616d6f756e74206e6f7420617661696c61626c6560601b604482015290519081900360640190fd5b60048054604080516370a0823160e01b8152339381019390935251849283926001600160a01b0316916370a0823191602480820192602092909190829003018186803b158015610d6257600080fd5b505afa158015610d76573d6000803e3d6000fd5b505050506040513d6020811015610d8c57600080fd5b50511015610de1576040805162461bcd60e51b815260206004820152601d60248201527f5573657220646f6573206e6f74206861766520656e6f75676820444149000000604482015290519081900360640190fd5b600c5460ff1615610e39576040805162461bcd60e51b815260206004820152601b60248201527f5374617465206f6620656d657267656e6379206465636c617265640000000000604482015290519081900360640190fd5b610e4283611198565b60075460408051631869ce7160e11b815233600482015290516001600160a01b03909216916330d39ce2916024808201926020929091908290030181600087803b158015610e8f57600080fd5b505af1158015610ea3573d6000803e3d6000fd5b505050506040513d6020811015610eb957600080fd5b505060408051848152905133917fa2a2db73af12c9f5bef6303364d44e78f97e992c353cd8659f3474c471427e9b919081900360200190a2505050565b6005546001600160a01b031681565b60015481565b33600090815260026020526040902054610f60576040805162461bcd60e51b81526020600482015260116024820152705573657220686173206e6f207374616b6560781b604482015290519081900360640190fd5b600c5460ff161515600114610fbc576040805162461bcd60e51b815260206004820152601f60248201527f5374617465206f6620656d657267656e6379206e6f74206465636c6172656400604482015290519081900360640190fd5b610fc461100f565b60405133907fd0d41202ba4822463690c8ef7bf93fb1cbfa4e3a8ae767bb53473227f00ce0ce90600090a2565b6007546001600160a01b031681565b6000546001600160a01b031681565b336000908152600260205260409020546110276113ae565b3360009081526002602052604081205560015461104a908263ffffffff61144316565b6001556006546040805163db006a7560e01b81526004810184905290516001600160a01b039092169163db006a759160248082019260009290919082900301818387803b15801561109a57600080fd5b505af11580156110ae573d6000803e3d6000fd5b5050600480546040805163a9059cbb60e01b8152339381019390935260248301869052516001600160a01b03909116935063a9059cbb925060448083019260209291908290030181600087803b15801561110757600080fd5b505af115801561111b573d6000803e3d6000fd5b505050506040513d602081101561113157600080fd5b505050565b60008261114557506000611192565b8282028284828161115257fe5b041461118f5760405162461bcd60e51b815260040180806020018281038252602181526020018061154c6021913960400191505060405180910390fd5b90505b92915050565b60048054604080516323b872dd60e01b8152339381019390935230602484015260448301849052516001600160a01b03909116916323b872dd9160648083019260209291908290030181600087803b1580156111f357600080fd5b505af1158015611207573d6000803e3d6000fd5b505050506040513d602081101561121d57600080fd5b5050600480546008546040805163095ea7b360e01b81526001600160a01b0392831694810194909452602484018590525191169163095ea7b39160448083019260209291908290030181600087803b15801561127857600080fd5b505af115801561128c573d6000803e3d6000fd5b505050506040513d60208110156112a257600080fd5b50506005546004805460408051636968703360e11b81526001600160a01b0392831693810193909352602483018590526000604484018190529051919093169263d2d0e066926064808201939182900301818387803b15801561130457600080fd5b505af1158015611318573d6000803e3d6000fd5b5050336000908152600b6020908152604080832042905560029091529020839055505060015461134e908263ffffffff61135416565b60015550565b60008282018381101561118f576040805162461bcd60e51b815260206004820152601b60248201527f536166654d6174683a206164646974696f6e206f766572666c6f770000000000604482015290519081900360640190fd5b336000908152600a60205260409020805460ff19811690915560ff168015156001141561144057336000908152600260205260409020546009546113f79163ffffffff61144316565b6009553360008181526002602090815260409182902054825190815291517f75c449b77058efd7ed4f75aeb787832819a662ad0e1bd629167dd550205122559281900390910190a25b50565b600061118f83836040518060400160405280601e81526020017f536166654d6174683a207375627472616374696f6e206f766572666c6f7700008152506000818484111561150f5760405162461bcd60e51b81526004018080602001828103825283818151815260200191508051906020019080838360005b838110156114d45781810151838201526020016114bc565b50505050905090810190601f1680156115015780820380516001836020036101000a031916815260200191505b509250505060405180910390fd5b50505090039056fe4e65656420746f2068617665206a6f696e656420666f72203130306461797320746f20766f746520616e20656d657267656e6379536166654d6174683a206d756c7469706c69636174696f6e206f766572666c6f77353025206f6620746f74616c20706f6f6c206e6565647320746f206861766520766f74656420666f7220656d657267656e63792073746174653230302030303044414920726571756972656420696e20706f6f6c206265666f726520656d657267656e63792073746174652063616e206265206465636c6172656466756e6374696f6e2063616e206f6e6c792062652063616c6c6564206279206e6f204c6f73732044616f20636f6e7472616374a265627a7a72315820f53e94805657616af11fcfc9b3d92bd7563befa50bbc14ae955b49392846334c64736f6c63430005100032",
  "source": "pragma solidity 0.5.16;\n\n//import './interfaces/IERC20.sol';\nimport './interfaces/IAaveLendingPool.sol';\nimport './interfaces/IADai.sol';\nimport './interfaces/INoLossDao.sol';\nimport './NoLossDao.sol';\nimport '@openzeppelin/contracts-ethereum-package/contracts/token/ERC20/ERC20.sol';\n\n\n/** @title Pooled Deposits Contract*/\ncontract PoolDeposits {\n  using SafeMath for uint256;\n\n  address public admin;\n  uint256 public totalDepositedDai;\n  mapping(address => uint256) public depositedDai;\n\n  uint256 public proposalAmount; // Stake required to submit a proposal\n\n  ///////// DEFI Contrcats ///////////\n  IERC20 public daiContract;\n  IAaveLendingPool public aaveLendingContract;\n  IADai public adaiContract;\n  INoLossDao public noLossDaoContract; // should we be able to change this as admin.\n  address public aaveLendingContractCore;\n\n  //////// EMERGENCY MODULE ONLY ///////\n  uint256 public emergencyVoteAmount;\n  mapping(address => bool) public emergencyVoted;\n  mapping(address => uint256) public timeJoined;\n  bool public isEmergencyState;\n\n  ///////// Events ///////////\n  event DepositAdded(address indexed user, uint256 amount);\n  event ProposalAdded(\n    address indexed benefactor,\n    uint256 indexed proposalId,\n    string indexed proposalHash\n  );\n  event DepositWithdrawn(address indexed user);\n  event ProposalWithdrawn(address indexed benefactor);\n\n  ///////// Emergency Events ///////////\n  event EmergencyStateReached(\n    address indexed user,\n    uint256 timeStamp,\n    uint256 totalDaiInContract,\n    uint256 totalEmergencyVotes\n  );\n  event EmergencyVote(address indexed user, uint256 emergencyVoteAmount);\n  event RemoveEmergencyVote(address indexed user, uint256 emergencyVoteAmount);\n  event EmergencyWithdrawl(address indexed user);\n\n  ///////////////////////////////////////////////////////////////////\n  //////// EMERGENCY MODIFIERS //////////////////////////////////////\n  ///////////////////////////////////////////////////////////////////\n  modifier emergencyEnacted() {\n    require(\n      totalDepositedDai < emergencyVoteAmount.mul(2), //safe 50%\n      '50% of total pool needs to have voted for emergency state'\n    );\n    require(\n      totalDepositedDai > 200000000000000000000000, //200 000 DAI needed in contract\n      '200 000DAI required in pool before emergency state can be declared'\n    );\n    _;\n  }\n  modifier noEmergencyVoteYet() {\n    require(emergencyVoted[msg.sender] == false, 'Already voted for emergency');\n    _;\n  }\n  modifier stableState() {\n    require(isEmergencyState == false, 'State of emergency declared');\n    _;\n  }\n  modifier emergencyState() {\n    require(isEmergencyState == true, 'State of emergency not declared');\n    _;\n  }\n  // Required to be part of the pool for 100 days. Make it costly to borrow and put into state of emergency.\n  modifier eligibleToEmergencyVote() {\n    require(\n      timeJoined[msg.sender].add(8640000) < now,\n      'Need to have joined for 100days to vote an emergency'\n    );\n    _;\n  }\n  ////////////////////////////////////////////////////////////////////////\n\n  ////////////////////////////////////\n  //////// Modifiers /////////////////\n  ////////////////////////////////////\n  modifier noLossDaoContractOnly() {\n    require(\n      address(noLossDaoContract) == msg.sender, // Is this a valid way of getting the address?\n      'function can only be called by no Loss Dao contract'\n    );\n    _;\n  }\n\n  modifier allowanceAvailable(uint256 amount) {\n    require(\n      amount <= daiContract.allowance(msg.sender, address(this)), // checking the pool deposits contract\n      'amount not available'\n    );\n    _;\n  }\n\n  modifier requiredDai(uint256 amount) {\n    require(\n      daiContract.balanceOf(msg.sender) >= amount,\n      'User does not have enough DAI'\n    );\n    _;\n  }\n\n  modifier blankUser() {\n    require(depositedDai[msg.sender] == 0, 'Person is already a user');\n    _;\n  }\n\n  modifier userStaked() {\n    require(depositedDai[msg.sender] > 0, 'User has no stake');\n    _;\n  }\n\n  /***************\n    Contract set-up: Not Upgradaable\n    ***************/\n  constructor(\n    address daiAddress,\n    address aDaiAddress,\n    address aavePoolAddress,\n    address aavePoolCoreAddress,\n    address noLossDaoAddress,\n    uint256 _proposalAmount\n  ) public {\n    daiContract = IERC20(daiAddress);\n    //provider = LendingPoolAddressesProvider(/*contract_address*/);\n    aaveLendingContract = IAaveLendingPool(aavePoolAddress);\n    adaiContract = IADai(aDaiAddress);\n    aaveLendingContractCore = aavePoolCoreAddress;\n    noLossDaoContract = INoLossDao(noLossDaoAddress);\n    admin = msg.sender;\n    proposalAmount = _proposalAmount; // if we want this configurable put in other contract\n    isEmergencyState = false;\n  }\n\n  /// @dev Internal function completing the actual deposit to Aave and crediting users account\n  /// @param amount amount being deosited into pool\n  function _depositFunds(uint256 amount) internal {\n    // Get from aave lending pool the latest address....\n    //LendingPoolAddressesProvider provider = LendingPoolAddressesProvider();\n    /*contract_address*/\n    // IAaveLendingPool lendingPool = IAaveLendingPool(provider.getLendingPool());\n    daiContract.transferFrom(msg.sender, address(this), amount);\n    daiContract.approve(address(aaveLendingContractCore), amount);\n    aaveLendingContract.deposit(address(daiContract), amount, 0);\n\n    timeJoined[msg.sender] = now;\n    depositedDai[msg.sender] = amount;\n    totalDepositedDai = totalDepositedDai.add(amount);\n  }\n\n  /// @dev Internal function completing the actual redemption from Aave and sendinding funds back to user\n  function _withdrawFunds() internal {\n    uint256 amount = depositedDai[msg.sender];\n    _removeEmergencyVote();\n\n    depositedDai[msg.sender] = 0;\n    totalDepositedDai = totalDepositedDai.sub(amount);\n\n    adaiContract.redeem(amount);\n    daiContract.transfer(msg.sender, amount);\n  }\n\n  /// @dev Lets a user join DAOcare through depositing\n  /// @param amount the user wants to deposit into the DAOcare pool\n  function deposit(uint256 amount)\n    external\n    blankUser\n    allowanceAvailable(amount)\n    requiredDai(amount)\n    stableState\n  {\n    _depositFunds(amount);\n    noLossDaoContract.noLossDeposit(msg.sender);\n    emit DepositAdded(msg.sender, amount);\n  }\n\n  /// @dev Lets a user withdraw their original amount sent to DAOcare\n  /// Calls the NoLossDao conrrtact to determine eligibility to withdraw\n  /// Withdraws the proposalAmount (50DAI) if succesful\n  function withdrawDeposit() external userStaked {\n    _withdrawFunds();\n    noLossDaoContract.noLossWithdraw(msg.sender);\n    emit DepositWithdrawn(msg.sender);\n  }\n\n  /// @dev Lets user create proposal\n  /// @param proposalHash hash of the users new proposal\n  function createProposal(string calldata proposalHash)\n    external\n    blankUser\n    allowanceAvailable(proposalAmount)\n    requiredDai(proposalAmount)\n    stableState\n    returns (uint256 newProposalId)\n  {\n    _depositFunds(proposalAmount);\n    uint256 proposalId = noLossDaoContract.noLossCreateProposal(\n      proposalHash,\n      msg.sender\n    );\n    emit ProposalAdded(msg.sender, proposalId, proposalHash);\n    return proposalId;\n  }\n\n  /// @dev Lets user withdraw proposal\n  function withdrawProposal() external {\n    _withdrawFunds();\n    noLossDaoContract.noLossWithdrawProposal(msg.sender);\n    emit ProposalWithdrawn(msg.sender);\n  }\n\n  /// @dev Sets the interest to acrue to winner of the iteration\n  /// @param _winner The address of the proposal winning the iteration\n  function redirectInterestStreamToWinner(address _winner)\n    external\n    noLossDaoContractOnly\n  {\n    adaiContract.redirectInterestStream(_winner);\n  }\n\n  //////////////////////////////////////////////////\n  //////// EMERGENCY MODULE FUNCTIONS  //////////////\n  ///////////////////////////////////////////////////\n\n  /// @dev Declares a state of emergency and enables emergency withdrawls that are not dependant on any external smart contracts\n  function declareStateOfEmergency() external emergencyEnacted {\n    isEmergencyState = true;\n    emit EmergencyStateReached(\n      msg.sender,\n      now,\n      totalDepositedDai,\n      emergencyVoteAmount\n    );\n  }\n\n  /// @dev Immediately lets yoou withdraw your funds in an state of emergency\n  function emergencyWithdraw() external userStaked emergencyState {\n    _withdrawFunds();\n    emit EmergencyWithdrawl(msg.sender);\n  }\n\n  /// @dev lets users vote that the a state of emergency should be decalred\n  /// Requires time lock here to defeat flash loan punks\n  function voteEmergency()\n    external\n    userStaked\n    noEmergencyVoteYet\n    eligibleToEmergencyVote\n  {\n    emergencyVoted[msg.sender] = true;\n    emergencyVoteAmount = emergencyVoteAmount.add(depositedDai[msg.sender]);\n    emit EmergencyVote(msg.sender, depositedDai[msg.sender]);\n  }\n\n  /// @dev Internal function removing a users emergency vote if they leave the pool\n  function _removeEmergencyVote() internal {\n    bool status = emergencyVoted[msg.sender];\n    emergencyVoted[msg.sender] = false;\n    if (status == true) {\n      emergencyVoteAmount = emergencyVoteAmount.sub(depositedDai[msg.sender]);\n      emit RemoveEmergencyVote(msg.sender, depositedDai[msg.sender]);\n    }\n  }\n}\n",
  "sourcePath": "/home/jasoons/Documents/temp/app/contracts/contracts/PoolDeposits.sol",
  "compiler": {
    "name": "solc",
    "version": "0.5.16+commit.9c3226ce.Emscripten.clang"
  },
  "schemaVersion": "3.0.23",
  "updatedAt": "2020-03-31T19:45:50.415Z",
  "networkType": "ethereum",
  "devdoc": {
    "methods": {
      "createProposal(string)": {
        "details": "Lets user create proposal",
        "params": {
          "proposalHash": "hash of the users new proposal"
        }
      },
      "declareStateOfEmergency()": {
        "details": "Declares a state of emergency and enables emergency withdrawls that are not dependant on any external smart contracts"
      },
      "deposit(uint256)": {
        "details": "Lets a user join DAOcare through depositing",
        "params": {
          "amount": "the user wants to deposit into the DAOcare pool"
        }
      },
      "emergencyWithdraw()": {
        "details": "Immediately lets yoou withdraw your funds in an state of emergency"
      },
      "redirectInterestStreamToWinner(address)": {
        "details": "Sets the interest to acrue to winner of the iteration",
        "params": {
          "_winner": "The address of the proposal winning the iteration"
        }
      },
      "voteEmergency()": {
        "details": "lets users vote that the a state of emergency should be decalred Requires time lock here to defeat flash loan punks"
      },
      "withdrawDeposit()": {
        "details": "Lets a user withdraw their original amount sent to DAOcare Calls the NoLossDao conrrtact to determine eligibility to withdraw Withdraws the proposalAmount (50DAI) if succesful"
      },
      "withdrawProposal()": {
        "details": "Lets user withdraw proposal"
      }
    },
    "title": "Pooled Deposits Contract"
  },
  "userdoc": {
    "methods": {
      "constructor": "************* Contract set-up: Not Upgradaable**************",
      "declareStateOfEmergency()": {
        "notice": "/////////////////////////////////////////////// ///// EMERGENCY MODULE FUNCTIONS  ////////////// ////////////////////////////////////////////////"
      }
    }
  }
}