{
  "contractName": "NoLossDao",
  "abi": [
    {
      "constant": true,
      "inputs": [],
      "name": "aaveLendingContract",
      "outputs": [
        {
          "internalType": "contract IAaveLendingPool",
          "name": "",
          "type": "address"
        }
      ],
      "payable": false,
      "stateMutability": "view",
      "type": "function"
    },
    {
      "constant": true,
      "inputs": [],
      "name": "aaveLendingContractCore",
      "outputs": [
        {
          "internalType": "address",
          "name": "",
          "type": "address"
        }
      ],
      "payable": false,
      "stateMutability": "view",
      "type": "function"
    },
    {
      "constant": true,
      "inputs": [],
      "name": "adaiContract",
      "outputs": [
        {
          "internalType": "contract IADai",
          "name": "",
          "type": "address"
        }
      ],
      "payable": false,
      "stateMutability": "view",
      "type": "function"
    },
    {
      "constant": true,
      "inputs": [],
      "name": "admin",
      "outputs": [
        {
          "internalType": "address",
          "name": "",
          "type": "address"
        }
      ],
      "payable": false,
      "stateMutability": "view",
      "type": "function"
    },
    {
      "constant": true,
      "inputs": [],
      "name": "daiContract",
      "outputs": [
        {
          "internalType": "contract IERC20",
          "name": "",
          "type": "address"
        }
      ],
      "payable": false,
      "stateMutability": "view",
      "type": "function"
    },
    {
      "constant": true,
      "inputs": [
        {
          "internalType": "address",
          "name": "",
          "type": "address"
        }
      ],
      "name": "depositedDai",
      "outputs": [
        {
          "internalType": "uint256",
          "name": "",
          "type": "uint256"
        }
      ],
      "payable": false,
      "stateMutability": "view",
      "type": "function"
    },
    {
      "constant": true,
      "inputs": [
        {
          "internalType": "address",
          "name": "",
          "type": "address"
        }
      ],
      "name": "iterationJoined",
      "outputs": [
        {
          "internalType": "uint256",
          "name": "",
          "type": "uint256"
        }
      ],
      "payable": false,
      "stateMutability": "view",
      "type": "function"
    },
    {
      "constant": true,
      "inputs": [],
      "name": "proposalAmount",
      "outputs": [
        {
          "internalType": "uint256",
          "name": "",
          "type": "uint256"
        }
      ],
      "payable": false,
      "stateMutability": "view",
      "type": "function"
    },
    {
      "constant": true,
      "inputs": [],
      "name": "proposalDeadline",
      "outputs": [
        {
          "internalType": "uint256",
          "name": "",
          "type": "uint256"
        }
      ],
      "payable": false,
      "stateMutability": "view",
      "type": "function"
    },
    {
      "constant": true,
      "inputs": [
        {
          "internalType": "uint256",
          "name": "",
          "type": "uint256"
        }
      ],
      "name": "proposalDetails",
      "outputs": [
        {
          "internalType": "string",
          "name": "",
          "type": "string"
        }
      ],
      "payable": false,
      "stateMutability": "view",
      "type": "function"
    },
    {
      "constant": true,
      "inputs": [],
      "name": "proposalId",
      "outputs": [
        {
          "internalType": "uint256",
          "name": "",
          "type": "uint256"
        }
      ],
      "payable": false,
      "stateMutability": "view",
      "type": "function"
    },
    {
      "constant": true,
      "inputs": [],
      "name": "proposalIteration",
      "outputs": [
        {
          "internalType": "uint256",
          "name": "",
          "type": "uint256"
        }
      ],
      "payable": false,
      "stateMutability": "view",
      "type": "function"
    },
    {
      "constant": true,
      "inputs": [
        {
          "internalType": "uint256",
          "name": "",
          "type": "uint256"
        }
      ],
      "name": "proposalOwner",
      "outputs": [
        {
          "internalType": "address",
          "name": "",
          "type": "address"
        }
      ],
      "payable": false,
      "stateMutability": "view",
      "type": "function"
    },
    {
      "constant": true,
      "inputs": [
        {
          "internalType": "uint256",
          "name": "",
          "type": "uint256"
        },
        {
          "internalType": "uint256",
          "name": "",
          "type": "uint256"
        }
      ],
      "name": "proposalVotes",
      "outputs": [
        {
          "internalType": "uint256",
          "name": "",
          "type": "uint256"
        }
      ],
      "payable": false,
      "stateMutability": "view",
      "type": "function"
    },
    {
      "constant": true,
      "inputs": [
        {
          "internalType": "uint256",
          "name": "",
          "type": "uint256"
        }
      ],
      "name": "state",
      "outputs": [
        {
          "internalType": "enum NoLossDao.ProposalState",
          "name": "",
          "type": "uint8"
        }
      ],
      "payable": false,
      "stateMutability": "view",
      "type": "function"
    },
    {
      "constant": true,
      "inputs": [
        {
          "internalType": "uint256",
          "name": "",
          "type": "uint256"
        }
      ],
      "name": "topProject",
      "outputs": [
        {
          "internalType": "uint256",
          "name": "",
          "type": "uint256"
        }
      ],
      "payable": false,
      "stateMutability": "view",
      "type": "function"
    },
    {
      "constant": true,
      "inputs": [],
      "name": "totalDepositedDai",
      "outputs": [
        {
          "internalType": "uint256",
          "name": "",
          "type": "uint256"
        }
      ],
      "payable": false,
      "stateMutability": "view",
      "type": "function"
    },
    {
      "constant": true,
      "inputs": [
        {
          "internalType": "uint256",
          "name": "",
          "type": "uint256"
        },
        {
          "internalType": "address",
          "name": "",
          "type": "address"
        }
      ],
      "name": "usersNominatedProject",
      "outputs": [
        {
          "internalType": "uint256",
          "name": "",
          "type": "uint256"
        }
      ],
      "payable": false,
      "stateMutability": "view",
      "type": "function"
    },
    {
      "constant": true,
      "inputs": [
        {
          "internalType": "address",
          "name": "",
          "type": "address"
        }
      ],
      "name": "usersProposedProject",
      "outputs": [
        {
          "internalType": "uint256",
          "name": "",
          "type": "uint256"
        }
      ],
      "payable": false,
      "stateMutability": "view",
      "type": "function"
    },
    {
      "constant": true,
      "inputs": [
        {
          "internalType": "address",
          "name": "",
          "type": "address"
        }
      ],
      "name": "voteDelegations",
      "outputs": [
        {
          "internalType": "address",
          "name": "",
          "type": "address"
        }
      ],
      "payable": false,
      "stateMutability": "view",
      "type": "function"
    },
    {
      "constant": true,
      "inputs": [],
      "name": "votingInterval",
      "outputs": [
        {
          "internalType": "uint256",
          "name": "",
          "type": "uint256"
        }
      ],
      "payable": false,
      "stateMutability": "view",
      "type": "function"
    },
    {
      "constant": false,
      "inputs": [
        {
          "internalType": "address",
          "name": "daiAddress",
          "type": "address"
        },
        {
          "internalType": "address",
          "name": "aDaiAddress",
          "type": "address"
        },
        {
          "internalType": "address",
          "name": "aavePoolAddress",
          "type": "address"
        },
        {
          "internalType": "address",
          "name": "aavePoolCoreAddress",
          "type": "address"
        },
        {
          "internalType": "uint256",
          "name": "_proposalAmount",
          "type": "uint256"
        },
        {
          "internalType": "uint256",
          "name": "_votingInterval",
          "type": "uint256"
        }
      ],
      "name": "initialize",
      "outputs": [],
      "payable": false,
      "stateMutability": "nonpayable",
      "type": "function"
    },
    {
      "constant": false,
      "inputs": [
        {
          "internalType": "uint256",
          "name": "newInterval",
          "type": "uint256"
        }
      ],
      "name": "changeVotingInterval",
      "outputs": [],
      "payable": false,
      "stateMutability": "nonpayable",
      "type": "function"
    },
    {
      "constant": false,
      "inputs": [
        {
          "internalType": "uint256",
          "name": "myNum",
          "type": "uint256"
        }
      ],
      "name": "doesNothing",
      "outputs": [
        {
          "internalType": "uint256",
          "name": "num",
          "type": "uint256"
        }
      ],
      "payable": false,
      "stateMutability": "nonpayable",
      "type": "function"
    },
    {
      "constant": false,
      "inputs": [
        {
          "internalType": "uint256",
          "name": "amount",
          "type": "uint256"
        }
      ],
      "name": "deposit",
      "outputs": [],
      "payable": false,
      "stateMutability": "nonpayable",
      "type": "function"
    },
    {
      "constant": false,
      "inputs": [
        {
          "internalType": "uint256",
          "name": "amount",
          "type": "uint256"
        }
      ],
      "name": "withdrawFull",
      "outputs": [],
      "payable": false,
      "stateMutability": "nonpayable",
      "type": "function"
    },
    {
      "constant": false,
      "inputs": [
        {
          "internalType": "string",
          "name": "proposalHash",
          "type": "string"
        }
      ],
      "name": "createProposal",
      "outputs": [
        {
          "internalType": "uint256",
          "name": "newProposalId",
          "type": "uint256"
        }
      ],
      "payable": false,
      "stateMutability": "nonpayable",
      "type": "function"
    },
    {
      "constant": false,
      "inputs": [],
      "name": "withdrawProposal",
      "outputs": [],
      "payable": false,
      "stateMutability": "nonpayable",
      "type": "function"
    },
    {
      "constant": false,
      "inputs": [
        {
          "internalType": "uint256",
          "name": "proposalIdToVoteFor",
          "type": "uint256"
        }
      ],
      "name": "vote",
      "outputs": [],
      "payable": false,
      "stateMutability": "nonpayable",
      "type": "function"
    },
    {
      "constant": false,
      "inputs": [],
      "name": "distributeFunds",
      "outputs": [],
      "payable": false,
      "stateMutability": "nonpayable",
      "type": "function"
    },
    {
      "constant": false,
      "inputs": [
        {
          "internalType": "address",
          "name": "delegatedAddress",
          "type": "address"
        }
      ],
      "name": "delegateVoting",
      "outputs": [],
      "payable": false,
      "stateMutability": "nonpayable",
      "type": "function"
    },
    {
      "constant": false,
      "inputs": [
        {
          "internalType": "uint256",
          "name": "proposalIdToVoteFor",
          "type": "uint256"
        },
        {
          "internalType": "address",
          "name": "delegatedFrom",
          "type": "address"
        }
      ],
      "name": "voteProxy",
      "outputs": [],
      "payable": false,
      "stateMutability": "nonpayable",
      "type": "function"
    }
  ],
  "bytecode": "0x608060405234801561001057600080fd5b50611c1f806100206000396000f3fe608060405234801561001057600080fd5b50600436106101f05760003560e01c8063758493991161010f578063bdd882f0116100a2578063d7c41c7911610071578063d7c41c79146105c8578063d8a3239f14610614578063f851a44014610631578063fcde992514610639576101f0565b8063bdd882f014610575578063c68dc6ad14610592578063ca28f0d01461059a578063d1c22c3b146105c0576101f0565b80638cc6d535116100de5780638cc6d535146104fe578063976ee2b614610506578063a587118214610532578063b6b55f2514610558576101f0565b806375849399146104a2578063765cb83a146104aa5780637ce1f844146104d057806382a0ca9c146104d8576101f0565b806339ab499b1161018757806351252f6c1161015657806351252f6c1461045857806362c55153146104755780636b38def2146104925780637566ad531461049a576101f0565b806339ab499b146103435780633a6a4d2e146103695780633e4f49e61461037157806349c2a1a6146103b2576101f0565b806316e9eaec116101c357806316e9eaec1461027d578063173a2b5c1461030f5780632ce8b913146103175780632dfca4451461033b576101f0565b80630121b93f146101f5578063031cf1d91461021457806303ef7f391461021c5780630d68eb9e14610248575b600080fd5b6102126004803603602081101561020b57600080fd5b5035610656565b005b6102126108c5565b6102126004803603604081101561023257600080fd5b50803590602001356001600160a01b0316610978565b61026b6004803603604081101561025e57600080fd5b5080359060200135610c8a565b60408051918252519081900360200190f35b61029a6004803603602081101561029357600080fd5b5035610ca7565b6040805160208082528351818301528351919283929083019185019080838360005b838110156102d45781810151838201526020016102bc565b50505050905090810190601f1680156103015780820380516001836020036101000a031916815260200191505b509250505060405180910390f35b61026b610d42565b61031f610d48565b604080516001600160a01b039092168252519081900360200190f35b61026b610d57565b61026b6004803603602081101561035957600080fd5b50356001600160a01b0316610d5d565b610212610d6f565b61038e6004803603602081101561038757600080fd5b503561102c565b6040518082600181111561039e57fe5b60ff16815260200191505060405180910390f35b61026b600480360360208110156103c857600080fd5b8101906020810181356401000000008111156103e357600080fd5b8201836020820111156103f557600080fd5b8035906020019184600183028401116401000000008311171561041757600080fd5b91908080601f016020809104026020016040519081016040528093929190818152602001838380828437600092019190915250929550611041945050505050565b6102126004803603602081101561046e57600080fd5b5035611367565b61026b6004803603602081101561048b57600080fd5b50356113b7565b61031f6113ba565b61026b6113c9565b61026b6113cf565b610212600480360360208110156104c057600080fd5b50356001600160a01b03166113d5565b61026b6114fb565b61026b600480360360208110156104ee57600080fd5b50356001600160a01b0316611501565b61031f611513565b61026b6004803603604081101561051c57600080fd5b50803590602001356001600160a01b0316611522565b61026b6004803603602081101561054857600080fd5b50356001600160a01b031661153f565b6102126004803603602081101561056e57600080fd5b5035611551565b61026b6004803603602081101561058b57600080fd5b5035611892565b61031f6118a4565b61031f600480360360208110156105b057600080fd5b50356001600160a01b03166118b3565b61026b6118ce565b610212600480360360c08110156105de57600080fd5b506001600160a01b0381358116916020810135821691604082013581169160608101359091169060808101359060a001356118d4565b6102126004803603602081101561062a57600080fd5b50356119ee565b61031f6119f1565b61031f6004803603602081101561064f57600080fd5b5035611a00565b806000808281526044602052604090205460ff16600181111561067557fe5b146106bf576040805162461bcd60e51b815260206004820152601560248201527450726f706f73616c2069736e27742061637469766560581b604482015290519081900360640190fd5b604254600090815260376020908152604080832033808552925290912054156107195760405162461bcd60e51b8152600401808060200182810382526021815260200180611b786021913960400191505060405180910390fd5b3360008181526033602052604090205461076e576040805162461bcd60e51b81526020600482015260116024820152705573657220686173206e6f207374616b6560781b604482015290519081900360640190fd5b336000818152603860209081526040808320548352604490915290205460019060ff168181111561079b57fe5b14806107bd57506001600160a01b038116600090815260386020526040902054155b61080e576040805162461bcd60e51b815260206004820152601b60248201527f557365722068617320616e206163746976652070726f706f73616c0000000000604482015290519081900360640190fd5b33600090815260336020908152604080832054604254845260368352818420898552909252909120546108469163ffffffff611a1b16565b6042805460009081526036602081815260408084208b8552825280842095909555835483526037815284832033845281528483208a9055925482528252828120603a8352838220548252909152818120546043548252919020548110156108bd576043546042546000908152603a60205260409020555b505050505050565b336000818152603860209081526040808320548352604490915281205460ff1660018111156108f057fe5b1461092c5760405162461bcd60e51b8152600401808060200182810382526024815260200180611bc76024913960400191505060405180910390fd5b33600090815260386020908152604080832054835260449091529020805460ff19166001179055603c54603b5461096291611a7c565b603b555033600090815260336020526040812055565b816000808281526044602052604090205460ff16600181111561099757fe5b146109e1576040805162461bcd60e51b815260206004820152601560248201527450726f706f73616c2069736e27742061637469766560581b604482015290519081900360640190fd5b6001600160a01b038083166000908152604560205260409020548391163314610a51576040805162461bcd60e51b815260206004820152601d60248201527f5573657220646f65736e277420686176652070726f7879207269676874000000604482015290519081900360640190fd5b60425460009081526037602090815260408083206001600160a01b0387168452909152902054839015610ab55760405162461bcd60e51b8152600401808060200182810382526021815260200180611b786021913960400191505060405180910390fd5b6001600160a01b0384166000908152603360205260409020548490610b15576040805162461bcd60e51b81526020600482015260116024820152705573657220686173206e6f207374616b6560781b604482015290519081900360640190fd5b8460016001600160a01b0382166000908152603860209081526040808320548352604490915290205460ff166001811115610b4c57fe5b1480610b6e57506001600160a01b038116600090815260386020526040902054155b610bbf576040805162461bcd60e51b815260206004820152601b60248201527f557365722068617320616e206163746976652070726f706f73616c0000000000604482015290519081900360640190fd5b6001600160a01b0386166000908152603360209081526040808320546042548452603683528184208b855290925290912054610c009163ffffffff611a1b16565b6042805460009081526036602081815260408084208d855282528084209590955583548352603781528483206001600160a01b038c16845281528483208c9055925482528252828120603a835283822054825290915281812054604354825291902054811015610c80576043546042546000908152603a60205260409020555b5050505050505050565b603660209081526000928352604080842090915290825290205481565b60356020908152600091825260409182902080548351601f600260001961010060018616150201909316929092049182018490048402810184019094528084529091830182828015610d3a5780601f10610d0f57610100808354040283529160200191610d3a565b820191906000526020600020905b815481529060010190602001808311610d1d57829003601f168201915b505050505081565b603c5481565b603d546001600160a01b031681565b60435481565b60386020526000908152604090205481565b4260475411610dc5576040805162461bcd60e51b815260206004820152601960248201527f63757272656e7420766f7465207374696c6c2061637469766500000000000000604482015290519081900360640190fd5b6042546000908152603a602052604090205415610fea57603b546040805481516370a0823160e01b81523060048201529151600093610e689390926001600160a01b0316916370a0823191602480820192602092909190829003018186803b158015610e3057600080fd5b505afa158015610e44573d6000803e3d6000fd5b505050506040513d6020811015610e5a57600080fd5b50519063ffffffff611a7c16565b60408054815163db006a7560e01b81526004810184905291519293506001600160a01b03169163db006a759160248082019260009290919082900301818387803b158015610eb557600080fd5b505af1158015610ec9573d6000803e3d6000fd5b50506042546000908152603a602090815260408083205483526034825280832054603d5482516370a0823160e01b815230600482015292516001600160a01b03928316975094955016926370a0823192602480840193919291829003018186803b158015610f3657600080fd5b505afa158015610f4a573d6000803e3d6000fd5b505050506040513d6020811015610f6057600080fd5b5051603d546040805163a9059cbb60e01b81526001600160a01b03868116600483015260248201859052915193945091169163a9059cbb916044808201926020929091908290030181600087803b158015610fba57600080fd5b505af1158015610fce573d6000803e3d6000fd5b505050506040513d6020811015610fe457600080fd5b50505050505b604654604754610fff9163ffffffff611a1b16565b60475560425461101690600163ffffffff611a1b16565b60428190556000908152603a6020526040812055565b60446020526000908152604090205460ff1681565b603c54603d5460408051636eb1769f60e11b81523360048201523060248201529051600093926001600160a01b03169163dd62ed3e916044808301926020929190829003018186803b15801561109657600080fd5b505afa1580156110aa573d6000803e3d6000fd5b505050506040513d60208110156110c057600080fd5b505181111561110d576040805162461bcd60e51b8152602060048201526014602482015273616d6f756e74206e6f7420617661696c61626c6560601b604482015290519081900360640190fd5b603d54603c54604080516323b872dd60e01b81523360048201523060248201526044810192909252516001600160a01b03909216916323b872dd916064808201926020929091908290030181600087803b15801561116a57600080fd5b505af115801561117e573d6000803e3d6000fd5b505050506040513d602081101561119457600080fd5b5050603d54603f54603c546040805163095ea7b360e01b81526001600160a01b039384166004820152602481019290925251919092169163095ea7b39160448083019260209291908290030181600087803b1580156111f257600080fd5b505af1158015611206573d6000803e3d6000fd5b505050506040513d602081101561121c57600080fd5b5050603e54603d54603c5460408051636968703360e11b81526001600160a01b03938416600482015260248101929092526000604483018190529051929093169263d2d0e0669260648084019382900301818387803b15801561127e57600080fd5b505af1158015611292573d6000803e3d6000fd5b5050603c54603b546112ac9350915063ffffffff611a1b16565b603b55603c54336000908152603360205260409020546112d19163ffffffff611a1b16565b336000908152603360205260409020556043546112f590600163ffffffff611a1b16565b60438190556000818152603560209081526040909120855192945061131e929091860190611adf565b5050600081815260346020908152604080832080546001600160a01b0319163390811790915583526038825280832084905583835260449091529020805460ff19169055919050565b6041546001600160a01b031633146113b2576040805162461bcd60e51b81526020600482015260096024820152682737ba1030b236b4b760b91b604482015290519081900360640190fd5b604655565b90565b6040546001600160a01b031681565b60465481565b60425481565b3360008181526033602052604090205461142a576040805162461bcd60e51b81526020600482015260116024820152705573657220686173206e6f207374616b6560781b604482015290519081900360640190fd5b336000818152603860209081526040808320548352604490915290205460019060ff168181111561145757fe5b148061147957506001600160a01b038116600090815260386020526040902054155b6114ca576040805162461bcd60e51b815260206004820152601b60248201527f557365722068617320616e206163746976652070726f706f73616c0000000000604482015290519081900360640190fd5b505033600090815260456020526040902080546001600160a01b0319166001600160a01b0392909216919091179055565b60475481565b60336020526000908152604090205481565b603f546001600160a01b031681565b603760209081526000928352604080842090915290825290205481565b60396020526000908152604090205481565b33600090815260336020526040902054156115a9576040805162461bcd60e51b81526020600482015260136024820152725573657220616c72656164792065786973747360681b604482015290519081900360640190fd5b336000818152603860205260409020541561160b576040805162461bcd60e51b815260206004820152601b60248201527f5573657220616c72656164792068617320612070726f706f73616c0000000000604482015290519081900360640190fd5b603d5460408051636eb1769f60e11b8152336004820152306024820152905184926001600160a01b03169163dd62ed3e916044808301926020929190829003018186803b15801561165b57600080fd5b505afa15801561166f573d6000803e3d6000fd5b505050506040513d602081101561168557600080fd5b50518111156116d2576040805162461bcd60e51b8152602060048201526014602482015273616d6f756e74206e6f7420617661696c61626c6560601b604482015290519081900360640190fd5b603d54604080516323b872dd60e01b81523360048201523060248201526044810186905290516001600160a01b03909216916323b872dd916064808201926020929091908290030181600087803b15801561172c57600080fd5b505af1158015611740573d6000803e3d6000fd5b505050506040513d602081101561175657600080fd5b5050603d54603f546040805163095ea7b360e01b81526001600160a01b039283166004820152602481018790529051919092169163095ea7b39160448083019260209291908290030181600087803b1580156117b157600080fd5b505af11580156117c5573d6000803e3d6000fd5b505050506040513d60208110156117db57600080fd5b5050603e54603d5460408051636968703360e11b81526001600160a01b039283166004820152602481018790526000604482018190529151929093169263d2d0e066926064808301939282900301818387803b15801561183a57600080fd5b505af115801561184e573d6000803e3d6000fd5b50503360009081526033602052604090208590555050603b54611877908463ffffffff611a1b16565b603b5550506042543360009081526039602052604090205550565b603a6020526000908152604090205481565b603e546001600160a01b031681565b6045602052600090815260409020546001600160a01b031681565b603b5481565b600054610100900460ff16806118ed57506118ed611ad9565b806118fb575060005460ff16155b6119365760405162461bcd60e51b815260040180806020018281038252602e815260200180611b99602e913960400191505060405180910390fd5b600054610100900460ff16158015611961576000805460ff1961ff0019909116610100171660011790555b603d80546001600160a01b03808a166001600160a01b031992831617909255603e805488841690831617905560408054898416908316179055603f8054928716928216929092179091556041805490911633179055603c83905560468290556119d0428363ffffffff611a1b16565b60475580156119e5576000805461ff00191690555b50505050505050565b50565b6041546001600160a01b031681565b6034602052600090815260409020546001600160a01b031681565b600082820183811015611a75576040805162461bcd60e51b815260206004820152601b60248201527f536166654d6174683a206164646974696f6e206f766572666c6f770000000000604482015290519081900360640190fd5b9392505050565b600082821115611ad3576040805162461bcd60e51b815260206004820152601e60248201527f536166654d6174683a207375627472616374696f6e206f766572666c6f770000604482015290519081900360640190fd5b50900390565b303b1590565b828054600181600116156101000203166002900490600052602060002090601f016020900481019282601f10611b2057805160ff1916838001178555611b4d565b82800160010185558215611b4d579182015b82811115611b4d578251825591602001919060010190611b32565b50611b59929150611b5d565b5090565b6113b791905b80821115611b595760008155600101611b6356fe5573657220616c726561647920766f746564207468697320697465726174696f6e436f6e747261637420696e7374616e63652068617320616c7265616479206265656e20696e697469616c697a65645573657220646f65736e2774206861766520616e206163746976652070726f706f73616ca265627a7a72315820b9f49df550cd2ac1cddde07214a47db316880982bba7d47b34661d0539510a8664736f6c63430005100032",
  "source": "pragma solidity 0.5.16;\n\n// import \"./interfaces/IERC20.sol\";\nimport './interfaces/IAaveLendingPool.sol';\nimport './interfaces/IADai.sol';\nimport '@openzeppelin/contracts-ethereum-package/contracts/token/ERC20/ERC20.sol';\n\ncontract NoLossDao is Initializable {\n  using SafeMath for uint256;\n\n  mapping(address => uint256) public depositedDai;\n  mapping(uint256 => address) public proposalOwner;\n  mapping(uint256 => string) public proposalDetails;\n  mapping(uint256 => mapping(uint256 => uint256)) public proposalVotes;\n\n  mapping(uint256 => mapping(address => uint256)) public usersNominatedProject; // Means user can only have one project.\n  mapping(address => uint256) public usersProposedProject;\n  mapping(address => uint256) public iterationJoined;\n\n  mapping(uint256 => uint256) public topProject;\n\n  uint256 public totalDepositedDai;\n  uint256 public proposalAmount;\n\n  IERC20 public daiContract;\n  IAaveLendingPool public aaveLendingContract;\n  address public aaveLendingContractCore;\n  IADai public adaiContract;\n  address public admin;\n\n  uint256 public proposalIteration;\n\n  uint256 public proposalId;\n  enum ProposalState {Active, Withdrawn} // Cooldown\n  mapping(uint256 => ProposalState) public state; // ProposalId to current state\n\n  mapping(address => address) public voteDelegations;\n\n  uint256 public votingInterval;\n  uint256 public proposalDeadline;\n\n  modifier onlyAdmin() {\n    require(msg.sender == admin, 'Not admin');\n    _;\n  }\n\n  modifier blankUser() {\n    require(depositedDai[msg.sender] == 0, 'User already exists');\n    _;\n  }\n\n  modifier userStaked(address givenAddress) {\n    require(depositedDai[givenAddress] > 0, 'User has no stake');\n    _;\n  }\n\n  modifier noProposal(address givenAddress) {\n    require(\n      usersProposedProject[givenAddress] == 0,\n      'User already has a proposal'\n    );\n    _;\n  }\n\n  modifier noVoteYet(address givenAddress) {\n    require(\n      usersNominatedProject[proposalIteration][givenAddress] == 0,\n      'User already voted this iteration'\n    );\n    _;\n  }\n\n  modifier userHasActiveProposal(address givenAddress) {\n    require(\n      state[usersProposedProject[givenAddress]] == ProposalState.Active,\n      \"User doesn't have an active proposal\"\n    );\n    _;\n  }\n\n  modifier userHasNoActiveProposal(address givenAddress) {\n    require(\n      state[usersProposedProject[givenAddress]] == ProposalState.Withdrawn ||\n        usersProposedProject[givenAddress] == 0,\n      'User has an active proposal'\n    );\n    _;\n  }\n\n  modifier proposalActive(uint256 propId) {\n    require(state[propId] == ProposalState.Active, \"Proposal isn't active\");\n    _;\n  }\n\n  modifier allowanceAvailable(uint256 amount) {\n    require(\n      amount <= daiContract.allowance(msg.sender, address(this)),\n      'amount not available'\n    );\n    _;\n  }\n\n  // Modifiers for proxy\n  modifier proxyRight(address delegatedFrom) {\n    require(\n      voteDelegations[delegatedFrom] == msg.sender,\n      \"User doesn't have proxy right\"\n    );\n    _;\n  }\n\n  // Modifiers for proxy\n  modifier joinedInTime(address givenAddress) {\n    require(\n      iterationJoined[givenAddress] < proposalIteration,\n      'User only eligible to vote next iteration'\n    );\n    _;\n  }\n\n  function initialize(\n    address daiAddress,\n    address aDaiAddress,\n    address aavePoolAddress,\n    address aavePoolCoreAddress,\n    uint256 _proposalAmount,\n    uint256 _votingInterval\n  ) public initializer {\n    daiContract = IERC20(daiAddress);\n    aaveLendingContract = IAaveLendingPool(aavePoolAddress);\n    adaiContract = IADai(aDaiAddress);\n    aaveLendingContractCore = aavePoolCoreAddress;\n    admin = msg.sender;\n    proposalAmount = _proposalAmount;\n    votingInterval = _votingInterval;\n\n    proposalDeadline = now.add(_votingInterval);\n  }\n\n  function changeVotingInterval(uint256 newInterval) public onlyAdmin {\n    votingInterval = newInterval;\n  }\n\n  function doesNothing(uint256 myNum) public returns (uint256 num) {\n    return myNum;\n  }\n\n  // This will return an empty array if no proposal added\n  //   function proposalHashes() public view returns (string[] memory) {\n  //     string[] memory myHashes = new string[](proposalId);\n  //     for (uint256 i = 1; i <= proposalId; i++) {\n  //       myHashes[i - 1] = proposalDetails[i];\n  //     }\n  //     return myHashes;\n  //   }\n\n  function deposit(uint256 amount)\n    public\n    blankUser\n    noProposal(msg.sender)\n    allowanceAvailable(amount)\n  {\n    daiContract.transferFrom(msg.sender, address(this), amount);\n    daiContract.approve(address(aaveLendingContractCore), amount);\n    aaveLendingContract.deposit(address(daiContract), amount, 0);\n\n    //setting values\n    depositedDai[msg.sender] = amount;\n    totalDepositedDai = totalDepositedDai.add(amount);\n    iterationJoined[msg.sender] = proposalIteration;\n  }\n\n  function withdrawFull(uint256 amount) public {\n    // Participant withdraws all there DAI and exits our system :(\n    // Check the user exists in our system\n    // Check the amount they have deposited\n    // Exchange aDAI to DAI for this amount\n    // Send them back their dai\n    // Remove their amount of dai from the total we have\n    // IMPORTANT, remove their vote amount...\n  }\n\n  function createProposal(string memory proposalHash)\n    public\n    allowanceAvailable(proposalAmount)\n    returns (uint256 newProposalId)\n  {\n    // DAI things. TODO: Approve where necessary\n    daiContract.transferFrom(msg.sender, address(this), proposalAmount);\n    daiContract.approve(address(aaveLendingContractCore), proposalAmount);\n    aaveLendingContract.deposit(\n      address(daiContract),\n      proposalAmount,\n      0 /* We should research this referal code stuff... https://developers.aave.com/#referral-program */\n    );\n\n    totalDepositedDai = totalDepositedDai.add(proposalAmount);\n    depositedDai[msg.sender] = depositedDai[msg.sender].add(proposalAmount);\n\n    // So the first proposal will have an ID of 1\n    proposalId = proposalId.add(1);\n    newProposalId = proposalId;\n\n    proposalDetails[newProposalId] = proposalHash;\n    proposalOwner[newProposalId] = msg.sender;\n    usersProposedProject[msg.sender] = newProposalId;\n    state[newProposalId] = ProposalState.Active;\n  }\n\n  function withdrawProposal() public userHasActiveProposal(msg.sender) {\n    //This can only be executed after every cycle\n    state[usersProposedProject[msg.sender]] = ProposalState.Withdrawn;\n    totalDepositedDai = totalDepositedDai.sub(proposalAmount);\n    depositedDai[msg.sender] = 0;\n    // TODO\n    // Remove proposalAmount from aDAI\n    // Convert to DAI\n    // Send back to owner\n  }\n\n  function vote(uint256 proposalIdToVoteFor)\n    public\n    proposalActive(proposalIdToVoteFor)\n    noVoteYet(msg.sender)\n    userStaked(msg.sender)\n    userHasNoActiveProposal(msg.sender)\n  // joinedInTime(msg.sender) // TODO: add this back, it is important! (only removed for ease of demoing)\n  {\n    proposalVotes[proposalIteration][proposalIdToVoteFor] = proposalVotes[proposalIteration][proposalIdToVoteFor]\n      .add(depositedDai[msg.sender]);\n    usersNominatedProject[proposalIteration][msg.sender] = proposalIdToVoteFor;\n\n    uint256 topProjectVotes = proposalVotes[proposalIteration][topProject[proposalIteration]];\n\n    // TODO:: if they are equal there is a problem (we must handle this!!)\n    if (proposalVotes[proposalIteration][proposalId] > topProjectVotes) {\n      topProject[proposalIteration] = proposalId;\n    }\n  }\n\n  function distributeFunds() public {\n    // On a *whatever we decide basis* the funds are distributed to the winning project\n    // E.g. every 2 weeks, the project with the most votes gets the generated interest.\n\n    require(proposalDeadline > now, 'current vote still active');\n\n    if (topProject[proposalIteration] != 0) {\n      uint256 interestEarnedSinceLastIteration = adaiContract\n        .balanceOf(address(this))\n        .sub(totalDepositedDai);\n\n      adaiContract.redeem(interestEarnedSinceLastIteration);\n\n      // Do some asserts here for safety...\n\n      address winner = proposalOwner[topProject[proposalIteration]];\n      uint256 amount = daiContract.balanceOf(address(this));\n\n      daiContract.transfer(winner, amount);\n    }\n\n    proposalDeadline = proposalDeadline.add(votingInterval);\n\n    proposalIteration = proposalIteration.add(1);\n    topProject[proposalIteration] = 0;\n  }\n\n  function delegateVoting(address delegatedAddress)\n    public\n    userStaked(msg.sender)\n    userHasNoActiveProposal(msg.sender)\n  {\n    voteDelegations[msg.sender] = delegatedAddress;\n  }\n\n  function voteProxy(uint256 proposalIdToVoteFor, address delegatedFrom)\n    public\n    proposalActive(proposalIdToVoteFor)\n    proxyRight(delegatedFrom)\n    noVoteYet(delegatedFrom)\n    userStaked(delegatedFrom)\n    userHasNoActiveProposal(delegatedFrom)\n  // joinedInTime(delegatedFrom) // TODO: add this back, it is important! (only removed for ease of demoing)\n  {\n    // CODE DUPLICATION: CAREFUL OF CHANGES IN BOTH\n    proposalVotes[proposalIteration][proposalIdToVoteFor] = proposalVotes[proposalIteration][proposalIdToVoteFor]\n      .add(depositedDai[delegatedFrom]);\n    usersNominatedProject[proposalIteration][delegatedFrom] = proposalIdToVoteFor;\n\n    uint256 topProjectVotes = proposalVotes[proposalIteration][topProject[proposalIteration]];\n\n    // TODO:: if they are equal there is a problem (we must handle this!!)\n    if (proposalVotes[proposalIteration][proposalId] > topProjectVotes) {\n      topProject[proposalIteration] = proposalId;\n    }\n  }\n\n}\n",
  "sourcePath": "/home/jasoons/Documents/temp/app/contracts/contracts/NoLossDao.sol",
  "compiler": {
    "name": "solc",
    "version": "0.5.16+commit.9c3226ce.Emscripten.clang"
  },
  "schemaVersion": "3.0.23",
  "updatedAt": "2020-03-01T08:45:17.032Z",
  "networkType": "ethereum",
  "devdoc": {
    "methods": {}
  },
  "userdoc": {
    "methods": {}
  }
}