{
  "contractName": "NoLossDao",
  "abi": [
    {
      "constant": true,
      "inputs": [],
      "name": "aaveLendingContract",
      "outputs": [
        {
          "internalType": "contract IAaveLendingPool",
          "name": "",
          "type": "address"
        }
      ],
      "payable": false,
      "stateMutability": "view",
      "type": "function"
    },
    {
      "constant": true,
      "inputs": [],
      "name": "aaveLendingContractCore",
      "outputs": [
        {
          "internalType": "address",
          "name": "",
          "type": "address"
        }
      ],
      "payable": false,
      "stateMutability": "view",
      "type": "function"
    },
    {
      "constant": true,
      "inputs": [],
      "name": "adaiContract",
      "outputs": [
        {
          "internalType": "contract IADai",
          "name": "",
          "type": "address"
        }
      ],
      "payable": false,
      "stateMutability": "view",
      "type": "function"
    },
    {
      "constant": true,
      "inputs": [],
      "name": "admin",
      "outputs": [
        {
          "internalType": "address",
          "name": "",
          "type": "address"
        }
      ],
      "payable": false,
      "stateMutability": "view",
      "type": "function"
    },
    {
      "constant": true,
      "inputs": [],
      "name": "daiContract",
      "outputs": [
        {
          "internalType": "contract IERC20",
          "name": "",
          "type": "address"
        }
      ],
      "payable": false,
      "stateMutability": "view",
      "type": "function"
    },
    {
      "constant": true,
      "inputs": [
        {
          "internalType": "address",
          "name": "",
          "type": "address"
        }
      ],
      "name": "depositedDai",
      "outputs": [
        {
          "internalType": "uint256",
          "name": "",
          "type": "uint256"
        }
      ],
      "payable": false,
      "stateMutability": "view",
      "type": "function"
    },
    {
      "constant": true,
      "inputs": [
        {
          "internalType": "address",
          "name": "",
          "type": "address"
        }
      ],
      "name": "iterationJoined",
      "outputs": [
        {
          "internalType": "uint256",
          "name": "",
          "type": "uint256"
        }
      ],
      "payable": false,
      "stateMutability": "view",
      "type": "function"
    },
    {
      "constant": true,
      "inputs": [],
      "name": "proposalAmount",
      "outputs": [
        {
          "internalType": "uint256",
          "name": "",
          "type": "uint256"
        }
      ],
      "payable": false,
      "stateMutability": "view",
      "type": "function"
    },
    {
      "constant": true,
      "inputs": [],
      "name": "proposalDeadline",
      "outputs": [
        {
          "internalType": "uint256",
          "name": "",
          "type": "uint256"
        }
      ],
      "payable": false,
      "stateMutability": "view",
      "type": "function"
    },
    {
      "constant": true,
      "inputs": [
        {
          "internalType": "uint256",
          "name": "",
          "type": "uint256"
        }
      ],
      "name": "proposalDetails",
      "outputs": [
        {
          "internalType": "string",
          "name": "",
          "type": "string"
        }
      ],
      "payable": false,
      "stateMutability": "view",
      "type": "function"
    },
    {
      "constant": true,
      "inputs": [],
      "name": "proposalIteration",
      "outputs": [
        {
          "internalType": "uint256",
          "name": "",
          "type": "uint256"
        }
      ],
      "payable": false,
      "stateMutability": "view",
      "type": "function"
    },
    {
      "constant": true,
      "inputs": [
        {
          "internalType": "uint256",
          "name": "",
          "type": "uint256"
        }
      ],
      "name": "proposalOwner",
      "outputs": [
        {
          "internalType": "address",
          "name": "",
          "type": "address"
        }
      ],
      "payable": false,
      "stateMutability": "view",
      "type": "function"
    },
    {
      "constant": true,
      "inputs": [
        {
          "internalType": "uint256",
          "name": "",
          "type": "uint256"
        },
        {
          "internalType": "uint256",
          "name": "",
          "type": "uint256"
        }
      ],
      "name": "proposalVotes",
      "outputs": [
        {
          "internalType": "uint256",
          "name": "",
          "type": "uint256"
        }
      ],
      "payable": false,
      "stateMutability": "view",
      "type": "function"
    },
    {
      "constant": true,
      "inputs": [
        {
          "internalType": "uint256",
          "name": "",
          "type": "uint256"
        }
      ],
      "name": "state",
      "outputs": [
        {
          "internalType": "enum NoLossDao.ProposalState",
          "name": "",
          "type": "uint8"
        }
      ],
      "payable": false,
      "stateMutability": "view",
      "type": "function"
    },
    {
      "constant": true,
      "inputs": [
        {
          "internalType": "uint256",
          "name": "",
          "type": "uint256"
        }
      ],
      "name": "topProject",
      "outputs": [
        {
          "internalType": "uint256",
          "name": "",
          "type": "uint256"
        }
      ],
      "payable": false,
      "stateMutability": "view",
      "type": "function"
    },
    {
      "constant": true,
      "inputs": [],
      "name": "totalDepositedDai",
      "outputs": [
        {
          "internalType": "uint256",
          "name": "",
          "type": "uint256"
        }
      ],
      "payable": false,
      "stateMutability": "view",
      "type": "function"
    },
    {
      "constant": true,
      "inputs": [
        {
          "internalType": "uint256",
          "name": "",
          "type": "uint256"
        },
        {
          "internalType": "address",
          "name": "",
          "type": "address"
        }
      ],
      "name": "usersNominatedProject",
      "outputs": [
        {
          "internalType": "uint256",
          "name": "",
          "type": "uint256"
        }
      ],
      "payable": false,
      "stateMutability": "view",
      "type": "function"
    },
    {
      "constant": true,
      "inputs": [
        {
          "internalType": "address",
          "name": "",
          "type": "address"
        }
      ],
      "name": "usersProposedProject",
      "outputs": [
        {
          "internalType": "uint256",
          "name": "",
          "type": "uint256"
        }
      ],
      "payable": false,
      "stateMutability": "view",
      "type": "function"
    },
    {
      "constant": true,
      "inputs": [
        {
          "internalType": "address",
          "name": "",
          "type": "address"
        }
      ],
      "name": "voteDelegations",
      "outputs": [
        {
          "internalType": "address",
          "name": "",
          "type": "address"
        }
      ],
      "payable": false,
      "stateMutability": "view",
      "type": "function"
    },
    {
      "constant": true,
      "inputs": [],
      "name": "votingInterval",
      "outputs": [
        {
          "internalType": "uint256",
          "name": "",
          "type": "uint256"
        }
      ],
      "payable": false,
      "stateMutability": "view",
      "type": "function"
    },
    {
      "constant": false,
      "inputs": [
        {
          "internalType": "address",
          "name": "daiAddress",
          "type": "address"
        },
        {
          "internalType": "address",
          "name": "aDaiAddress",
          "type": "address"
        },
        {
          "internalType": "address",
          "name": "aavePoolAddress",
          "type": "address"
        },
        {
          "internalType": "address",
          "name": "aavePoolCoreAddress",
          "type": "address"
        },
        {
          "internalType": "uint256",
          "name": "_proposalAmount",
          "type": "uint256"
        },
        {
          "internalType": "uint256",
          "name": "_votingInterval",
          "type": "uint256"
        }
      ],
      "name": "initialize",
      "outputs": [],
      "payable": false,
      "stateMutability": "nonpayable",
      "type": "function"
    },
    {
      "constant": false,
      "inputs": [
        {
          "internalType": "uint256",
          "name": "newInterval",
          "type": "uint256"
        }
      ],
      "name": "changeVotingInterval",
      "outputs": [],
      "payable": false,
      "stateMutability": "nonpayable",
      "type": "function"
    },
    {
      "constant": false,
      "inputs": [
        {
          "internalType": "uint256",
          "name": "amount",
          "type": "uint256"
        }
      ],
      "name": "deposit",
      "outputs": [],
      "payable": false,
      "stateMutability": "nonpayable",
      "type": "function"
    },
    {
      "constant": false,
      "inputs": [
        {
          "internalType": "uint256",
          "name": "amount",
          "type": "uint256"
        }
      ],
      "name": "withdrawFull",
      "outputs": [],
      "payable": false,
      "stateMutability": "nonpayable",
      "type": "function"
    },
    {
      "constant": false,
      "inputs": [
        {
          "internalType": "string",
          "name": "proposalHash",
          "type": "string"
        }
      ],
      "name": "createProposal",
      "outputs": [
        {
          "internalType": "uint256",
          "name": "newProposalId",
          "type": "uint256"
        }
      ],
      "payable": false,
      "stateMutability": "nonpayable",
      "type": "function"
    },
    {
      "constant": false,
      "inputs": [],
      "name": "withdrawProposal",
      "outputs": [],
      "payable": false,
      "stateMutability": "nonpayable",
      "type": "function"
    },
    {
      "constant": false,
      "inputs": [
        {
          "internalType": "uint256",
          "name": "proposalIdToVoteFor",
          "type": "uint256"
        }
      ],
      "name": "vote",
      "outputs": [],
      "payable": false,
      "stateMutability": "nonpayable",
      "type": "function"
    },
    {
      "constant": false,
      "inputs": [],
      "name": "distributeFunds",
      "outputs": [],
      "payable": false,
      "stateMutability": "nonpayable",
      "type": "function"
    },
    {
      "constant": false,
      "inputs": [
        {
          "internalType": "address",
          "name": "delegatedAddress",
          "type": "address"
        }
      ],
      "name": "delegateVoting",
      "outputs": [],
      "payable": false,
      "stateMutability": "nonpayable",
      "type": "function"
    },
    {
      "constant": false,
      "inputs": [
        {
          "internalType": "uint256",
          "name": "proposalIdToVoteFor",
          "type": "uint256"
        },
        {
          "internalType": "address",
          "name": "delegatedFrom",
          "type": "address"
        }
      ],
      "name": "voteProxy",
      "outputs": [],
      "payable": false,
      "stateMutability": "nonpayable",
      "type": "function"
    }
  ],
  "bytecode": "0x608060405234801561001057600080fd5b50611c9f806100206000396000f3fe608060405234801561001057600080fd5b50600436106101da5760003560e01c8063765cb83a11610104578063bdd882f0116100a2578063d7c41c7911610071578063d7c41c791461058d578063d8a3239f146105d9578063f851a440146105f6578063fcde9925146105fe576101da565b8063bdd882f01461053a578063c68dc6ad14610557578063ca28f0d01461055f578063d1c22c3b14610585576101da565b80638cc6d535116100de5780638cc6d535146104c3578063976ee2b6146104cb578063a5871182146104f7578063b6b55f251461051d576101da565b8063765cb83a1461046f5780637ce1f8441461049557806382a0ca9c1461049d576101da565b806339ab499b1161017c57806351252f6c1161014b57806351252f6c1461043a5780636b38def2146104575780637566ad531461045f5780637584939914610467576101da565b806339ab499b146103255780633a6a4d2e1461034b5780633e4f49e61461035357806349c2a1a614610394576101da565b80630d68eb9e116101b85780630d68eb9e1461023257806316e9eaec14610267578063173a2b5c146102f95780632ce8b91314610301576101da565b80630121b93f146101df578063031cf1d9146101fe57806303ef7f3914610206575b600080fd5b6101fc600480360360208110156101f557600080fd5b503561061b565b005b6101fc6108dc565b6101fc6004803603604081101561021c57600080fd5b50803590602001356001600160a01b031661098f565b6102556004803603604081101561024857600080fd5b5080359060200135610cfc565b60408051918252519081900360200190f35b6102846004803603602081101561027d57600080fd5b5035610d19565b6040805160208082528351818301528351919283929083019185019080838360005b838110156102be5781810151838201526020016102a6565b50505050905090810190601f1680156102eb5780820380516001836020036101000a031916815260200191505b509250505060405180910390f35b610255610db4565b610309610dba565b604080516001600160a01b039092168252519081900360200190f35b6102556004803603602081101561033b57600080fd5b50356001600160a01b0316610dc9565b6101fc610ddb565b6103706004803603602081101561036957600080fd5b5035611098565b6040518082600181111561038057fe5b60ff16815260200191505060405180910390f35b610255600480360360208110156103aa57600080fd5b8101906020810181356401000000008111156103c557600080fd5b8201836020820111156103d757600080fd5b803590602001918460018302840111640100000000831117156103f957600080fd5b91908080601f0160208091040260200160405190810160405280939291908181526020018383808284376000920191909152509295506110ad945050505050565b6101fc6004803603602081101561045057600080fd5b50356113c1565b610309611411565b610255611420565b610255611426565b6101fc6004803603602081101561048557600080fd5b50356001600160a01b031661142c565b610255611552565b610255600480360360208110156104b357600080fd5b50356001600160a01b0316611558565b61030961156a565b610255600480360360408110156104e157600080fd5b50803590602001356001600160a01b0316611579565b6102556004803603602081101561050d57600080fd5b50356001600160a01b0316611596565b6101fc6004803603602081101561053357600080fd5b50356115a8565b6102556004803603602081101561055057600080fd5b50356118e9565b6103096118fb565b6103096004803603602081101561057557600080fd5b50356001600160a01b031661190a565b610255611925565b6101fc600480360360c08110156105a357600080fd5b506001600160a01b0381358116916020810135821691604082013581169160608101359091169060808101359060a0013561192b565b6101fc600480360360208110156105ef57600080fd5b5035611a44565b610309611a47565b6103096004803603602081101561061457600080fd5b5035611a56565b806000808281526044602052604090205460ff16600181111561063a57fe5b14610684576040805162461bcd60e51b815260206004820152601560248201527450726f706f73616c2069736e27742061637469766560581b604482015290519081900360640190fd5b604254600090815260376020908152604080832033808552925290912054156106de5760405162461bcd60e51b8152600401808060200182810382526021815260200180611bcf6021913960400191505060405180910390fd5b33600081815260336020526040902054610733576040805162461bcd60e51b81526020600482015260116024820152705573657220686173206e6f207374616b6560781b604482015290519081900360640190fd5b336000818152603860209081526040808320548352604490915290205460019060ff168181111561076057fe5b148061078257506001600160a01b038116600090815260386020526040902054155b6107d3576040805162461bcd60e51b815260206004820152601b60248201527f557365722068617320616e206163746976652070726f706f73616c0000000000604482015290519081900360640190fd5b604254336000818152603960205260409020549091116108245760405162461bcd60e51b8152600401808060200182810382526029815260200180611bf06029913960400191505060405180910390fd5b336000908152603360209081526040808320546042548452603683528184208a85529092529091205461085c9163ffffffff611a7116565b6042805460009081526036602081815260408084208c8552825280842095909555835483526037815284832033845281528483208b9055925482528252828120603a8352838220548252909152818120546043548252919020548110156108d3576043546042546000908152603a60205260409020555b50505050505050565b336000818152603860209081526040808320548352604490915281205460ff16600181111561090757fe5b146109435760405162461bcd60e51b8152600401808060200182810382526024815260200180611c476024913960400191505060405180910390fd5b33600090815260386020908152604080832054835260449091529020805460ff19166001179055603c54603b5461097991611ad2565b603b555033600090815260336020526040812055565b816000808281526044602052604090205460ff1660018111156109ae57fe5b146109f8576040805162461bcd60e51b815260206004820152601560248201527450726f706f73616c2069736e27742061637469766560581b604482015290519081900360640190fd5b6001600160a01b038083166000908152604560205260409020548391163314610a68576040805162461bcd60e51b815260206004820152601d60248201527f5573657220646f65736e277420686176652070726f7879207269676874000000604482015290519081900360640190fd5b60425460009081526037602090815260408083206001600160a01b0387168452909152902054839015610acc5760405162461bcd60e51b8152600401808060200182810382526021815260200180611bcf6021913960400191505060405180910390fd5b6001600160a01b0384166000908152603360205260409020548490610b2c576040805162461bcd60e51b81526020600482015260116024820152705573657220686173206e6f207374616b6560781b604482015290519081900360640190fd5b8460016001600160a01b0382166000908152603860209081526040808320548352604490915290205460ff166001811115610b6357fe5b1480610b8557506001600160a01b038116600090815260386020526040902054155b610bd6576040805162461bcd60e51b815260206004820152601b60248201527f557365722068617320616e206163746976652070726f706f73616c0000000000604482015290519081900360640190fd5b6042546001600160a01b038716600090815260396020526040902054879111610c305760405162461bcd60e51b8152600401808060200182810382526029815260200180611bf06029913960400191505060405180910390fd5b6001600160a01b0387166000908152603360209081526040808320546042548452603683528184208c855290925290912054610c719163ffffffff611a7116565b6042805460009081526036602081815260408084208e855282528084209590955583548352603781528483206001600160a01b038d16845281528483208d9055925482528252828120603a835283822054825290915281812054604354825291902054811015610cf1576043546042546000908152603a60205260409020555b505050505050505050565b603660209081526000928352604080842090915290825290205481565b60356020908152600091825260409182902080548351601f600260001961010060018616150201909316929092049182018490048402810184019094528084529091830182828015610dac5780601f10610d8157610100808354040283529160200191610dac565b820191906000526020600020905b815481529060010190602001808311610d8f57829003601f168201915b505050505081565b603c5481565b603d546001600160a01b031681565b60386020526000908152604090205481565b4260475411610e31576040805162461bcd60e51b815260206004820152601960248201527f63757272656e7420766f7465207374696c6c2061637469766500000000000000604482015290519081900360640190fd5b6042546000908152603a60205260409020541561105657603b546040805481516370a0823160e01b81523060048201529151600093610ed49390926001600160a01b0316916370a0823191602480820192602092909190829003018186803b158015610e9c57600080fd5b505afa158015610eb0573d6000803e3d6000fd5b505050506040513d6020811015610ec657600080fd5b50519063ffffffff611ad216565b60408054815163db006a7560e01b81526004810184905291519293506001600160a01b03169163db006a759160248082019260009290919082900301818387803b158015610f2157600080fd5b505af1158015610f35573d6000803e3d6000fd5b50506042546000908152603a602090815260408083205483526034825280832054603d5482516370a0823160e01b815230600482015292516001600160a01b03928316975094955016926370a0823192602480840193919291829003018186803b158015610fa257600080fd5b505afa158015610fb6573d6000803e3d6000fd5b505050506040513d6020811015610fcc57600080fd5b5051603d546040805163a9059cbb60e01b81526001600160a01b03868116600483015260248201859052915193945091169163a9059cbb916044808201926020929091908290030181600087803b15801561102657600080fd5b505af115801561103a573d6000803e3d6000fd5b505050506040513d602081101561105057600080fd5b50505050505b60465460475461106b9163ffffffff611a7116565b60475560425461108290600163ffffffff611a7116565b60428190556000908152603a6020526040812055565b60446020526000908152604090205460ff1681565b603c54603d5460408051636eb1769f60e11b81523360048201523060248201529051600093926001600160a01b03169163dd62ed3e916044808301926020929190829003018186803b15801561110257600080fd5b505afa158015611116573d6000803e3d6000fd5b505050506040513d602081101561112c57600080fd5b5051811115611179576040805162461bcd60e51b8152602060048201526014602482015273616d6f756e74206e6f7420617661696c61626c6560601b604482015290519081900360640190fd5b603d54603c54604080516323b872dd60e01b81523360048201523060248201526044810192909252516001600160a01b03909216916323b872dd916064808201926020929091908290030181600087803b1580156111d657600080fd5b505af11580156111ea573d6000803e3d6000fd5b505050506040513d602081101561120057600080fd5b5050603d54603f54603c546040805163095ea7b360e01b81526001600160a01b039384166004820152602481019290925251919092169163095ea7b39160448083019260209291908290030181600087803b15801561125e57600080fd5b505af1158015611272573d6000803e3d6000fd5b505050506040513d602081101561128857600080fd5b5050603e54603d54603c5460408051636968703360e11b81526001600160a01b03938416600482015260248101929092526000604483018190529051929093169263d2d0e0669260648084019382900301818387803b1580156112ea57600080fd5b505af11580156112fe573d6000803e3d6000fd5b5050603c54603b546113189350915063ffffffff611a7116565b603b55603c543360009081526033602052604090205461133d9163ffffffff611a7116565b3360009081526033602052604090205560435461136190600163ffffffff611a7116565b60438190556000818152603560209081526040909120855192945061138a929091860190611b36565b5050600081815260346020908152604080832080546001600160a01b0319163317905560449091529020805460ff19169055919050565b6041546001600160a01b0316331461140c576040805162461bcd60e51b81526020600482015260096024820152682737ba1030b236b4b760b91b604482015290519081900360640190fd5b604655565b6040546001600160a01b031681565b60465481565b60425481565b33600081815260336020526040902054611481576040805162461bcd60e51b81526020600482015260116024820152705573657220686173206e6f207374616b6560781b604482015290519081900360640190fd5b336000818152603860209081526040808320548352604490915290205460019060ff16818111156114ae57fe5b14806114d057506001600160a01b038116600090815260386020526040902054155b611521576040805162461bcd60e51b815260206004820152601b60248201527f557365722068617320616e206163746976652070726f706f73616c0000000000604482015290519081900360640190fd5b505033600090815260456020526040902080546001600160a01b0319166001600160a01b0392909216919091179055565b60475481565b60336020526000908152604090205481565b603f546001600160a01b031681565b603760209081526000928352604080842090915290825290205481565b60396020526000908152604090205481565b3360009081526033602052604090205415611600576040805162461bcd60e51b81526020600482015260136024820152725573657220616c72656164792065786973747360681b604482015290519081900360640190fd5b3360008181526038602052604090205415611662576040805162461bcd60e51b815260206004820152601b60248201527f5573657220616c72656164792068617320612070726f706f73616c0000000000604482015290519081900360640190fd5b603d5460408051636eb1769f60e11b8152336004820152306024820152905184926001600160a01b03169163dd62ed3e916044808301926020929190829003018186803b1580156116b257600080fd5b505afa1580156116c6573d6000803e3d6000fd5b505050506040513d60208110156116dc57600080fd5b5051811115611729576040805162461bcd60e51b8152602060048201526014602482015273616d6f756e74206e6f7420617661696c61626c6560601b604482015290519081900360640190fd5b603d54604080516323b872dd60e01b81523360048201523060248201526044810186905290516001600160a01b03909216916323b872dd916064808201926020929091908290030181600087803b15801561178357600080fd5b505af1158015611797573d6000803e3d6000fd5b505050506040513d60208110156117ad57600080fd5b5050603d54603f546040805163095ea7b360e01b81526001600160a01b039283166004820152602481018790529051919092169163095ea7b39160448083019260209291908290030181600087803b15801561180857600080fd5b505af115801561181c573d6000803e3d6000fd5b505050506040513d602081101561183257600080fd5b5050603e54603d5460408051636968703360e11b81526001600160a01b039283166004820152602481018790526000604482018190529151929093169263d2d0e066926064808301939282900301818387803b15801561189157600080fd5b505af11580156118a5573d6000803e3d6000fd5b50503360009081526033602052604090208590555050603b546118ce908463ffffffff611a7116565b603b5550506042543360009081526039602052604090205550565b603a6020526000908152604090205481565b603e546001600160a01b031681565b6045602052600090815260409020546001600160a01b031681565b603b5481565b600054610100900460ff16806119445750611944611b2f565b80611952575060005460ff16155b61198d5760405162461bcd60e51b815260040180806020018281038252602e815260200180611c19602e913960400191505060405180910390fd5b600054610100900460ff161580156119b8576000805460ff1961ff0019909116610100171660011790555b603d80546001600160a01b03808a166001600160a01b031992831617909255603e805488841690831617905560408054898416908316179055603f8054928716928216929092179091556041805490911633179055603c8390556046829055611a27428363ffffffff611a7116565b60475580156108d3576000805461ff001916905550505050505050565b50565b6041546001600160a01b031681565b6034602052600090815260409020546001600160a01b031681565b600082820183811015611acb576040805162461bcd60e51b815260206004820152601b60248201527f536166654d6174683a206164646974696f6e206f766572666c6f770000000000604482015290519081900360640190fd5b9392505050565b600082821115611b29576040805162461bcd60e51b815260206004820152601e60248201527f536166654d6174683a207375627472616374696f6e206f766572666c6f770000604482015290519081900360640190fd5b50900390565b303b155b90565b828054600181600116156101000203166002900490600052602060002090601f016020900481019282601f10611b7757805160ff1916838001178555611ba4565b82800160010185558215611ba4579182015b82811115611ba4578251825591602001919060010190611b89565b50611bb0929150611bb4565b5090565b611b3391905b80821115611bb05760008155600101611bba56fe5573657220616c726561647920766f746564207468697320697465726174696f6e55736572206f6e6c7920656c696769626c6520746f20766f7465206e65787420697465726174696f6e436f6e747261637420696e7374616e63652068617320616c7265616479206265656e20696e697469616c697a65645573657220646f65736e2774206861766520616e206163746976652070726f706f73616ca265627a7a72315820b2be404f47a4bb0a1603e3c977e1710ca0f6566ce6defa011355418c03bc508364736f6c63430005100032",
  "source": "pragma solidity 0.5.16;\n\n// import \"./interfaces/IERC20.sol\";\nimport './interfaces/IAaveLendingPool.sol';\nimport './interfaces/IADai.sol';\nimport '@openzeppelin/contracts-ethereum-package/contracts/token/ERC20/ERC20.sol';\n\ncontract NoLossDao is Initializable {\n  using SafeMath for uint256;\n\n  mapping(address => uint256) public depositedDai;\n  mapping(uint256 => address) public proposalOwner;\n  mapping(uint256 => string) public proposalDetails;\n  mapping(uint256 => mapping(uint256 => uint256)) public proposalVotes;\n\n  mapping(uint256 => mapping(address => uint256)) public usersNominatedProject; // Means user can only have one project.\n  mapping(address => uint256) public usersProposedProject;\n  mapping(address => uint256) public iterationJoined;\n\n  mapping(uint256 => uint256) public topProject;\n\n  uint256 public totalDepositedDai;\n  uint256 public proposalAmount;\n\n  IERC20 public daiContract;\n  IAaveLendingPool public aaveLendingContract;\n  address public aaveLendingContractCore;\n  IADai public adaiContract;\n  address public admin;\n\n  uint256 public proposalIteration;\n\n  uint256 proposalId;\n  enum ProposalState {Active, Withdrawn} // Cooldown\n  mapping(uint256 => ProposalState) public state; // ProposalId to current state\n\n  mapping(address => address) public voteDelegations;\n\n  uint256 public votingInterval;\n  uint256 public proposalDeadline;\n\n  modifier onlyAdmin() {\n    require(msg.sender == admin, 'Not admin');\n    _;\n  }\n\n  modifier blankUser() {\n    require(depositedDai[msg.sender] == 0, 'User already exists');\n    _;\n  }\n\n  modifier userStaked(address givenAddress) {\n    require(depositedDai[givenAddress] > 0, 'User has no stake');\n    _;\n  }\n\n  modifier noProposal(address givenAddress) {\n    require(\n      usersProposedProject[givenAddress] == 0,\n      'User already has a proposal'\n    );\n    _;\n  }\n\n  modifier noVoteYet(address givenAddress) {\n    require(\n      usersNominatedProject[proposalIteration][givenAddress] == 0,\n      'User already voted this iteration'\n    );\n    _;\n  }\n\n  modifier userHasActiveProposal(address givenAddress) {\n    require(\n      state[usersProposedProject[givenAddress]] == ProposalState.Active,\n      \"User doesn't have an active proposal\"\n    );\n    _;\n  }\n\n  modifier userHasNoActiveProposal(address givenAddress) {\n    require(\n      state[usersProposedProject[givenAddress]] == ProposalState.Withdrawn ||\n        usersProposedProject[givenAddress] == 0,\n      'User has an active proposal'\n    );\n    _;\n  }\n\n  modifier proposalActive(uint256 propId) {\n    require(state[propId] == ProposalState.Active, \"Proposal isn't active\");\n    _;\n  }\n\n  modifier allowanceAvailable(uint256 amount) {\n    require(\n      amount <= daiContract.allowance(msg.sender, address(this)),\n      'amount not available'\n    );\n    _;\n  }\n\n  // Modifiers for proxy\n  modifier proxyRight(address delegatedFrom) {\n    require(\n      voteDelegations[delegatedFrom] == msg.sender,\n      \"User doesn't have proxy right\"\n    );\n    _;\n  }\n\n  // Modifiers for proxy\n  modifier joinedInTime(address givenAddress) {\n    require(\n      iterationJoined[givenAddress] < proposalIteration,\n      'User only eligible to vote next iteration'\n    );\n    _;\n  }\n\n  function initialize(\n    address daiAddress,\n    address aDaiAddress,\n    address aavePoolAddress,\n    address aavePoolCoreAddress,\n    uint256 _proposalAmount,\n    uint256 _votingInterval\n  ) public initializer {\n    daiContract = IERC20(daiAddress);\n    aaveLendingContract = IAaveLendingPool(aavePoolAddress);\n    adaiContract = IADai(aDaiAddress);\n    aaveLendingContractCore = aavePoolCoreAddress;\n    admin = msg.sender;\n    proposalAmount = _proposalAmount;\n    votingInterval = _votingInterval;\n\n    proposalDeadline = now.add(_votingInterval);\n  }\n\n  function changeVotingInterval(uint256 newInterval) public onlyAdmin {\n    votingInterval = newInterval;\n  }\n\n  // This will return an empty array if no proposal added\n  //   function proposalHashes() public view returns (string[] memory) {\n  //     string[] memory myHashes = new string[](proposalId);\n  //     for (uint256 i = 1; i <= proposalId; i++) {\n  //       myHashes[i - 1] = proposalDetails[i];\n  //     }\n  //     return myHashes;\n  //   }\n\n  function deposit(uint256 amount)\n    public\n    blankUser\n    noProposal(msg.sender)\n    allowanceAvailable(amount)\n  {\n    daiContract.transferFrom(msg.sender, address(this), amount);\n    daiContract.approve(address(aaveLendingContractCore), amount);\n    aaveLendingContract.deposit(address(daiContract), amount, 0);\n\n    //setting values\n    depositedDai[msg.sender] = amount;\n    totalDepositedDai = totalDepositedDai.add(amount);\n    iterationJoined[msg.sender] = proposalIteration;\n  }\n\n  function withdrawFull(uint256 amount) public {\n    // Participant withdraws all there DAI and exits our system :(\n    // Check the user exists in our system\n    // Check the amount they have deposited\n    // Exchange aDAI to DAI for this amount\n    // Send them back their dai\n    // Remove their amount of dai from the total we have\n    // IMPORTANT, remove their vote amount...\n  }\n\n  function createProposal(string memory proposalHash)\n    public\n    allowanceAvailable(proposalAmount)\n    returns (uint256 newProposalId)\n  {\n    // DAI things. TODO: Approve where necessary\n    daiContract.transferFrom(msg.sender, address(this), proposalAmount);\n    daiContract.approve(address(aaveLendingContractCore), proposalAmount);\n    aaveLendingContract.deposit(\n      address(daiContract),\n      proposalAmount,\n      0 /* We should research this referal code stuff... https://developers.aave.com/#referral-program */\n    );\n\n    totalDepositedDai = totalDepositedDai.add(proposalAmount);\n    depositedDai[msg.sender] = depositedDai[msg.sender].add(proposalAmount);\n\n    // So the first proposal will have an ID of 1\n    proposalId = proposalId.add(1);\n    newProposalId = proposalId;\n\n    proposalDetails[newProposalId] = proposalHash;\n    proposalOwner[newProposalId] = msg.sender;\n    state[newProposalId] = ProposalState.Active;\n  }\n\n  function withdrawProposal() public userHasActiveProposal(msg.sender) {\n    //This can only be executed after every cycle\n    state[usersProposedProject[msg.sender]] = ProposalState.Withdrawn;\n    totalDepositedDai = totalDepositedDai.sub(proposalAmount);\n    depositedDai[msg.sender] = 0;\n    // TODO\n    // Remove proposalAmount from aDAI\n    // Convert to DAI\n    // Send back to owner\n  }\n\n  function vote(uint256 proposalIdToVoteFor)\n    public\n    proposalActive(proposalIdToVoteFor)\n    noVoteYet(msg.sender)\n    userStaked(msg.sender)\n    userHasNoActiveProposal(msg.sender)\n    joinedInTime(msg.sender)\n  {\n    proposalVotes[proposalIteration][proposalIdToVoteFor] = proposalVotes[proposalIteration][proposalIdToVoteFor]\n      .add(depositedDai[msg.sender]);\n    usersNominatedProject[proposalIteration][msg.sender] = proposalIdToVoteFor;\n\n    uint256 topProjectVotes = proposalVotes[proposalIteration][topProject[proposalIteration]];\n\n    // TODO:: if they are equal there is a problem (we must handle this!!)\n    if (proposalVotes[proposalIteration][proposalId] > topProjectVotes) {\n      topProject[proposalIteration] = proposalId;\n    }\n  }\n\n  function distributeFunds() public {\n    // On a *whatever we decide basis* the funds are distributed to the winning project\n    // E.g. every 2 weeks, the project with the most votes gets the generated interest.\n\n    require(proposalDeadline > now, 'current vote still active');\n\n    if (topProject[proposalIteration] != 0) {\n      uint256 interestEarnedSinceLastIteration = adaiContract\n        .balanceOf(address(this))\n        .sub(totalDepositedDai);\n\n      adaiContract.redeem(interestEarnedSinceLastIteration);\n\n      // Do some asserts here for safety...\n\n      address winner = proposalOwner[topProject[proposalIteration]];\n      uint256 amount = daiContract.balanceOf(address(this));\n\n      daiContract.transfer(winner, amount);\n    }\n\n    proposalDeadline = proposalDeadline.add(votingInterval);\n\n    proposalIteration = proposalIteration.add(1);\n    topProject[proposalIteration] = 0;\n  }\n\n  function delegateVoting(address delegatedAddress)\n    public\n    userStaked(msg.sender)\n    userHasNoActiveProposal(msg.sender)\n  {\n    voteDelegations[msg.sender] = delegatedAddress;\n  }\n\n  function voteProxy(uint256 proposalIdToVoteFor, address delegatedFrom)\n    public\n    proposalActive(proposalIdToVoteFor)\n    proxyRight(delegatedFrom)\n    noVoteYet(delegatedFrom)\n    userStaked(delegatedFrom)\n    userHasNoActiveProposal(delegatedFrom)\n    joinedInTime(delegatedFrom)\n  {\n    // CODE DUPLICATION: CAREFUL OF CHANGES IN BOTH\n    proposalVotes[proposalIteration][proposalIdToVoteFor] = proposalVotes[proposalIteration][proposalIdToVoteFor]\n      .add(depositedDai[delegatedFrom]);\n    usersNominatedProject[proposalIteration][delegatedFrom] = proposalIdToVoteFor;\n\n    uint256 topProjectVotes = proposalVotes[proposalIteration][topProject[proposalIteration]];\n\n    // TODO:: if they are equal there is a problem (we must handle this!!)\n    if (proposalVotes[proposalIteration][proposalId] > topProjectVotes) {\n      topProject[proposalIteration] = proposalId;\n    }\n  }\n\n}\n",
  "sourcePath": "/home/jasoons/Documents/temp/app/contracts/contracts/NoLossDao.sol",
  "compiler": {
    "name": "solc",
    "version": "0.5.16+commit.9c3226ce.Emscripten.clang"
  },
  "schemaVersion": "3.0.23",
  "updatedAt": "2020-03-01T02:54:25.051Z",
  "networkType": "ethereum",
  "devdoc": {
    "methods": {}
  },
  "userdoc": {
    "methods": {}
  }
}