{
  "contractName": "NoLossDao",
  "abi": [
    {
      "constant": true,
      "inputs": [],
      "name": "aaveLendingContract",
      "outputs": [
        {
          "internalType": "contract IAaveLendingPool",
          "name": "",
          "type": "address"
        }
      ],
      "payable": false,
      "stateMutability": "view",
      "type": "function"
    },
    {
      "constant": true,
      "inputs": [],
      "name": "adaiContract",
      "outputs": [
        {
          "internalType": "contract IADai",
          "name": "",
          "type": "address"
        }
      ],
      "payable": false,
      "stateMutability": "view",
      "type": "function"
    },
    {
      "constant": true,
      "inputs": [],
      "name": "admin",
      "outputs": [
        {
          "internalType": "address",
          "name": "",
          "type": "address"
        }
      ],
      "payable": false,
      "stateMutability": "view",
      "type": "function"
    },
    {
      "constant": true,
      "inputs": [],
      "name": "daiContract",
      "outputs": [
        {
          "internalType": "contract IERC20",
          "name": "",
          "type": "address"
        }
      ],
      "payable": false,
      "stateMutability": "view",
      "type": "function"
    },
    {
      "constant": true,
      "inputs": [
        {
          "internalType": "address",
          "name": "",
          "type": "address"
        }
      ],
      "name": "depositedDai",
      "outputs": [
        {
          "internalType": "uint256",
          "name": "",
          "type": "uint256"
        }
      ],
      "payable": false,
      "stateMutability": "view",
      "type": "function"
    },
    {
      "constant": true,
      "inputs": [],
      "name": "proposalAmount",
      "outputs": [
        {
          "internalType": "uint256",
          "name": "",
          "type": "uint256"
        }
      ],
      "payable": false,
      "stateMutability": "view",
      "type": "function"
    },
    {
      "constant": true,
      "inputs": [
        {
          "internalType": "uint256",
          "name": "",
          "type": "uint256"
        }
      ],
      "name": "proposalDetails",
      "outputs": [
        {
          "internalType": "string",
          "name": "",
          "type": "string"
        }
      ],
      "payable": false,
      "stateMutability": "view",
      "type": "function"
    },
    {
      "constant": true,
      "inputs": [
        {
          "internalType": "uint256",
          "name": "",
          "type": "uint256"
        }
      ],
      "name": "proposalOwner",
      "outputs": [
        {
          "internalType": "address",
          "name": "",
          "type": "address"
        }
      ],
      "payable": false,
      "stateMutability": "view",
      "type": "function"
    },
    {
      "constant": true,
      "inputs": [
        {
          "internalType": "uint256",
          "name": "",
          "type": "uint256"
        },
        {
          "internalType": "uint256",
          "name": "",
          "type": "uint256"
        }
      ],
      "name": "proposalVotes",
      "outputs": [
        {
          "internalType": "uint256",
          "name": "",
          "type": "uint256"
        }
      ],
      "payable": false,
      "stateMutability": "view",
      "type": "function"
    },
    {
      "constant": true,
      "inputs": [
        {
          "internalType": "uint256",
          "name": "",
          "type": "uint256"
        }
      ],
      "name": "state",
      "outputs": [
        {
          "internalType": "enum NoLossDao.ProposalState",
          "name": "",
          "type": "uint8"
        }
      ],
      "payable": false,
      "stateMutability": "view",
      "type": "function"
    },
    {
      "constant": true,
      "inputs": [],
      "name": "topProject",
      "outputs": [
        {
          "internalType": "uint256",
          "name": "",
          "type": "uint256"
        }
      ],
      "payable": false,
      "stateMutability": "view",
      "type": "function"
    },
    {
      "constant": true,
      "inputs": [],
      "name": "totalDepositedDai",
      "outputs": [
        {
          "internalType": "uint256",
          "name": "",
          "type": "uint256"
        }
      ],
      "payable": false,
      "stateMutability": "view",
      "type": "function"
    },
    {
      "constant": true,
      "inputs": [
        {
          "internalType": "uint256",
          "name": "",
          "type": "uint256"
        },
        {
          "internalType": "address",
          "name": "",
          "type": "address"
        }
      ],
      "name": "usersNominatedProject",
      "outputs": [
        {
          "internalType": "uint256",
          "name": "",
          "type": "uint256"
        }
      ],
      "payable": false,
      "stateMutability": "view",
      "type": "function"
    },
    {
      "constant": true,
      "inputs": [
        {
          "internalType": "address",
          "name": "",
          "type": "address"
        }
      ],
      "name": "usersProposedProject",
      "outputs": [
        {
          "internalType": "uint256",
          "name": "",
          "type": "uint256"
        }
      ],
      "payable": false,
      "stateMutability": "view",
      "type": "function"
    },
    {
      "constant": false,
      "inputs": [
        {
          "internalType": "address",
          "name": "daiAddress",
          "type": "address"
        },
        {
          "internalType": "address",
          "name": "aaveAddress",
          "type": "address"
        },
        {
          "internalType": "uint256",
          "name": "_proposalAmount",
          "type": "uint256"
        }
      ],
      "name": "initialize",
      "outputs": [],
      "payable": false,
      "stateMutability": "nonpayable",
      "type": "function"
    },
    {
      "constant": false,
      "inputs": [
        {
          "internalType": "uint256",
          "name": "amount",
          "type": "uint256"
        }
      ],
      "name": "deposit",
      "outputs": [],
      "payable": false,
      "stateMutability": "nonpayable",
      "type": "function"
    },
    {
      "constant": false,
      "inputs": [
        {
          "internalType": "uint256",
          "name": "amount",
          "type": "uint256"
        }
      ],
      "name": "withdrawFull",
      "outputs": [],
      "payable": false,
      "stateMutability": "nonpayable",
      "type": "function"
    },
    {
      "constant": false,
      "inputs": [
        {
          "internalType": "string",
          "name": "proposalHash",
          "type": "string"
        }
      ],
      "name": "createProposal",
      "outputs": [
        {
          "internalType": "uint256",
          "name": "newProposalId",
          "type": "uint256"
        }
      ],
      "payable": false,
      "stateMutability": "nonpayable",
      "type": "function"
    },
    {
      "constant": false,
      "inputs": [],
      "name": "withdrawProposal",
      "outputs": [],
      "payable": false,
      "stateMutability": "nonpayable",
      "type": "function"
    },
    {
      "constant": false,
      "inputs": [
        {
          "internalType": "uint256",
          "name": "proposalIdToVoteFor",
          "type": "uint256"
        }
      ],
      "name": "vote",
      "outputs": [],
      "payable": false,
      "stateMutability": "nonpayable",
      "type": "function"
    },
    {
      "constant": false,
      "inputs": [],
      "name": "distributeFunds",
      "outputs": [],
      "payable": false,
      "stateMutability": "nonpayable",
      "type": "function"
    },
    {
      "constant": false,
      "inputs": [],
      "name": "delegateVoting",
      "outputs": [],
      "payable": false,
      "stateMutability": "nonpayable",
      "type": "function"
    }
  ],
  "bytecode": "0x608060405234801561001057600080fd5b50611298806100206000396000f3fe608060405234801561001057600080fd5b50600436106101425760003560e01c80636b38def2116100b8578063c68dc6ad1161007c578063c68dc6ad1461042b578063d1c22c3b14610433578063d8a3239f1461043b578063f1018ae914610458578063f851a44014610460578063fcde99251461046857610142565b80636b38def2146103ac57806382a0ca9c146103b4578063976ee2b6146103da578063b6b55f2514610406578063b81d858a1461042357610142565b80631794bb3c1161010a5780631794bb3c1461023d5780632ce8b9131461027357806339ab499b146102975780633a6a4d2e146102bd5780633e4f49e6146102c557806349c2a1a61461030657610142565b80630121b93f14610147578063031cf1d9146101665780630d68eb9e1461016e57806316e9eaec146101a3578063173a2b5c14610235575b600080fd5b6101646004803603602081101561015d57600080fd5b5035610485565b005b61016461073f565b6101916004803603604081101561018457600080fd5b50803590602001356107cf565b60408051918252519081900360200190f35b6101c0600480360360208110156101b957600080fd5b50356107ec565b6040805160208082528351818301528351919283929083019185019080838360005b838110156101fa5781810151838201526020016101e2565b50505050905090810190601f1680156102275780820380516001836020036101000a031916815260200191505b509250505060405180910390f35b610191610887565b6101646004803603606081101561025357600080fd5b506001600160a01b0381358116916020810135909116906040013561088d565b61027b61097a565b604080516001600160a01b039092168252519081900360200190f35b610191600480360360208110156102ad57600080fd5b50356001600160a01b0316610989565b61016461099b565b6102e2600480360360208110156102db57600080fd5b50356109b9565b604051808260018111156102f257fe5b60ff16815260200191505060405180910390f35b6101916004803603602081101561031c57600080fd5b81019060208101813564010000000081111561033757600080fd5b82018360208201111561034957600080fd5b8035906020019184600183028401116401000000008311171561036b57600080fd5b91908080601f0160208091040260200160405190810160405280939291908181526020018383808284376000920191909152509295506109ce945050505050565b61027b610cdc565b610191600480360360208110156103ca57600080fd5b50356001600160a01b0316610ceb565b610191600480360360408110156103f057600080fd5b50803590602001356001600160a01b0316610cfd565b6101646004803603602081101561041c57600080fd5b5035610d1a565b610164611049565b61027b61104b565b61019161105a565b6101646004803603602081101561045157600080fd5b5035611060565b610191611063565b61027b611069565b61027b6004803603602081101561047e57600080fd5b5035611078565b806000808281526042602052604090205460ff1660018111156104a457fe5b146104ee576040805162461bcd60e51b815260206004820152601560248201527450726f706f73616c2069736e27742061637469766560581b604482015290519081900360640190fd5b6040805460009081526037602090815282822033835290522054156105445760405162461bcd60e51b81526004018080602001828103825260218152602001806111f16021913960400191505060405180910390fd5b33600090815260336020526040902054610599576040805162461bcd60e51b81526020600482015260116024820152705573657220686173206e6f207374616b6560781b604482015290519081900360640190fd5b6001336000908152603860209081526040808320548352604290915290205460ff1660018111156105c657fe5b14806105df575033600090815260386020526040902054155b610630576040805162461bcd60e51b815260206004820152601b60248201527f557365722068617320616e206163746976652070726f706f7361210000000000604482015290519081900360640190fd5b604080546000908152603760209081528282203383529052205480156106a257336000908152603360209081526040808320548154845260368352818420858552909252909120546106879163ffffffff61109316565b60408054600090815260366020908152828220858352905220555b336000908152603360209081526040808320548154845260368352818420878552909252909120546106d99163ffffffff6110f016565b60408054600090815260366020818152838320888452815283832094909455825482526037845282822033835284528282208790558254825283528181206039548252909252808220546041548352912054811015610739576041546039555b50505050565b336000908152603860209081526040808320548352604290915281205460ff16600181111561076a57fe5b146107a65760405162461bcd60e51b81526004018080602001828103825260248152602001806112406024913960400191505060405180910390fd5b33600090815260386020908152604080832054835260429091529020805460ff19166001179055565b603660209081526000928352604080842090915290825290205481565b60356020908152600091825260409182902080548351601f60026000196101006001861615020190931692909204918201849004840281018401909452808452909183018282801561087f5780601f106108545761010080835404028352916020019161087f565b820191906000526020600020905b81548152906001019060200180831161086257829003601f168201915b505050505081565b603b5481565b600054610100900460ff16806108a657506108a6611151565b806108b4575060005460ff16155b6108ef5760405162461bcd60e51b815260040180806020018281038252602e815260200180611212602e913960400191505060405180910390fd5b600054610100900460ff1615801561091a576000805460ff1961ff0019909116610100171660011790555b603c80546001600160a01b038087166001600160a01b031992831617909255603d805492861692821683179055603e80548216909217909155603f805490911633179055603b8290558015610739576000805461ff001916905550505050565b603c546001600160a01b031681565b60386020526000908152604090205481565b6040546109af90600163ffffffff6110f016565b6040556000603955565b60426020526000908152604090205460ff1681565b603c5460408051636eb1769f60e11b815233600482015230602482015290516000926001600160a01b03169163dd62ed3e916044808301926020929190829003018186803b158015610a1f57600080fd5b505afa158015610a33573d6000803e3d6000fd5b505050506040513d6020811015610a4957600080fd5b5051603b5410610a9a576040805162461bcd60e51b81526020600482015260176024820152761d5b98589b19481d1bc81c1d5b1b081c995c5d5a5c9959604a1b604482015290519081900360640190fd5b603c54603b54604080516323b872dd60e01b81523360048201523060248201526044810192909252516001600160a01b03909216916323b872dd916064808201926020929091908290030181600087803b158015610af757600080fd5b505af1158015610b0b573d6000803e3d6000fd5b505050506040513d6020811015610b2157600080fd5b5050603c54603d54603b546040805163095ea7b360e01b81526001600160a01b039384166004820152602481019290925251919092169163095ea7b39160448083019260209291908290030181600087803b158015610b7f57600080fd5b505af1158015610b93573d6000803e3d6000fd5b505050506040513d6020811015610ba957600080fd5b5050603d54603c54603b5460408051636968703360e11b81526001600160a01b03938416600482015260248101929092526000604483018190529051929093169263d2d0e0669260648084019382900301818387803b158015610c0b57600080fd5b505af1158015610c1f573d6000803e3d6000fd5b5050603b54603a54610c399350915063ffffffff6110f016565b603a55603b5433600090815260336020526040902054610c5e9163ffffffff6110f016565b33600090815260336020526040902055604154610c8290600163ffffffff6110f016565b60008181526035602090815260409091208451929350610ca6929091850190611158565b50600081815260346020908152604080832080546001600160a01b0319163317905560429091529020805460ff19169055919050565b603e546001600160a01b031681565b60336020526000908152604090205481565b603760209081526000928352604080842090915290825290205481565b3360009081526033602052604090205415610d72576040805162461bcd60e51b81526020600482015260136024820152725573657220616c72656164792065786973747360681b604482015290519081900360640190fd5b3360009081526038602052604090205415610dd4576040805162461bcd60e51b815260206004820152601b60248201527f5573657220616c72656164792068617320612070726f706f73616c0000000000604482015290519081900360640190fd5b603c5460408051636eb1769f60e11b815233600482015230602482015290516001600160a01b039092169163dd62ed3e91604480820192602092909190829003018186803b158015610e2557600080fd5b505afa158015610e39573d6000803e3d6000fd5b505050506040513d6020811015610e4f57600080fd5b50518110610e9e576040805162461bcd60e51b81526020600482015260176024820152761d5b98589b19481d1bc81c1d5b1b081c995c5d5a5c9959604a1b604482015290519081900360640190fd5b603c54604080516323b872dd60e01b81523360048201523060248201526044810184905290516001600160a01b03909216916323b872dd916064808201926020929091908290030181600087803b158015610ef857600080fd5b505af1158015610f0c573d6000803e3d6000fd5b505050506040513d6020811015610f2257600080fd5b5050603c54603d546040805163095ea7b360e01b81526001600160a01b039283166004820152602481018590529051919092169163095ea7b39160448083019260209291908290030181600087803b158015610f7d57600080fd5b505af1158015610f91573d6000803e3d6000fd5b505050506040513d6020811015610fa757600080fd5b5050603d54603c5460408051636968703360e11b81526001600160a01b039283166004820152602481018590526000604482018190529151929093169263d2d0e066926064808301939282900301818387803b15801561100657600080fd5b505af115801561101a573d6000803e3d6000fd5b50503360009081526033602052604090208390555050603a54611043908263ffffffff6110f016565b603a5550565b565b603d546001600160a01b031681565b603a5481565b50565b60395481565b603f546001600160a01b031681565b6034602052600090815260409020546001600160a01b031681565b6000828211156110ea576040805162461bcd60e51b815260206004820152601e60248201527f536166654d6174683a207375627472616374696f6e206f766572666c6f770000604482015290519081900360640190fd5b50900390565b60008282018381101561114a576040805162461bcd60e51b815260206004820152601b60248201527f536166654d6174683a206164646974696f6e206f766572666c6f770000000000604482015290519081900360640190fd5b9392505050565b303b155b90565b828054600181600116156101000203166002900490600052602060002090601f016020900481019282601f1061119957805160ff19168380011785556111c6565b828001600101855582156111c6579182015b828111156111c65782518255916020019190600101906111ab565b506111d29291506111d6565b5090565b61115591905b808211156111d257600081556001016111dc56fe5573657220616c726561647920766f746564207468697320697465726174696f6e436f6e747261637420696e7374616e63652068617320616c7265616479206265656e20696e697469616c697a65645573657220646f65736e2774206861766520616e206163746976652070726f706f73616ca265627a7a72315820830cfbbef5201887aee22ca8bbe00171e5132b39a70cef6d996405bd54a36a2264736f6c63430005100032",
  "source": "pragma solidity 0.5.16;\n\n// import \"./interfaces/IERC20.sol\";\nimport \"./interfaces/IAaveLendingPool.sol\";\nimport \"./interfaces/IADai.sol\";\nimport \"@openzeppelin/contracts-ethereum-package/contracts/token/ERC20/ERC20.sol\";\n\ncontract NoLossDao is Initializable {\n    using SafeMath for uint256;\n\n    mapping(address => uint256) public depositedDai;\n    mapping(uint256 => address) public proposalOwner;\n    mapping(uint256 => string) public proposalDetails;\n    mapping(uint256 => mapping(uint256 => uint256)) public proposalVotes;\n\n    mapping(uint256 => mapping(address => uint256)) public usersNominatedProject; // Means user can only have one project.\n    mapping(address => uint256) public usersProposedProject;\n\n    uint256 public topProject;\n\n    uint256 public totalDepositedDai;\n    uint256 public proposalAmount;\n\n    IERC20 public daiContract;\n    IAaveLendingPool public aaveLendingContract;\n    IADai public adaiContract;\n    address public admin;\n\n    uint256 proposalIteration;\n\n    uint256 proposalId;\n    enum ProposalState {Active, Withdrawn} // Cooldown\n    mapping(uint256 => ProposalState) public state; // ProposalId to current state\n\n    modifier onlyAdmin() {\n        require(msg.sender == admin, \"Not admin\");\n        _;\n    }\n\n    modifier blankUser() {\n        require(depositedDai[msg.sender] == 0, \"User already exists\");\n        _;\n    }\n\n    modifier userStaked() {\n        require(depositedDai[msg.sender] > 0, \"User has no stake\");\n        _;\n    }\n\n    modifier noProposal() {\n        require(\n            usersProposedProject[msg.sender] == 0,\n            \"User already has a proposal\"\n        );\n        _;\n    }\n\n    modifier noVoteYet() {\n        require(\n            usersNominatedProject[proposalIteration][msg.sender] == 0,\n            \"User already voted this iteration\"\n        );\n        _;\n    }\n\n    modifier userHasActiveProposal() {\n        require(\n            state[usersProposedProject[msg.sender]] == ProposalState.Active,\n            \"User doesn't have an active proposal\"\n        );\n        _;\n    }\n\n    modifier userHasNoActiveProposal() {\n        require(\n            state[usersProposedProject[msg.sender]] ==\n                ProposalState.Withdrawn ||\n                usersProposedProject[msg.sender] == 0,\n            \"User has an active proposa!\"\n        );\n        _;\n    }\n\n    modifier proposalActive(uint256 propId) {\n        require(state[propId] == ProposalState.Active, \"Proposal isn't active\");\n        _;\n    }\n\n    function initialize(\n        address daiAddress,\n        address aaveAddress,\n        uint256 _proposalAmount\n    ) public initializer {\n        daiContract = IERC20(daiAddress);\n        aaveLendingContract = IAaveLendingPool(aaveAddress);\n        adaiContract = IADai(aaveAddress);\n        admin = msg.sender;\n        proposalAmount = _proposalAmount;\n    }\n\n    function deposit(uint256 amount) public blankUser noProposal {\n        // actions\n        if (amount >= daiContract.allowance(msg.sender, address(this))) {\n            revert(\"unable to pull required\");\n        }\n        daiContract.transferFrom(msg.sender, address(this), amount);\n        daiContract.approve(address(aaveLendingContract), amount);\n        aaveLendingContract.deposit(\n            address(daiContract), // This should be our address not the DAI contract?\n            amount,\n            0\n        );\n\n        //setting values\n        depositedDai[msg.sender] = amount;\n        totalDepositedDai = totalDepositedDai.add(amount);\n\n    }\n\n    function withdrawFull(uint256 amount) public {\n        // Participant withdraws all there DAI and exits our system :(\n        // Check the user exists in our system\n        // Check the amount they have deposited\n        // Exchange aDAI to DAI for this amount\n        // Send them back their dai\n        // Remove their amount of dai from the total we have\n        // IMPORTANT, remove their vote amount...\n    }\n\n    function createProposal(string memory proposalHash)\n        public\n        returns (uint256 newProposalId)\n    {\n        if (\n            proposalAmount >= daiContract.allowance(msg.sender, address(this))\n        ) {\n            revert(\"unable to pull required\");\n        }\n        daiContract.transferFrom(msg.sender, address(this), proposalAmount);\n\n        daiContract.approve(address(aaveLendingContract), proposalAmount);\n\n        aaveLendingContract.deposit(\n            address(daiContract), // This should be our address not the DAI contract?\n            proposalAmount,\n            0 /* We should research this referal code stuff... https://developers.aave.com/#referral-program */\n        );\n\n        totalDepositedDai = totalDepositedDai.add(proposalAmount);\n        depositedDai[msg.sender] = depositedDai[msg.sender].add(proposalAmount);\n\n        // So the first proposal will have an ID of 1\n        newProposalId = proposalId.add(1);\n\n        proposalDetails[newProposalId] = proposalHash;\n        proposalOwner[newProposalId] = msg.sender;\n        state[newProposalId] = ProposalState.Active;\n\n    }\n\n    function withdrawProposal() public userHasActiveProposal {\n        //This can only be executed after every cycle\n        uint256 projectId = usersProposedProject[msg.sender];\n        state[projectId] = ProposalState.Withdrawn;\n        // TODO\n        // Remove proposalAmount from aDAI\n        // Convert to DAI\n        // Send back to owner\n    }\n\n    function vote(uint256 proposalIdToVoteFor)\n        public\n        proposalActive(proposalIdToVoteFor)\n        noVoteYet\n        userStaked\n        userHasNoActiveProposal\n    {\n        // Check if the msg.sender has given approval rights to our steward to vote on their behalf\n        // Add the amount of votes to the respective ProposalID (default is 0 on deposit)\n        // Check the proposal is active\n        uint256 currentProposal = usersNominatedProject[proposalIteration][msg\n            .sender];\n        if (currentProposal != 0) {\n            proposalVotes[proposalIteration][currentProposal] = proposalVotes[proposalIteration][currentProposal]\n                .sub(depositedDai[msg.sender]);\n        }\n\n        proposalVotes[proposalIteration][proposalIdToVoteFor] = proposalVotes[proposalIteration][proposalIdToVoteFor]\n            .add(depositedDai[msg.sender]);\n\n        usersNominatedProject[proposalIteration][msg\n            .sender] = proposalIdToVoteFor;\n\n        uint256 topProjectVotes = proposalVotes[proposalIteration][topProject];\n\n        // TODO:: if they are equal there is a problem (we must handle this!!)\n        if (proposalVotes[proposalIteration][proposalId] > topProjectVotes) {\n            topProject = proposalId;\n        }\n    }\n\n    function distributeFunds() public {\n        // On a *whatever we decide basis* the funds are distributed to the winning project\n        // E.g. every 2 weeks, the project with the most votes gets the generated interest.\n\n        proposalIteration = proposalIteration.add(1);\n        topProject = 0;\n    }\n\n    function delegateVoting() public {\n        //TODO: MUCH LATER\n        // Allow the steward (US) to vote on their behalf through scraping twitter\n    }\n}\n",
  "sourcePath": "/home/jasoons/Documents/temp/dao-contracts/contracts/NoLossDao.sol",
  "compiler": {
    "name": "solc",
    "version": "0.5.16+commit.9c3226ce.Emscripten.clang"
  },
  "schemaVersion": "3.0.23",
  "updatedAt": "2020-02-29T17:17:57.818Z",
  "devdoc": {
    "methods": {}
  },
  "userdoc": {
    "methods": {}
  }
}