{
  "contractName": "NoLossDao",
  "abi": [
    {
      "constant": true,
      "inputs": [],
      "name": "aaveLendingContract",
      "outputs": [
        {
          "internalType": "contract IAaveLendingPool",
          "name": "",
          "type": "address"
        }
      ],
      "payable": false,
      "stateMutability": "view",
      "type": "function"
    },
    {
      "constant": true,
      "inputs": [],
      "name": "adaiContract",
      "outputs": [
        {
          "internalType": "contract IADai",
          "name": "",
          "type": "address"
        }
      ],
      "payable": false,
      "stateMutability": "view",
      "type": "function"
    },
    {
      "constant": true,
      "inputs": [],
      "name": "admin",
      "outputs": [
        {
          "internalType": "address",
          "name": "",
          "type": "address"
        }
      ],
      "payable": false,
      "stateMutability": "view",
      "type": "function"
    },
    {
      "constant": true,
      "inputs": [],
      "name": "daiContract",
      "outputs": [
        {
          "internalType": "contract IERC20",
          "name": "",
          "type": "address"
        }
      ],
      "payable": false,
      "stateMutability": "view",
      "type": "function"
    },
    {
      "constant": true,
      "inputs": [
        {
          "internalType": "address",
          "name": "",
          "type": "address"
        }
      ],
      "name": "depositedDai",
      "outputs": [
        {
          "internalType": "uint256",
          "name": "",
          "type": "uint256"
        }
      ],
      "payable": false,
      "stateMutability": "view",
      "type": "function"
    },
    {
      "constant": true,
      "inputs": [],
      "name": "proposalAmount",
      "outputs": [
        {
          "internalType": "uint256",
          "name": "",
          "type": "uint256"
        }
      ],
      "payable": false,
      "stateMutability": "view",
      "type": "function"
    },
    {
      "constant": true,
      "inputs": [
        {
          "internalType": "uint256",
          "name": "",
          "type": "uint256"
        }
      ],
      "name": "proposalDetails",
      "outputs": [
        {
          "internalType": "string",
          "name": "",
          "type": "string"
        }
      ],
      "payable": false,
      "stateMutability": "view",
      "type": "function"
    },
    {
      "constant": true,
      "inputs": [
        {
          "internalType": "uint256",
          "name": "",
          "type": "uint256"
        }
      ],
      "name": "proposalOwner",
      "outputs": [
        {
          "internalType": "address",
          "name": "",
          "type": "address"
        }
      ],
      "payable": false,
      "stateMutability": "view",
      "type": "function"
    },
    {
      "constant": true,
      "inputs": [
        {
          "internalType": "uint256",
          "name": "",
          "type": "uint256"
        },
        {
          "internalType": "uint256",
          "name": "",
          "type": "uint256"
        }
      ],
      "name": "proposalVotes",
      "outputs": [
        {
          "internalType": "uint256",
          "name": "",
          "type": "uint256"
        }
      ],
      "payable": false,
      "stateMutability": "view",
      "type": "function"
    },
    {
      "constant": true,
      "inputs": [
        {
          "internalType": "uint256",
          "name": "",
          "type": "uint256"
        }
      ],
      "name": "state",
      "outputs": [
        {
          "internalType": "enum NoLossDao.PropsalState",
          "name": "",
          "type": "uint8"
        }
      ],
      "payable": false,
      "stateMutability": "view",
      "type": "function"
    },
    {
      "constant": true,
      "inputs": [],
      "name": "topProject",
      "outputs": [
        {
          "internalType": "uint256",
          "name": "",
          "type": "uint256"
        }
      ],
      "payable": false,
      "stateMutability": "view",
      "type": "function"
    },
    {
      "constant": true,
      "inputs": [],
      "name": "totalDepositedDai",
      "outputs": [
        {
          "internalType": "uint256",
          "name": "",
          "type": "uint256"
        }
      ],
      "payable": false,
      "stateMutability": "view",
      "type": "function"
    },
    {
      "constant": true,
      "inputs": [
        {
          "internalType": "address",
          "name": "",
          "type": "address"
        }
      ],
      "name": "usersNominatedProject",
      "outputs": [
        {
          "internalType": "uint256",
          "name": "",
          "type": "uint256"
        }
      ],
      "payable": false,
      "stateMutability": "view",
      "type": "function"
    },
    {
      "constant": true,
      "inputs": [
        {
          "internalType": "address",
          "name": "",
          "type": "address"
        }
      ],
      "name": "usersProposedProject",
      "outputs": [
        {
          "internalType": "uint256",
          "name": "",
          "type": "uint256"
        }
      ],
      "payable": false,
      "stateMutability": "view",
      "type": "function"
    },
    {
      "constant": false,
      "inputs": [
        {
          "internalType": "address",
          "name": "daiAddress",
          "type": "address"
        },
        {
          "internalType": "address",
          "name": "aaveAddress",
          "type": "address"
        },
        {
          "internalType": "uint256",
          "name": "_proposalAmount",
          "type": "uint256"
        },
        {
          "internalType": "address",
          "name": "_admin",
          "type": "address"
        }
      ],
      "name": "initialize",
      "outputs": [],
      "payable": false,
      "stateMutability": "nonpayable",
      "type": "function"
    },
    {
      "constant": false,
      "inputs": [
        {
          "internalType": "uint256",
          "name": "amount",
          "type": "uint256"
        }
      ],
      "name": "deposit",
      "outputs": [],
      "payable": false,
      "stateMutability": "nonpayable",
      "type": "function"
    },
    {
      "constant": false,
      "inputs": [
        {
          "internalType": "uint256",
          "name": "amount",
          "type": "uint256"
        }
      ],
      "name": "withdrawFull",
      "outputs": [],
      "payable": false,
      "stateMutability": "nonpayable",
      "type": "function"
    },
    {
      "constant": false,
      "inputs": [
        {
          "internalType": "string",
          "name": "proposalHash",
          "type": "string"
        }
      ],
      "name": "createProposal",
      "outputs": [
        {
          "internalType": "uint256",
          "name": "newProposalId",
          "type": "uint256"
        }
      ],
      "payable": false,
      "stateMutability": "nonpayable",
      "type": "function"
    },
    {
      "constant": false,
      "inputs": [],
      "name": "withdrawProposal",
      "outputs": [],
      "payable": false,
      "stateMutability": "nonpayable",
      "type": "function"
    },
    {
      "constant": false,
      "inputs": [
        {
          "internalType": "uint256",
          "name": "proposalIdToVoteFor",
          "type": "uint256"
        }
      ],
      "name": "vote",
      "outputs": [],
      "payable": false,
      "stateMutability": "nonpayable",
      "type": "function"
    },
    {
      "constant": false,
      "inputs": [],
      "name": "distributeFunds",
      "outputs": [],
      "payable": false,
      "stateMutability": "nonpayable",
      "type": "function"
    },
    {
      "constant": false,
      "inputs": [],
      "name": "delegateVoting",
      "outputs": [],
      "payable": false,
      "stateMutability": "nonpayable",
      "type": "function"
    }
  ],
  "bytecode": "0x608060405234801561001057600080fd5b50610fdf806100206000396000f3fe608060405234801561001057600080fd5b50600436106101425760003560e01c806382a0ca9c116100b8578063c68dc6ad1161007c578063c68dc6ad14610423578063d1c22c3b1461042b578063d8a3239f14610433578063f1018ae914610450578063f851a44014610458578063fcde99251461046057610142565b806382a0ca9c1461037e5780638366e987146103a4578063b6b55f25146103ca578063b81d858a14610166578063be203094146103e757610142565b80632ce8b9131161010a5780632ce8b9131461023d57806339ab499b146102615780633a6a4d2e146102875780633e4f49e61461028f57806349c2a1a6146102d05780636b38def21461037657610142565b80630121b93f14610147578063031cf1d9146101665780630d68eb9e1461016e57806316e9eaec146101a3578063173a2b5c14610235575b600080fd5b6101646004803603602081101561015d57600080fd5b503561047d565b005b610164610578565b6101916004803603604081101561018457600080fd5b508035906020013561057a565b60408051918252519081900360200190f35b6101c0600480360360208110156101b957600080fd5b5035610597565b6040805160208082528351818301528351919283929083019185019080838360005b838110156101fa5781810151838201526020016101e2565b50505050905090810190601f1680156102275780820380516001836020036101000a031916815260200191505b509250505060405180910390f35b610191610632565b610245610638565b604080516001600160a01b039092168252519081900360200190f35b6101916004803603602081101561027757600080fd5b50356001600160a01b0316610647565b610164610659565b6102ac600480360360208110156102a557600080fd5b5035610677565b604051808260018111156102bc57fe5b60ff16815260200191505060405180910390f35b610191600480360360208110156102e657600080fd5b81019060208101813564010000000081111561030157600080fd5b82018360208201111561031357600080fd5b8035906020019184600183028401116401000000008311171561033557600080fd5b91908080601f01602080910402602001604051908101604052809392919081815260200183838082843760009201919091525092955061068c945050505050565b610245610988565b6101916004803603602081101561039457600080fd5b50356001600160a01b0316610997565b610191600480360360208110156103ba57600080fd5b50356001600160a01b03166109a9565b610164600480360360208110156103e057600080fd5b50356109bb565b610164600480360360808110156103fd57600080fd5b506001600160a01b03813581169160208101358216916040820135916060013516610ce8565b610245610dd7565b610191610de6565b6101646004803603602081101561044957600080fd5b5035610dec565b610191610def565b610245610df5565b6102456004803603602081101561047657600080fd5b5035610e04565b3360009081526037602052604090205480156104e557336000908152603360209081526040808320548154845260368352818420858552909252909120546104ca9163ffffffff610e1f16565b60408054600090815260366020908152828220858352905220555b3360009081526033602090815260408083205481548452603683528184208685529092529091205461051c9163ffffffff610e7c16565b60408054600090815260366020818152838320878452815283832094909455338252603784528282208690558254825283528181206039548252909252808220546041548352912054811015610573576041546039555b505050565b565b603660209081526000928352604080842090915290825290205481565b60356020908152600091825260409182902080548351601f60026000196101006001861615020190931692909204918201849004840281018401909452808452909183018282801561062a5780601f106105ff5761010080835404028352916020019161062a565b820191906000526020600020905b81548152906001019060200180831161060d57829003601f168201915b505050505081565b603b5481565b603c546001600160a01b031681565b60386020526000908152604090205481565b60405461066d90600163ffffffff610e7c16565b6040556000603955565b60426020526000908152604090205460ff1681565b603c5460408051636eb1769f60e11b815233600482015230602482015290516000926001600160a01b03169163dd62ed3e916044808301926020929190829003018186803b1580156106dd57600080fd5b505afa1580156106f1573d6000803e3d6000fd5b505050506040513d602081101561070757600080fd5b5051603b5410610758576040805162461bcd60e51b81526020600482015260176024820152761d5b98589b19481d1bc81c1d5b1b081c995c5d5a5c9959604a1b604482015290519081900360640190fd5b603c54603b54604080516323b872dd60e01b81523360048201523060248201526044810192909252516001600160a01b03909216916323b872dd916064808201926020929091908290030181600087803b1580156107b557600080fd5b505af11580156107c9573d6000803e3d6000fd5b505050506040513d60208110156107df57600080fd5b5050603c54603d54603b546040805163095ea7b360e01b81526001600160a01b039384166004820152602481019290925251919092169163095ea7b39160448083019260209291908290030181600087803b15801561083d57600080fd5b505af1158015610851573d6000803e3d6000fd5b505050506040513d602081101561086757600080fd5b5050603d54603c54603b5460408051636968703360e11b81526001600160a01b03938416600482015260248101929092526000604483018190529051929093169263d2d0e0669260648084019382900301818387803b1580156108c957600080fd5b505af11580156108dd573d6000803e3d6000fd5b5050603b54603a546108f79350915063ffffffff610e7c16565b603a55603b543360009081526033602052604090205461091c9163ffffffff610e7c16565b3360009081526033602052604090205560415461094090600163ffffffff610e7c16565b60008181526035602090815260409091208451929350610964929091850190610ee4565b50600081815260346020526040902080546001600160a01b03191633179055919050565b603e546001600160a01b031681565b60336020526000908152604090205481565b60376020526000908152604090205481565b3360009081526033602052604090205415610a11576040805162461bcd60e51b81526020600482015260116024820152705573657220686173206e6f207374616b6560781b604482015290519081900360640190fd5b3360009081526038602052604090205415610a73576040805162461bcd60e51b815260206004820152601c60248201527f5573657220686173206e6f2063757272656e742070726f706f73616c00000000604482015290519081900360640190fd5b603c5460408051636eb1769f60e11b815233600482015230602482015290516001600160a01b039092169163dd62ed3e91604480820192602092909190829003018186803b158015610ac457600080fd5b505afa158015610ad8573d6000803e3d6000fd5b505050506040513d6020811015610aee57600080fd5b50518110610b3d576040805162461bcd60e51b81526020600482015260176024820152761d5b98589b19481d1bc81c1d5b1b081c995c5d5a5c9959604a1b604482015290519081900360640190fd5b603c54604080516323b872dd60e01b81523360048201523060248201526044810184905290516001600160a01b03909216916323b872dd916064808201926020929091908290030181600087803b158015610b9757600080fd5b505af1158015610bab573d6000803e3d6000fd5b505050506040513d6020811015610bc157600080fd5b5050603c54603d546040805163095ea7b360e01b81526001600160a01b039283166004820152602481018590529051919092169163095ea7b39160448083019260209291908290030181600087803b158015610c1c57600080fd5b505af1158015610c30573d6000803e3d6000fd5b505050506040513d6020811015610c4657600080fd5b5050603d54603c5460408051636968703360e11b81526001600160a01b039283166004820152602481018590526000604482018190529151929093169263d2d0e066926064808301939282900301818387803b158015610ca557600080fd5b505af1158015610cb9573d6000803e3d6000fd5b50503360009081526033602052604090208390555050603a54610ce2908263ffffffff610e7c16565b603a5550565b600054610100900460ff1680610d015750610d01610edd565b80610d0f575060005460ff16155b610d4a5760405162461bcd60e51b815260040180806020018281038252602e815260200180610f7d602e913960400191505060405180910390fd5b600054610100900460ff16158015610d75576000805460ff1961ff0019909116610100171660011790555b603c80546001600160a01b038088166001600160a01b031992831617909255603d805492871692821683179055603e80548216909217909155603f805490911633179055603b8390558015610dd0576000805461ff00191690555b5050505050565b603d546001600160a01b031681565b603a5481565b50565b60395481565b603f546001600160a01b031681565b6034602052600090815260409020546001600160a01b031681565b600082821115610e76576040805162461bcd60e51b815260206004820152601e60248201527f536166654d6174683a207375627472616374696f6e206f766572666c6f770000604482015290519081900360640190fd5b50900390565b600082820183811015610ed6576040805162461bcd60e51b815260206004820152601b60248201527f536166654d6174683a206164646974696f6e206f766572666c6f770000000000604482015290519081900360640190fd5b9392505050565b303b155b90565b828054600181600116156101000203166002900490600052602060002090601f016020900481019282601f10610f2557805160ff1916838001178555610f52565b82800160010185558215610f52579182015b82811115610f52578251825591602001919060010190610f37565b50610f5e929150610f62565b5090565b610ee191905b80821115610f5e5760008155600101610f6856fe436f6e747261637420696e7374616e63652068617320616c7265616479206265656e20696e697469616c697a6564a265627a7a7231582063b0c0a15d60c2ad1ea5dc7120d1f16a185536461b9d6dc4109e5f70d9bf03ab64736f6c63430005100032",
  "source": "pragma solidity 0.5.16;\n\n// import \"./interfaces/IERC20.sol\";\nimport \"./interfaces/IAaveLendingPool.sol\";\nimport \"./interfaces/IADai.sol\";\nimport \"@openzeppelin/contracts-ethereum-package/contracts/token/ERC20/ERC20.sol\";\n\ncontract NoLossDao is Initializable {\n    using SafeMath for uint256;\n\n    mapping(address => uint256) public depositedDai;\n    mapping(uint256 => address) public proposalOwner;\n    mapping(uint256 => string) public proposalDetails;\n    mapping(uint256 => mapping(uint256 => uint256)) public proposalVotes;\n\n    mapping(address => uint256) public usersNominatedProject; // Means user can only have one project.\n    mapping(address => uint256) public usersProposedProject;\n\n    uint256 public topProject;\n\n    uint256 public totalDepositedDai;\n    uint256 public proposalAmount;\n\n    IERC20 public daiContract;\n    IAaveLendingPool public aaveLendingContract;\n    IADai public adaiContract;\n    address public admin;\n\n    uint256 proposalIteration;\n\n    uint256 proposalId;\n    enum PropsalState {Active, Withdrawn} // Cooldown\n    mapping(uint256 => PropsalState) public state; // ProposalId to current state\n\n    modifier onlyAdmin() {\n        require(msg.sender == admin, \"Not admin\");\n        _;\n    }\n\n    modifier blankUser() {\n        require(depositedDai[msg.sender] == 0, \"User has no stake\");\n        _;\n    }\n\n    modifier noProposal() {\n        require(\n            usersProposedProject[msg.sender] == 0,\n            \"User has no current proposal\"\n        );\n        _;\n    }\n\n    function initialize(\n        address daiAddress,\n        address aaveAddress,\n        uint256 _proposalAmount, //Likely 50DAI to start with\n        address _admin\n    ) public initializer {\n        daiContract = IERC20(daiAddress);\n        aaveLendingContract = IAaveLendingPool(aaveAddress);\n        adaiContract = IADai(aaveAddress);\n        admin = msg.sender;\n        proposalAmount = _proposalAmount;\n    }\n\n    function deposit(uint256 amount) public blankUser noProposal {\n        // actions\n        if (amount >= daiContract.allowance(msg.sender, address(this))) {\n            revert(\"unable to pull required\");\n        }\n        daiContract.transferFrom(msg.sender, address(this), amount);\n        daiContract.approve(address(aaveLendingContract), amount);\n        aaveLendingContract.deposit(\n            address(daiContract), // This should be our address not the DAI contract?\n            amount,\n            0\n        );\n\n        //setting values\n        depositedDai[msg.sender] = amount;\n        totalDepositedDai = totalDepositedDai.add(amount);\n\n    }\n\n    function withdrawFull(uint256 amount) public {\n        // Participant withdraws all there DAI and exits our system :(\n        // Check the user exists in our system\n        // Check the amount they have deposited\n        // Exchange aDAI to DAI for this amount\n        // Send them back their dai\n        // Remove their amount of dai from the total we have\n        // IMPORTANT, remove their vote amount...\n    }\n\n    function createProposal(string memory proposalHash)\n        public\n        returns (uint256 newProposalId)\n    {\n        if (\n            proposalAmount >= daiContract.allowance(msg.sender, address(this))\n        ) {\n            revert(\"unable to pull required\");\n        }\n        daiContract.transferFrom(msg.sender, address(this), proposalAmount);\n\n        daiContract.approve(address(aaveLendingContract), proposalAmount);\n\n        aaveLendingContract.deposit(\n            address(daiContract), // This should be our address not the DAI contract?\n            proposalAmount,\n            0 /* We should research this referal code stuff... https://developers.aave.com/#referral-program */\n        );\n\n        totalDepositedDai = totalDepositedDai.add(proposalAmount);\n        depositedDai[msg.sender] = depositedDai[msg.sender].add(proposalAmount);\n\n        // So the first proposal will have an ID of 1\n        newProposalId = proposalId.add(1);\n\n        proposalDetails[newProposalId] = proposalHash;\n\n        proposalOwner[newProposalId] = msg.sender;\n    }\n\n    function withdrawProposal() public {\n        // Check if the msg.sender actually has a proposal\n        // msg.sender can only have one proposal\n        // If they revoke this porposal it becomes null\n        // 1) set proposalDetails[newProposalId] to null?\n        // 2) Send deposit amount of 'proposalAmount' back to msg.sender\n        // 3) Make all the votes cast for this proposal null and void?\n        // 4) proposal should have states, active, withdrawn, cooldown etc...\n    }\n\n    function vote(uint256 proposalIdToVoteFor) public {\n        // Check the msg.sender has stake in the system\n        // Check the msg.sender does not have an active or cooldown proposal\n        // Check if the msg.sender has voted before (If so we want them to only vote once a week)\n        // This is since, we will use the interest to pay gas fees for voting on their behalf?\n        // Check if the msg.sender has given approval rights to our steward to vote on their behalf\n        // Add the amount of votes to the respective ProposalID (default is 0 on deposit)\n\n        uint256 currentProposal = usersNominatedProject[msg.sender];\n        if (currentProposal != 0) {\n            proposalVotes[proposalIteration][currentProposal] = proposalVotes[proposalIteration][currentProposal]\n                .sub(depositedDai[msg.sender]);\n        }\n\n        proposalVotes[proposalIteration][proposalIdToVoteFor] = proposalVotes[proposalIteration][proposalIdToVoteFor]\n            .add(depositedDai[msg.sender]);\n\n        usersNominatedProject[msg.sender] = proposalIdToVoteFor;\n\n        uint256 topProjectVotes = proposalVotes[proposalIteration][topProject];\n\n        // TODO:: if they are equal there is a problem (we must handle this!!)\n        if (proposalVotes[proposalIteration][proposalId] > topProjectVotes) {\n            topProject = proposalId;\n        }\n    }\n\n    function distributeFunds() public {\n        // On a *whatever we decide basis* the funds are distributed to the winning project\n        // E.g. every 2 weeks, the project with the most votes gets the generated interest.\n\n        proposalIteration = proposalIteration.add(1);\n        topProject = 0;\n    }\n\n    function delegateVoting() public {\n        //TODO: MUCH LATER\n        // Allow the steward (US) to vote on their behalf through scraping twitter\n    }\n}\n",
  "sourcePath": "/home/jasoons/Documents/temp/dao-contracts/contracts/NoLossDao.sol",
  "compiler": {
    "name": "solc",
    "version": "0.5.16+commit.9c3226ce.Emscripten.clang"
  },
  "schemaVersion": "3.0.23",
  "updatedAt": "2020-02-29T16:15:44.412Z",
  "devdoc": {
    "methods": {}
  },
  "userdoc": {
    "methods": {}
  }
}